{
  "_format": "hh-sol-artifact-1",
  "contractName": "FakeUSDC",
  "sourceName": "contracts/FakeUSDC.sol",
  "abi": [
    {
      "inputs": [],
      "stateMutability": "nonpayable",
      "type": "constructor"
    },
    {
      "anonymous": false,
      "inputs": [
        {
          "indexed": true,
          "internalType": "address",
          "name": "owner",
          "type": "address"
        },
        {
          "indexed": true,
          "internalType": "address",
          "name": "spender",
          "type": "address"
        },
        {
          "indexed": false,
          "internalType": "uint256",
          "name": "value",
          "type": "uint256"
        }
      ],
      "name": "Approval",
      "type": "event"
    },
    {
      "anonymous": false,
      "inputs": [
        {
          "indexed": true,
          "internalType": "address",
          "name": "previousOwner",
          "type": "address"
        },
        {
          "indexed": true,
          "internalType": "address",
          "name": "newOwner",
          "type": "address"
        }
      ],
      "name": "OwnershipTransferred",
      "type": "event"
    },
    {
      "anonymous": false,
      "inputs": [
        {
          "indexed": true,
          "internalType": "address",
          "name": "from",
          "type": "address"
        },
        {
          "indexed": true,
          "internalType": "address",
          "name": "to",
          "type": "address"
        },
        {
          "indexed": false,
          "internalType": "uint256",
          "name": "value",
          "type": "uint256"
        }
      ],
      "name": "Transfer",
      "type": "event"
    },
    {
      "inputs": [
        {
          "internalType": "address",
          "name": "owner",
          "type": "address"
        },
        {
          "internalType": "address",
          "name": "spender",
          "type": "address"
        }
      ],
      "name": "allowance",
      "outputs": [
        {
          "internalType": "uint256",
          "name": "",
          "type": "uint256"
        }
      ],
      "stateMutability": "view",
      "type": "function"
    },
    {
      "inputs": [
        {
          "internalType": "address",
          "name": "spender",
          "type": "address"
        },
        {
          "internalType": "uint256",
          "name": "amount",
          "type": "uint256"
        }
      ],
      "name": "approve",
      "outputs": [
        {
          "internalType": "bool",
          "name": "",
          "type": "bool"
        }
      ],
      "stateMutability": "nonpayable",
      "type": "function"
    },
    {
      "inputs": [
        {
          "internalType": "address",
          "name": "account",
          "type": "address"
        }
      ],
      "name": "balanceOf",
      "outputs": [
        {
          "internalType": "uint256",
          "name": "",
          "type": "uint256"
        }
      ],
      "stateMutability": "view",
      "type": "function"
    },
    {
      "inputs": [],
      "name": "decimals",
      "outputs": [
        {
          "internalType": "uint8",
          "name": "",
          "type": "uint8"
        }
      ],
      "stateMutability": "view",
      "type": "function"
    },
    {
      "inputs": [
        {
          "internalType": "address",
          "name": "spender",
          "type": "address"
        },
        {
          "internalType": "uint256",
          "name": "subtractedValue",
          "type": "uint256"
        }
      ],
      "name": "decreaseAllowance",
      "outputs": [
        {
          "internalType": "bool",
          "name": "",
          "type": "bool"
        }
      ],
      "stateMutability": "nonpayable",
      "type": "function"
    },
    {
      "inputs": [
        {
          "internalType": "address",
          "name": "spender",
          "type": "address"
        },
        {
          "internalType": "uint256",
          "name": "addedValue",
          "type": "uint256"
        }
      ],
      "name": "increaseAllowance",
      "outputs": [
        {
          "internalType": "bool",
          "name": "",
          "type": "bool"
        }
      ],
      "stateMutability": "nonpayable",
      "type": "function"
    },
    {
      "inputs": [],
      "name": "mint",
      "outputs": [],
      "stateMutability": "nonpayable",
      "type": "function"
    },
    {
      "inputs": [],
      "name": "name",
      "outputs": [
        {
          "internalType": "string",
          "name": "",
          "type": "string"
        }
      ],
      "stateMutability": "view",
      "type": "function"
    },
    {
      "inputs": [],
      "name": "owner",
      "outputs": [
        {
          "internalType": "address",
          "name": "",
          "type": "address"
        }
      ],
      "stateMutability": "view",
      "type": "function"
    },
    {
      "inputs": [],
      "name": "renounceOwnership",
      "outputs": [],
      "stateMutability": "nonpayable",
      "type": "function"
    },
    {
      "inputs": [],
      "name": "symbol",
      "outputs": [
        {
          "internalType": "string",
          "name": "",
          "type": "string"
        }
      ],
      "stateMutability": "view",
      "type": "function"
    },
    {
      "inputs": [],
      "name": "totalSupply",
      "outputs": [
        {
          "internalType": "uint256",
          "name": "",
          "type": "uint256"
        }
      ],
      "stateMutability": "view",
      "type": "function"
    },
    {
      "inputs": [
        {
          "internalType": "address",
          "name": "to",
          "type": "address"
        },
        {
          "internalType": "uint256",
          "name": "amount",
          "type": "uint256"
        }
      ],
      "name": "transfer",
      "outputs": [
        {
          "internalType": "bool",
          "name": "",
          "type": "bool"
        }
      ],
      "stateMutability": "nonpayable",
      "type": "function"
    },
    {
      "inputs": [
        {
          "internalType": "address",
          "name": "from",
          "type": "address"
        },
        {
          "internalType": "address",
          "name": "to",
          "type": "address"
        },
        {
          "internalType": "uint256",
          "name": "amount",
          "type": "uint256"
        }
      ],
      "name": "transferFrom",
      "outputs": [
        {
          "internalType": "bool",
          "name": "",
          "type": "bool"
        }
      ],
      "stateMutability": "nonpayable",
      "type": "function"
    },
    {
      "inputs": [
        {
          "internalType": "address",
          "name": "newOwner",
          "type": "address"
        }
      ],
      "name": "transferOwnership",
      "outputs": [],
      "stateMutability": "nonpayable",
      "type": "function"
    },
    {
      "inputs": [
        {
          "internalType": "uint256",
          "name": "_amount",
          "type": "uint256"
        }
      ],
      "name": "updateMintAmount",
      "outputs": [],
      "stateMutability": "nonpayable",
      "type": "function"
    }
  ],
  "bytecode": "0x60806040526302faf0806006553480156200001957600080fd5b506040518060400160405280600881526020017f46616b65555344430000000000000000000000000000000000000000000000008152506040518060400160405280600581526020017f665553444300000000000000000000000000000000000000000000000000000081525081600390805190602001906200009e929190620001ae565b508060049080519060200190620000b7929190620001ae565b505050620000da620000ce620000e060201b60201c565b620000e860201b60201c565b620002c3565b600033905090565b6000600560009054906101000a900473ffffffffffffffffffffffffffffffffffffffff16905081600560006101000a81548173ffffffffffffffffffffffffffffffffffffffff021916908373ffffffffffffffffffffffffffffffffffffffff1602179055508173ffffffffffffffffffffffffffffffffffffffff168173ffffffffffffffffffffffffffffffffffffffff167f8be0079c531659141344cd1fd0a4f28419497f9722a3daafe3b4186f6b6457e060405160405180910390a35050565b828054620001bc906200025e565b90600052602060002090601f016020900481019282620001e057600085556200022c565b82601f10620001fb57805160ff19168380011785556200022c565b828001600101855582156200022c579182015b828111156200022b5782518255916020019190600101906200020e565b5b5090506200023b91906200023f565b5090565b5b808211156200025a57600081600090555060010162000240565b5090565b600060028204905060018216806200027757607f821691505b602082108114156200028e576200028d62000294565b5b50919050565b7f4e487b7100000000000000000000000000000000000000000000000000000000600052602260045260246000fd5b6119bc80620002d36000396000f3fe608060405234801561001057600080fd5b50600436106101005760003560e01c8063715018a611610097578063a457c2d711610066578063a457c2d71461028b578063a9059cbb146102bb578063dd62ed3e146102eb578063f2fde38b1461031b57610100565b8063715018a6146102295780637676a44a146102335780638da5cb5b1461024f57806395d89b411461026d57610100565b806323b872dd116100d357806323b872dd1461017b578063313ce567146101ab57806339509351146101c957806370a08231146101f957610100565b806306fdde0314610105578063095ea7b3146101235780631249c58b1461015357806318160ddd1461015d575b600080fd5b61010d610337565b60405161011a9190611312565b60405180910390f35b61013d60048036038101906101389190611081565b6103c9565b60405161014a91906112f7565b60405180910390f35b61015b6103ec565b005b6101656104cd565b6040516101729190611494565b60405180910390f35b61019560048036038101906101909190611032565b6104d7565b6040516101a291906112f7565b60405180910390f35b6101b3610506565b6040516101c091906114af565b60405180910390f35b6101e360048036038101906101de9190611081565b61050f565b6040516101f091906112f7565b60405180910390f35b610213600480360381019061020e9190610fcd565b610546565b6040516102209190611494565b60405180910390f35b61023161058e565b005b61024d600480360381019061024891906110bd565b6105a2565b005b6102576105b4565b60405161026491906112dc565b60405180910390f35b6102756105de565b6040516102829190611312565b60405180910390f35b6102a560048036038101906102a09190611081565b610670565b6040516102b291906112f7565b60405180910390f35b6102d560048036038101906102d09190611081565b6106e7565b6040516102e291906112f7565b60405180910390f35b61030560048036038101906103009190610ff6565b61070a565b6040516103129190611494565b60405180910390f35b61033560048036038101906103309190610fcd565b610791565b005b606060038054610346906115c4565b80601f0160208091040260200160405190810160405280929190818152602001828054610372906115c4565b80156103bf5780601f10610394576101008083540402835291602001916103bf565b820191906000526020600020905b8154815290600101906020018083116103a257829003601f168201915b5050505050905090565b6000806103d4610815565b90506103e181858561081d565b600191505092915050565b600760003373ffffffffffffffffffffffffffffffffffffffff1673ffffffffffffffffffffffffffffffffffffffff1681526020019081526020016000205442101561046e576040517f08c379a000000000000000000000000000000000000000000000000000000000815260040161046590611414565b60405180910390fd5b61012c4261047c91906114e6565b600760003373ffffffffffffffffffffffffffffffffffffffff1673ffffffffffffffffffffffffffffffffffffffff168152602001908152602001600020819055506104cb336006546109e8565b565b6000600254905090565b6000806104e2610815565b90506104ef858285610b48565b6104fa858585610bd4565b60019150509392505050565b60006012905090565b60008061051a610815565b905061053b81858561052c858961070a565b61053691906114e6565b61081d565b600191505092915050565b60008060008373ffffffffffffffffffffffffffffffffffffffff1673ffffffffffffffffffffffffffffffffffffffff168152602001908152602001600020549050919050565b610596610e55565b6105a06000610ed3565b565b6105aa610e55565b8060068190555050565b6000600560009054906101000a900473ffffffffffffffffffffffffffffffffffffffff16905090565b6060600480546105ed906115c4565b80601f0160208091040260200160405190810160405280929190818152602001828054610619906115c4565b80156106665780601f1061063b57610100808354040283529160200191610666565b820191906000526020600020905b81548152906001019060200180831161064957829003601f168201915b5050505050905090565b60008061067b610815565b90506000610689828661070a565b9050838110156106ce576040517f08c379a00000000000000000000000000000000000000000000000000000000081526004016106c590611454565b60405180910390fd5b6106db828686840361081d565b60019250505092915050565b6000806106f2610815565b90506106ff818585610bd4565b600191505092915050565b6000600160008473ffffffffffffffffffffffffffffffffffffffff1673ffffffffffffffffffffffffffffffffffffffff16815260200190815260200160002060008373ffffffffffffffffffffffffffffffffffffffff1673ffffffffffffffffffffffffffffffffffffffff16815260200190815260200160002054905092915050565b610799610e55565b600073ffffffffffffffffffffffffffffffffffffffff168173ffffffffffffffffffffffffffffffffffffffff161415610809576040517f08c379a000000000000000000000000000000000000000000000000000000000815260040161080090611354565b60405180910390fd5b61081281610ed3565b50565b600033905090565b600073ffffffffffffffffffffffffffffffffffffffff168373ffffffffffffffffffffffffffffffffffffffff16141561088d576040517f08c379a000000000000000000000000000000000000000000000000000000000815260040161088490611434565b60405180910390fd5b600073ffffffffffffffffffffffffffffffffffffffff168273ffffffffffffffffffffffffffffffffffffffff1614156108fd576040517f08c379a00000000000000000000000000000000000000000000000000000000081526004016108f490611374565b60405180910390fd5b80600160008573ffffffffffffffffffffffffffffffffffffffff1673ffffffffffffffffffffffffffffffffffffffff16815260200190815260200160002060008473ffffffffffffffffffffffffffffffffffffffff1673ffffffffffffffffffffffffffffffffffffffff168152602001908152602001600020819055508173ffffffffffffffffffffffffffffffffffffffff168373ffffffffffffffffffffffffffffffffffffffff167f8c5be1e5ebec7d5bd14f71427d1e84f3dd0314c0f7b2291e5b200ac8c7c3b925836040516109db9190611494565b60405180910390a3505050565b600073ffffffffffffffffffffffffffffffffffffffff168273ffffffffffffffffffffffffffffffffffffffff161415610a58576040517f08c379a0000000000000000000000000000000000000000000000000000000008152600401610a4f90611474565b60405180910390fd5b610a6460008383610f99565b8060026000828254610a7691906114e6565b92505081905550806000808473ffffffffffffffffffffffffffffffffffffffff1673ffffffffffffffffffffffffffffffffffffffff1681526020019081526020016000206000828254610acb91906114e6565b925050819055508173ffffffffffffffffffffffffffffffffffffffff16600073ffffffffffffffffffffffffffffffffffffffff167fddf252ad1be2c89b69c2b068fc378daa952ba7f163c4a11628f55a4df523b3ef83604051610b309190611494565b60405180910390a3610b4460008383610f9e565b5050565b6000610b54848461070a565b90507fffffffffffffffffffffffffffffffffffffffffffffffffffffffffffffffff8114610bce5781811015610bc0576040517f08c379a0000000000000000000000000000000000000000000000000000000008152600401610bb790611394565b60405180910390fd5b610bcd848484840361081d565b5b50505050565b600073ffffffffffffffffffffffffffffffffffffffff168373ffffffffffffffffffffffffffffffffffffffff161415610c44576040517f08c379a0000000000000000000000000000000000000000000000000000000008152600401610c3b906113f4565b60405180910390fd5b600073ffffffffffffffffffffffffffffffffffffffff168273ffffffffffffffffffffffffffffffffffffffff161415610cb4576040517f08c379a0000000000000000000000000000000000000000000000000000000008152600401610cab90611334565b60405180910390fd5b610cbf838383610f99565b60008060008573ffffffffffffffffffffffffffffffffffffffff1673ffffffffffffffffffffffffffffffffffffffff16815260200190815260200160002054905081811015610d45576040517f08c379a0000000000000000000000000000000000000000000000000000000008152600401610d3c906113b4565b60405180910390fd5b8181036000808673ffffffffffffffffffffffffffffffffffffffff1673ffffffffffffffffffffffffffffffffffffffff16815260200190815260200160002081905550816000808573ffffffffffffffffffffffffffffffffffffffff1673ffffffffffffffffffffffffffffffffffffffff1681526020019081526020016000206000828254610dd891906114e6565b925050819055508273ffffffffffffffffffffffffffffffffffffffff168473ffffffffffffffffffffffffffffffffffffffff167fddf252ad1be2c89b69c2b068fc378daa952ba7f163c4a11628f55a4df523b3ef84604051610e3c9190611494565b60405180910390a3610e4f848484610f9e565b50505050565b610e5d610815565b73ffffffffffffffffffffffffffffffffffffffff16610e7b6105b4565b73ffffffffffffffffffffffffffffffffffffffff1614610ed1576040517f08c379a0000000000000000000000000000000000000000000000000000000008152600401610ec8906113d4565b60405180910390fd5b565b6000600560009054906101000a900473ffffffffffffffffffffffffffffffffffffffff16905081600560006101000a81548173ffffffffffffffffffffffffffffffffffffffff021916908373ffffffffffffffffffffffffffffffffffffffff1602179055508173ffffffffffffffffffffffffffffffffffffffff168173ffffffffffffffffffffffffffffffffffffffff167f8be0079c531659141344cd1fd0a4f28419497f9722a3daafe3b4186f6b6457e060405160405180910390a35050565b505050565b505050565b600081359050610fb281611958565b92915050565b600081359050610fc78161196f565b92915050565b600060208284031215610fdf57600080fd5b6000610fed84828501610fa3565b91505092915050565b6000806040838503121561100957600080fd5b600061101785828601610fa3565b925050602061102885828601610fa3565b9150509250929050565b60008060006060848603121561104757600080fd5b600061105586828701610fa3565b935050602061106686828701610fa3565b925050604061107786828701610fb8565b9150509250925092565b6000806040838503121561109457600080fd5b60006110a285828601610fa3565b92505060206110b385828601610fb8565b9150509250929050565b6000602082840312156110cf57600080fd5b60006110dd84828501610fb8565b91505092915050565b6110ef8161153c565b82525050565b6110fe8161154e565b82525050565b600061110f826114ca565b61111981856114d5565b9350611129818560208601611591565b61113281611654565b840191505092915050565b600061114a6023836114d5565b915061115582611665565b604082019050919050565b600061116d6026836114d5565b9150611178826116b4565b604082019050919050565b60006111906022836114d5565b915061119b82611703565b604082019050919050565b60006111b3601d836114d5565b91506111be82611752565b602082019050919050565b60006111d66026836114d5565b91506111e18261177b565b604082019050919050565b60006111f96020836114d5565b9150611204826117ca565b602082019050919050565b600061121c6025836114d5565b9150611227826117f3565b604082019050919050565b600061123f602d836114d5565b915061124a82611842565b604082019050919050565b60006112626024836114d5565b915061126d82611891565b604082019050919050565b60006112856025836114d5565b9150611290826118e0565b604082019050919050565b60006112a8601f836114d5565b91506112b38261192f565b602082019050919050565b6112c78161157a565b82525050565b6112d681611584565b82525050565b60006020820190506112f160008301846110e6565b92915050565b600060208201905061130c60008301846110f5565b92915050565b6000602082019050818103600083015261132c8184611104565b905092915050565b6000602082019050818103600083015261134d8161113d565b9050919050565b6000602082019050818103600083015261136d81611160565b9050919050565b6000602082019050818103600083015261138d81611183565b9050919050565b600060208201905081810360008301526113ad816111a6565b9050919050565b600060208201905081810360008301526113cd816111c9565b9050919050565b600060208201905081810360008301526113ed816111ec565b9050919050565b6000602082019050818103600083015261140d8161120f565b9050919050565b6000602082019050818103600083015261142d81611232565b9050919050565b6000602082019050818103600083015261144d81611255565b9050919050565b6000602082019050818103600083015261146d81611278565b9050919050565b6000602082019050818103600083015261148d8161129b565b9050919050565b60006020820190506114a960008301846112be565b92915050565b60006020820190506114c460008301846112cd565b92915050565b600081519050919050565b600082825260208201905092915050565b60006114f18261157a565b91506114fc8361157a565b9250827fffffffffffffffffffffffffffffffffffffffffffffffffffffffffffffffff03821115611531576115306115f6565b5b828201905092915050565b60006115478261155a565b9050919050565b60008115159050919050565b600073ffffffffffffffffffffffffffffffffffffffff82169050919050565b6000819050919050565b600060ff82169050919050565b60005b838110156115af578082015181840152602081019050611594565b838111156115be576000848401525b50505050565b600060028204905060018216806115dc57607f821691505b602082108114156115f0576115ef611625565b5b50919050565b7f4e487b7100000000000000000000000000000000000000000000000000000000600052601160045260246000fd5b7f4e487b7100000000000000000000000000000000000000000000000000000000600052602260045260246000fd5b6000601f19601f8301169050919050565b7f45524332303a207472616e7366657220746f20746865207a65726f206164647260008201527f6573730000000000000000000000000000000000000000000000000000000000602082015250565b7f4f776e61626c653a206e6577206f776e657220697320746865207a65726f206160008201527f6464726573730000000000000000000000000000000000000000000000000000602082015250565b7f45524332303a20617070726f766520746f20746865207a65726f20616464726560008201527f7373000000000000000000000000000000000000000000000000000000000000602082015250565b7f45524332303a20696e73756666696369656e7420616c6c6f77616e6365000000600082015250565b7f45524332303a207472616e7366657220616d6f756e742065786365656473206260008201527f616c616e63650000000000000000000000000000000000000000000000000000602082015250565b7f4f776e61626c653a2063616c6c6572206973206e6f7420746865206f776e6572600082015250565b7f45524332303a207472616e736665722066726f6d20746865207a65726f20616460008201527f6472657373000000000000000000000000000000000000000000000000000000602082015250565b7f596f75206d7573742077616974206174206c6561737420356d696e206265747760008201527f65656e2065616368206d696e7400000000000000000000000000000000000000602082015250565b7f45524332303a20617070726f76652066726f6d20746865207a65726f2061646460008201527f7265737300000000000000000000000000000000000000000000000000000000602082015250565b7f45524332303a2064656372656173656420616c6c6f77616e63652062656c6f7760008201527f207a65726f000000000000000000000000000000000000000000000000000000602082015250565b7f45524332303a206d696e7420746f20746865207a65726f206164647265737300600082015250565b6119618161153c565b811461196c57600080fd5b50565b6119788161157a565b811461198357600080fd5b5056fea2646970667358221220cbc2fa03b5b34c3a078fc97d8317ae8f7d40b9739fd9a13449105097b2e2391364736f6c63430008040033",
  "linkReferences": {},
  "deployedLinkReferences": {}
}