{
  "_format": "hh-sol-artifact-1",
  "contractName": "FakeUSDC",
  "sourceName": "contracts/FakeUSDC.sol",
  "abi": [
    {
      "inputs": [],
      "stateMutability": "nonpayable",
      "type": "constructor"
    },
    {
      "anonymous": false,
      "inputs": [
        {
          "indexed": true,
          "internalType": "address",
          "name": "owner",
          "type": "address"
        },
        {
          "indexed": true,
          "internalType": "address",
          "name": "spender",
          "type": "address"
        },
        {
          "indexed": false,
          "internalType": "uint256",
          "name": "value",
          "type": "uint256"
        }
      ],
      "name": "Approval",
      "type": "event"
    },
    {
      "anonymous": false,
      "inputs": [
        {
          "indexed": true,
          "internalType": "address",
          "name": "previousOwner",
          "type": "address"
        },
        {
          "indexed": true,
          "internalType": "address",
          "name": "newOwner",
          "type": "address"
        }
      ],
      "name": "OwnershipTransferred",
      "type": "event"
    },
    {
      "anonymous": false,
      "inputs": [
        {
          "indexed": true,
          "internalType": "address",
          "name": "from",
          "type": "address"
        },
        {
          "indexed": true,
          "internalType": "address",
          "name": "to",
          "type": "address"
        },
        {
          "indexed": false,
          "internalType": "uint256",
          "name": "value",
          "type": "uint256"
        }
      ],
      "name": "Transfer",
      "type": "event"
    },
    {
      "inputs": [
        {
          "internalType": "address",
          "name": "owner",
          "type": "address"
        },
        {
          "internalType": "address",
          "name": "spender",
          "type": "address"
        }
      ],
      "name": "allowance",
      "outputs": [
        {
          "internalType": "uint256",
          "name": "",
          "type": "uint256"
        }
      ],
      "stateMutability": "view",
      "type": "function"
    },
    {
      "inputs": [
        {
          "internalType": "address",
          "name": "spender",
          "type": "address"
        },
        {
          "internalType": "uint256",
          "name": "amount",
          "type": "uint256"
        }
      ],
      "name": "approve",
      "outputs": [
        {
          "internalType": "bool",
          "name": "",
          "type": "bool"
        }
      ],
      "stateMutability": "nonpayable",
      "type": "function"
    },
    {
      "inputs": [
        {
          "internalType": "address",
          "name": "account",
          "type": "address"
        }
      ],
      "name": "balanceOf",
      "outputs": [
        {
          "internalType": "uint256",
          "name": "",
          "type": "uint256"
        }
      ],
      "stateMutability": "view",
      "type": "function"
    },
    {
      "inputs": [],
      "name": "decimals",
      "outputs": [
        {
          "internalType": "uint8",
          "name": "",
          "type": "uint8"
        }
      ],
      "stateMutability": "view",
      "type": "function"
    },
    {
      "inputs": [
        {
          "internalType": "address",
          "name": "spender",
          "type": "address"
        },
        {
          "internalType": "uint256",
          "name": "subtractedValue",
          "type": "uint256"
        }
      ],
      "name": "decreaseAllowance",
      "outputs": [
        {
          "internalType": "bool",
          "name": "",
          "type": "bool"
        }
      ],
      "stateMutability": "nonpayable",
      "type": "function"
    },
    {
      "inputs": [
        {
          "internalType": "address",
          "name": "spender",
          "type": "address"
        },
        {
          "internalType": "uint256",
          "name": "addedValue",
          "type": "uint256"
        }
      ],
      "name": "increaseAllowance",
      "outputs": [
        {
          "internalType": "bool",
          "name": "",
          "type": "bool"
        }
      ],
      "stateMutability": "nonpayable",
      "type": "function"
    },
    {
      "inputs": [],
      "name": "mint",
      "outputs": [],
      "stateMutability": "nonpayable",
      "type": "function"
    },
    {
      "inputs": [],
      "name": "name",
      "outputs": [
        {
          "internalType": "string",
          "name": "",
          "type": "string"
        }
      ],
      "stateMutability": "view",
      "type": "function"
    },
    {
      "inputs": [],
      "name": "owner",
      "outputs": [
        {
          "internalType": "address",
          "name": "",
          "type": "address"
        }
      ],
      "stateMutability": "view",
      "type": "function"
    },
    {
      "inputs": [],
      "name": "renounceOwnership",
      "outputs": [],
      "stateMutability": "nonpayable",
      "type": "function"
    },
    {
      "inputs": [],
      "name": "symbol",
      "outputs": [
        {
          "internalType": "string",
          "name": "",
          "type": "string"
        }
      ],
      "stateMutability": "view",
      "type": "function"
    },
    {
      "inputs": [],
      "name": "totalSupply",
      "outputs": [
        {
          "internalType": "uint256",
          "name": "",
          "type": "uint256"
        }
      ],
      "stateMutability": "view",
      "type": "function"
    },
    {
      "inputs": [
        {
          "internalType": "address",
          "name": "to",
          "type": "address"
        },
        {
          "internalType": "uint256",
          "name": "amount",
          "type": "uint256"
        }
      ],
      "name": "transfer",
      "outputs": [
        {
          "internalType": "bool",
          "name": "",
          "type": "bool"
        }
      ],
      "stateMutability": "nonpayable",
      "type": "function"
    },
    {
      "inputs": [
        {
          "internalType": "address",
          "name": "from",
          "type": "address"
        },
        {
          "internalType": "address",
          "name": "to",
          "type": "address"
        },
        {
          "internalType": "uint256",
          "name": "amount",
          "type": "uint256"
        }
      ],
      "name": "transferFrom",
      "outputs": [
        {
          "internalType": "bool",
          "name": "",
          "type": "bool"
        }
      ],
      "stateMutability": "nonpayable",
      "type": "function"
    },
    {
      "inputs": [
        {
          "internalType": "address",
          "name": "newOwner",
          "type": "address"
        }
      ],
      "name": "transferOwnership",
      "outputs": [],
      "stateMutability": "nonpayable",
      "type": "function"
    },
    {
      "inputs": [
        {
          "internalType": "uint256",
          "name": "_amount",
          "type": "uint256"
        }
      ],
      "name": "updateMintAmount",
      "outputs": [],
      "stateMutability": "nonpayable",
      "type": "function"
    }
  ],
  "bytecode": "0x60806040526302faf0806006553480156200001957600080fd5b506040518060400160405280600881526020017f46616b65555344430000000000000000000000000000000000000000000000008152506040518060400160405280600581526020017f665553444300000000000000000000000000000000000000000000000000000081525081600390805190602001906200009e929190620001e5565b508060049080519060200190620000b7929190620001e5565b505050620000da620000ce6200011460201b60201c565b6200011c60201b60201c565b6200010e7f099cd1a5238ff5caa016b3f000912cf95d427b948dc5c36101c102cd7173f20060001b620001e260201b60201c565b620002fa565b600033905090565b6000600560009054906101000a900473ffffffffffffffffffffffffffffffffffffffff16905081600560006101000a81548173ffffffffffffffffffffffffffffffffffffffff021916908373ffffffffffffffffffffffffffffffffffffffff1602179055508173ffffffffffffffffffffffffffffffffffffffff168173ffffffffffffffffffffffffffffffffffffffff167f8be0079c531659141344cd1fd0a4f28419497f9722a3daafe3b4186f6b6457e060405160405180910390a35050565b50565b828054620001f39062000295565b90600052602060002090601f01602090048101928262000217576000855562000263565b82601f106200023257805160ff191683800117855562000263565b8280016001018555821562000263579182015b828111156200026257825182559160200191906001019062000245565b5b50905062000272919062000276565b5090565b5b808211156200029157600081600090555060010162000277565b5090565b60006002820490506001821680620002ae57607f821691505b60208210811415620002c557620002c4620002cb565b5b50919050565b7f4e487b7100000000000000000000000000000000000000000000000000000000600052602260045260246000fd5b611bcf806200030a6000396000f3fe608060405234801561001057600080fd5b50600436106101005760003560e01c8063715018a611610097578063a457c2d711610066578063a457c2d71461028b578063a9059cbb146102bb578063dd62ed3e146102eb578063f2fde38b1461031b57610100565b8063715018a6146102295780637676a44a146102335780638da5cb5b1461024f57806395d89b411461026d57610100565b806323b872dd116100d357806323b872dd1461017b578063313ce567146101ab57806339509351146101c957806370a08231146101f957610100565b806306fdde0314610105578063095ea7b3146101235780631249c58b1461015357806318160ddd1461015d575b600080fd5b61010d610337565b60405161011a9190611525565b60405180910390f35b61013d60048036038101906101389190611294565b6103c9565b60405161014a919061150a565b60405180910390f35b61015b6103ec565b005b610165610659565b60405161017291906116a7565b60405180910390f35b61019560048036038101906101909190611245565b610663565b6040516101a2919061150a565b60405180910390f35b6101b3610692565b6040516101c091906116c2565b60405180910390f35b6101e360048036038101906101de9190611294565b61069b565b6040516101f0919061150a565b60405180910390f35b610213600480360381019061020e91906111e0565b6106d2565b60405161022091906116a7565b60405180910390f35b61023161071a565b005b61024d600480360381019061024891906112d0565b61072e565b005b6102576107c4565b60405161026491906114ef565b60405180910390f35b6102756107ee565b6040516102829190611525565b60405180910390f35b6102a560048036038101906102a09190611294565b610880565b6040516102b2919061150a565b60405180910390f35b6102d560048036038101906102d09190611294565b6108f7565b6040516102e2919061150a565b60405180910390f35b61030560048036038101906103009190611209565b61091a565b60405161031291906116a7565b60405180910390f35b610335600480360381019061033091906111e0565b6109a1565b005b606060038054610346906117d7565b80601f0160208091040260200160405190810160405280929190818152602001828054610372906117d7565b80156103bf5780601f10610394576101008083540402835291602001916103bf565b820191906000526020600020905b8154815290600101906020018083116103a257829003601f168201915b5050505050905090565b6000806103d4610a25565b90506103e1818585610a2d565b600191505092915050565b6104187fa2967e33ec99c6620734425bc49f2203ae4a797bdc1d6731e0fa63f5de5b927e60001b610bf8565b6104447fae816d081039b61d23b31d63a8731af6682119161589c0e483105110d33c59ff60001b610bf8565b6104707fd58223d2b03bd7d6dd260b5489621c91ad79c16ee89a7ebe0616860ff2aa490a60001b610bf8565b61049c7f93a1db8538c42a22cd72806c62c07853271c9d265c19de936c6eac88aa05ee5b60001b610bf8565b600760003373ffffffffffffffffffffffffffffffffffffffff1673ffffffffffffffffffffffffffffffffffffffff1681526020019081526020016000205442101561051e576040517f08c379a000000000000000000000000000000000000000000000000000000000815260040161051590611627565b60405180910390fd5b61054a7f78d79878745fb588d833f93944bd9cb12a8be20afae1f3c0d17a0d2a7871d94160001b610bf8565b6105767f8088f8f37aa22889dfb560145ea6b138bc9ee2c13fd0758bdef9dc23b00e230f60001b610bf8565b6105a27fa83daa04b73c8315fba6594faebfeec9f139451c1c51fbbd08c539cc437acc7c60001b610bf8565b61012c426105b091906116f9565b600760003373ffffffffffffffffffffffffffffffffffffffff1673ffffffffffffffffffffffffffffffffffffffff1681526020019081526020016000208190555061061f7f7f4de86b88c23e22d23ef3c612b03f2ee91f6717f87012158cf2a0a6bdf9daf360001b610bf8565b61064b7fc47c5ffe6b4bea4ac588724397376e1e33d2741a17511c6312f7490115b5e89360001b610bf8565b61065733600654610bfb565b565b6000600254905090565b60008061066e610a25565b905061067b858285610d5b565b610686858585610de7565b60019150509392505050565b60006012905090565b6000806106a6610a25565b90506106c78185856106b8858961091a565b6106c291906116f9565b610a2d565b600191505092915050565b60008060008373ffffffffffffffffffffffffffffffffffffffff1673ffffffffffffffffffffffffffffffffffffffff168152602001908152602001600020549050919050565b610722611068565b61072c60006110e6565b565b610736611068565b6107627f67b1123c82ba73e88e9f2de9f0fb91c2df70beb9308ab2ca60bdc1f7657fd84660001b610bf8565b61078e7f46e66a4e69dab1e571b8b742d16e04abc255a2e96aef2e30db8fe2c59f2e176660001b610bf8565b6107ba7fd81f613e941f3bef650421fafa52ee6fb49cda2670991e0afa387f042f8ac36360001b610bf8565b8060068190555050565b6000600560009054906101000a900473ffffffffffffffffffffffffffffffffffffffff16905090565b6060600480546107fd906117d7565b80601f0160208091040260200160405190810160405280929190818152602001828054610829906117d7565b80156108765780601f1061084b57610100808354040283529160200191610876565b820191906000526020600020905b81548152906001019060200180831161085957829003601f168201915b5050505050905090565b60008061088b610a25565b90506000610899828661091a565b9050838110156108de576040517f08c379a00000000000000000000000000000000000000000000000000000000081526004016108d590611667565b60405180910390fd5b6108eb8286868403610a2d565b60019250505092915050565b600080610902610a25565b905061090f818585610de7565b600191505092915050565b6000600160008473ffffffffffffffffffffffffffffffffffffffff1673ffffffffffffffffffffffffffffffffffffffff16815260200190815260200160002060008373ffffffffffffffffffffffffffffffffffffffff1673ffffffffffffffffffffffffffffffffffffffff16815260200190815260200160002054905092915050565b6109a9611068565b600073ffffffffffffffffffffffffffffffffffffffff168173ffffffffffffffffffffffffffffffffffffffff161415610a19576040517f08c379a0000000000000000000000000000000000000000000000000000000008152600401610a1090611567565b60405180910390fd5b610a22816110e6565b50565b600033905090565b600073ffffffffffffffffffffffffffffffffffffffff168373ffffffffffffffffffffffffffffffffffffffff161415610a9d576040517f08c379a0000000000000000000000000000000000000000000000000000000008152600401610a9490611647565b60405180910390fd5b600073ffffffffffffffffffffffffffffffffffffffff168273ffffffffffffffffffffffffffffffffffffffff161415610b0d576040517f08c379a0000000000000000000000000000000000000000000000000000000008152600401610b0490611587565b60405180910390fd5b80600160008573ffffffffffffffffffffffffffffffffffffffff1673ffffffffffffffffffffffffffffffffffffffff16815260200190815260200160002060008473ffffffffffffffffffffffffffffffffffffffff1673ffffffffffffffffffffffffffffffffffffffff168152602001908152602001600020819055508173ffffffffffffffffffffffffffffffffffffffff168373ffffffffffffffffffffffffffffffffffffffff167f8c5be1e5ebec7d5bd14f71427d1e84f3dd0314c0f7b2291e5b200ac8c7c3b92583604051610beb91906116a7565b60405180910390a3505050565b50565b600073ffffffffffffffffffffffffffffffffffffffff168273ffffffffffffffffffffffffffffffffffffffff161415610c6b576040517f08c379a0000000000000000000000000000000000000000000000000000000008152600401610c6290611687565b60405180910390fd5b610c77600083836111ac565b8060026000828254610c8991906116f9565b92505081905550806000808473ffffffffffffffffffffffffffffffffffffffff1673ffffffffffffffffffffffffffffffffffffffff1681526020019081526020016000206000828254610cde91906116f9565b925050819055508173ffffffffffffffffffffffffffffffffffffffff16600073ffffffffffffffffffffffffffffffffffffffff167fddf252ad1be2c89b69c2b068fc378daa952ba7f163c4a11628f55a4df523b3ef83604051610d4391906116a7565b60405180910390a3610d57600083836111b1565b5050565b6000610d67848461091a565b90507fffffffffffffffffffffffffffffffffffffffffffffffffffffffffffffffff8114610de15781811015610dd3576040517f08c379a0000000000000000000000000000000000000000000000000000000008152600401610dca906115a7565b60405180910390fd5b610de08484848403610a2d565b5b50505050565b600073ffffffffffffffffffffffffffffffffffffffff168373ffffffffffffffffffffffffffffffffffffffff161415610e57576040517f08c379a0000000000000000000000000000000000000000000000000000000008152600401610e4e90611607565b60405180910390fd5b600073ffffffffffffffffffffffffffffffffffffffff168273ffffffffffffffffffffffffffffffffffffffff161415610ec7576040517f08c379a0000000000000000000000000000000000000000000000000000000008152600401610ebe90611547565b60405180910390fd5b610ed28383836111ac565b60008060008573ffffffffffffffffffffffffffffffffffffffff1673ffffffffffffffffffffffffffffffffffffffff16815260200190815260200160002054905081811015610f58576040517f08c379a0000000000000000000000000000000000000000000000000000000008152600401610f4f906115c7565b60405180910390fd5b8181036000808673ffffffffffffffffffffffffffffffffffffffff1673ffffffffffffffffffffffffffffffffffffffff16815260200190815260200160002081905550816000808573ffffffffffffffffffffffffffffffffffffffff1673ffffffffffffffffffffffffffffffffffffffff1681526020019081526020016000206000828254610feb91906116f9565b925050819055508273ffffffffffffffffffffffffffffffffffffffff168473ffffffffffffffffffffffffffffffffffffffff167fddf252ad1be2c89b69c2b068fc378daa952ba7f163c4a11628f55a4df523b3ef8460405161104f91906116a7565b60405180910390a36110628484846111b1565b50505050565b611070610a25565b73ffffffffffffffffffffffffffffffffffffffff1661108e6107c4565b73ffffffffffffffffffffffffffffffffffffffff16146110e4576040517f08c379a00000000000000000000000000000000000000000000000000000000081526004016110db906115e7565b60405180910390fd5b565b6000600560009054906101000a900473ffffffffffffffffffffffffffffffffffffffff16905081600560006101000a81548173ffffffffffffffffffffffffffffffffffffffff021916908373ffffffffffffffffffffffffffffffffffffffff1602179055508173ffffffffffffffffffffffffffffffffffffffff168173ffffffffffffffffffffffffffffffffffffffff167f8be0079c531659141344cd1fd0a4f28419497f9722a3daafe3b4186f6b6457e060405160405180910390a35050565b505050565b505050565b6000813590506111c581611b6b565b92915050565b6000813590506111da81611b82565b92915050565b6000602082840312156111f257600080fd5b6000611200848285016111b6565b91505092915050565b6000806040838503121561121c57600080fd5b600061122a858286016111b6565b925050602061123b858286016111b6565b9150509250929050565b60008060006060848603121561125a57600080fd5b6000611268868287016111b6565b9350506020611279868287016111b6565b925050604061128a868287016111cb565b9150509250925092565b600080604083850312156112a757600080fd5b60006112b5858286016111b6565b92505060206112c6858286016111cb565b9150509250929050565b6000602082840312156112e257600080fd5b60006112f0848285016111cb565b91505092915050565b6113028161174f565b82525050565b61131181611761565b82525050565b6000611322826116dd565b61132c81856116e8565b935061133c8185602086016117a4565b61134581611867565b840191505092915050565b600061135d6023836116e8565b915061136882611878565b604082019050919050565b60006113806026836116e8565b915061138b826118c7565b604082019050919050565b60006113a36022836116e8565b91506113ae82611916565b604082019050919050565b60006113c6601d836116e8565b91506113d182611965565b602082019050919050565b60006113e96026836116e8565b91506113f48261198e565b604082019050919050565b600061140c6020836116e8565b9150611417826119dd565b602082019050919050565b600061142f6025836116e8565b915061143a82611a06565b604082019050919050565b6000611452602d836116e8565b915061145d82611a55565b604082019050919050565b60006114756024836116e8565b915061148082611aa4565b604082019050919050565b60006114986025836116e8565b91506114a382611af3565b604082019050919050565b60006114bb601f836116e8565b91506114c682611b42565b602082019050919050565b6114da8161178d565b82525050565b6114e981611797565b82525050565b600060208201905061150460008301846112f9565b92915050565b600060208201905061151f6000830184611308565b92915050565b6000602082019050818103600083015261153f8184611317565b905092915050565b6000602082019050818103600083015261156081611350565b9050919050565b6000602082019050818103600083015261158081611373565b9050919050565b600060208201905081810360008301526115a081611396565b9050919050565b600060208201905081810360008301526115c0816113b9565b9050919050565b600060208201905081810360008301526115e0816113dc565b9050919050565b60006020820190508181036000830152611600816113ff565b9050919050565b6000602082019050818103600083015261162081611422565b9050919050565b6000602082019050818103600083015261164081611445565b9050919050565b6000602082019050818103600083015261166081611468565b9050919050565b600060208201905081810360008301526116808161148b565b9050919050565b600060208201905081810360008301526116a0816114ae565b9050919050565b60006020820190506116bc60008301846114d1565b92915050565b60006020820190506116d760008301846114e0565b92915050565b600081519050919050565b600082825260208201905092915050565b60006117048261178d565b915061170f8361178d565b9250827fffffffffffffffffffffffffffffffffffffffffffffffffffffffffffffffff0382111561174457611743611809565b5b828201905092915050565b600061175a8261176d565b9050919050565b60008115159050919050565b600073ffffffffffffffffffffffffffffffffffffffff82169050919050565b6000819050919050565b600060ff82169050919050565b60005b838110156117c25780820151818401526020810190506117a7565b838111156117d1576000848401525b50505050565b600060028204905060018216806117ef57607f821691505b6020821081141561180357611802611838565b5b50919050565b7f4e487b7100000000000000000000000000000000000000000000000000000000600052601160045260246000fd5b7f4e487b7100000000000000000000000000000000000000000000000000000000600052602260045260246000fd5b6000601f19601f8301169050919050565b7f45524332303a207472616e7366657220746f20746865207a65726f206164647260008201527f6573730000000000000000000000000000000000000000000000000000000000602082015250565b7f4f776e61626c653a206e6577206f776e657220697320746865207a65726f206160008201527f6464726573730000000000000000000000000000000000000000000000000000602082015250565b7f45524332303a20617070726f766520746f20746865207a65726f20616464726560008201527f7373000000000000000000000000000000000000000000000000000000000000602082015250565b7f45524332303a20696e73756666696369656e7420616c6c6f77616e6365000000600082015250565b7f45524332303a207472616e7366657220616d6f756e742065786365656473206260008201527f616c616e63650000000000000000000000000000000000000000000000000000602082015250565b7f4f776e61626c653a2063616c6c6572206973206e6f7420746865206f776e6572600082015250565b7f45524332303a207472616e736665722066726f6d20746865207a65726f20616460008201527f6472657373000000000000000000000000000000000000000000000000000000602082015250565b7f596f75206d7573742077616974206174206c6561737420356d696e206265747760008201527f65656e2065616368206d696e7400000000000000000000000000000000000000602082015250565b7f45524332303a20617070726f76652066726f6d20746865207a65726f2061646460008201527f7265737300000000000000000000000000000000000000000000000000000000602082015250565b7f45524332303a2064656372656173656420616c6c6f77616e63652062656c6f7760008201527f207a65726f000000000000000000000000000000000000000000000000000000602082015250565b7f45524332303a206d696e7420746f20746865207a65726f206164647265737300600082015250565b611b748161174f565b8114611b7f57600080fd5b50565b611b8b8161178d565b8114611b9657600080fd5b5056fea2646970667358221220144579600e5b958dd4eafccab3486380cff4e6b4b1e7ec50f6bf9b5ffd65e92b64736f6c63430008040033",
  "linkReferences": {},
  "deployedLinkReferences": {}
}