{
  "_format": "hh-sol-artifact-1",
  "contractName": "UserSoul",
  "sourceName": "contracts/UserSoul.sol",
  "abi": [
    {
      "inputs": [
        {
          "internalType": "address",
          "name": "_newGigFactory",
          "type": "address"
        }
      ],
      "stateMutability": "nonpayable",
      "type": "constructor"
    },
    {
      "anonymous": false,
      "inputs": [
        {
          "indexed": false,
          "internalType": "address",
          "name": "_user",
          "type": "address"
        },
        {
          "indexed": false,
          "internalType": "bool",
          "name": "isBan",
          "type": "bool"
        }
      ],
      "name": "Ban",
      "type": "event"
    },
    {
      "anonymous": false,
      "inputs": [
        {
          "indexed": false,
          "internalType": "address",
          "name": "_user",
          "type": "address"
        }
      ],
      "name": "Burn",
      "type": "event"
    },
    {
      "anonymous": false,
      "inputs": [
        {
          "indexed": false,
          "internalType": "address",
          "name": "_user",
          "type": "address"
        },
        {
          "indexed": false,
          "internalType": "uint256",
          "name": "_amount",
          "type": "uint256"
        },
        {
          "indexed": false,
          "internalType": "address",
          "name": "_token",
          "type": "address"
        }
      ],
      "name": "InviterWithdrawal",
      "type": "event"
    },
    {
      "anonymous": false,
      "inputs": [
        {
          "indexed": false,
          "internalType": "address",
          "name": "_firstBuyerSeller",
          "type": "address"
        },
        {
          "indexed": false,
          "internalType": "address",
          "name": "_secondBuyerInviter",
          "type": "address"
        },
        {
          "indexed": false,
          "internalType": "address",
          "name": "_firstSellerInviter",
          "type": "address"
        },
        {
          "indexed": false,
          "internalType": "address",
          "name": "_secondSellerInviter",
          "type": "address"
        },
        {
          "indexed": false,
          "internalType": "uint256",
          "name": "_amount",
          "type": "uint256"
        },
        {
          "indexed": false,
          "internalType": "address",
          "name": "_token",
          "type": "address"
        }
      ],
      "name": "InvitersIncrease",
      "type": "event"
    },
    {
      "anonymous": false,
      "inputs": [
        {
          "indexed": false,
          "internalType": "address",
          "name": "_user",
          "type": "address"
        },
        {
          "indexed": false,
          "internalType": "bool",
          "name": "isJudge",
          "type": "bool"
        }
      ],
      "name": "Judge",
      "type": "event"
    },
    {
      "anonymous": false,
      "inputs": [
        {
          "indexed": false,
          "internalType": "address",
          "name": "_user",
          "type": "address"
        },
        {
          "indexed": false,
          "internalType": "address",
          "name": "_inviter0",
          "type": "address"
        },
        {
          "indexed": false,
          "internalType": "address",
          "name": "_inviter1",
          "type": "address"
        }
      ],
      "name": "Mint",
      "type": "event"
    },
    {
      "anonymous": false,
      "inputs": [
        {
          "indexed": true,
          "internalType": "address",
          "name": "previousOwner",
          "type": "address"
        },
        {
          "indexed": true,
          "internalType": "address",
          "name": "newOwner",
          "type": "address"
        }
      ],
      "name": "OwnershipTransferred",
      "type": "event"
    },
    {
      "inputs": [],
      "name": "balanceWeight",
      "outputs": [
        {
          "internalType": "uint256",
          "name": "",
          "type": "uint256"
        }
      ],
      "stateMutability": "view",
      "type": "function"
    },
    {
      "inputs": [],
      "name": "burn",
      "outputs": [],
      "stateMutability": "nonpayable",
      "type": "function"
    },
    {
      "inputs": [
        {
          "internalType": "address",
          "name": "_newFacto",
          "type": "address"
        }
      ],
      "name": "changeGigFactory",
      "outputs": [],
      "stateMutability": "nonpayable",
      "type": "function"
    },
    {
      "inputs": [
        {
          "internalType": "string",
          "name": "_newIdentity",
          "type": "string"
        }
      ],
      "name": "changeIdentity",
      "outputs": [],
      "stateMutability": "nonpayable",
      "type": "function"
    },
    {
      "inputs": [
        {
          "internalType": "address",
          "name": "_user",
          "type": "address"
        },
        {
          "internalType": "address",
          "name": "_token",
          "type": "address"
        }
      ],
      "name": "decreaseUserJudgeWeight",
      "outputs": [],
      "stateMutability": "nonpayable",
      "type": "function"
    },
    {
      "inputs": [
        {
          "internalType": "address",
          "name": "_user",
          "type": "address"
        }
      ],
      "name": "getFirstInviter",
      "outputs": [
        {
          "internalType": "address",
          "name": "",
          "type": "address"
        }
      ],
      "stateMutability": "view",
      "type": "function"
    },
    {
      "inputs": [
        {
          "internalType": "address",
          "name": "_user",
          "type": "address"
        },
        {
          "internalType": "address",
          "name": "_token",
          "type": "address"
        }
      ],
      "name": "getInviterBalance",
      "outputs": [
        {
          "internalType": "uint256",
          "name": "",
          "type": "uint256"
        }
      ],
      "stateMutability": "view",
      "type": "function"
    },
    {
      "inputs": [
        {
          "internalType": "address",
          "name": "_user",
          "type": "address"
        }
      ],
      "name": "getSecondInviter",
      "outputs": [
        {
          "internalType": "address",
          "name": "",
          "type": "address"
        }
      ],
      "stateMutability": "view",
      "type": "function"
    },
    {
      "inputs": [
        {
          "internalType": "address",
          "name": "_user",
          "type": "address"
        }
      ],
      "name": "getUser",
      "outputs": [
        {
          "internalType": "uint16",
          "name": "",
          "type": "uint16"
        },
        {
          "internalType": "uint16",
          "name": "",
          "type": "uint16"
        },
        {
          "internalType": "uint16",
          "name": "",
          "type": "uint16"
        },
        {
          "internalType": "uint16",
          "name": "",
          "type": "uint16"
        },
        {
          "internalType": "uint16",
          "name": "",
          "type": "uint16"
        },
        {
          "internalType": "uint16",
          "name": "",
          "type": "uint16"
        }
      ],
      "stateMutability": "view",
      "type": "function"
    },
    {
      "inputs": [
        {
          "internalType": "address",
          "name": "_user",
          "type": "address"
        }
      ],
      "name": "getUserIdentity",
      "outputs": [
        {
          "internalType": "string",
          "name": "",
          "type": "string"
        }
      ],
      "stateMutability": "view",
      "type": "function"
    },
    {
      "inputs": [
        {
          "internalType": "address",
          "name": "_user",
          "type": "address"
        },
        {
          "internalType": "address",
          "name": "_token",
          "type": "address"
        }
      ],
      "name": "getUserWeight",
      "outputs": [
        {
          "internalType": "uint256",
          "name": "",
          "type": "uint256"
        }
      ],
      "stateMutability": "view",
      "type": "function"
    },
    {
      "inputs": [],
      "name": "gigFactory",
      "outputs": [
        {
          "internalType": "address",
          "name": "",
          "type": "address"
        }
      ],
      "stateMutability": "view",
      "type": "function"
    },
    {
      "inputs": [
        {
          "internalType": "address",
          "name": "_user",
          "type": "address"
        }
      ],
      "name": "hasSoul",
      "outputs": [
        {
          "internalType": "bool",
          "name": "",
          "type": "bool"
        }
      ],
      "stateMutability": "view",
      "type": "function"
    },
    {
      "inputs": [
        {
          "internalType": "address",
          "name": "_user",
          "type": "address"
        },
        {
          "internalType": "address",
          "name": "_token",
          "type": "address"
        },
        {
          "internalType": "uint256",
          "name": "_amount",
          "type": "uint256"
        }
      ],
      "name": "incrValidVotes",
      "outputs": [],
      "stateMutability": "nonpayable",
      "type": "function"
    },
    {
      "inputs": [
        {
          "internalType": "address",
          "name": "_buyer",
          "type": "address"
        },
        {
          "internalType": "address",
          "name": "_seller",
          "type": "address"
        },
        {
          "internalType": "uint256",
          "name": "_amount",
          "type": "uint256"
        },
        {
          "internalType": "address",
          "name": "_token",
          "type": "address"
        }
      ],
      "name": "increaseInvitersBalance",
      "outputs": [],
      "stateMutability": "nonpayable",
      "type": "function"
    },
    {
      "inputs": [
        {
          "internalType": "address",
          "name": "_user",
          "type": "address"
        }
      ],
      "name": "isBan",
      "outputs": [
        {
          "internalType": "bool",
          "name": "",
          "type": "bool"
        }
      ],
      "stateMutability": "view",
      "type": "function"
    },
    {
      "inputs": [
        {
          "internalType": "address",
          "name": "_user",
          "type": "address"
        }
      ],
      "name": "isJudge",
      "outputs": [
        {
          "internalType": "bool",
          "name": "",
          "type": "bool"
        }
      ],
      "stateMutability": "view",
      "type": "function"
    },
    {
      "inputs": [
        {
          "internalType": "address",
          "name": "_input",
          "type": "address"
        }
      ],
      "name": "isZeroAddress",
      "outputs": [
        {
          "internalType": "bool",
          "name": "",
          "type": "bool"
        }
      ],
      "stateMutability": "pure",
      "type": "function"
    },
    {
      "inputs": [
        {
          "internalType": "string",
          "name": "_identity",
          "type": "string"
        },
        {
          "internalType": "address",
          "name": "_inviter",
          "type": "address"
        }
      ],
      "name": "mint",
      "outputs": [],
      "stateMutability": "nonpayable",
      "type": "function"
    },
    {
      "inputs": [
        {
          "internalType": "address",
          "name": "_buyer",
          "type": "address"
        },
        {
          "internalType": "address",
          "name": "_seller",
          "type": "address"
        }
      ],
      "name": "onGigFail",
      "outputs": [],
      "stateMutability": "nonpayable",
      "type": "function"
    },
    {
      "inputs": [
        {
          "internalType": "address",
          "name": "_buyer",
          "type": "address"
        },
        {
          "internalType": "address",
          "name": "_seller",
          "type": "address"
        }
      ],
      "name": "onGigSuccess",
      "outputs": [],
      "stateMutability": "nonpayable",
      "type": "function"
    },
    {
      "inputs": [
        {
          "internalType": "address",
          "name": "_buyer",
          "type": "address"
        },
        {
          "internalType": "address",
          "name": "_seller",
          "type": "address"
        }
      ],
      "name": "onTrial",
      "outputs": [],
      "stateMutability": "nonpayable",
      "type": "function"
    },
    {
      "inputs": [],
      "name": "owner",
      "outputs": [
        {
          "internalType": "address",
          "name": "",
          "type": "address"
        }
      ],
      "stateMutability": "view",
      "type": "function"
    },
    {
      "inputs": [],
      "name": "renounceOwnership",
      "outputs": [],
      "stateMutability": "nonpayable",
      "type": "function"
    },
    {
      "inputs": [
        {
          "internalType": "address",
          "name": "_user",
          "type": "address"
        }
      ],
      "name": "setBan",
      "outputs": [],
      "stateMutability": "nonpayable",
      "type": "function"
    },
    {
      "inputs": [
        {
          "internalType": "address",
          "name": "_user",
          "type": "address"
        }
      ],
      "name": "setJudge",
      "outputs": [],
      "stateMutability": "nonpayable",
      "type": "function"
    },
    {
      "inputs": [],
      "name": "totalValidVotes",
      "outputs": [
        {
          "internalType": "uint256",
          "name": "",
          "type": "uint256"
        }
      ],
      "stateMutability": "view",
      "type": "function"
    },
    {
      "inputs": [
        {
          "internalType": "address",
          "name": "newOwner",
          "type": "address"
        }
      ],
      "name": "transferOwnership",
      "outputs": [],
      "stateMutability": "nonpayable",
      "type": "function"
    },
    {
      "inputs": [
        {
          "internalType": "address",
          "name": "_token",
          "type": "address"
        }
      ],
      "name": "withdrawInviterRevenues",
      "outputs": [],
      "stateMutability": "nonpayable",
      "type": "function"
    }
  ],
  "bytecode": "0x60806040527fc5d2460186f7233c927e7db2dcc703c0e500b653ca82273b7bfad8045d85a47060001b6003553480156200003857600080fd5b50604051620036883803806200368883398181016040528101906200005e9190620001a9565b6200007e62000072620000c660201b60201c565b620000ce60201b60201c565b80600160006101000a81548173ffffffffffffffffffffffffffffffffffffffff021916908373ffffffffffffffffffffffffffffffffffffffff1602179055505062000223565b600033905090565b60008060009054906101000a900473ffffffffffffffffffffffffffffffffffffffff169050816000806101000a81548173ffffffffffffffffffffffffffffffffffffffff021916908373ffffffffffffffffffffffffffffffffffffffff1602179055508173ffffffffffffffffffffffffffffffffffffffff168173ffffffffffffffffffffffffffffffffffffffff167f8be0079c531659141344cd1fd0a4f28419497f9722a3daafe3b4186f6b6457e060405160405180910390a35050565b600081519050620001a38162000209565b92915050565b600060208284031215620001bc57600080fd5b6000620001cc8482850162000192565b91505092915050565b6000620001e282620001e9565b9050919050565b600073ffffffffffffffffffffffffffffffffffffffff82169050919050565b6200021481620001d5565b81146200022057600080fd5b50565b61345580620002336000396000f3fe608060405234801561001057600080fd5b50600436106101cf5760003560e01c80638da5cb5b11610104578063e1f72e74116100a2578063f2fde38b11610071578063f2fde38b1461052d578063f9688ca114610549578063fa09d6bd14610565578063fc2a422614610581576101cf565b8063e1f72e7414610495578063e2614e25146104b1578063ed896d66146104e1578063ef0e27f714610511576101cf565b8063b157c5cd116100de578063b157c5cd1461040f578063bdd752021461042b578063c1926b6c1461045b578063d915918414610477576101cf565b80638da5cb5b146103b75780639570ba9f146103d5578063af7ebbbd146103f1576101cf565b80634da3231f116101715780636800e1741161014b5780636800e1741461032c5780636f77926b14610348578063715018a61461037d5780638245fd6d14610387576101cf565b80634da3231f146102d657806353213646146102f257806356f0685a1461030e576101cf565b80632129c761116101ad5780632129c7611461023c5780632f7398fb1461026c5780634401e1071461029c57806344df8e70146102cc576101cf565b80630bb4b036146101d457806318664315146101f05780631c351a9d14610220575b600080fd5b6101ee60048036038101906101e99190612888565b6105b1565b005b61020a60048036038101906102059190612888565b6106a6565b6040516102179190612dc4565b60405180910390f35b61023a60048036038101906102359190612a09565b6106de565b005b61025660048036038101906102519190612888565b610a13565b6040516102639190612ddf565b60405180910390f35b61028660048036038101906102819190612888565b610ae7565b6040516102939190612dc4565b60405180910390f35b6102b660048036038101906102b19190612888565b610b40565b6040516102c39190612c88565b60405180910390f35b6102d4610be6565b005b6102f060048036038101906102eb91906128b1565b610d39565b005b61030c600480360381019061030791906129c8565b610ee5565b005b610316610f51565b6040516103239190612f02565b60405180910390f35b61034660048036038101906103419190612888565b610f5b565b005b610362600480360381019061035d9190612888565b610fa7565b60405161037496959493929190612ea1565b60405180910390f35b6103856111ab565b005b6103a1600480360381019061039c9190612888565b6111bf565b6040516103ae9190612c88565b60405180910390f35b6103bf611265565b6040516103cc9190612c88565b60405180910390f35b6103ef60048036038101906103ea91906128ed565b61128e565b005b6103f96113dd565b6040516104069190612f02565b60405180910390f35b61042960048036038101906104249190612888565b6113e7565b005b61044560048036038101906104409190612888565b6114dc565b6040516104529190612dc4565b60405180910390f35b610475600480360381019061047091906128b1565b611551565b005b61047f611634565b60405161048c9190612c88565b60405180910390f35b6104af60048036038101906104aa91906128b1565b61165e565b005b6104cb60048036038101906104c691906128b1565b61180a565b6040516104d89190612f02565b60405180910390f35b6104fb60048036038101906104f69190612888565b611894565b6040516105089190612dc4565b60405180910390f35b61052b60048036038101906105269190612888565b6118ed565b005b61054760048036038101906105429190612888565b611a73565b005b610563600480360381019061055e91906128b1565b611af7565b005b61057f600480360381019061057a919061293c565b611ca3565b005b61059b600480360381019061059691906128b1565b612204565b6040516105a89190612f02565b60405180910390f35b6105b961228e565b6000600260008373ffffffffffffffffffffffffffffffffffffffff1673ffffffffffffffffffffffffffffffffffffffff168152602001908152602001600020600501600d9054906101000a900460ff1690508015600260008473ffffffffffffffffffffffffffffffffffffffff1673ffffffffffffffffffffffffffffffffffffffff168152602001908152602001600020600501600d6101000a81548160ff0219169083151502179055507f7b4fa29ddc1c10119d9f5d6420d86f292a592fcb7a2d822a4e37469d818a305282821560405161069a929190612d3b565b60405180910390a15050565b60008073ffffffffffffffffffffffffffffffffffffffff168273ffffffffffffffffffffffffffffffffffffffff16149050919050565b6106e7336114dc565b15801561072057503373ffffffffffffffffffffffffffffffffffffffff168173ffffffffffffffffffffffffffffffffffffffff1614155b61072957600080fd5b610732816106a6565b61073c5780610745565b610744611265565b5b90506000600260008373ffffffffffffffffffffffffffffffffffffffff1673ffffffffffffffffffffffffffffffffffffffff1681526020019081526020016000206003016000600281106107c4577f4e487b7100000000000000000000000000000000000000000000000000000000600052603260045260246000fd5b0160009054906101000a900473ffffffffffffffffffffffffffffffffffffffff1690506107f1816106a6565b6107fb5780610804565b610803611265565b5b905082600260003373ffffffffffffffffffffffffffffffffffffffff1673ffffffffffffffffffffffffffffffffffffffff168152602001908152602001600020600001908051906020019061085c9291906126db565b5081600260003373ffffffffffffffffffffffffffffffffffffffff1673ffffffffffffffffffffffffffffffffffffffff1681526020019081526020016000206003016000600281106108d9577f4e487b7100000000000000000000000000000000000000000000000000000000600052603260045260246000fd5b0160006101000a81548173ffffffffffffffffffffffffffffffffffffffff021916908373ffffffffffffffffffffffffffffffffffffffff16021790555080600260003373ffffffffffffffffffffffffffffffffffffffff1673ffffffffffffffffffffffffffffffffffffffff168152602001908152602001600020600301600160028110610994577f4e487b7100000000000000000000000000000000000000000000000000000000600052603260045260246000fd5b0160006101000a81548173ffffffffffffffffffffffffffffffffffffffff021916908373ffffffffffffffffffffffffffffffffffffffff1602179055507fae6cb44adaf069f60776c68030cd1cae7fde225585e22da2b9abc33dde5d62db338383604051610a0693929190612ca3565b60405180910390a1505050565b6060600260008373ffffffffffffffffffffffffffffffffffffffff1673ffffffffffffffffffffffffffffffffffffffff1681526020019081526020016000206000018054610a629061316b565b80601f0160208091040260200160405190810160405280929190818152602001828054610a8e9061316b565b8015610adb5780601f10610ab057610100808354040283529160200191610adb565b820191906000526020600020905b815481529060010190602001808311610abe57829003601f168201915b50505050509050919050565b6000600260008373ffffffffffffffffffffffffffffffffffffffff1673ffffffffffffffffffffffffffffffffffffffff168152602001908152602001600020600501600d9054906101000a900460ff169050919050565b6000600260008373ffffffffffffffffffffffffffffffffffffffff1673ffffffffffffffffffffffffffffffffffffffff168152602001908152602001600020600301600060028110610bbd577f4e487b7100000000000000000000000000000000000000000000000000000000600052603260045260246000fd5b0160009054906101000a900473ffffffffffffffffffffffffffffffffffffffff169050919050565b610bef336114dc565b610bf857600080fd5b600260003373ffffffffffffffffffffffffffffffffffffffff1673ffffffffffffffffffffffffffffffffffffffff16815260200190815260200160002060008082016000610c489190612761565b600382016000610c5891906127a1565b6005820160006101000a81549061ffff02191690556005820160026101000a81549061ffff02191690556005820160046101000a81549061ffff02191690556005820160066101000a81549061ffff02191690556005820160086101000a81549061ffff021916905560058201600a6101000a81549061ffff021916905560058201600c6101000a81549060ff021916905560058201600d6101000a81549060ff021916905550507fe22de1457cb61fb61b60176bc4235a9abd19466126b46692bc14fc573f09924933604051610d2f9190612c88565b60405180910390a1565b600160009054906101000a900473ffffffffffffffffffffffffffffffffffffffff1673ffffffffffffffffffffffffffffffffffffffff1663e86f7b57336040518263ffffffff1660e01b8152600401610d949190612c88565b60206040518083038186803b158015610dac57600080fd5b505afa158015610dc0573d6000803e3d6000fd5b505050506040513d601f19601f82011682018060405250810190610de4919061299f565b610ded57600080fd5b6001600260008473ffffffffffffffffffffffffffffffffffffffff1673ffffffffffffffffffffffffffffffffffffffff168152602001908152602001600020600501600a8282829054906101000a900461ffff16610e4d9190612fba565b92506101000a81548161ffff021916908361ffff1602179055506001600260008373ffffffffffffffffffffffffffffffffffffffff1673ffffffffffffffffffffffffffffffffffffffff168152602001908152602001600020600501600a8282829054906101000a900461ffff16610ec79190612fba565b92506101000a81548161ffff021916908361ffff1602179055505050565b610eee336114dc565b610ef757600080fd5b80600260003373ffffffffffffffffffffffffffffffffffffffff1673ffffffffffffffffffffffffffffffffffffffff1681526020019081526020016000206000019080519060200190610f4d9291906126db565b5050565b6000600454905090565b610f6361228e565b80600160006101000a81548173ffffffffffffffffffffffffffffffffffffffff021916908373ffffffffffffffffffffffffffffffffffffffff16021790555050565b600080600080600080600260008873ffffffffffffffffffffffffffffffffffffffff1673ffffffffffffffffffffffffffffffffffffffff16815260200190815260200160002060050160009054906101000a900461ffff16600260008973ffffffffffffffffffffffffffffffffffffffff1673ffffffffffffffffffffffffffffffffffffffff16815260200190815260200160002060050160029054906101000a900461ffff16600260008a73ffffffffffffffffffffffffffffffffffffffff1673ffffffffffffffffffffffffffffffffffffffff16815260200190815260200160002060050160049054906101000a900461ffff16600260008b73ffffffffffffffffffffffffffffffffffffffff1673ffffffffffffffffffffffffffffffffffffffff16815260200190815260200160002060050160069054906101000a900461ffff16600260008c73ffffffffffffffffffffffffffffffffffffffff1673ffffffffffffffffffffffffffffffffffffffff16815260200190815260200160002060050160089054906101000a900461ffff16600260008d73ffffffffffffffffffffffffffffffffffffffff1673ffffffffffffffffffffffffffffffffffffffff168152602001908152602001600020600501600a9054906101000a900461ffff1695509550955095509550955091939550919395565b6111b361228e565b6111bd600061230c565b565b6000600260008373ffffffffffffffffffffffffffffffffffffffff1673ffffffffffffffffffffffffffffffffffffffff16815260200190815260200160002060030160016002811061123c577f4e487b7100000000000000000000000000000000000000000000000000000000600052603260045260246000fd5b0160009054906101000a900473ffffffffffffffffffffffffffffffffffffffff169050919050565b60008060009054906101000a900473ffffffffffffffffffffffffffffffffffffffff16905090565b600160009054906101000a900473ffffffffffffffffffffffffffffffffffffffff1673ffffffffffffffffffffffffffffffffffffffff1663e86f7b57336040518263ffffffff1660e01b81526004016112e99190612c88565b60206040518083038186803b15801561130157600080fd5b505afa158015611315573d6000803e3d6000fd5b505050506040513d601f19601f82011682018060405250810190611339919061299f565b61134257600080fd5b80600260008573ffffffffffffffffffffffffffffffffffffffff1673ffffffffffffffffffffffffffffffffffffffff16815260200190815260200160002060020160008473ffffffffffffffffffffffffffffffffffffffff1673ffffffffffffffffffffffffffffffffffffffff16815260200190815260200160002060008282546113d19190612ff2565b92505081905550505050565b6000600554905090565b6113ef61228e565b6000600260008373ffffffffffffffffffffffffffffffffffffffff1673ffffffffffffffffffffffffffffffffffffffff168152602001908152602001600020600501600c9054906101000a900460ff1690508015600260008473ffffffffffffffffffffffffffffffffffffffff1673ffffffffffffffffffffffffffffffffffffffff168152602001908152602001600020600501600c6101000a81548160ff0219169083151502179055507f589267e6be1150bcd70443426faa6698e01a22d3228db4766a51c2c48e707fc98282156040516114d0929190612d3b565b60405180910390a15050565b6000600354600260008473ffffffffffffffffffffffffffffffffffffffff1673ffffffffffffffffffffffffffffffffffffffff1681526020019081526020016000206000016040516115309190612c71565b60405180910390201415611547576000905061154c565b600190505b919050565b600160009054906101000a900473ffffffffffffffffffffffffffffffffffffffff1673ffffffffffffffffffffffffffffffffffffffff163373ffffffffffffffffffffffffffffffffffffffff16146115ab57600080fd5b6000600260008473ffffffffffffffffffffffffffffffffffffffff1673ffffffffffffffffffffffffffffffffffffffff16815260200190815260200160002060020160008373ffffffffffffffffffffffffffffffffffffffff1673ffffffffffffffffffffffffffffffffffffffff168152602001908152602001600020819055505050565b6000600160009054906101000a900473ffffffffffffffffffffffffffffffffffffffff16905090565b600160009054906101000a900473ffffffffffffffffffffffffffffffffffffffff1673ffffffffffffffffffffffffffffffffffffffff1663e86f7b57336040518263ffffffff1660e01b81526004016116b99190612c88565b60206040518083038186803b1580156116d157600080fd5b505afa1580156116e5573d6000803e3d6000fd5b505050506040513d601f19601f82011682018060405250810190611709919061299f565b61171257600080fd5b6001600260008473ffffffffffffffffffffffffffffffffffffffff1673ffffffffffffffffffffffffffffffffffffffff16815260200190815260200160002060050160048282829054906101000a900461ffff166117729190612fba565b92506101000a81548161ffff021916908361ffff1602179055506001600260008373ffffffffffffffffffffffffffffffffffffffff1673ffffffffffffffffffffffffffffffffffffffff16815260200190815260200160002060050160028282829054906101000a900461ffff166117ec9190612fba565b92506101000a81548161ffff021916908361ffff1602179055505050565b6000600260008473ffffffffffffffffffffffffffffffffffffffff1673ffffffffffffffffffffffffffffffffffffffff16815260200190815260200160002060010160008373ffffffffffffffffffffffffffffffffffffffff1673ffffffffffffffffffffffffffffffffffffffff16815260200190815260200160002054905092915050565b6000600260008373ffffffffffffffffffffffffffffffffffffffff1673ffffffffffffffffffffffffffffffffffffffff168152602001908152602001600020600501600c9054906101000a900460ff169050919050565b6000600260003373ffffffffffffffffffffffffffffffffffffffff1673ffffffffffffffffffffffffffffffffffffffff16815260200190815260200160002060010160008373ffffffffffffffffffffffffffffffffffffffff1673ffffffffffffffffffffffffffffffffffffffff1681526020019081526020016000205490506000811161197e57600080fd5b6000600260003373ffffffffffffffffffffffffffffffffffffffff1673ffffffffffffffffffffffffffffffffffffffff16815260200190815260200160002060010160008473ffffffffffffffffffffffffffffffffffffffff1673ffffffffffffffffffffffffffffffffffffffff168152602001908152602001600020819055506000829050611a3333838373ffffffffffffffffffffffffffffffffffffffff166123d09092919063ffffffff16565b7f51b055679c4cc7c18ef373032948188930b398b1fab32bb43f7de9b263cbccec338385604051611a6693929190612d8d565b60405180910390a1505050565b611a7b61228e565b600073ffffffffffffffffffffffffffffffffffffffff168173ffffffffffffffffffffffffffffffffffffffff161415611aeb576040517f08c379a0000000000000000000000000000000000000000000000000000000008152600401611ae290612e01565b60405180910390fd5b611af48161230c565b50565b600160009054906101000a900473ffffffffffffffffffffffffffffffffffffffff1673ffffffffffffffffffffffffffffffffffffffff1663e86f7b57336040518263ffffffff1660e01b8152600401611b529190612c88565b60206040518083038186803b158015611b6a57600080fd5b505afa158015611b7e573d6000803e3d6000fd5b505050506040513d601f19601f82011682018060405250810190611ba2919061299f565b611bab57600080fd5b6001600260008473ffffffffffffffffffffffffffffffffffffffff1673ffffffffffffffffffffffffffffffffffffffff16815260200190815260200160002060050160068282829054906101000a900461ffff16611c0b9190612fba565b92506101000a81548161ffff021916908361ffff1602179055506001600260008373ffffffffffffffffffffffffffffffffffffffff1673ffffffffffffffffffffffffffffffffffffffff16815260200190815260200160002060050160088282829054906101000a900461ffff16611c859190612fba565b92506101000a81548161ffff021916908361ffff1602179055505050565b600160009054906101000a900473ffffffffffffffffffffffffffffffffffffffff1673ffffffffffffffffffffffffffffffffffffffff1663e86f7b57336040518263ffffffff1660e01b8152600401611cfe9190612c88565b60206040518083038186803b158015611d1657600080fd5b505afa158015611d2a573d6000803e3d6000fd5b505050506040513d601f19601f82011682018060405250810190611d4e919061299f565b611d5757600080fd5b6000611d6285610b40565b90506000611d6f866111bf565b9050611d7a826106a6565b15611d9457611d87611265565b9150611d91611265565b90505b6000611d9f86610b40565b90506000611dac876111bf565b9050611db7826106a6565b15611dd157611dc4611265565b9150611dce611265565b90505b600060026064600160009054906101000a900473ffffffffffffffffffffffffffffffffffffffff1673ffffffffffffffffffffffffffffffffffffffff1663f528008f6040518163ffffffff1660e01b815260040160206040518083038186803b158015611e3f57600080fd5b505afa158015611e53573d6000803e3d6000fd5b505050506040513d601f19601f82011682018060405250810190611e779190612a5d565b89611e829190613079565b611e8c9190613048565b611e969190613048565b9050600060026064600160009054906101000a900473ffffffffffffffffffffffffffffffffffffffff1673ffffffffffffffffffffffffffffffffffffffff166310628d046040518163ffffffff1660e01b815260040160206040518083038186803b158015611f0657600080fd5b505afa158015611f1a573d6000803e3d6000fd5b505050506040513d601f19601f82011682018060405250810190611f3e9190612a5d565b8a611f499190613079565b611f539190613048565b611f5d9190613048565b905081600260008873ffffffffffffffffffffffffffffffffffffffff1673ffffffffffffffffffffffffffffffffffffffff16815260200190815260200160002060010160008973ffffffffffffffffffffffffffffffffffffffff1673ffffffffffffffffffffffffffffffffffffffff1681526020019081526020016000206000828254611fee9190612ff2565b9250508190555080600260008773ffffffffffffffffffffffffffffffffffffffff1673ffffffffffffffffffffffffffffffffffffffff16815260200190815260200160002060010160008973ffffffffffffffffffffffffffffffffffffffff1673ffffffffffffffffffffffffffffffffffffffff16815260200190815260200160002060008282546120849190612ff2565b9250508190555081600260008673ffffffffffffffffffffffffffffffffffffffff1673ffffffffffffffffffffffffffffffffffffffff16815260200190815260200160002060010160008973ffffffffffffffffffffffffffffffffffffffff1673ffffffffffffffffffffffffffffffffffffffff168152602001908152602001600020600082825461211a9190612ff2565b9250508190555080600260008573ffffffffffffffffffffffffffffffffffffffff1673ffffffffffffffffffffffffffffffffffffffff16815260200190815260200160002060010160008973ffffffffffffffffffffffffffffffffffffffff1673ffffffffffffffffffffffffffffffffffffffff16815260200190815260200160002060008282546121b09190612ff2565b925050819055507f4214dfad03e7dc74209e0510844cebe114ebddb49e338d49f5cfa43eeb014be6868686868c8c6040516121f096959493929190612cda565b60405180910390a150505050505050505050565b6000600260008473ffffffffffffffffffffffffffffffffffffffff1673ffffffffffffffffffffffffffffffffffffffff16815260200190815260200160002060020160008373ffffffffffffffffffffffffffffffffffffffff1673ffffffffffffffffffffffffffffffffffffffff16815260200190815260200160002054905092915050565b612296612456565b73ffffffffffffffffffffffffffffffffffffffff166122b4611265565b73ffffffffffffffffffffffffffffffffffffffff161461230a576040517f08c379a000000000000000000000000000000000000000000000000000000000815260040161230190612e41565b60405180910390fd5b565b60008060009054906101000a900473ffffffffffffffffffffffffffffffffffffffff169050816000806101000a81548173ffffffffffffffffffffffffffffffffffffffff021916908373ffffffffffffffffffffffffffffffffffffffff1602179055508173ffffffffffffffffffffffffffffffffffffffff168173ffffffffffffffffffffffffffffffffffffffff167f8be0079c531659141344cd1fd0a4f28419497f9722a3daafe3b4186f6b6457e060405160405180910390a35050565b6124518363a9059cbb60e01b84846040516024016123ef929190612d64565b604051602081830303815290604052907bffffffffffffffffffffffffffffffffffffffffffffffffffffffff19166020820180517bffffffffffffffffffffffffffffffffffffffffffffffffffffffff838183161783525050505061245e565b505050565b600033905090565b60006124c0826040518060400160405280602081526020017f5361666545524332303a206c6f772d6c6576656c2063616c6c206661696c65648152508573ffffffffffffffffffffffffffffffffffffffff166125259092919063ffffffff16565b905060008151111561252057808060200190518101906124e0919061299f565b61251f576040517f08c379a000000000000000000000000000000000000000000000000000000000815260040161251690612e81565b60405180910390fd5b5b505050565b6060612534848460008561253d565b90509392505050565b606082471015612582576040517f08c379a000000000000000000000000000000000000000000000000000000000815260040161257990612e21565b60405180910390fd5b61258b85612651565b6125ca576040517f08c379a00000000000000000000000000000000000000000000000000000000081526004016125c190612e61565b60405180910390fd5b6000808673ffffffffffffffffffffffffffffffffffffffff1685876040516125f39190612c5a565b60006040518083038185875af1925050503d8060008114612630576040519150601f19603f3d011682016040523d82523d6000602084013e612635565b606091505b5091509150612645828286612674565b92505050949350505050565b6000808273ffffffffffffffffffffffffffffffffffffffff163b119050919050565b60608315612684578290506126d4565b6000835111156126975782518084602001fd5b816040517f08c379a00000000000000000000000000000000000000000000000000000000081526004016126cb9190612ddf565b60405180910390fd5b9392505050565b8280546126e79061316b565b90600052602060002090601f0160209004810192826127095760008555612750565b82601f1061272257805160ff1916838001178555612750565b82800160010185558215612750579182015b8281111561274f578251825591602001919060010190612734565b5b50905061275d91906127af565b5090565b50805461276d9061316b565b6000825580601f1061277f575061279e565b601f01602090049060005260206000209081019061279d91906127af565b5b50565b506000815560010160009055565b5b808211156127c85760008160009055506001016127b0565b5090565b60006127df6127da84612f42565b612f1d565b9050828152602081018484840111156127f757600080fd5b612802848285613129565b509392505050565b600081359050612819816133da565b92915050565b60008151905061282e816133f1565b92915050565b600082601f83011261284557600080fd5b81356128558482602086016127cc565b91505092915050565b60008135905061286d81613408565b92915050565b60008151905061288281613408565b92915050565b60006020828403121561289a57600080fd5b60006128a88482850161280a565b91505092915050565b600080604083850312156128c457600080fd5b60006128d28582860161280a565b92505060206128e38582860161280a565b9150509250929050565b60008060006060848603121561290257600080fd5b60006129108682870161280a565b93505060206129218682870161280a565b92505060406129328682870161285e565b9150509250925092565b6000806000806080858703121561295257600080fd5b60006129608782880161280a565b94505060206129718782880161280a565b93505060406129828782880161285e565b92505060606129938782880161280a565b91505092959194509250565b6000602082840312156129b157600080fd5b60006129bf8482850161281f565b91505092915050565b6000602082840312156129da57600080fd5b600082013567ffffffffffffffff8111156129f457600080fd5b612a0084828501612834565b91505092915050565b60008060408385031215612a1c57600080fd5b600083013567ffffffffffffffff811115612a3657600080fd5b612a4285828601612834565b9250506020612a538582860161280a565b9150509250929050565b600060208284031215612a6f57600080fd5b6000612a7d84828501612873565b91505092915050565b612a8f816130d3565b82525050565b612a9e816130e5565b82525050565b6000612aaf82612f88565b612ab98185612f9e565b9350612ac9818560208601613138565b80840191505092915050565b60008154612ae28161316b565b612aec8186612f9e565b94506001821660008114612b075760018114612b1857612b4b565b60ff19831686528186019350612b4b565b612b2185612f73565b60005b83811015612b4357815481890152600182019150602081019050612b24565b838801955050505b50505092915050565b6000612b5f82612f93565b612b698185612fa9565b9350612b79818560208601613138565b612b828161328a565b840191505092915050565b6000612b9a602683612fa9565b9150612ba58261329b565b604082019050919050565b6000612bbd602683612fa9565b9150612bc8826132ea565b604082019050919050565b6000612be0602083612fa9565b9150612beb82613339565b602082019050919050565b6000612c03601d83612fa9565b9150612c0e82613362565b602082019050919050565b6000612c26602a83612fa9565b9150612c318261338b565b604082019050919050565b612c45816130f1565b82525050565b612c548161311f565b82525050565b6000612c668284612aa4565b915081905092915050565b6000612c7d8284612ad5565b915081905092915050565b6000602082019050612c9d6000830184612a86565b92915050565b6000606082019050612cb86000830186612a86565b612cc56020830185612a86565b612cd26040830184612a86565b949350505050565b600060c082019050612cef6000830189612a86565b612cfc6020830188612a86565b612d096040830187612a86565b612d166060830186612a86565b612d236080830185612c4b565b612d3060a0830184612a86565b979650505050505050565b6000604082019050612d506000830185612a86565b612d5d6020830184612a95565b9392505050565b6000604082019050612d796000830185612a86565b612d866020830184612c4b565b9392505050565b6000606082019050612da26000830186612a86565b612daf6020830185612c4b565b612dbc6040830184612a86565b949350505050565b6000602082019050612dd96000830184612a95565b92915050565b60006020820190508181036000830152612df98184612b54565b905092915050565b60006020820190508181036000830152612e1a81612b8d565b9050919050565b60006020820190508181036000830152612e3a81612bb0565b9050919050565b60006020820190508181036000830152612e5a81612bd3565b9050919050565b60006020820190508181036000830152612e7a81612bf6565b9050919050565b60006020820190508181036000830152612e9a81612c19565b9050919050565b600060c082019050612eb66000830189612c3c565b612ec36020830188612c3c565b612ed06040830187612c3c565b612edd6060830186612c3c565b612eea6080830185612c3c565b612ef760a0830184612c3c565b979650505050505050565b6000602082019050612f176000830184612c4b565b92915050565b6000612f27612f38565b9050612f33828261319d565b919050565b6000604051905090565b600067ffffffffffffffff821115612f5d57612f5c61325b565b5b612f668261328a565b9050602081019050919050565b60008190508160005260206000209050919050565b600081519050919050565b600081519050919050565b600081905092915050565b600082825260208201905092915050565b6000612fc5826130f1565b9150612fd0836130f1565b92508261ffff03821115612fe757612fe66131ce565b5b828201905092915050565b6000612ffd8261311f565b91506130088361311f565b9250827fffffffffffffffffffffffffffffffffffffffffffffffffffffffffffffffff0382111561303d5761303c6131ce565b5b828201905092915050565b60006130538261311f565b915061305e8361311f565b92508261306e5761306d6131fd565b5b828204905092915050565b60006130848261311f565b915061308f8361311f565b9250817fffffffffffffffffffffffffffffffffffffffffffffffffffffffffffffffff04831182151516156130c8576130c76131ce565b5b828202905092915050565b60006130de826130ff565b9050919050565b60008115159050919050565b600061ffff82169050919050565b600073ffffffffffffffffffffffffffffffffffffffff82169050919050565b6000819050919050565b82818337600083830152505050565b60005b8381101561315657808201518184015260208101905061313b565b83811115613165576000848401525b50505050565b6000600282049050600182168061318357607f821691505b602082108114156131975761319661322c565b5b50919050565b6131a68261328a565b810181811067ffffffffffffffff821117156131c5576131c461325b565b5b80604052505050565b7f4e487b7100000000000000000000000000000000000000000000000000000000600052601160045260246000fd5b7f4e487b7100000000000000000000000000000000000000000000000000000000600052601260045260246000fd5b7f4e487b7100000000000000000000000000000000000000000000000000000000600052602260045260246000fd5b7f4e487b7100000000000000000000000000000000000000000000000000000000600052604160045260246000fd5b6000601f19601f8301169050919050565b7f4f776e61626c653a206e6577206f776e657220697320746865207a65726f206160008201527f6464726573730000000000000000000000000000000000000000000000000000602082015250565b7f416464726573733a20696e73756666696369656e742062616c616e636520666f60008201527f722063616c6c0000000000000000000000000000000000000000000000000000602082015250565b7f4f776e61626c653a2063616c6c6572206973206e6f7420746865206f776e6572600082015250565b7f416464726573733a2063616c6c20746f206e6f6e2d636f6e7472616374000000600082015250565b7f5361666545524332303a204552433230206f7065726174696f6e20646964206e60008201527f6f74207375636365656400000000000000000000000000000000000000000000602082015250565b6133e3816130d3565b81146133ee57600080fd5b50565b6133fa816130e5565b811461340557600080fd5b50565b6134118161311f565b811461341c57600080fd5b5056fea2646970667358221220e33f98bcb38487b313afc5e5c86696ea1b82b8e103c64c796e34ad457427105a64736f6c63430008040033",
  "linkReferences": {},
  "deployedLinkReferences": {}
}