{
  "_format": "hh-sol-artifact-1",
  "contractName": "UserSoul",
  "sourceName": "contracts/UserSoul.sol",
  "abi": [
    {
      "inputs": [
        {
          "internalType": "address",
          "name": "_newGigFactory",
          "type": "address"
        }
      ],
      "stateMutability": "nonpayable",
      "type": "constructor"
    },
    {
      "anonymous": false,
      "inputs": [
        {
          "indexed": false,
          "internalType": "address",
          "name": "_user",
          "type": "address"
        },
        {
          "indexed": false,
          "internalType": "bool",
          "name": "isBan",
          "type": "bool"
        }
      ],
      "name": "Ban",
      "type": "event"
    },
    {
      "anonymous": false,
      "inputs": [
        {
          "indexed": false,
          "internalType": "address",
          "name": "_user",
          "type": "address"
        }
      ],
      "name": "Burn",
      "type": "event"
    },
    {
      "anonymous": false,
      "inputs": [
        {
          "indexed": false,
          "internalType": "address",
          "name": "_user",
          "type": "address"
        },
        {
          "indexed": false,
          "internalType": "uint256",
          "name": "_amount",
          "type": "uint256"
        },
        {
          "indexed": false,
          "internalType": "address",
          "name": "_token",
          "type": "address"
        }
      ],
      "name": "InviterWithdrawal",
      "type": "event"
    },
    {
      "anonymous": false,
      "inputs": [
        {
          "indexed": false,
          "internalType": "address",
          "name": "_firstBuyerSeller",
          "type": "address"
        },
        {
          "indexed": false,
          "internalType": "address",
          "name": "_secondBuyerInviter",
          "type": "address"
        },
        {
          "indexed": false,
          "internalType": "address",
          "name": "_firstSellerInviter",
          "type": "address"
        },
        {
          "indexed": false,
          "internalType": "address",
          "name": "_secondSellerInviter",
          "type": "address"
        },
        {
          "indexed": false,
          "internalType": "uint256",
          "name": "_amount",
          "type": "uint256"
        },
        {
          "indexed": false,
          "internalType": "address",
          "name": "_token",
          "type": "address"
        }
      ],
      "name": "InvitersIncrease",
      "type": "event"
    },
    {
      "anonymous": false,
      "inputs": [
        {
          "indexed": false,
          "internalType": "address",
          "name": "_user",
          "type": "address"
        },
        {
          "indexed": false,
          "internalType": "bool",
          "name": "isJudge",
          "type": "bool"
        }
      ],
      "name": "Judge",
      "type": "event"
    },
    {
      "anonymous": false,
      "inputs": [
        {
          "indexed": false,
          "internalType": "address",
          "name": "_user",
          "type": "address"
        },
        {
          "indexed": false,
          "internalType": "address",
          "name": "_inviter0",
          "type": "address"
        },
        {
          "indexed": false,
          "internalType": "address",
          "name": "_inviter1",
          "type": "address"
        }
      ],
      "name": "Mint",
      "type": "event"
    },
    {
      "anonymous": false,
      "inputs": [
        {
          "indexed": true,
          "internalType": "address",
          "name": "previousOwner",
          "type": "address"
        },
        {
          "indexed": true,
          "internalType": "address",
          "name": "newOwner",
          "type": "address"
        }
      ],
      "name": "OwnershipTransferred",
      "type": "event"
    },
    {
      "inputs": [],
      "name": "balanceWeight",
      "outputs": [
        {
          "internalType": "uint256",
          "name": "",
          "type": "uint256"
        }
      ],
      "stateMutability": "view",
      "type": "function"
    },
    {
      "inputs": [],
      "name": "burn",
      "outputs": [],
      "stateMutability": "nonpayable",
      "type": "function"
    },
    {
      "inputs": [
        {
          "internalType": "address",
          "name": "_newFacto",
          "type": "address"
        }
      ],
      "name": "changeGigFactory",
      "outputs": [],
      "stateMutability": "nonpayable",
      "type": "function"
    },
    {
      "inputs": [
        {
          "internalType": "string",
          "name": "_newIdentity",
          "type": "string"
        }
      ],
      "name": "changeIdentity",
      "outputs": [],
      "stateMutability": "nonpayable",
      "type": "function"
    },
    {
      "inputs": [
        {
          "internalType": "address",
          "name": "_user",
          "type": "address"
        },
        {
          "internalType": "address",
          "name": "_token",
          "type": "address"
        }
      ],
      "name": "decreaseUserJudgeWeight",
      "outputs": [],
      "stateMutability": "nonpayable",
      "type": "function"
    },
    {
      "inputs": [
        {
          "internalType": "address",
          "name": "_user",
          "type": "address"
        }
      ],
      "name": "getFirstInviter",
      "outputs": [
        {
          "internalType": "address",
          "name": "",
          "type": "address"
        }
      ],
      "stateMutability": "view",
      "type": "function"
    },
    {
      "inputs": [
        {
          "internalType": "address",
          "name": "_user",
          "type": "address"
        },
        {
          "internalType": "address",
          "name": "_token",
          "type": "address"
        }
      ],
      "name": "getInviterBalance",
      "outputs": [
        {
          "internalType": "uint256",
          "name": "",
          "type": "uint256"
        }
      ],
      "stateMutability": "view",
      "type": "function"
    },
    {
      "inputs": [
        {
          "internalType": "address",
          "name": "_user",
          "type": "address"
        }
      ],
      "name": "getSecondInviter",
      "outputs": [
        {
          "internalType": "address",
          "name": "",
          "type": "address"
        }
      ],
      "stateMutability": "view",
      "type": "function"
    },
    {
      "inputs": [
        {
          "internalType": "address",
          "name": "_user",
          "type": "address"
        }
      ],
      "name": "getUser",
      "outputs": [
        {
          "internalType": "uint16",
          "name": "",
          "type": "uint16"
        },
        {
          "internalType": "uint16",
          "name": "",
          "type": "uint16"
        },
        {
          "internalType": "uint16",
          "name": "",
          "type": "uint16"
        },
        {
          "internalType": "uint16",
          "name": "",
          "type": "uint16"
        },
        {
          "internalType": "uint16",
          "name": "",
          "type": "uint16"
        },
        {
          "internalType": "uint16",
          "name": "",
          "type": "uint16"
        }
      ],
      "stateMutability": "view",
      "type": "function"
    },
    {
      "inputs": [
        {
          "internalType": "address",
          "name": "_user",
          "type": "address"
        }
      ],
      "name": "getUserIdentity",
      "outputs": [
        {
          "internalType": "string",
          "name": "",
          "type": "string"
        }
      ],
      "stateMutability": "view",
      "type": "function"
    },
    {
      "inputs": [
        {
          "internalType": "address",
          "name": "_user",
          "type": "address"
        },
        {
          "internalType": "address",
          "name": "_token",
          "type": "address"
        }
      ],
      "name": "getUserWeight",
      "outputs": [
        {
          "internalType": "uint256",
          "name": "",
          "type": "uint256"
        }
      ],
      "stateMutability": "view",
      "type": "function"
    },
    {
      "inputs": [],
      "name": "gigFactory",
      "outputs": [
        {
          "internalType": "address",
          "name": "",
          "type": "address"
        }
      ],
      "stateMutability": "view",
      "type": "function"
    },
    {
      "inputs": [
        {
          "internalType": "address",
          "name": "_user",
          "type": "address"
        }
      ],
      "name": "hasSoul",
      "outputs": [
        {
          "internalType": "bool",
          "name": "",
          "type": "bool"
        }
      ],
      "stateMutability": "view",
      "type": "function"
    },
    {
      "inputs": [
        {
          "internalType": "address",
          "name": "_user",
          "type": "address"
        },
        {
          "internalType": "address",
          "name": "_token",
          "type": "address"
        },
        {
          "internalType": "uint256",
          "name": "_amount",
          "type": "uint256"
        }
      ],
      "name": "incrValidVotes",
      "outputs": [],
      "stateMutability": "nonpayable",
      "type": "function"
    },
    {
      "inputs": [
        {
          "internalType": "address",
          "name": "_buyer",
          "type": "address"
        },
        {
          "internalType": "address",
          "name": "_seller",
          "type": "address"
        },
        {
          "internalType": "uint256",
          "name": "_amount",
          "type": "uint256"
        },
        {
          "internalType": "address",
          "name": "_token",
          "type": "address"
        }
      ],
      "name": "increaseInvitersBalance",
      "outputs": [],
      "stateMutability": "nonpayable",
      "type": "function"
    },
    {
      "inputs": [
        {
          "internalType": "address",
          "name": "_user",
          "type": "address"
        }
      ],
      "name": "isBan",
      "outputs": [
        {
          "internalType": "bool",
          "name": "",
          "type": "bool"
        }
      ],
      "stateMutability": "view",
      "type": "function"
    },
    {
      "inputs": [
        {
          "internalType": "address",
          "name": "_user",
          "type": "address"
        }
      ],
      "name": "isJudge",
      "outputs": [
        {
          "internalType": "bool",
          "name": "",
          "type": "bool"
        }
      ],
      "stateMutability": "view",
      "type": "function"
    },
    {
      "inputs": [
        {
          "internalType": "address",
          "name": "_input",
          "type": "address"
        }
      ],
      "name": "isZeroAddress",
      "outputs": [
        {
          "internalType": "bool",
          "name": "",
          "type": "bool"
        }
      ],
      "stateMutability": "pure",
      "type": "function"
    },
    {
      "inputs": [
        {
          "internalType": "string",
          "name": "_identity",
          "type": "string"
        },
        {
          "internalType": "address",
          "name": "_inviter",
          "type": "address"
        }
      ],
      "name": "mint",
      "outputs": [],
      "stateMutability": "nonpayable",
      "type": "function"
    },
    {
      "inputs": [
        {
          "internalType": "address",
          "name": "_buyer",
          "type": "address"
        },
        {
          "internalType": "address",
          "name": "_seller",
          "type": "address"
        }
      ],
      "name": "onGigFail",
      "outputs": [],
      "stateMutability": "nonpayable",
      "type": "function"
    },
    {
      "inputs": [
        {
          "internalType": "address",
          "name": "_buyer",
          "type": "address"
        },
        {
          "internalType": "address",
          "name": "_seller",
          "type": "address"
        }
      ],
      "name": "onGigSuccess",
      "outputs": [],
      "stateMutability": "nonpayable",
      "type": "function"
    },
    {
      "inputs": [
        {
          "internalType": "address",
          "name": "_buyer",
          "type": "address"
        },
        {
          "internalType": "address",
          "name": "_seller",
          "type": "address"
        }
      ],
      "name": "onTrial",
      "outputs": [],
      "stateMutability": "nonpayable",
      "type": "function"
    },
    {
      "inputs": [],
      "name": "owner",
      "outputs": [
        {
          "internalType": "address",
          "name": "",
          "type": "address"
        }
      ],
      "stateMutability": "view",
      "type": "function"
    },
    {
      "inputs": [],
      "name": "renounceOwnership",
      "outputs": [],
      "stateMutability": "nonpayable",
      "type": "function"
    },
    {
      "inputs": [
        {
          "internalType": "address",
          "name": "_user",
          "type": "address"
        }
      ],
      "name": "setBan",
      "outputs": [],
      "stateMutability": "nonpayable",
      "type": "function"
    },
    {
      "inputs": [
        {
          "internalType": "address",
          "name": "_user",
          "type": "address"
        }
      ],
      "name": "setJudge",
      "outputs": [],
      "stateMutability": "nonpayable",
      "type": "function"
    },
    {
      "inputs": [],
      "name": "totalValidVotes",
      "outputs": [
        {
          "internalType": "uint256",
          "name": "",
          "type": "uint256"
        }
      ],
      "stateMutability": "view",
      "type": "function"
    },
    {
      "inputs": [
        {
          "internalType": "address",
          "name": "newOwner",
          "type": "address"
        }
      ],
      "name": "transferOwnership",
      "outputs": [],
      "stateMutability": "nonpayable",
      "type": "function"
    },
    {
      "inputs": [
        {
          "internalType": "address",
          "name": "_token",
          "type": "address"
        }
      ],
      "name": "withdrawInviterRevenues",
      "outputs": [],
      "stateMutability": "nonpayable",
      "type": "function"
    }
  ],
  "bytecode": "0x60806040527fc5d2460186f7233c927e7db2dcc703c0e500b653ca82273b7bfad8045d85a47060001b6003553480156200003857600080fd5b5060405162005ac938038062005ac983398181016040528101906200005e919062000248565b6200007e620000726200016260201b60201c565b6200016a60201b60201c565b620000b27f89fa13689ec89b642055de4d3912c2f0f8c2b8d019241d6b622446ed789d623a60001b6200022e60201b60201c565b620000e67ffcc7d1ed9432a03965367f62336dc5fed4b72c875c8a97c30c5880f439a83f4760001b6200022e60201b60201c565b6200011a7ff50226c1d43da7c0ebab4f477fe246c8cd30107b9b45f512d73bbad5c84c44be60001b6200022e60201b60201c565b80600160006101000a81548173ffffffffffffffffffffffffffffffffffffffff021916908373ffffffffffffffffffffffffffffffffffffffff16021790555050620002c2565b600033905090565b60008060009054906101000a900473ffffffffffffffffffffffffffffffffffffffff169050816000806101000a81548173ffffffffffffffffffffffffffffffffffffffff021916908373ffffffffffffffffffffffffffffffffffffffff1602179055508173ffffffffffffffffffffffffffffffffffffffff168173ffffffffffffffffffffffffffffffffffffffff167f8be0079c531659141344cd1fd0a4f28419497f9722a3daafe3b4186f6b6457e060405160405180910390a35050565b50565b6000815190506200024281620002a8565b92915050565b6000602082840312156200025b57600080fd5b60006200026b8482850162000231565b91505092915050565b6000620002818262000288565b9050919050565b600073ffffffffffffffffffffffffffffffffffffffff82169050919050565b620002b38162000274565b8114620002bf57600080fd5b50565b6157f780620002d26000396000f3fe608060405234801561001057600080fd5b50600436106101cf5760003560e01c80638da5cb5b11610104578063e1f72e74116100a2578063f2fde38b11610071578063f2fde38b1461052d578063f9688ca114610549578063fa09d6bd14610565578063fc2a422614610581576101cf565b8063e1f72e7414610495578063e2614e25146104b1578063ed896d66146104e1578063ef0e27f714610511576101cf565b8063b157c5cd116100de578063b157c5cd1461040f578063bdd752021461042b578063c1926b6c1461045b578063d915918414610477576101cf565b80638da5cb5b146103b75780639570ba9f146103d5578063af7ebbbd146103f1576101cf565b80634da3231f116101715780636800e1741161014b5780636800e1741461032c5780636f77926b14610348578063715018a61461037d5780638245fd6d14610387576101cf565b80634da3231f146102d657806353213646146102f257806356f0685a1461030e576101cf565b80632129c761116101ad5780632129c7611461023c5780632f7398fb1461026c5780634401e1071461029c57806344df8e70146102cc576101cf565b80630bb4b036146101d457806318664315146101f05780631c351a9d14610220575b600080fd5b6101ee60048036038101906101e99190614c2a565b6105b1565b005b61020a60048036038101906102059190614c2a565b6107da565b6040516102179190615166565b60405180910390f35b61023a60048036038101906102359190614dab565b610897565b005b61025660048036038101906102519190614c2a565b610f10565b6040516102639190615181565b60405180910390f35b61028660048036038101906102819190614c2a565b611068565b6040516102939190615166565b60405180910390f35b6102b660048036038101906102b19190614c2a565b611145565b6040516102c3919061502a565b60405180910390f35b6102d461126f565b005b6102f060048036038101906102eb9190614c53565b611522565b005b61030c60048036038101906103079190614d6a565b6118b2565b005b610316611a52565b60405161032391906152a4565b60405180910390f35b61034660048036038101906103419190614c2a565b611ae0565b005b610362600480360381019061035d9190614c2a565b611bb0565b60405161037496959493929190615243565b60405180910390f35b610385611e38565b005b6103a1600480360381019061039c9190614c2a565b611e4c565b6040516103ae919061502a565b60405180910390f35b6103bf611f76565b6040516103cc919061502a565b60405180910390f35b6103ef60048036038101906103ea9190614c8f565b611f9f565b005b6103f961227a565b60405161040691906152a4565b60405180910390f35b61042960048036038101906104249190614c2a565b612308565b005b61044560048036038101906104409190614c2a565b612531565b6040516104529190615166565b60405180910390f35b61047560048036038101906104709190614c53565b612732565b005b61047f6129a1565b60405161048c919061502a565b60405180910390f35b6104af60048036038101906104aa9190614c53565b612a4f565b005b6104cb60048036038101906104c69190614c53565b612ddf565b6040516104d891906152a4565b60405180910390f35b6104fb60048036038101906104f69190614c2a565b612eed565b6040516105089190615166565b60405180910390f35b61052b60048036038101906105269190614c2a565b612fca565b005b61054760048036038101906105429190614c2a565b6133e4565b005b610563600480360381019061055e9190614c53565b613468565b005b61057f600480360381019061057a9190614cde565b6137f8565b005b61059b60048036038101906105969190614c53565b61451f565b6040516105a891906152a4565b60405180910390f35b6105b961462d565b6105e57f944f03cefbd54a85808cba521b9a133f1ac86aafd17e84b816885dde6535271f60001b6146ab565b6106117ffd28b39bff1b7c8d59dec94099c496ca1081fe89867d2f6f78e724ad9f9d631660001b6146ab565b61063d7f5595bd7b8407bb9bf2e988c8b9b0f2cde8058628e7bf58293aa4df5251da5bf160001b6146ab565b6000600260008373ffffffffffffffffffffffffffffffffffffffff1673ffffffffffffffffffffffffffffffffffffffff168152602001908152602001600020600501600d9054906101000a900460ff1690506106bd7fdb0f1afb0622f7659f8bfa4137b7f01778f9026d4ccd668603d7c9ec24e441ca60001b6146ab565b6106e97fdcaeec4d5fd6a5243e05656793728199e877d81dee341d88e2a8b5ea650d333960001b6146ab565b8015600260008473ffffffffffffffffffffffffffffffffffffffff1673ffffffffffffffffffffffffffffffffffffffff168152602001908152602001600020600501600d6101000a81548160ff0219169083151502179055506107707fcaa38f61de44027b5c212e2e16d43b2ac3687838cbea9c2e07eb63e5a36d6d1160001b6146ab565b61079c7ff28e9da9d414d9bf6936fa0e9bd3f9d00bf8e280cdcd2559c49afd87af714af760001b6146ab565b7f7b4fa29ddc1c10119d9f5d6420d86f292a592fcb7a2d822a4e37469d818a30528282156040516107ce9291906150dd565b60405180910390a15050565b60006108087fe494836b87ceabd2b1e5eabe5634f2c1316bdf8e8fbcdb3fc049d3ae42720afd60001b6146ab565b6108347f1f01088d62a7a218874d7cc3a8b6a6436d9f2268f8c4d31d8c322200013e08cb60001b6146ab565b6108607fdd5ebe757e4822d38862c3c8119762b52bafd87363e0292ef9a383e2a1abb19c60001b6146ab565b600073ffffffffffffffffffffffffffffffffffffffff168273ffffffffffffffffffffffffffffffffffffffff16149050919050565b6108c37fd32b523b0ff866aafde33332cf1192f19bca76cefb5c2d4b48c98dab1ad300c160001b6146ab565b6108ef7fae2cab4da24d05c3a84ec734765eab39de3f9d91728a0cec27e28c3938e0529160001b6146ab565b61091b7f45e8fce240550f98238b16aec1f912ce1a38ee471d7a97107388f45d2aa9fc2f60001b6146ab565b6109477fa7170efddaba776753b6e0ee01d2f3482453dbd93fd1405a5a3ecadf05e5050360001b6146ab565b61095033612531565b15801561098957503373ffffffffffffffffffffffffffffffffffffffff168173ffffffffffffffffffffffffffffffffffffffff1614155b61099257600080fd5b6109be7fb7824599ace4a60a461ef84ef453811abb34372b4f673f9aae1e3b2de23aff3060001b6146ab565b6109ea7f138c647c91334202430aa43dc1c10fe59fc1199e7a750db1a39aae7a105e661b60001b6146ab565b610a167f491156ee6eebe76bbc7123d27eaa4829c15417246d80587d2f6d662ae75ba74460001b6146ab565b610a1f816107da565b610a295780610a32565b610a31611f76565b5b9050610a607f83ef61b23bd92815a8e8fb036077215693f279c82ee4edbbca453ae50fe8f92e60001b6146ab565b610a8c7feaa566c700147a36f7d63ed7b8caf26f7915fc074d3cbba61de652eb1177b5e260001b6146ab565b6000600260008373ffffffffffffffffffffffffffffffffffffffff1673ffffffffffffffffffffffffffffffffffffffff168152602001908152602001600020600301600060028110610b09577f4e487b7100000000000000000000000000000000000000000000000000000000600052603260045260246000fd5b0160009054906101000a900473ffffffffffffffffffffffffffffffffffffffff169050610b597f10033981c5affbb93f5294190ab9b25be10b45414283e3095feb596aef8b70fc60001b6146ab565b610b857f9a2beff28c0e539eb801342d49775b2bd71e4af7be452860ca8054f80b2127d260001b6146ab565b610b8e816107da565b610b985780610ba1565b610ba0611f76565b5b9050610bcf7f23626b31289f73f76e0e70eaaf2fdb7cade21fa36e9e82c5d4e2f50c4a0a81a860001b6146ab565b610bfb7f90426d6a53ecacf51c50d5cc01fa98b796210dbf83dab2e28efb7bc80177d39160001b6146ab565b82600260003373ffffffffffffffffffffffffffffffffffffffff1673ffffffffffffffffffffffffffffffffffffffff1681526020019081526020016000206000019080519060200190610c51929190614a7d565b50610c7e7f2fcb4d6c3f2404132e66bf1490631d8274bc892c41337b7ae48aef3a28c61c5560001b6146ab565b610caa7fc81d3a2d33821d3f0bb27e20da8bcebf8ac8f5fd157122d5d20a7a0d5e1cc9be60001b6146ab565b81600260003373ffffffffffffffffffffffffffffffffffffffff1673ffffffffffffffffffffffffffffffffffffffff168152602001908152602001600020600301600060028110610d26577f4e487b7100000000000000000000000000000000000000000000000000000000600052603260045260246000fd5b0160006101000a81548173ffffffffffffffffffffffffffffffffffffffff021916908373ffffffffffffffffffffffffffffffffffffffff160217905550610d917f29bd46174b2e74f668a9c3a1ea1cb754b73889761a0ca2eabc98ed604828810b60001b6146ab565b610dbd7f5eeff04ed2f4481c0fc780127030e5037b8be271e6eae219d7158820c40f189160001b6146ab565b80600260003373ffffffffffffffffffffffffffffffffffffffff1673ffffffffffffffffffffffffffffffffffffffff168152602001908152602001600020600301600160028110610e39577f4e487b7100000000000000000000000000000000000000000000000000000000600052603260045260246000fd5b0160006101000a81548173ffffffffffffffffffffffffffffffffffffffff021916908373ffffffffffffffffffffffffffffffffffffffff160217905550610ea47fd67eb237cc4cd6afa4721fef39cbee41210e00c46a382ce54acb56e6092ea9ae60001b6146ab565b610ed07f16b0d0ede125449c52568da2aa73c38df663e4fe7cc1b453a0a07831db6e52ec60001b6146ab565b7fae6cb44adaf069f60776c68030cd1cae7fde225585e22da2b9abc33dde5d62db338383604051610f0393929190615045565b60405180910390a1505050565b6060610f3e7f6e9d04ae943e85d99f0cf0695bab6bf257fd8ab110a293ee66a4ca3657bdc43960001b6146ab565b610f6a7f3b3282f28d4317a8b78d480473fd2fc285df5e02e49d97e7d0a7ebdf66bc491660001b6146ab565b610f967ffa8944a3ffe99adc885478bfe0302628d5e45df80bb6a5006a6a458688a26c1360001b6146ab565b600260008373ffffffffffffffffffffffffffffffffffffffff1673ffffffffffffffffffffffffffffffffffffffff1681526020019081526020016000206000018054610fe39061550d565b80601f016020809104026020016040519081016040528092919081815260200182805461100f9061550d565b801561105c5780601f106110315761010080835404028352916020019161105c565b820191906000526020600020905b81548152906001019060200180831161103f57829003601f168201915b50505050509050919050565b60006110967fcdc4b7b51e753082f09152fb0d0b771eb0e52339df6b543f4192eb2b0c54872860001b6146ab565b6110c27f74d041c456ba4b82a27a7e085f204258226f7774c5cb8a17f116fe00f3596a0860001b6146ab565b6110ee7f5e9ce1e355ad5476a05a01b8eb762f21eccb6405b7fd298b00de29faef571c6860001b6146ab565b600260008373ffffffffffffffffffffffffffffffffffffffff1673ffffffffffffffffffffffffffffffffffffffff168152602001908152602001600020600501600d9054906101000a900460ff169050919050565b60006111737f95e0c1cf68ef533c7c340a4d7f1c655c89e1fd8c70479215002cf75f8dda825260001b6146ab565b61119f7f2db1f7fb073491cc69303923681824f4d6c5f3d38025bad55fd0bbf0f29b025360001b6146ab565b6111cb7f0d7594b9ba625e03850125fa010ba26e6983e62d9e3f6ada8b05c77e82ef545e60001b6146ab565b600260008373ffffffffffffffffffffffffffffffffffffffff1673ffffffffffffffffffffffffffffffffffffffff168152602001908152602001600020600301600060028110611246577f4e487b7100000000000000000000000000000000000000000000000000000000600052603260045260246000fd5b0160009054906101000a900473ffffffffffffffffffffffffffffffffffffffff169050919050565b61129b7f7513d15ab57de89e9a2709a54c9f80626bf01c50ecf14a5b4229c50171db54e260001b6146ab565b6112c77f99c17dc1134a50c35b733d5ba04869331e485dfd9a917874760f0d94e646d05360001b6146ab565b6112f37fb6eef4d1fbb5979a0e6f319326df3fe8708d96fd526389e1f0eeaec69be3874260001b6146ab565b61131f7fc297e0d60ddf606b6de0a6ed2b8f4f93bef5ed594be5d1404126b36130e4548360001b6146ab565b61132833612531565b61133157600080fd5b61135d7f5536e0a04695c5cf5e401f8ec59b5403546f3c0fd190750cd5d18765807c801b60001b6146ab565b6113897f87477af73b94e1e60f70ec26acd03c0e0439f25aa6f126810251494472918a9760001b6146ab565b600260003373ffffffffffffffffffffffffffffffffffffffff1673ffffffffffffffffffffffffffffffffffffffff168152602001908152602001600020600080820160006113d99190614b03565b6003820160006113e99190614b43565b6005820160006101000a81549061ffff02191690556005820160026101000a81549061ffff02191690556005820160046101000a81549061ffff02191690556005820160066101000a81549061ffff02191690556005820160086101000a81549061ffff021916905560058201600a6101000a81549061ffff021916905560058201600c6101000a81549060ff021916905560058201600d6101000a81549060ff021916905550506114bd7f15285f82216dfbef1ab8307916dbef01f7575f05afa093b53e7e2d212375b1a060001b6146ab565b6114e97fddf204affeef42415ca8e939afc8eb014b7f4d866ac5e7993b25d5bdaf1d528b60001b6146ab565b7fe22de1457cb61fb61b60176bc4235a9abd19466126b46692bc14fc573f09924933604051611518919061502a565b60405180910390a1565b61154e7faeeb2f9c17ad698245d9d2f01c5ba23d053dc96c1a3c6c25a20a9329665c233460001b6146ab565b61157a7f9c6cd08e11974a74823e75beed2de142e7fc85429031d7cc5316686df66268ca60001b6146ab565b6115a67f6a2e8d3c109a7d1e22232c398fd042e4fd7b91632332335bde88f325e07e304260001b6146ab565b6115d27f804b5b2d40da907078d44060f277b8aaaf2683cf47a65c57e53205b9962b30c460001b6146ab565b600160009054906101000a900473ffffffffffffffffffffffffffffffffffffffff1673ffffffffffffffffffffffffffffffffffffffff1663e86f7b57336040518263ffffffff1660e01b815260040161162d919061502a565b60206040518083038186803b15801561164557600080fd5b505afa158015611659573d6000803e3d6000fd5b505050506040513d601f19601f8201168201806040525081019061167d9190614d41565b61168657600080fd5b6116b27f47d6a56c7e3bcc5170d767b6af669bf1487acad7b4a800cd617a7c4fa7981a1f60001b6146ab565b6116de7fe479302b58c3f91f353143420e086f3d007a241683487b330e97dd24696ad58e60001b6146ab565b61170a7fd712393b99a4a2d920a612e25f939c68cea0ede1b8333154d7dabc0f12c359bd60001b6146ab565b6117367fad744c72700436808b47cd8f6e73df129af919623896997339e5aea19e3c4cfe60001b6146ab565b6117627f9bfbc360e7f1678a191d3ee183d109aee3de79b2eef9abbcca6459f395408b3f60001b6146ab565b6001600260008473ffffffffffffffffffffffffffffffffffffffff1673ffffffffffffffffffffffffffffffffffffffff168152602001908152602001600020600501600a8282829054906101000a900461ffff166117c2919061535c565b92506101000a81548161ffff021916908361ffff1602179055506118087ff97ddda1c2eda8d9b8b1d46904d6044b4a66496fdb113e77c99d10399f6857c560001b6146ab565b6118347f1d6471c8f76fcc6673fe330886273cf1ac19caa0683afb48494d353d21bf963360001b6146ab565b6001600260008373ffffffffffffffffffffffffffffffffffffffff1673ffffffffffffffffffffffffffffffffffffffff168152602001908152602001600020600501600a8282829054906101000a900461ffff16611894919061535c565b92506101000a81548161ffff021916908361ffff1602179055505050565b6118de7f6514b1f4f79fb6719f1eb06f963c9a40f88e8ae2114cd1b19845ff456061ee1360001b6146ab565b61190a7f6fc891f3f0a4e0a4b8ac2168eecc07151377133a7cc34ffb9a002793ae2a62c960001b6146ab565b6119367f3ca405586e38d6c4608f139db21a51d09a0e56e296fddecb0c61aac542b12ee560001b6146ab565b6119627fdb2c65aa08a7004283df844657d74fa20c1d292d8e7cbc512becd4c90477083360001b6146ab565b61196b33612531565b61197457600080fd5b6119a07f81fd550417fd10b713c9b71973a1d2ae9aebf1e411d7638eb3af4a9aae6b2b3d60001b6146ab565b6119cc7fc27f54be1ab360c6393bdc5e064806f673e891bca2a0e198806742a6e6b3523660001b6146ab565b6119f87f7ad41e5fff3844d91d205e25e18dd835acc432e81cb62ebb478549f32c29798760001b6146ab565b80600260003373ffffffffffffffffffffffffffffffffffffffff1673ffffffffffffffffffffffffffffffffffffffff1681526020019081526020016000206000019080519060200190611a4e929190614a7d565b5050565b6000611a807fa57474b19546c408ffd6003699e7ea248a90fc83fd60b89e0cbcdb5ae0e14b0660001b6146ab565b611aac7f2fbfa04b3c2ed976634c808ae80fbfda84573d6397aca022ad3c7c11b046a70d60001b6146ab565b611ad87f07978a7939a09954fabbf299efdfebfae5422fd66389d363e4db327a10c00be560001b6146ab565b600454905090565b611ae861462d565b611b147fde68de8718376deceba1411e2f80bd1caede1d4175fd6f78d1709bf82d49ff6f60001b6146ab565b611b407f1631eda756a8f55db85d9c8c1497317192a3f8a7fa2ae192e506d2bc98af800960001b6146ab565b611b6c7f9e40cba36b25550039cc0a2f6d9edb837928b41e6fdcc8c8496fdf82989c59b460001b6146ab565b80600160006101000a81548173ffffffffffffffffffffffffffffffffffffffff021916908373ffffffffffffffffffffffffffffffffffffffff16021790555050565b600080600080600080611be57fd0ebb9bed46813bdab3c70e598cbd6e11c636217a07425cc60ae3d546701803360001b6146ab565b611c117f25832d1a630900e1505052effe023fcf82574fee31aa6ec686c1fadd3f44d8a960001b6146ab565b611c3d7f1b83763a2544acae5e8cf9a85fc7607d67ba2a1b547494dfa312c5614aa1c43060001b6146ab565b600260008873ffffffffffffffffffffffffffffffffffffffff1673ffffffffffffffffffffffffffffffffffffffff16815260200190815260200160002060050160009054906101000a900461ffff16600260008973ffffffffffffffffffffffffffffffffffffffff1673ffffffffffffffffffffffffffffffffffffffff16815260200190815260200160002060050160029054906101000a900461ffff16600260008a73ffffffffffffffffffffffffffffffffffffffff1673ffffffffffffffffffffffffffffffffffffffff16815260200190815260200160002060050160049054906101000a900461ffff16600260008b73ffffffffffffffffffffffffffffffffffffffff1673ffffffffffffffffffffffffffffffffffffffff16815260200190815260200160002060050160069054906101000a900461ffff16600260008c73ffffffffffffffffffffffffffffffffffffffff1673ffffffffffffffffffffffffffffffffffffffff16815260200190815260200160002060050160089054906101000a900461ffff16600260008d73ffffffffffffffffffffffffffffffffffffffff1673ffffffffffffffffffffffffffffffffffffffff168152602001908152602001600020600501600a9054906101000a900461ffff1695509550955095509550955091939550919395565b611e4061462d565b611e4a60006146ae565b565b6000611e7a7f47c1ad0f896bf5fc5406d6a8ce0534cec3370334085506f4ecb5c9b36416b61f60001b6146ab565b611ea67f3d264ac8ead26db5cb723dd4ef5980121401906b24d537538f8334c47cd3a3ab60001b6146ab565b611ed27fd0c5f9f603c22bace3d8545b3fa841995ec0fcf93f376db56a7fa84f281d061060001b6146ab565b600260008373ffffffffffffffffffffffffffffffffffffffff1673ffffffffffffffffffffffffffffffffffffffff168152602001908152602001600020600301600160028110611f4d577f4e487b7100000000000000000000000000000000000000000000000000000000600052603260045260246000fd5b0160009054906101000a900473ffffffffffffffffffffffffffffffffffffffff169050919050565b60008060009054906101000a900473ffffffffffffffffffffffffffffffffffffffff16905090565b611fcb7faeeb2f9c17ad698245d9d2f01c5ba23d053dc96c1a3c6c25a20a9329665c233460001b6146ab565b611ff77f9c6cd08e11974a74823e75beed2de142e7fc85429031d7cc5316686df66268ca60001b6146ab565b6120237f6a2e8d3c109a7d1e22232c398fd042e4fd7b91632332335bde88f325e07e304260001b6146ab565b61204f7f804b5b2d40da907078d44060f277b8aaaf2683cf47a65c57e53205b9962b30c460001b6146ab565b600160009054906101000a900473ffffffffffffffffffffffffffffffffffffffff1673ffffffffffffffffffffffffffffffffffffffff1663e86f7b57336040518263ffffffff1660e01b81526004016120aa919061502a565b60206040518083038186803b1580156120c257600080fd5b505afa1580156120d6573d6000803e3d6000fd5b505050506040513d601f19601f820116820180604052508101906120fa9190614d41565b61210357600080fd5b61212f7f47d6a56c7e3bcc5170d767b6af669bf1487acad7b4a800cd617a7c4fa7981a1f60001b6146ab565b61215b7fe479302b58c3f91f353143420e086f3d007a241683487b330e97dd24696ad58e60001b6146ab565b6121877f789a157167901d3ceddec614cb60b318fca346371de6df71ecb15bc456ef7e4760001b6146ab565b6121b37fa5e78e61dd931ad8d1f8b99e7216d652bf57a43a4d741fd23b71fc66be9067b260001b6146ab565b6121df7f290ce5226fbde3b7d0174f6e88d06572028c84a1ab5ad962035f7148d60d96ff60001b6146ab565b80600260008573ffffffffffffffffffffffffffffffffffffffff1673ffffffffffffffffffffffffffffffffffffffff16815260200190815260200160002060020160008473ffffffffffffffffffffffffffffffffffffffff1673ffffffffffffffffffffffffffffffffffffffff168152602001908152602001600020600082825461226e9190615394565b92505081905550505050565b60006122a87fdba22ce55d90253cd20475c8e7db03571654753b6c11ebef23e7d8b5a7b8d61560001b6146ab565b6122d47f6646a64606da2514a570a47cf809a86d87129abcc5560c9a9c961ffd50f3aca960001b6146ab565b6123007f65b43e4a46194d05d38f242fdf5e2c6ec9b623f0f618dac2cf522b81534ffcc560001b6146ab565b600554905090565b61231061462d565b61233c7f9f90c54df8e075033f82f37a521a01c1bac0e6ee993bef9256bb063833304fe760001b6146ab565b6123687f6fc605c7f8e4b317e478bfe8086a1b5680eaa4e269bd1aebec09f6203629c3f660001b6146ab565b6123947fe001900526667ada765828f9620555e26380bf9a72708960ae110f38d43ae8f460001b6146ab565b6000600260008373ffffffffffffffffffffffffffffffffffffffff1673ffffffffffffffffffffffffffffffffffffffff168152602001908152602001600020600501600c9054906101000a900460ff1690506124147fd497f2be7d351f451dc4da046ecadeb967a75e97f0bf5aea84f2fc0c9c1dd3cb60001b6146ab565b6124407f3341300d9e4bc9a938b96061bcdd57557760573c96e76b20eb84f7b63470134a60001b6146ab565b8015600260008473ffffffffffffffffffffffffffffffffffffffff1673ffffffffffffffffffffffffffffffffffffffff168152602001908152602001600020600501600c6101000a81548160ff0219169083151502179055506124c77f56f9afb85fa550c6daec7136124895ecee1c906eccb7af779b5725ce5ab1b71e60001b6146ab565b6124f37f4a93e9f4a84183134742d0d02509179bd39d1185844dcae482a924438fd0049460001b6146ab565b7f589267e6be1150bcd70443426faa6698e01a22d3228db4766a51c2c48e707fc98282156040516125259291906150dd565b60405180910390a15050565b600061255f7fcc64d52d2c92956e9b77cd2e82edfdc0c4f5f150c1b8e2a43d13aba62430cf1b60001b6146ab565b61258b7fc48a0bd9474f453e23da6721f08d60e2463abc2b9922658814679bf55bf0c77460001b6146ab565b6125b77fa7528589cc30769b5a02c79eac58fc508998cb02bcfe8a8fe4abc3f8674f28c760001b6146ab565b600354600260008473ffffffffffffffffffffffffffffffffffffffff1673ffffffffffffffffffffffffffffffffffffffff1681526020019081526020016000206000016040516126099190615013565b604051809103902014156126a4576126437fca519ca4786b2f92dcf7367d006649da08c735f2494702b430818c13619460ba60001b6146ab565b61266f7f2c71c66f07229e040969116534c6f4146f3aa5b53f0ac6b25685637ea16070c260001b6146ab565b61269b7f4201bef0bc5690e1098c8cd1313c9c67ce05a182141c6914d74103ac988c523d60001b6146ab565b6000905061272d565b6126d07f2d0545d7e0113d1b0d46b2a0b9c42a5c044454e889ff9b3e5a1ca31dbc58908360001b6146ab565b6126fc7ff83b4a49dda1510a01a9c26546c00a6145f7caa6419f21d2940a3e71001c07b560001b6146ab565b6127287fc0e9812c04af2f554ecaf56bbfec03c0f40d5b5c9b39613f7698693e9c37ddfa60001b6146ab565b600190505b919050565b61275e7f2663d17ad51759f3def8759fca1e98b8c4bf84396075b9a5c2de6e0ef19540f660001b6146ab565b61278a7f9a10c2d6348d6f36a8bc8345c141c5f222a0fdfb19c84370aa1f46bd0a2a4a2c60001b6146ab565b6127b67f20d75fa3751f89a651e132a4f952fa7f9230069cd1d2d6caec27f1bf4764357260001b6146ab565b6127e27fae01b12d484be52c9611a95eb524cc50da8270960214d47f51bb44364cf9638e60001b6146ab565b600160009054906101000a900473ffffffffffffffffffffffffffffffffffffffff1673ffffffffffffffffffffffffffffffffffffffff163373ffffffffffffffffffffffffffffffffffffffff161461283c57600080fd5b6128687f4eeb7e9642c261b9fa7ffbdc7b5052b94978d66299292c3524e7956c889a967560001b6146ab565b6128947fa32184b28bf51c96b15f01e8d92f41521581d999745c8aacaff4834cc9ca436460001b6146ab565b6128c07fe47f1e963a11fd998d791f1bca5926461ebf15cf0c72c367d9ba1301145dba7660001b6146ab565b6128ec7fd6f129b3b17fd4b2dd680cea1fe4b9699efc09442c2d150f3de8c1ca0b0d3db660001b6146ab565b6129187f351688cfe1977cf6c78dc0d8546d833b7f1f448750df81f12aa746cbd055654460001b6146ab565b6000600260008473ffffffffffffffffffffffffffffffffffffffff1673ffffffffffffffffffffffffffffffffffffffff16815260200190815260200160002060020160008373ffffffffffffffffffffffffffffffffffffffff1673ffffffffffffffffffffffffffffffffffffffff168152602001908152602001600020819055505050565b60006129cf7f91f2a0b3a6114924c0854f70eb1ac7cb46ec4c1a67738f7ecc4045bcc081393460001b6146ab565b6129fb7f9c6c8a3c3aa2c5fa0bc3f39d03e444dc744082c63db4a67c2f350976be8adba160001b6146ab565b612a277f7d937275dfd1f26ac1059bbca6c2a8db2dbf3c6ac9667816885148c66c7e59c260001b6146ab565b600160009054906101000a900473ffffffffffffffffffffffffffffffffffffffff16905090565b612a7b7faeeb2f9c17ad698245d9d2f01c5ba23d053dc96c1a3c6c25a20a9329665c233460001b6146ab565b612aa77f9c6cd08e11974a74823e75beed2de142e7fc85429031d7cc5316686df66268ca60001b6146ab565b612ad37f6a2e8d3c109a7d1e22232c398fd042e4fd7b91632332335bde88f325e07e304260001b6146ab565b612aff7f804b5b2d40da907078d44060f277b8aaaf2683cf47a65c57e53205b9962b30c460001b6146ab565b600160009054906101000a900473ffffffffffffffffffffffffffffffffffffffff1673ffffffffffffffffffffffffffffffffffffffff1663e86f7b57336040518263ffffffff1660e01b8152600401612b5a919061502a565b60206040518083038186803b158015612b7257600080fd5b505afa158015612b86573d6000803e3d6000fd5b505050506040513d601f19601f82011682018060405250810190612baa9190614d41565b612bb357600080fd5b612bdf7f47d6a56c7e3bcc5170d767b6af669bf1487acad7b4a800cd617a7c4fa7981a1f60001b6146ab565b612c0b7fe479302b58c3f91f353143420e086f3d007a241683487b330e97dd24696ad58e60001b6146ab565b612c377f809245f98d332699ccd420ad224486862a05c251847e9e1bc7d1b11d5413029060001b6146ab565b612c637f798404e31cc7b9e9bec211504ac0e6c7e81c17f10fc2ca769e347913ef7452d960001b6146ab565b612c8f7f7a670d14b5eee8dd28a56aa5f96cb129c16be52cb52d40840878d4c202874df460001b6146ab565b6001600260008473ffffffffffffffffffffffffffffffffffffffff1673ffffffffffffffffffffffffffffffffffffffff16815260200190815260200160002060050160048282829054906101000a900461ffff16612cef919061535c565b92506101000a81548161ffff021916908361ffff160217905550612d357fced7373d1ab9eb7c6fe977e7e3bd4c50c5b3fcd9a30c90ee94688f04411e7f0160001b6146ab565b612d617f8e25c7d91924ff577681608c8f991e9b1cf25fa725ab567aec8e18d147355ffe60001b6146ab565b6001600260008373ffffffffffffffffffffffffffffffffffffffff1673ffffffffffffffffffffffffffffffffffffffff16815260200190815260200160002060050160028282829054906101000a900461ffff16612dc1919061535c565b92506101000a81548161ffff021916908361ffff1602179055505050565b6000612e0d7f79cc372cf5b1c10f06a01ef12432734f52689c0aed234f0b0de188888d3256a660001b6146ab565b612e397f62694d831640dbe7885feaca329bf7d00e9018139b11201f7899e3a06c88042560001b6146ab565b612e657f3cecec5a99dcaa0171e8d341335eee6f4cce7f69575c5e84ad2b283721b503c060001b6146ab565b600260008473ffffffffffffffffffffffffffffffffffffffff1673ffffffffffffffffffffffffffffffffffffffff16815260200190815260200160002060010160008373ffffffffffffffffffffffffffffffffffffffff1673ffffffffffffffffffffffffffffffffffffffff16815260200190815260200160002054905092915050565b6000612f1b7fd375ba7c886090a8d8216bcf46bce8a3a6e30237f5a860285a11acfac57e39e260001b6146ab565b612f477f8daac426ef6f2897405a7b63e8654c942617f986fdb0a4ab181cc636bc0b9c4d60001b6146ab565b612f737fbff995419b0ee666db1eb7d89756ac9cd1a648b3bf7fb8b12a8df586550adcbd60001b6146ab565b600260008373ffffffffffffffffffffffffffffffffffffffff1673ffffffffffffffffffffffffffffffffffffffff168152602001908152602001600020600501600c9054906101000a900460ff169050919050565b612ff67f7d5ff7b3a80ed6aad281f1e2fedb2ff402bb7d2c9bfca00c2e7d8b9832fe416560001b6146ab565b6130227f6026de6adde42a0806822b84f3b7e78368ffe16267ebc5a274b9c401c0a63a7b60001b6146ab565b61304e7fd440f32c05c93eb4c944502e962b185dd828b29b4bf030fdaee917750a7babf660001b6146ab565b6000600260003373ffffffffffffffffffffffffffffffffffffffff1673ffffffffffffffffffffffffffffffffffffffff16815260200190815260200160002060010160008373ffffffffffffffffffffffffffffffffffffffff1673ffffffffffffffffffffffffffffffffffffffff1681526020019081526020016000205490506130fe7fe1af19369cb3c732ed7786d86fa47cf627660a76de99c1676c3fb5d426b424d160001b6146ab565b61312a7f115c65b814bda82e7c4760beec1e4bb8dbd2613d6f73abb6b5ce34263b30e51760001b6146ab565b6131567f5a164e8b8695b5fd5841534d89d5e67325a30322d114ad1014f29b2a8d18c17760001b6146ab565b6000811161316357600080fd5b61318f7f6e1e4c249c4fe5ef9816c1a8d8486e2a1e0e3fddb192a930f74315966f49776460001b6146ab565b6131bb7f0183103a6df78dbb06f6665759a2f8d1d1299711124986ba0a3af0f52ea50aa560001b6146ab565b6131e77ff1de9847b99d81bdcba5ba9e8134887be08892db3e661f7829ce9f1dff8c326b60001b6146ab565b6000600260003373ffffffffffffffffffffffffffffffffffffffff1673ffffffffffffffffffffffffffffffffffffffff16815260200190815260200160002060010160008473ffffffffffffffffffffffffffffffffffffffff1673ffffffffffffffffffffffffffffffffffffffff168152602001908152602001600020819055506132987fd4b6eb79b1cd37eba973b4ef3ac4b0ca0855eebb9462118ac29154d89e8608e660001b6146ab565b6132c47fd47926cac5635f97d003067f1312d603058ee52b252b15b7cde616a390d7547b60001b6146ab565b60008290506132f57f8db515a0ffa27b0e8e887a85b1a1b9d01a319b32593ae4818e6a84c822ba2ce560001b6146ab565b6133217f346d1fb55c2e924056367c6c08b738753181bb91f592041eee683603ea91636360001b6146ab565b61334c33838373ffffffffffffffffffffffffffffffffffffffff166147729092919063ffffffff16565b6133787fcd3dbf2570ad2483b39d43f4571969e963821c1a9c5ee3cf49bb8d93e97ae0f060001b6146ab565b6133a47fa108d14830d660c4063455391069422d3622506989f5570832c98f1b5eb197fb60001b6146ab565b7f51b055679c4cc7c18ef373032948188930b398b1fab32bb43f7de9b263cbccec3383856040516133d79392919061512f565b60405180910390a1505050565b6133ec61462d565b600073ffffffffffffffffffffffffffffffffffffffff168173ffffffffffffffffffffffffffffffffffffffff16141561345c576040517f08c379a0000000000000000000000000000000000000000000000000000000008152600401613453906151a3565b60405180910390fd5b613465816146ae565b50565b6134947faeeb2f9c17ad698245d9d2f01c5ba23d053dc96c1a3c6c25a20a9329665c233460001b6146ab565b6134c07f9c6cd08e11974a74823e75beed2de142e7fc85429031d7cc5316686df66268ca60001b6146ab565b6134ec7f6a2e8d3c109a7d1e22232c398fd042e4fd7b91632332335bde88f325e07e304260001b6146ab565b6135187f804b5b2d40da907078d44060f277b8aaaf2683cf47a65c57e53205b9962b30c460001b6146ab565b600160009054906101000a900473ffffffffffffffffffffffffffffffffffffffff1673ffffffffffffffffffffffffffffffffffffffff1663e86f7b57336040518263ffffffff1660e01b8152600401613573919061502a565b60206040518083038186803b15801561358b57600080fd5b505afa15801561359f573d6000803e3d6000fd5b505050506040513d601f19601f820116820180604052508101906135c39190614d41565b6135cc57600080fd5b6135f87f47d6a56c7e3bcc5170d767b6af669bf1487acad7b4a800cd617a7c4fa7981a1f60001b6146ab565b6136247fe479302b58c3f91f353143420e086f3d007a241683487b330e97dd24696ad58e60001b6146ab565b6136507fc160998c280522889407c057af9f30f5c7d5777edec45689652ed7d7c56a899360001b6146ab565b61367c7f12a49c551192e878d045735dd0d86b6c5460035cfedc7794da096063a9d77d8260001b6146ab565b6136a87fab69d1b426f81453acabada71f2a7cbb141b224eddeb69e2d2fce00d32dd6f6e60001b6146ab565b6001600260008473ffffffffffffffffffffffffffffffffffffffff1673ffffffffffffffffffffffffffffffffffffffff16815260200190815260200160002060050160068282829054906101000a900461ffff16613708919061535c565b92506101000a81548161ffff021916908361ffff16021790555061374e7fb2bdd027fa8f1838acfba71f78d01a28e1531d3d38a76482b04592307f95c5bd60001b6146ab565b61377a7f359aba5bf321c108ceabf1b9a87edaf4124e0ab56f8a05ec5ba0f25571cddd2360001b6146ab565b6001600260008373ffffffffffffffffffffffffffffffffffffffff1673ffffffffffffffffffffffffffffffffffffffff16815260200190815260200160002060050160088282829054906101000a900461ffff166137da919061535c565b92506101000a81548161ffff021916908361ffff1602179055505050565b6138247faeeb2f9c17ad698245d9d2f01c5ba23d053dc96c1a3c6c25a20a9329665c233460001b6146ab565b6138507f9c6cd08e11974a74823e75beed2de142e7fc85429031d7cc5316686df66268ca60001b6146ab565b61387c7f6a2e8d3c109a7d1e22232c398fd042e4fd7b91632332335bde88f325e07e304260001b6146ab565b6138a87f804b5b2d40da907078d44060f277b8aaaf2683cf47a65c57e53205b9962b30c460001b6146ab565b600160009054906101000a900473ffffffffffffffffffffffffffffffffffffffff1673ffffffffffffffffffffffffffffffffffffffff1663e86f7b57336040518263ffffffff1660e01b8152600401613903919061502a565b60206040518083038186803b15801561391b57600080fd5b505afa15801561392f573d6000803e3d6000fd5b505050506040513d601f19601f820116820180604052508101906139539190614d41565b61395c57600080fd5b6139887f47d6a56c7e3bcc5170d767b6af669bf1487acad7b4a800cd617a7c4fa7981a1f60001b6146ab565b6139b47fe479302b58c3f91f353143420e086f3d007a241683487b330e97dd24696ad58e60001b6146ab565b6139e07f767fd9e9012911deff2fa54957bd6d5aeac2732c65e7f16a3e6d6fdb60a03a3560001b6146ab565b613a0c7ffc7ec206df3e59a05a6b9eff40b4a692d73d7542371684a8c4a9428ce977d76a60001b6146ab565b613a387f89f187d0a244b73384e9b96022b877a30ea9fdebfacd27b928405734a5f27a5360001b6146ab565b6000613a4385611145565b9050613a717fa184e4224b6d84c524f628f06b4127c6717b92ffb624db816c794eee463679e560001b6146ab565b613a9d7f55bdbc3b323404d96d1c526bb12a5ef845844740babab3e484afeec3f30c37de60001b6146ab565b6000613aa886611e4c565b9050613ad67f45b08fae27d9683377b841bc3624bb4c316754c5d561b400e69c88b1f9250fac60001b6146ab565b613b027f3e07727b2b97a36e0efae9933b4da438652ffb250c247d0372f42c3df4eb48e160001b6146ab565b613b0b826107da565b15613c0557613b3c7fa5d83b8a5e4836ad5096a7ea79a5ce5dfa3ae49f2ea8398a511a1786f2caa6b460001b6146ab565b613b687fc66582752673b766505691b93f7e8dd49dbf3dfdda337e69ad4552796ad94a9460001b6146ab565b613b947f7b9b84e6f91f18a1554f84b6a4d0f0d818aa8be78d2a35b6ea0b83a0d146238160001b6146ab565b613b9c611f76565b9150613bca7f69234607c15bf4d04624951fe4f6f7299ac40f207fbb7b31ec164fb742c1e9f660001b6146ab565b613bf67fb49c242ba6e080afefe029ad297ea497f8ef8d55ffc4ea110aa54c314d77b8ba60001b6146ab565b613bfe611f76565b9050613c32565b613c317ff2348219a45c996544ff21351f354c1bc00065f705b360ca7a230777e81b1c8f60001b6146ab565b5b613c5e7f31b8cda1378c428a5ba9f43ffa3c5a63874fe34ff6cc09c1873cc96b34a4793360001b6146ab565b613c8a7f0ad976b1f3b44559374c4e98934ecd7b6a6cca2836579156906d3f5f64b0a3fe60001b6146ab565b6000613c9586611145565b9050613cc37ff63f4c7c3fbafee0c407b10876045556c997f2128a79f16075e7423382e8819f60001b6146ab565b613cef7fbbcb97c999e5b96a076a4e839c0a1315db525bfb87eafdc633eb9ecc9485a8de60001b6146ab565b6000613cfa87611e4c565b9050613d287f216aeb7f877193bb68cb74cc42bcfc97788e99b181fb8810501db41be9edf88060001b6146ab565b613d547fd65c8c0368351015b5e0505e1bcdd90546f6b9163607c61ee246be55ac8cb10e60001b6146ab565b613d5d826107da565b15613e5757613d8e7fb795696915c3f44246215352bf93eae5534dccb5e1b0f5c99f7ad44abe6aa10b60001b6146ab565b613dba7fdc0c831f37f6a52f68a14c39c019cb93dea0a39ee6403441fb14fd522dfd5fcd60001b6146ab565b613de67f9c36c86fd7af69cb1efb797ca6c72a14e02d541dc801a3797fc8c213c8d3084460001b6146ab565b613dee611f76565b9150613e1c7fef31c07bd505a299faefebf5714f8ce93e5ee47d78c9863165281a87a8b6f82760001b6146ab565b613e487fbb729f5e2b30dfe3015d3bfb0c828ef3b734136ef2b2743fa6d5bb0ccf5c9c3560001b6146ab565b613e50611f76565b9050613e84565b613e837f57f7c47fb0e9f4c4e958e2287e66b5a529bccc9cb9ea0f812c359a45931cfd3e60001b6146ab565b5b613eb07f607f42cbef90d5f50c03a39af40f488182a382278eb9f3c850f623a26357298d60001b6146ab565b613edc7f70773d1e0d9287ec0ed8c786609d5d2f2148063c3c5045af4255c6e366e7f4e260001b6146ab565b600060026064600160009054906101000a900473ffffffffffffffffffffffffffffffffffffffff1673ffffffffffffffffffffffffffffffffffffffff1663f528008f6040518163ffffffff1660e01b815260040160206040518083038186803b158015613f4a57600080fd5b505afa158015613f5e573d6000803e3d6000fd5b505050506040513d601f19601f82011682018060405250810190613f829190614dff565b89613f8d919061541b565b613f9791906153ea565b613fa191906153ea565b9050613fcf7fcbfb57b1882388fb152226472e4e282907530121465a6f2f36e4b2dab399df3860001b6146ab565b613ffb7f195dde1cb3ab9153f77a3790c75532be75e74296a49490c8799173180e858e9660001b6146ab565b600060026064600160009054906101000a900473ffffffffffffffffffffffffffffffffffffffff1673ffffffffffffffffffffffffffffffffffffffff166310628d046040518163ffffffff1660e01b815260040160206040518083038186803b15801561406957600080fd5b505afa15801561407d573d6000803e3d6000fd5b505050506040513d601f19601f820116820180604052508101906140a19190614dff565b8a6140ac919061541b565b6140b691906153ea565b6140c091906153ea565b90506140ee7f29a1fd3b73e5b15c17084e80879da675908206f41d758ddb7eac2525a53d152260001b6146ab565b61411a7f309ec9a36081e90417eddde7b0d40cc4671c23a76187adf324c72816e337c27560001b6146ab565b81600260008873ffffffffffffffffffffffffffffffffffffffff1673ffffffffffffffffffffffffffffffffffffffff16815260200190815260200160002060010160008973ffffffffffffffffffffffffffffffffffffffff1673ffffffffffffffffffffffffffffffffffffffff16815260200190815260200160002060008282546141a99190615394565b925050819055506141dc7f12bde99912d544a78d5bb9201ef39b8827d6143c053ce1d671d869e2be21d81f60001b6146ab565b6142087f8289fa154a412ee88952889e6eb1d1af5ff97879f510e661722f66f91bdae3c760001b6146ab565b80600260008773ffffffffffffffffffffffffffffffffffffffff1673ffffffffffffffffffffffffffffffffffffffff16815260200190815260200160002060010160008973ffffffffffffffffffffffffffffffffffffffff1673ffffffffffffffffffffffffffffffffffffffff16815260200190815260200160002060008282546142979190615394565b925050819055506142ca7f91a6cbb911bee44ba10e25200fa9db50d10ba64f0ebd5864915027ea85eaa4ed60001b6146ab565b6142f67f69889d1fa1df5589faacccaaf6e6277a75aca132264b858381316296f2bb231060001b6146ab565b81600260008673ffffffffffffffffffffffffffffffffffffffff1673ffffffffffffffffffffffffffffffffffffffff16815260200190815260200160002060010160008973ffffffffffffffffffffffffffffffffffffffff1673ffffffffffffffffffffffffffffffffffffffff16815260200190815260200160002060008282546143859190615394565b925050819055506143b87f1d3281466bafe998e77e83da558ec71aee2ab200086c422809f148574f3f828260001b6146ab565b6143e47fd7b9a9e6c2296b6047b54402ffaefca15465387ab6ff3b0f54ddbab4631ee40760001b6146ab565b80600260008573ffffffffffffffffffffffffffffffffffffffff1673ffffffffffffffffffffffffffffffffffffffff16815260200190815260200160002060010160008973ffffffffffffffffffffffffffffffffffffffff1673ffffffffffffffffffffffffffffffffffffffff16815260200190815260200160002060008282546144739190615394565b925050819055506144a67fdc240b279418618cda02ee53411c5d3045c4209578e186201b8d44b1e91c2af760001b6146ab565b6144d27ffce9465fb69642caa57a05e67a02ff2af8b7681e1f49908434b63a7b217fd9c760001b6146ab565b7f4214dfad03e7dc74209e0510844cebe114ebddb49e338d49f5cfa43eeb014be6868686868c8c60405161450b9695949392919061507c565b60405180910390a150505050505050505050565b600061454d7fb448774ff0c61186b900c24c8289d707fb758001225b1163a07471ec47db5a4760001b6146ab565b6145797fd19c8526b178c51a33ac7bd037de6d7a4b038ae5fcafb79a3786bc0dfbf19ce860001b6146ab565b6145a57f2575cccee8e6909c977e3ad257becdcc20e082283985c0d90d40bff6ca696acc60001b6146ab565b600260008473ffffffffffffffffffffffffffffffffffffffff1673ffffffffffffffffffffffffffffffffffffffff16815260200190815260200160002060020160008373ffffffffffffffffffffffffffffffffffffffff1673ffffffffffffffffffffffffffffffffffffffff16815260200190815260200160002054905092915050565b6146356147f8565b73ffffffffffffffffffffffffffffffffffffffff16614653611f76565b73ffffffffffffffffffffffffffffffffffffffff16146146a9576040517f08c379a00000000000000000000000000000000000000000000000000000000081526004016146a0906151e3565b60405180910390fd5b565b50565b60008060009054906101000a900473ffffffffffffffffffffffffffffffffffffffff169050816000806101000a81548173ffffffffffffffffffffffffffffffffffffffff021916908373ffffffffffffffffffffffffffffffffffffffff1602179055508173ffffffffffffffffffffffffffffffffffffffff168173ffffffffffffffffffffffffffffffffffffffff167f8be0079c531659141344cd1fd0a4f28419497f9722a3daafe3b4186f6b6457e060405160405180910390a35050565b6147f38363a9059cbb60e01b8484604051602401614791929190615106565b604051602081830303815290604052907bffffffffffffffffffffffffffffffffffffffffffffffffffffffff19166020820180517bffffffffffffffffffffffffffffffffffffffffffffffffffffffff8381831617835250505050614800565b505050565b600033905090565b6000614862826040518060400160405280602081526020017f5361666545524332303a206c6f772d6c6576656c2063616c6c206661696c65648152508573ffffffffffffffffffffffffffffffffffffffff166148c79092919063ffffffff16565b90506000815111156148c257808060200190518101906148829190614d41565b6148c1576040517f08c379a00000000000000000000000000000000000000000000000000000000081526004016148b890615223565b60405180910390fd5b5b505050565b60606148d684846000856148df565b90509392505050565b606082471015614924576040517f08c379a000000000000000000000000000000000000000000000000000000000815260040161491b906151c3565b60405180910390fd5b61492d856149f3565b61496c576040517f08c379a000000000000000000000000000000000000000000000000000000000815260040161496390615203565b60405180910390fd5b6000808673ffffffffffffffffffffffffffffffffffffffff1685876040516149959190614ffc565b60006040518083038185875af1925050503d80600081146149d2576040519150601f19603f3d011682016040523d82523d6000602084013e6149d7565b606091505b50915091506149e7828286614a16565b92505050949350505050565b6000808273ffffffffffffffffffffffffffffffffffffffff163b119050919050565b60608315614a2657829050614a76565b600083511115614a395782518084602001fd5b816040517f08c379a0000000000000000000000000000000000000000000000000000000008152600401614a6d9190615181565b60405180910390fd5b9392505050565b828054614a899061550d565b90600052602060002090601f016020900481019282614aab5760008555614af2565b82601f10614ac457805160ff1916838001178555614af2565b82800160010185558215614af2579182015b82811115614af1578251825591602001919060010190614ad6565b5b509050614aff9190614b51565b5090565b508054614b0f9061550d565b6000825580601f10614b215750614b40565b601f016020900490600052602060002090810190614b3f9190614b51565b5b50565b506000815560010160009055565b5b80821115614b6a576000816000905550600101614b52565b5090565b6000614b81614b7c846152e4565b6152bf565b905082815260208101848484011115614b9957600080fd5b614ba48482856154cb565b509392505050565b600081359050614bbb8161577c565b92915050565b600081519050614bd081615793565b92915050565b600082601f830112614be757600080fd5b8135614bf7848260208601614b6e565b91505092915050565b600081359050614c0f816157aa565b92915050565b600081519050614c24816157aa565b92915050565b600060208284031215614c3c57600080fd5b6000614c4a84828501614bac565b91505092915050565b60008060408385031215614c6657600080fd5b6000614c7485828601614bac565b9250506020614c8585828601614bac565b9150509250929050565b600080600060608486031215614ca457600080fd5b6000614cb286828701614bac565b9350506020614cc386828701614bac565b9250506040614cd486828701614c00565b9150509250925092565b60008060008060808587031215614cf457600080fd5b6000614d0287828801614bac565b9450506020614d1387828801614bac565b9350506040614d2487828801614c00565b9250506060614d3587828801614bac565b91505092959194509250565b600060208284031215614d5357600080fd5b6000614d6184828501614bc1565b91505092915050565b600060208284031215614d7c57600080fd5b600082013567ffffffffffffffff811115614d9657600080fd5b614da284828501614bd6565b91505092915050565b60008060408385031215614dbe57600080fd5b600083013567ffffffffffffffff811115614dd857600080fd5b614de485828601614bd6565b9250506020614df585828601614bac565b9150509250929050565b600060208284031215614e1157600080fd5b6000614e1f84828501614c15565b91505092915050565b614e3181615475565b82525050565b614e4081615487565b82525050565b6000614e518261532a565b614e5b8185615340565b9350614e6b8185602086016154da565b80840191505092915050565b60008154614e848161550d565b614e8e8186615340565b94506001821660008114614ea95760018114614eba57614eed565b60ff19831686528186019350614eed565b614ec385615315565b60005b83811015614ee557815481890152600182019150602081019050614ec6565b838801955050505b50505092915050565b6000614f0182615335565b614f0b818561534b565b9350614f1b8185602086016154da565b614f248161562c565b840191505092915050565b6000614f3c60268361534b565b9150614f478261563d565b604082019050919050565b6000614f5f60268361534b565b9150614f6a8261568c565b604082019050919050565b6000614f8260208361534b565b9150614f8d826156db565b602082019050919050565b6000614fa5601d8361534b565b9150614fb082615704565b602082019050919050565b6000614fc8602a8361534b565b9150614fd38261572d565b604082019050919050565b614fe781615493565b82525050565b614ff6816154c1565b82525050565b60006150088284614e46565b915081905092915050565b600061501f8284614e77565b915081905092915050565b600060208201905061503f6000830184614e28565b92915050565b600060608201905061505a6000830186614e28565b6150676020830185614e28565b6150746040830184614e28565b949350505050565b600060c0820190506150916000830189614e28565b61509e6020830188614e28565b6150ab6040830187614e28565b6150b86060830186614e28565b6150c56080830185614fed565b6150d260a0830184614e28565b979650505050505050565b60006040820190506150f26000830185614e28565b6150ff6020830184614e37565b9392505050565b600060408201905061511b6000830185614e28565b6151286020830184614fed565b9392505050565b60006060820190506151446000830186614e28565b6151516020830185614fed565b61515e6040830184614e28565b949350505050565b600060208201905061517b6000830184614e37565b92915050565b6000602082019050818103600083015261519b8184614ef6565b905092915050565b600060208201905081810360008301526151bc81614f2f565b9050919050565b600060208201905081810360008301526151dc81614f52565b9050919050565b600060208201905081810360008301526151fc81614f75565b9050919050565b6000602082019050818103600083015261521c81614f98565b9050919050565b6000602082019050818103600083015261523c81614fbb565b9050919050565b600060c0820190506152586000830189614fde565b6152656020830188614fde565b6152726040830187614fde565b61527f6060830186614fde565b61528c6080830185614fde565b61529960a0830184614fde565b979650505050505050565b60006020820190506152b96000830184614fed565b92915050565b60006152c96152da565b90506152d5828261553f565b919050565b6000604051905090565b600067ffffffffffffffff8211156152ff576152fe6155fd565b5b6153088261562c565b9050602081019050919050565b60008190508160005260206000209050919050565b600081519050919050565b600081519050919050565b600081905092915050565b600082825260208201905092915050565b600061536782615493565b915061537283615493565b92508261ffff0382111561538957615388615570565b5b828201905092915050565b600061539f826154c1565b91506153aa836154c1565b9250827fffffffffffffffffffffffffffffffffffffffffffffffffffffffffffffffff038211156153df576153de615570565b5b828201905092915050565b60006153f5826154c1565b9150615400836154c1565b9250826154105761540f61559f565b5b828204905092915050565b6000615426826154c1565b9150615431836154c1565b9250817fffffffffffffffffffffffffffffffffffffffffffffffffffffffffffffffff048311821515161561546a57615469615570565b5b828202905092915050565b6000615480826154a1565b9050919050565b60008115159050919050565b600061ffff82169050919050565b600073ffffffffffffffffffffffffffffffffffffffff82169050919050565b6000819050919050565b82818337600083830152505050565b60005b838110156154f85780820151818401526020810190506154dd565b83811115615507576000848401525b50505050565b6000600282049050600182168061552557607f821691505b60208210811415615539576155386155ce565b5b50919050565b6155488261562c565b810181811067ffffffffffffffff82111715615567576155666155fd565b5b80604052505050565b7f4e487b7100000000000000000000000000000000000000000000000000000000600052601160045260246000fd5b7f4e487b7100000000000000000000000000000000000000000000000000000000600052601260045260246000fd5b7f4e487b7100000000000000000000000000000000000000000000000000000000600052602260045260246000fd5b7f4e487b7100000000000000000000000000000000000000000000000000000000600052604160045260246000fd5b6000601f19601f8301169050919050565b7f4f776e61626c653a206e6577206f776e657220697320746865207a65726f206160008201527f6464726573730000000000000000000000000000000000000000000000000000602082015250565b7f416464726573733a20696e73756666696369656e742062616c616e636520666f60008201527f722063616c6c0000000000000000000000000000000000000000000000000000602082015250565b7f4f776e61626c653a2063616c6c6572206973206e6f7420746865206f776e6572600082015250565b7f416464726573733a2063616c6c20746f206e6f6e2d636f6e7472616374000000600082015250565b7f5361666545524332303a204552433230206f7065726174696f6e20646964206e60008201527f6f74207375636365656400000000000000000000000000000000000000000000602082015250565b61578581615475565b811461579057600080fd5b50565b61579c81615487565b81146157a757600080fd5b50565b6157b3816154c1565b81146157be57600080fd5b5056fea2646970667358221220d129122e8fc99007ea4a395c9db1fdea21dd725fd16234d8edda35b97b6ade5464736f6c63430008040033",
  "linkReferences": {},
  "deployedLinkReferences": {}
}