{
  "_format": "hh-sol-artifact-1",
  "contractName": "GigV1",
  "sourceName": "contracts/GigV1.sol",
  "abi": [
    {
      "anonymous": false,
      "inputs": [
        {
          "indexed": false,
          "internalType": "uint8",
          "name": "version",
          "type": "uint8"
        }
      ],
      "name": "Initialized",
      "type": "event"
    },
    {
      "inputs": [],
      "name": "acceptOrder",
      "outputs": [],
      "stateMutability": "nonpayable",
      "type": "function"
    },
    {
      "inputs": [],
      "name": "autoRefund",
      "outputs": [],
      "stateMutability": "nonpayable",
      "type": "function"
    },
    {
      "inputs": [],
      "name": "buyer",
      "outputs": [
        {
          "internalType": "address",
          "name": "",
          "type": "address"
        }
      ],
      "stateMutability": "view",
      "type": "function"
    },
    {
      "inputs": [
        {
          "internalType": "string",
          "name": "_newLogs",
          "type": "string"
        }
      ],
      "name": "callTrial",
      "outputs": [],
      "stateMutability": "nonpayable",
      "type": "function"
    },
    {
      "inputs": [],
      "name": "endTrial",
      "outputs": [],
      "stateMutability": "nonpayable",
      "type": "function"
    },
    {
      "inputs": [],
      "name": "gigFactory",
      "outputs": [
        {
          "internalType": "contract IGigFactory",
          "name": "",
          "type": "address"
        }
      ],
      "stateMutability": "view",
      "type": "function"
    },
    {
      "inputs": [],
      "name": "gigIndex",
      "outputs": [
        {
          "internalType": "uint256",
          "name": "",
          "type": "uint256"
        }
      ],
      "stateMutability": "view",
      "type": "function"
    },
    {
      "inputs": [
        {
          "internalType": "contract IERC20",
          "name": "_newPaymentToken",
          "type": "address"
        },
        {
          "internalType": "address",
          "name": "_newBuyer",
          "type": "address"
        },
        {
          "internalType": "address",
          "name": "_newSeller",
          "type": "address"
        },
        {
          "internalType": "uint256",
          "name": "_newPrice",
          "type": "uint256"
        },
        {
          "internalType": "string",
          "name": "_newMetadata",
          "type": "string"
        },
        {
          "internalType": "uint256",
          "name": "_newIndex",
          "type": "uint256"
        },
        {
          "internalType": "contract IUserSoul",
          "name": "_newUserSoul",
          "type": "address"
        }
      ],
      "name": "initialize",
      "outputs": [],
      "stateMutability": "nonpayable",
      "type": "function"
    },
    {
      "inputs": [],
      "name": "logs",
      "outputs": [
        {
          "internalType": "string",
          "name": "",
          "type": "string"
        }
      ],
      "stateMutability": "view",
      "type": "function"
    },
    {
      "inputs": [],
      "name": "metadata",
      "outputs": [
        {
          "internalType": "string",
          "name": "",
          "type": "string"
        }
      ],
      "stateMutability": "view",
      "type": "function"
    },
    {
      "inputs": [],
      "name": "paymentToken",
      "outputs": [
        {
          "internalType": "contract IERC20",
          "name": "",
          "type": "address"
        }
      ],
      "stateMutability": "view",
      "type": "function"
    },
    {
      "inputs": [],
      "name": "price",
      "outputs": [
        {
          "internalType": "uint256",
          "name": "",
          "type": "uint256"
        }
      ],
      "stateMutability": "view",
      "type": "function"
    },
    {
      "inputs": [],
      "name": "readTrialLogs",
      "outputs": [
        {
          "internalType": "string",
          "name": "",
          "type": "string"
        }
      ],
      "stateMutability": "view",
      "type": "function"
    },
    {
      "inputs": [],
      "name": "readTrialMetadata",
      "outputs": [
        {
          "internalType": "string",
          "name": "",
          "type": "string"
        }
      ],
      "stateMutability": "view",
      "type": "function"
    },
    {
      "inputs": [],
      "name": "seller",
      "outputs": [
        {
          "internalType": "address",
          "name": "",
          "type": "address"
        }
      ],
      "stateMutability": "view",
      "type": "function"
    },
    {
      "inputs": [],
      "name": "sendAll",
      "outputs": [],
      "stateMutability": "nonpayable",
      "type": "function"
    },
    {
      "inputs": [],
      "name": "state",
      "outputs": [
        {
          "internalType": "enum GigV1.GigState",
          "name": "",
          "type": "uint8"
        }
      ],
      "stateMutability": "view",
      "type": "function"
    },
    {
      "inputs": [],
      "name": "timestamp",
      "outputs": [
        {
          "internalType": "uint256",
          "name": "",
          "type": "uint256"
        }
      ],
      "stateMutability": "view",
      "type": "function"
    },
    {
      "inputs": [],
      "name": "userSoul",
      "outputs": [
        {
          "internalType": "contract IUserSoul",
          "name": "",
          "type": "address"
        }
      ],
      "stateMutability": "view",
      "type": "function"
    },
    {
      "inputs": [
        {
          "internalType": "uint8",
          "name": "_vote",
          "type": "uint8"
        }
      ],
      "name": "vote",
      "outputs": [],
      "stateMutability": "nonpayable",
      "type": "function"
    }
  ],
  "bytecode": "0x608060405234801561001057600080fd5b50614971806100206000396000f3fe608060405234801561001057600080fd5b506004361061012c5760003560e01c8063a035b1fe116100ad578063d1534a7f11610071578063d1534a7f146102b3578063d59462eb146102d1578063d9159184146102ed578063dcc774f41461030b578063e14f680f146103295761012c565b8063a035b1fe14610233578063b3f98adc14610251578063b723ae751461026d578063b80777ea14610277578063c19d93fb146102955761012c565b806347efd607116100f457806347efd607146101b35780634d1d1bf7146101d15780637150d8ae146101ed578063742597951461020b57806375e2e9fb146102295761012c565b806308551a531461013157806313fc80d31461014f5780633013ce2914610159578063392f37e9146101775780633fd9c23a14610195575b600080fd5b610139610333565b6040516101469190613fe1565b60405180910390f35b61015761035d565b005b610161610526565b60405161016e919061417c565b60405180910390f35b61017f61054f565b60405161018c9190614203565b60405180910390f35b61019d610693565b6040516101aa9190614203565b60405180910390f35b6101bb61091c565b6040516101c891906141b2565b60405180910390f35b6101eb60048036038101906101e69190613cf5565b610946565b005b6101f5610c45565b6040516102029190613fe1565b60405180910390f35b610213610c6f565b6040516102209190614203565b60405180910390f35b610231610db3565b005b61023b61133d565b60405161024891906142a5565b60405180910390f35b61026b60048036038101906102669190613e15565b611347565b005b610275611978565b005b61027f611cb3565b60405161028c91906142a5565b60405180910390f35b61029d611cbd565b6040516102aa91906141cd565b60405180910390f35b6102bb611cd4565b6040516102c891906142a5565b60405180910390f35b6102eb60048036038101906102e69190613dab565b611cde565b005b6102f561216e565b6040516103029190614197565b60405180910390f35b610313612198565b6040516103209190614203565b60405180910390f35b610331612421565b005b6000600560009054906101000a900473ffffffffffffffffffffffffffffffffffffffff16905090565b60006003811115610397577f4e487b7100000000000000000000000000000000000000000000000000000000600052602160045260246000fd5b601060009054906101000a900460ff1660038111156103df577f4e487b7100000000000000000000000000000000000000000000000000000000600052602160045260246000fd5b146103e957600080fd5b600560009054906101000a900473ffffffffffffffffffffffffffffffffffffffff1673ffffffffffffffffffffffffffffffffffffffff163373ffffffffffffffffffffffffffffffffffffffff161461044357600080fd5b6001601060006101000a81548160ff0219169083600381111561048f577f4e487b7100000000000000000000000000000000000000000000000000000000600052602160045260246000fd5b0217905550600160009054906101000a900473ffffffffffffffffffffffffffffffffffffffff1673ffffffffffffffffffffffffffffffffffffffff1663d4c01b7b3060016040518363ffffffff1660e01b81526004016104f29291906140d8565b600060405180830381600087803b15801561050c57600080fd5b505af1158015610520573d6000803e3d6000fd5b50505050565b60008060029054906101000a900473ffffffffffffffffffffffffffffffffffffffff16905090565b6060600460009054906101000a900473ffffffffffffffffffffffffffffffffffffffff1673ffffffffffffffffffffffffffffffffffffffff163373ffffffffffffffffffffffffffffffffffffffff1614806105fa5750600560009054906101000a900473ffffffffffffffffffffffffffffffffffffffff1673ffffffffffffffffffffffffffffffffffffffff163373ffffffffffffffffffffffffffffffffffffffff16145b61060357600080fd5b60068054610610906145df565b80601f016020809104026020016040519081016040528092919081815260200182805461063c906145df565b80156106895780601f1061065e57610100808354040283529160200191610689565b820191906000526020600020905b81548152906001019060200180831161066c57829003601f168201915b5050505050905090565b606060011515600260009054906101000a900473ffffffffffffffffffffffffffffffffffffffff1673ffffffffffffffffffffffffffffffffffffffff1663ed896d66336040518263ffffffff1660e01b81526004016106f49190613fe1565b60206040518083038186803b15801561070c57600080fd5b505afa158015610720573d6000803e3d6000fd5b505050506040513d601f19601f820116820180604052508101906107449190613ccc565b1515148061079f5750600460009054906101000a900473ffffffffffffffffffffffffffffffffffffffff1673ffffffffffffffffffffffffffffffffffffffff163373ffffffffffffffffffffffffffffffffffffffff16145b806107f75750600560009054906101000a900473ffffffffffffffffffffffffffffffffffffffff1673ffffffffffffffffffffffffffffffffffffffff163373ffffffffffffffffffffffffffffffffffffffff16145b61080057600080fd5b6002600381111561083a577f4e487b7100000000000000000000000000000000000000000000000000000000600052602160045260246000fd5b601060009054906101000a900460ff166003811115610882577f4e487b7100000000000000000000000000000000000000000000000000000000600052602160045260246000fd5b1461088c57600080fd5b60068054610899906145df565b80601f01602080910402602001604051908101604052809291908181526020018280546108c5906145df565b80156109125780601f106108e757610100808354040283529160200191610912565b820191906000526020600020905b8154815290600101906020018083116108f557829003601f168201915b5050505050905090565b6000600260009054906101000a900473ffffffffffffffffffffffffffffffffffffffff16905090565b60008060019054906101000a900460ff161590508080156109775750600160008054906101000a900460ff1660ff16105b806109a4575061098630612f4d565b1580156109a35750600160008054906101000a900460ff1660ff16145b5b6109e3576040517f08c379a00000000000000000000000000000000000000000000000000000000081526004016109da90614245565b60405180910390fd5b60016000806101000a81548160ff021916908360ff1602179055508015610a20576001600060016101000a81548160ff0219169083151502179055505b33600160006101000a81548173ffffffffffffffffffffffffffffffffffffffff021916908373ffffffffffffffffffffffffffffffffffffffff16021790555087600060026101000a81548173ffffffffffffffffffffffffffffffffffffffff021916908373ffffffffffffffffffffffffffffffffffffffff16021790555081600260006101000a81548173ffffffffffffffffffffffffffffffffffffffff021916908373ffffffffffffffffffffffffffffffffffffffff16021790555086600460006101000a81548173ffffffffffffffffffffffffffffffffffffffff021916908373ffffffffffffffffffffffffffffffffffffffff16021790555085600560006101000a81548173ffffffffffffffffffffffffffffffffffffffff021916908373ffffffffffffffffffffffffffffffffffffffff160217905550846008819055508360069080519060200190610b82929190613af0565b50426009819055506000601060006101000a81548160ff02191690836003811115610bd6577f4e487b7100000000000000000000000000000000000000000000000000000000600052602160045260246000fd5b0217905550826003819055508015610c3b5760008060016101000a81548160ff0219169083151502179055507f7f26b83ff96e1f2b6a682f133852f6798a09c465da95921460cefb38474024986001604051610c3291906141e8565b60405180910390a15b5050505050505050565b6000600460009054906101000a900473ffffffffffffffffffffffffffffffffffffffff16905090565b6060600460009054906101000a900473ffffffffffffffffffffffffffffffffffffffff1673ffffffffffffffffffffffffffffffffffffffff163373ffffffffffffffffffffffffffffffffffffffff161480610d1a5750600560009054906101000a900473ffffffffffffffffffffffffffffffffffffffff1673ffffffffffffffffffffffffffffffffffffffff163373ffffffffffffffffffffffffffffffffffffffff16145b610d2357600080fd5b60078054610d30906145df565b80601f0160208091040260200160405190810160405280929190818152602001828054610d5c906145df565b8015610da95780601f10610d7e57610100808354040283529160200191610da9565b820191906000526020600020905b815481529060010190602001808311610d8c57829003601f168201915b5050505050905090565b600460009054906101000a900473ffffffffffffffffffffffffffffffffffffffff1673ffffffffffffffffffffffffffffffffffffffff163373ffffffffffffffffffffffffffffffffffffffff161480610e5c5750600560009054906101000a900473ffffffffffffffffffffffffffffffffffffffff1673ffffffffffffffffffffffffffffffffffffffff163373ffffffffffffffffffffffffffffffffffffffff16145b610e6557600080fd5b60026003811115610e9f577f4e487b7100000000000000000000000000000000000000000000000000000000600052602160045260246000fd5b601060009054906101000a900460ff166003811115610ee7577f4e487b7100000000000000000000000000000000000000000000000000000000600052602160045260246000fd5b14610ef157600080fd5b600954421015610f0057600080fd5b6000600a805480602002602001604051908101604052809291908181526020018280548015610f8457602002820191906000526020600020905b8160009054906101000a900473ffffffffffffffffffffffffffffffffffffffff1673ffffffffffffffffffffffffffffffffffffffff1681526020019060010190808311610f3a575b505050505090506000600b80548060200260200160405190810160405280929190818152602001828054801561100f57602002820191906000526020600020905b8160009054906101000a900473ffffffffffffffffffffffffffffffffffffffff1673ffffffffffffffffffffffffffffffffffffffff1681526020019060010190808311610fc5575b505050505090506000600c80548060200260200160405190810160405280929190818152602001828054801561109a57602002820191906000526020600020905b8160009054906101000a900473ffffffffffffffffffffffffffffffffffffffff1673ffffffffffffffffffffffffffffffffffffffff1681526020019060010190808311611050575b505050505090506000600d80548060200260200160405190810160405280929190818152602001828054801561112557602002820191906000526020600020905b8160009054906101000a900473ffffffffffffffffffffffffffffffffffffffff1673ffffffffffffffffffffffffffffffffffffffff16815260200190600101908083116110db575b505050505090506000600e8054806020026020016040519081016040528092919081815260200182805480156111b057602002820191906000526020600020905b8160009054906101000a900473ffffffffffffffffffffffffffffffffffffffff1673ffffffffffffffffffffffffffffffffffffffff1681526020019060010190808311611166575b50505050509050600085519050600085519050600085519050600085519050600085519050600085905060008b9050600080606490508388106111fc578793508c925060199150604b90505b8387106112125786935060329150603290508b92505b8386111561122957859350604b9150601990508a92505b838511156112405784935060649150600090508992505b6003601060006101000a81548160ff0219169083600381111561128c577f4e487b7100000000000000000000000000000000000000000000000000000000600052602160045260246000fd5b0217905550600160009054906101000a900473ffffffffffffffffffffffffffffffffffffffff1673ffffffffffffffffffffffffffffffffffffffff1663d4c01b7b3060036040518363ffffffff1660e01b81526004016112ef92919061412a565b600060405180830381600087803b15801561130957600080fd5b505af115801561131d573d6000803e3d6000fd5b5050505061132d82828686612f70565b5050505050505050505050505050565b6000600854905090565b60026003811115611381577f4e487b7100000000000000000000000000000000000000000000000000000000600052602160045260246000fd5b601060009054906101000a900460ff1660038111156113c9577f4e487b7100000000000000000000000000000000000000000000000000000000600052602160045260246000fd5b146113d357600080fd5b600260009054906101000a900473ffffffffffffffffffffffffffffffffffffffff1673ffffffffffffffffffffffffffffffffffffffff1663ed896d66336040518263ffffffff1660e01b815260040161142e9190613fe1565b60206040518083038186803b15801561144657600080fd5b505afa15801561145a573d6000803e3d6000fd5b505050506040513d601f19601f8201168201806040525081019061147e9190613ccc565b80156115325750600260009054906101000a900473ffffffffffffffffffffffffffffffffffffffff1673ffffffffffffffffffffffffffffffffffffffff16632f7398fb336040518263ffffffff1660e01b81526004016114e09190613fe1565b60206040518083038186803b1580156114f857600080fd5b505afa15801561150c573d6000803e3d6000fd5b505050506040513d601f19601f820116820180604052508101906115309190613ccc565b155b8015611542575060048160ff1611155b80156115985750600f60003373ffffffffffffffffffffffffffffffffffffffff1673ffffffffffffffffffffffffffffffffffffffff16815260200190815260200160002060009054906101000a900460ff16155b80156115f25750600460009054906101000a900473ffffffffffffffffffffffffffffffffffffffff1673ffffffffffffffffffffffffffffffffffffffff163373ffffffffffffffffffffffffffffffffffffffff1614155b801561164c5750600560009054906101000a900473ffffffffffffffffffffffffffffffffffffffff1673ffffffffffffffffffffffffffffffffffffffff163373ffffffffffffffffffffffffffffffffffffffff1614155b61165557600080fd5b6001600f60003373ffffffffffffffffffffffffffffffffffffffff1673ffffffffffffffffffffffffffffffffffffffff16815260200190815260200160002060006101000a81548160ff02191690831515021790555060008160ff16141561172157600a339080600181540180825580915050600190039060005260206000200160009091909190916101000a81548173ffffffffffffffffffffffffffffffffffffffff021916908373ffffffffffffffffffffffffffffffffffffffff1602179055506118e4565b60018160ff16141561179557600b339080600181540180825580915050600190039060005260206000200160009091909190916101000a81548173ffffffffffffffffffffffffffffffffffffffff021916908373ffffffffffffffffffffffffffffffffffffffff1602179055506118e3565b60028160ff16141561180957600c339080600181540180825580915050600190039060005260206000200160009091909190916101000a81548173ffffffffffffffffffffffffffffffffffffffff021916908373ffffffffffffffffffffffffffffffffffffffff1602179055506118e2565b60038160ff16141561187d57600d339080600181540180825580915050600190039060005260206000200160009091909190916101000a81548173ffffffffffffffffffffffffffffffffffffffff021916908373ffffffffffffffffffffffffffffffffffffffff1602179055506118e1565b600e339080600181540180825580915050600190039060005260206000200160009091909190916101000a81548173ffffffffffffffffffffffffffffffffffffffff021916908373ffffffffffffffffffffffffffffffffffffffff1602179055505b5b5b5b600160009054906101000a900473ffffffffffffffffffffffffffffffffffffffff1673ffffffffffffffffffffffffffffffffffffffff1663c10e59913033846040518463ffffffff1660e01b8152600401611943939291906140a1565b600060405180830381600087803b15801561195d57600080fd5b505af1158015611971573d6000803e3d6000fd5b5050505050565b600060038111156119b2577f4e487b7100000000000000000000000000000000000000000000000000000000600052602160045260246000fd5b601060009054906101000a900460ff1660038111156119fa577f4e487b7100000000000000000000000000000000000000000000000000000000600052602160045260246000fd5b14611a0457600080fd5b600460009054906101000a900473ffffffffffffffffffffffffffffffffffffffff1673ffffffffffffffffffffffffffffffffffffffff163373ffffffffffffffffffffffffffffffffffffffff1614611a5e57600080fd5b600160009054906101000a900473ffffffffffffffffffffffffffffffffffffffff1673ffffffffffffffffffffffffffffffffffffffff1663cc7d21936040518163ffffffff1660e01b815260040160206040518083038186803b158015611ac657600080fd5b505afa158015611ada573d6000803e3d6000fd5b505050506040513d601f19601f82011682018060405250810190611afe9190613dec565b600954611b0b9190614348565b421015611b1757600080fd5b60008060029054906101000a900473ffffffffffffffffffffffffffffffffffffffff1673ffffffffffffffffffffffffffffffffffffffff166370a08231306040518263ffffffff1660e01b8152600401611b739190613fe1565b60206040518083038186803b158015611b8b57600080fd5b505afa158015611b9f573d6000803e3d6000fd5b505050506040513d601f19601f82011682018060405250810190611bc39190613dec565b9050611bcf338261379c565b6003601060006101000a81548160ff02191690836003811115611c1b577f4e487b7100000000000000000000000000000000000000000000000000000000600052602160045260246000fd5b0217905550600160009054906101000a900473ffffffffffffffffffffffffffffffffffffffff1673ffffffffffffffffffffffffffffffffffffffff1663d4c01b7b3060036040518363ffffffff1660e01b8152600401611c7e92919061412a565b600060405180830381600087803b158015611c9857600080fd5b505af1158015611cac573d6000803e3d6000fd5b5050505050565b6000600954905090565b6000601060009054906101000a900460ff16905090565b6000600354905090565b60016003811115611d18577f4e487b7100000000000000000000000000000000000000000000000000000000600052602160045260246000fd5b601060009054906101000a900460ff166003811115611d60577f4e487b7100000000000000000000000000000000000000000000000000000000600052602160045260246000fd5b14611d6a57600080fd5b600460009054906101000a900473ffffffffffffffffffffffffffffffffffffffff1673ffffffffffffffffffffffffffffffffffffffff163373ffffffffffffffffffffffffffffffffffffffff161480611e135750600560009054906101000a900473ffffffffffffffffffffffffffffffffffffffff1673ffffffffffffffffffffffffffffffffffffffff163373ffffffffffffffffffffffffffffffffffffffff16145b611e1c57600080fd5b8060079080519060200190611e32929190613af0565b506002601060006101000a81548160ff02191690836003811115611e7f577f4e487b7100000000000000000000000000000000000000000000000000000000600052602160045260246000fd5b0217905550600160009054906101000a900473ffffffffffffffffffffffffffffffffffffffff1673ffffffffffffffffffffffffffffffffffffffff166306ac6a666040518163ffffffff1660e01b815260040160206040518083038186803b158015611eec57600080fd5b505afa158015611f00573d6000803e3d6000fd5b505050506040513d601f19601f82011682018060405250810190611f249190613dec565b42611f2f9190614348565b600981905550600160009054906101000a900473ffffffffffffffffffffffffffffffffffffffff1673ffffffffffffffffffffffffffffffffffffffff1663d4c01b7b3060026040518363ffffffff1660e01b8152600401611f93929190614101565b600060405180830381600087803b158015611fad57600080fd5b505af1158015611fc1573d6000803e3d6000fd5b50505050600260009054906101000a900473ffffffffffffffffffffffffffffffffffffffff1673ffffffffffffffffffffffffffffffffffffffff16634da3231f600460009054906101000a900473ffffffffffffffffffffffffffffffffffffffff16600560009054906101000a900473ffffffffffffffffffffffffffffffffffffffff166040518363ffffffff1660e01b8152600401612066929190613ffc565b600060405180830381600087803b15801561208057600080fd5b505af1158015612094573d6000803e3d6000fd5b50505050600260009054906101000a900473ffffffffffffffffffffffffffffffffffffffff1673ffffffffffffffffffffffffffffffffffffffff1663f9688ca1600460009054906101000a900473ffffffffffffffffffffffffffffffffffffffff16600560009054906101000a900473ffffffffffffffffffffffffffffffffffffffff166040518363ffffffff1660e01b8152600401612139929190613ffc565b600060405180830381600087803b15801561215357600080fd5b505af1158015612167573d6000803e3d6000fd5b5050505050565b6000600160009054906101000a900473ffffffffffffffffffffffffffffffffffffffff16905090565b606060011515600260009054906101000a900473ffffffffffffffffffffffffffffffffffffffff1673ffffffffffffffffffffffffffffffffffffffff1663ed896d66336040518263ffffffff1660e01b81526004016121f99190613fe1565b60206040518083038186803b15801561221157600080fd5b505afa158015612225573d6000803e3d6000fd5b505050506040513d601f19601f820116820180604052508101906122499190613ccc565b151514806122a45750600460009054906101000a900473ffffffffffffffffffffffffffffffffffffffff1673ffffffffffffffffffffffffffffffffffffffff163373ffffffffffffffffffffffffffffffffffffffff16145b806122fc5750600560009054906101000a900473ffffffffffffffffffffffffffffffffffffffff1673ffffffffffffffffffffffffffffffffffffffff163373ffffffffffffffffffffffffffffffffffffffff16145b61230557600080fd5b6002600381111561233f577f4e487b7100000000000000000000000000000000000000000000000000000000600052602160045260246000fd5b601060009054906101000a900460ff166003811115612387577f4e487b7100000000000000000000000000000000000000000000000000000000600052602160045260246000fd5b1461239157600080fd5b6007805461239e906145df565b80601f01602080910402602001604051908101604052809291908181526020018280546123ca906145df565b80156124175780601f106123ec57610100808354040283529160200191612417565b820191906000526020600020905b8154815290600101906020018083116123fa57829003601f168201915b5050505050905090565b6001600381111561245b577f4e487b7100000000000000000000000000000000000000000000000000000000600052602160045260246000fd5b601060009054906101000a900460ff1660038111156124a3577f4e487b7100000000000000000000000000000000000000000000000000000000600052602160045260246000fd5b146124ad57600080fd5b600460009054906101000a900473ffffffffffffffffffffffffffffffffffffffff1673ffffffffffffffffffffffffffffffffffffffff163373ffffffffffffffffffffffffffffffffffffffff1614806125565750600560009054906101000a900473ffffffffffffffffffffffffffffffffffffffff1673ffffffffffffffffffffffffffffffffffffffff163373ffffffffffffffffffffffffffffffffffffffff16145b61255f57600080fd5b6000600460009054906101000a900473ffffffffffffffffffffffffffffffffffffffff1673ffffffffffffffffffffffffffffffffffffffff163373ffffffffffffffffffffffffffffffffffffffff16146125de57600460009054906101000a900473ffffffffffffffffffffffffffffffffffffffff16612602565b600560009054906101000a900473ffffffffffffffffffffffffffffffffffffffff165b905060008060029054906101000a900473ffffffffffffffffffffffffffffffffffffffff1673ffffffffffffffffffffffffffffffffffffffff166370a08231306040518263ffffffff1660e01b81526004016126609190613fe1565b60206040518083038186803b15801561267857600080fd5b505afa15801561268c573d6000803e3d6000fd5b505050506040513d601f19601f820116820180604052508101906126b09190613dec565b90506000600460009054906101000a900473ffffffffffffffffffffffffffffffffffffffff1673ffffffffffffffffffffffffffffffffffffffff163373ffffffffffffffffffffffffffffffffffffffff16146127105760006127b1565b600160009054906101000a900473ffffffffffffffffffffffffffffffffffffffff1673ffffffffffffffffffffffffffffffffffffffff166339ded4e96040518163ffffffff1660e01b815260040160206040518083038186803b15801561277857600080fd5b505afa15801561278c573d6000803e3d6000fd5b505050506040513d601f19601f820116820180604052508101906127b09190613dec565b5b90506000811115612cdf576000606482846127cc91906143cf565b6127d6919061439e565b905060006064600160009054906101000a900473ffffffffffffffffffffffffffffffffffffffff1673ffffffffffffffffffffffffffffffffffffffff1663f0e5bc6b6040518163ffffffff1660e01b815260040160206040518083038186803b15801561284457600080fd5b505afa158015612858573d6000803e3d6000fd5b505050506040513d601f19601f8201168201806040525081019061287c9190613dec565b8361288791906143cf565b612891919061439e565b905060006064600160009054906101000a900473ffffffffffffffffffffffffffffffffffffffff1673ffffffffffffffffffffffffffffffffffffffff1663ab64fa486040518163ffffffff1660e01b815260040160206040518083038186803b1580156128ff57600080fd5b505afa158015612913573d6000803e3d6000fd5b505050506040513d601f19601f820116820180604052508101906129379190613dec565b8461294291906143cf565b61294c919061439e565b905060006064600160009054906101000a900473ffffffffffffffffffffffffffffffffffffffff1673ffffffffffffffffffffffffffffffffffffffff1663057812226040518163ffffffff1660e01b815260040160206040518083038186803b1580156129ba57600080fd5b505afa1580156129ce573d6000803e3d6000fd5b505050506040513d601f19601f820116820180604052508101906129f29190613dec565b856129fd91906143cf565b612a07919061439e565b9050600260009054906101000a900473ffffffffffffffffffffffffffffffffffffffff1673ffffffffffffffffffffffffffffffffffffffff1663fa09d6bd600460009054906101000a900473ffffffffffffffffffffffffffffffffffffffff16600560009054906101000a900473ffffffffffffffffffffffffffffffffffffffff1685600060029054906101000a900473ffffffffffffffffffffffffffffffffffffffff166040518563ffffffff1660e01b8152600401612ad0949392919061405c565b600060405180830381600087803b158015612aea57600080fd5b505af1158015612afe573d6000803e3d6000fd5b50505050600260009054906101000a900473ffffffffffffffffffffffffffffffffffffffff1673ffffffffffffffffffffffffffffffffffffffff1663e1f72e74600460009054906101000a900473ffffffffffffffffffffffffffffffffffffffff16600560009054906101000a900473ffffffffffffffffffffffffffffffffffffffff166040518363ffffffff1660e01b8152600401612ba3929190613ffc565b600060405180830381600087803b158015612bbd57600080fd5b505af1158015612bd1573d6000803e3d6000fd5b50505050612c7e600160009054906101000a900473ffffffffffffffffffffffffffffffffffffffff1673ffffffffffffffffffffffffffffffffffffffff16638da5cb5b6040518163ffffffff1660e01b815260040160206040518083038186803b158015612c4057600080fd5b505afa158015612c54573d6000803e3d6000fd5b505050506040513d601f19601f82011682018060405250810190612c789190613ca3565b8461379c565b612caa600260009054906101000a900473ffffffffffffffffffffffffffffffffffffffff168361379c565b612cd6600160009054906101000a900473ffffffffffffffffffffffffffffffffffffffff168261379c565b50505050612db3565b600260009054906101000a900473ffffffffffffffffffffffffffffffffffffffff1673ffffffffffffffffffffffffffffffffffffffff1663f9688ca1600460009054906101000a900473ffffffffffffffffffffffffffffffffffffffff16600560009054906101000a900473ffffffffffffffffffffffffffffffffffffffff166040518363ffffffff1660e01b8152600401612d80929190613ffc565b600060405180830381600087803b158015612d9a57600080fd5b505af1158015612dae573d6000803e3d6000fd5b505050505b612e6783600060029054906101000a900473ffffffffffffffffffffffffffffffffffffffff1673ffffffffffffffffffffffffffffffffffffffff166370a08231306040518263ffffffff1660e01b8152600401612e129190613fe1565b60206040518083038186803b158015612e2a57600080fd5b505afa158015612e3e573d6000803e3d6000fd5b505050506040513d601f19601f82011682018060405250810190612e629190613dec565b61379c565b6003601060006101000a81548160ff02191690836003811115612eb3577f4e487b7100000000000000000000000000000000000000000000000000000000600052602160045260246000fd5b0217905550600160009054906101000a900473ffffffffffffffffffffffffffffffffffffffff1673ffffffffffffffffffffffffffffffffffffffff1663d4c01b7b3060036040518363ffffffff1660e01b8152600401612f1692919061412a565b600060405180830381600087803b158015612f3057600080fd5b505af1158015612f44573d6000803e3d6000fd5b50505050505050565b6000808273ffffffffffffffffffffffffffffffffffffffff163b119050919050565b60008060029054906101000a900473ffffffffffffffffffffffffffffffffffffffff1673ffffffffffffffffffffffffffffffffffffffff166370a08231306040518263ffffffff1660e01b8152600401612fcc9190613fe1565b60206040518083038186803b158015612fe457600080fd5b505afa158015612ff8573d6000803e3d6000fd5b505050506040513d601f19601f8201168201806040525081019061301c9190613dec565b905060006064600160009054906101000a900473ffffffffffffffffffffffffffffffffffffffff1673ffffffffffffffffffffffffffffffffffffffff1663e2730ab06040518163ffffffff1660e01b815260040160206040518083038186803b15801561308a57600080fd5b505afa15801561309e573d6000803e3d6000fd5b505050506040513d601f19601f820116820180604052508101906130c29190613dec565b836130cd91906143cf565b6130d7919061439e565b905060006064600160009054906101000a900473ffffffffffffffffffffffffffffffffffffffff1673ffffffffffffffffffffffffffffffffffffffff1663f0e5bc6b6040518163ffffffff1660e01b815260040160206040518083038186803b15801561314557600080fd5b505afa158015613159573d6000803e3d6000fd5b505050506040513d601f19601f8201168201806040525081019061317d9190613dec565b8361318891906143cf565b613192919061439e565b905060006064600160009054906101000a900473ffffffffffffffffffffffffffffffffffffffff1673ffffffffffffffffffffffffffffffffffffffff1663ab64fa486040518163ffffffff1660e01b815260040160206040518083038186803b15801561320057600080fd5b505afa158015613214573d6000803e3d6000fd5b505050506040513d601f19601f820116820180604052508101906132389190613dec565b8461324391906143cf565b61324d919061439e565b905060006064600160009054906101000a900473ffffffffffffffffffffffffffffffffffffffff1673ffffffffffffffffffffffffffffffffffffffff1663057812226040518163ffffffff1660e01b815260040160206040518083038186803b1580156132bb57600080fd5b505afa1580156132cf573d6000803e3d6000fd5b505050506040513d601f19601f820116820180604052508101906132f39190613dec565b856132fe91906143cf565b613308919061439e565b9050600084866133189190614429565b905060005b8881101561343657600260009054906101000a900473ffffffffffffffffffffffffffffffffffffffff1673ffffffffffffffffffffffffffffffffffffffff16639570ba9f89838151811061339c577f4e487b7100000000000000000000000000000000000000000000000000000000600052603260045260246000fd5b6020026020010151600060029054906101000a900473ffffffffffffffffffffffffffffffffffffffff168c876133d3919061439e565b6040518463ffffffff1660e01b81526004016133f193929190614025565b600060405180830381600087803b15801561340b57600080fd5b505af115801561341f573d6000803e3d6000fd5b50505050808061342e90614642565b91505061331d565b50600260009054906101000a900473ffffffffffffffffffffffffffffffffffffffff1673ffffffffffffffffffffffffffffffffffffffff1663fa09d6bd600460009054906101000a900473ffffffffffffffffffffffffffffffffffffffff16600560009054906101000a900473ffffffffffffffffffffffffffffffffffffffff1686600060029054906101000a900473ffffffffffffffffffffffffffffffffffffffff166040518563ffffffff1660e01b81526004016134fe949392919061405c565b600060405180830381600087803b15801561351857600080fd5b505af115801561352c573d6000803e3d6000fd5b50505050600260009054906101000a900473ffffffffffffffffffffffffffffffffffffffff1673ffffffffffffffffffffffffffffffffffffffff1663e1f72e74600460009054906101000a900473ffffffffffffffffffffffffffffffffffffffff16600560009054906101000a900473ffffffffffffffffffffffffffffffffffffffff166040518363ffffffff1660e01b81526004016135d1929190613ffc565b600060405180830381600087803b1580156135eb57600080fd5b505af11580156135ff573d6000803e3d6000fd5b505050506136ac600160009054906101000a900473ffffffffffffffffffffffffffffffffffffffff1673ffffffffffffffffffffffffffffffffffffffff16638da5cb5b6040518163ffffffff1660e01b815260040160206040518083038186803b15801561366e57600080fd5b505afa158015613682573d6000803e3d6000fd5b505050506040513d601f19601f820116820180604052508101906136a69190613ca3565b8561379c565b6136d8600260009054906101000a900473ffffffffffffffffffffffffffffffffffffffff168461379c565b613704600160009054906101000a900473ffffffffffffffffffffffffffffffffffffffff168361379c565b61374a600460009054906101000a900473ffffffffffffffffffffffffffffffffffffffff1660648c60ff168461373b91906143cf565b613745919061439e565b61379c565b613790600560009054906101000a900473ffffffffffffffffffffffffffffffffffffffff1660648b60ff168461378191906143cf565b61378b919061439e565b61379c565b50505050505050505050565b6137e98282600060029054906101000a900473ffffffffffffffffffffffffffffffffffffffff1673ffffffffffffffffffffffffffffffffffffffff166137ed9092919063ffffffff16565b5050565b61386e8363a9059cbb60e01b848460405160240161380c929190614153565b604051602081830303815290604052907bffffffffffffffffffffffffffffffffffffffffffffffffffffffff19166020820180517bffffffffffffffffffffffffffffffffffffffffffffffffffffffff8381831617835250505050613873565b505050565b60006138d5826040518060400160405280602081526020017f5361666545524332303a206c6f772d6c6576656c2063616c6c206661696c65648152508573ffffffffffffffffffffffffffffffffffffffff1661393a9092919063ffffffff16565b905060008151111561393557808060200190518101906138f59190613ccc565b613934576040517f08c379a000000000000000000000000000000000000000000000000000000000815260040161392b90614285565b60405180910390fd5b5b505050565b60606139498484600085613952565b90509392505050565b606082471015613997576040517f08c379a000000000000000000000000000000000000000000000000000000000815260040161398e90614225565b60405180910390fd5b6139a085613a66565b6139df576040517f08c379a00000000000000000000000000000000000000000000000000000000081526004016139d690614265565b60405180910390fd5b6000808673ffffffffffffffffffffffffffffffffffffffff168587604051613a089190613fca565b60006040518083038185875af1925050503d8060008114613a45576040519150601f19603f3d011682016040523d82523d6000602084013e613a4a565b606091505b5091509150613a5a828286613a89565b92505050949350505050565b6000808273ffffffffffffffffffffffffffffffffffffffff163b119050919050565b60608315613a9957829050613ae9565b600083511115613aac5782518084602001fd5b816040517f08c379a0000000000000000000000000000000000000000000000000000000008152600401613ae09190614203565b60405180910390fd5b9392505050565b828054613afc906145df565b90600052602060002090601f016020900481019282613b1e5760008555613b65565b82601f10613b3757805160ff1916838001178555613b65565b82800160010185558215613b65579182015b82811115613b64578251825591602001919060010190613b49565b5b509050613b729190613b76565b5090565b5b80821115613b8f576000816000905550600101613b77565b5090565b6000613ba6613ba1846142e5565b6142c0565b905082815260208101848484011115613bbe57600080fd5b613bc984828561459d565b509392505050565b600081359050613be0816148b1565b92915050565b600081519050613bf5816148b1565b92915050565b600081519050613c0a816148c8565b92915050565b600081359050613c1f816148df565b92915050565b600081359050613c34816148f6565b92915050565b600082601f830112613c4b57600080fd5b8135613c5b848260208601613b93565b91505092915050565b600081359050613c738161490d565b92915050565b600081519050613c888161490d565b92915050565b600081359050613c9d81614924565b92915050565b600060208284031215613cb557600080fd5b6000613cc384828501613be6565b91505092915050565b600060208284031215613cde57600080fd5b6000613cec84828501613bfb565b91505092915050565b600080600080600080600060e0888a031215613d1057600080fd5b6000613d1e8a828b01613c10565b9750506020613d2f8a828b01613bd1565b9650506040613d408a828b01613bd1565b9550506060613d518a828b01613c64565b945050608088013567ffffffffffffffff811115613d6e57600080fd5b613d7a8a828b01613c3a565b93505060a0613d8b8a828b01613c64565b92505060c0613d9c8a828b01613c25565b91505092959891949750929550565b600060208284031215613dbd57600080fd5b600082013567ffffffffffffffff811115613dd757600080fd5b613de384828501613c3a565b91505092915050565b600060208284031215613dfe57600080fd5b6000613e0c84828501613c79565b91505092915050565b600060208284031215613e2757600080fd5b6000613e3584828501613c8e565b91505092915050565b613e478161445d565b82525050565b6000613e5882614316565b613e62818561432c565b9350613e728185602086016145ac565b80840191505092915050565b613e87816144e9565b82525050565b613e968161450d565b82525050565b613ea581614531565b82525050565b613eb481614555565b82525050565b613ec381614567565b82525050565b613ed281614579565b82525050565b613ee18161458b565b82525050565b6000613ef282614321565b613efc8185614337565b9350613f0c8185602086016145ac565b613f1581614776565b840191505092915050565b6000613f2d602683614337565b9150613f3882614787565b604082019050919050565b6000613f50602e83614337565b9150613f5b826147d6565b604082019050919050565b6000613f73601d83614337565b9150613f7e82614825565b602082019050919050565b6000613f96602a83614337565b9150613fa18261484e565b604082019050919050565b613fb5816144d2565b82525050565b613fc4816144dc565b82525050565b6000613fd68284613e4d565b915081905092915050565b6000602082019050613ff66000830184613e3e565b92915050565b60006040820190506140116000830185613e3e565b61401e6020830184613e3e565b9392505050565b600060608201905061403a6000830186613e3e565b6140476020830185613e3e565b6140546040830184613fac565b949350505050565b60006080820190506140716000830187613e3e565b61407e6020830186613e3e565b61408b6040830185613fac565b6140986060830184613e3e565b95945050505050565b60006060820190506140b66000830186613e3e565b6140c36020830185613e3e565b6140d06040830184613fbb565b949350505050565b60006040820190506140ed6000830185613e3e565b6140fa6020830184613eba565b9392505050565b60006040820190506141166000830185613e3e565b6141236020830184613ec9565b9392505050565b600060408201905061413f6000830185613e3e565b61414c6020830184613ed8565b9392505050565b60006040820190506141686000830185613e3e565b6141756020830184613fac565b9392505050565b60006020820190506141916000830184613e7e565b92915050565b60006020820190506141ac6000830184613e8d565b92915050565b60006020820190506141c76000830184613e9c565b92915050565b60006020820190506141e26000830184613eab565b92915050565b60006020820190506141fd6000830184613eba565b92915050565b6000602082019050818103600083015261421d8184613ee7565b905092915050565b6000602082019050818103600083015261423e81613f20565b9050919050565b6000602082019050818103600083015261425e81613f43565b9050919050565b6000602082019050818103600083015261427e81613f66565b9050919050565b6000602082019050818103600083015261429e81613f89565b9050919050565b60006020820190506142ba6000830184613fac565b92915050565b60006142ca6142db565b90506142d68282614611565b919050565b6000604051905090565b600067ffffffffffffffff821115614300576142ff614747565b5b61430982614776565b9050602081019050919050565b600081519050919050565b600081519050919050565b600081905092915050565b600082825260208201905092915050565b6000614353826144d2565b915061435e836144d2565b9250827fffffffffffffffffffffffffffffffffffffffffffffffffffffffffffffffff038211156143935761439261468b565b5b828201905092915050565b60006143a9826144d2565b91506143b4836144d2565b9250826143c4576143c36146ba565b5b828204905092915050565b60006143da826144d2565b91506143e5836144d2565b9250817fffffffffffffffffffffffffffffffffffffffffffffffffffffffffffffffff048311821515161561441e5761441d61468b565b5b828202905092915050565b6000614434826144d2565b915061443f836144d2565b9250828210156144525761445161468b565b5b828203905092915050565b6000614468826144b2565b9050919050565b60008115159050919050565b60006144868261445d565b9050919050565b60006144988261445d565b9050919050565b60008190506144ad8261489d565b919050565b600073ffffffffffffffffffffffffffffffffffffffff82169050919050565b6000819050919050565b600060ff82169050919050565b60006144f4826144fb565b9050919050565b6000614506826144b2565b9050919050565b60006145188261451f565b9050919050565b600061452a826144b2565b9050919050565b600061453c82614543565b9050919050565b600061454e826144b2565b9050919050565b60006145608261449f565b9050919050565b6000614572826144dc565b9050919050565b6000614584826144dc565b9050919050565b6000614596826144dc565b9050919050565b82818337600083830152505050565b60005b838110156145ca5780820151818401526020810190506145af565b838111156145d9576000848401525b50505050565b600060028204905060018216806145f757607f821691505b6020821081141561460b5761460a614718565b5b50919050565b61461a82614776565b810181811067ffffffffffffffff8211171561463957614638614747565b5b80604052505050565b600061464d826144d2565b91507fffffffffffffffffffffffffffffffffffffffffffffffffffffffffffffffff8214156146805761467f61468b565b5b600182019050919050565b7f4e487b7100000000000000000000000000000000000000000000000000000000600052601160045260246000fd5b7f4e487b7100000000000000000000000000000000000000000000000000000000600052601260045260246000fd5b7f4e487b7100000000000000000000000000000000000000000000000000000000600052602160045260246000fd5b7f4e487b7100000000000000000000000000000000000000000000000000000000600052602260045260246000fd5b7f4e487b7100000000000000000000000000000000000000000000000000000000600052604160045260246000fd5b6000601f19601f8301169050919050565b7f416464726573733a20696e73756666696369656e742062616c616e636520666f60008201527f722063616c6c0000000000000000000000000000000000000000000000000000602082015250565b7f496e697469616c697a61626c653a20636f6e747261637420697320616c72656160008201527f647920696e697469616c697a6564000000000000000000000000000000000000602082015250565b7f416464726573733a2063616c6c20746f206e6f6e2d636f6e7472616374000000600082015250565b7f5361666545524332303a204552433230206f7065726174696f6e20646964206e60008201527f6f74207375636365656400000000000000000000000000000000000000000000602082015250565b600481106148ae576148ad6146e9565b5b50565b6148ba8161445d565b81146148c557600080fd5b50565b6148d18161446f565b81146148dc57600080fd5b50565b6148e88161447b565b81146148f357600080fd5b50565b6148ff8161448d565b811461490a57600080fd5b50565b614916816144d2565b811461492157600080fd5b50565b61492d816144dc565b811461493857600080fd5b5056fea2646970667358221220f9f750d64ec7a01576087df4d5e61170501c5aee46b470695fd83c224428ce7164736f6c63430008040033",
  "linkReferences": {},
  "deployedLinkReferences": {}
}