{
  "_format": "hh-sol-artifact-1",
  "contractName": "GigV1",
  "sourceName": "contracts/GigV1.sol",
  "abi": [
    {
      "anonymous": false,
      "inputs": [
        {
          "indexed": false,
          "internalType": "uint8",
          "name": "version",
          "type": "uint8"
        }
      ],
      "name": "Initialized",
      "type": "event"
    },
    {
      "inputs": [],
      "name": "acceptOrder",
      "outputs": [],
      "stateMutability": "nonpayable",
      "type": "function"
    },
    {
      "inputs": [],
      "name": "autoRefund",
      "outputs": [],
      "stateMutability": "nonpayable",
      "type": "function"
    },
    {
      "inputs": [],
      "name": "buyer",
      "outputs": [
        {
          "internalType": "address",
          "name": "",
          "type": "address"
        }
      ],
      "stateMutability": "view",
      "type": "function"
    },
    {
      "inputs": [
        {
          "internalType": "string",
          "name": "_newLogs",
          "type": "string"
        }
      ],
      "name": "callTrial",
      "outputs": [],
      "stateMutability": "nonpayable",
      "type": "function"
    },
    {
      "inputs": [],
      "name": "endTrial",
      "outputs": [],
      "stateMutability": "nonpayable",
      "type": "function"
    },
    {
      "inputs": [],
      "name": "gigFactory",
      "outputs": [
        {
          "internalType": "contract IGigFactory",
          "name": "",
          "type": "address"
        }
      ],
      "stateMutability": "view",
      "type": "function"
    },
    {
      "inputs": [],
      "name": "gigIndex",
      "outputs": [
        {
          "internalType": "uint256",
          "name": "",
          "type": "uint256"
        }
      ],
      "stateMutability": "view",
      "type": "function"
    },
    {
      "inputs": [
        {
          "internalType": "contract IERC20",
          "name": "_newPaymentToken",
          "type": "address"
        },
        {
          "internalType": "address",
          "name": "_newBuyer",
          "type": "address"
        },
        {
          "internalType": "address",
          "name": "_newSeller",
          "type": "address"
        },
        {
          "internalType": "uint256",
          "name": "_newPrice",
          "type": "uint256"
        },
        {
          "internalType": "string",
          "name": "_newMetadata",
          "type": "string"
        },
        {
          "internalType": "uint256",
          "name": "_newIndex",
          "type": "uint256"
        },
        {
          "internalType": "contract IUserSoul",
          "name": "_newUserSoul",
          "type": "address"
        }
      ],
      "name": "initialize",
      "outputs": [],
      "stateMutability": "nonpayable",
      "type": "function"
    },
    {
      "inputs": [],
      "name": "logs",
      "outputs": [
        {
          "internalType": "string",
          "name": "",
          "type": "string"
        }
      ],
      "stateMutability": "view",
      "type": "function"
    },
    {
      "inputs": [],
      "name": "metadata",
      "outputs": [
        {
          "internalType": "string",
          "name": "",
          "type": "string"
        }
      ],
      "stateMutability": "view",
      "type": "function"
    },
    {
      "inputs": [],
      "name": "paymentToken",
      "outputs": [
        {
          "internalType": "contract IERC20",
          "name": "",
          "type": "address"
        }
      ],
      "stateMutability": "view",
      "type": "function"
    },
    {
      "inputs": [],
      "name": "price",
      "outputs": [
        {
          "internalType": "uint256",
          "name": "",
          "type": "uint256"
        }
      ],
      "stateMutability": "view",
      "type": "function"
    },
    {
      "inputs": [],
      "name": "readTrialLogs",
      "outputs": [
        {
          "internalType": "string",
          "name": "",
          "type": "string"
        }
      ],
      "stateMutability": "view",
      "type": "function"
    },
    {
      "inputs": [],
      "name": "readTrialMetadata",
      "outputs": [
        {
          "internalType": "string",
          "name": "",
          "type": "string"
        }
      ],
      "stateMutability": "view",
      "type": "function"
    },
    {
      "inputs": [],
      "name": "seller",
      "outputs": [
        {
          "internalType": "address",
          "name": "",
          "type": "address"
        }
      ],
      "stateMutability": "view",
      "type": "function"
    },
    {
      "inputs": [],
      "name": "sendAll",
      "outputs": [],
      "stateMutability": "nonpayable",
      "type": "function"
    },
    {
      "inputs": [],
      "name": "state",
      "outputs": [
        {
          "internalType": "enum GigV1.GigState",
          "name": "",
          "type": "uint8"
        }
      ],
      "stateMutability": "view",
      "type": "function"
    },
    {
      "inputs": [],
      "name": "timestamp",
      "outputs": [
        {
          "internalType": "uint256",
          "name": "",
          "type": "uint256"
        }
      ],
      "stateMutability": "view",
      "type": "function"
    },
    {
      "inputs": [],
      "name": "userSoul",
      "outputs": [
        {
          "internalType": "contract IUserSoul",
          "name": "",
          "type": "address"
        }
      ],
      "stateMutability": "view",
      "type": "function"
    },
    {
      "inputs": [
        {
          "internalType": "uint8",
          "name": "_vote",
          "type": "uint8"
        }
      ],
      "name": "vote",
      "outputs": [],
      "stateMutability": "nonpayable",
      "type": "function"
    }
  ],
  "bytecode": "0x60806040523480156200001157600080fd5b50618b5c80620000226000396000f3fe608060405234801561001057600080fd5b506004361061012c5760003560e01c8063a035b1fe116100ad578063d1534a7f11610071578063d1534a7f146102b3578063d59462eb146102d1578063d9159184146102ed578063dcc774f41461030b578063e14f680f146103295761012c565b8063a035b1fe14610233578063b3f98adc14610251578063b723ae751461026d578063b80777ea14610277578063c19d93fb146102955761012c565b806347efd607116100f457806347efd607146101b35780634d1d1bf7146101d15780637150d8ae146101ed578063742597951461020b57806375e2e9fb146102295761012c565b806308551a531461013157806313fc80d31461014f5780633013ce2914610159578063392f37e9146101775780633fd9c23a14610195575b600080fd5b610139610333565b60405161014691906181cc565b60405180910390f35b6101576103e1565b005b610161610895565b60405161016e9190618367565b60405180910390f35b61017f610943565b60405161018c91906183ee565b60405180910390f35b61019d610c13565b6040516101aa91906183ee565b60405180910390f35b6101bb611130565b6040516101c8919061839d565b60405180910390f35b6101eb60048036038101906101e69190617ee0565b6111de565b005b6101f5611879565b60405161020291906181cc565b60405180910390f35b610213611927565b60405161022091906183ee565b60405180910390f35b610231611bf7565b005b61023b61329a565b6040516102489190618490565b60405180910390f35b61026b60048036038101906102669190618000565b613328565b005b610275613fe1565b005b61027f614768565b60405161028c9190618490565b60405180910390f35b61029d6147f6565b6040516102aa91906183b8565b60405180910390f35b6102bb614891565b6040516102c89190618490565b60405180910390f35b6102eb60048036038101906102e69190617f96565b61491f565b005b6102f56151fa565b6040516103029190618382565b60405180910390f35b6103136152a8565b60405161032091906183ee565b60405180910390f35b6103316157c5565b005b60006103617fbe3b22cf0d668c8b2e3326ec29b09ee7229c7033ed067ce62b0ddaf202259fa860001b616b5d565b61038d7fba486a341584ff2f0f33b5cfeffa88692709a29b91f39e2649ab22bd194c615760001b616b5d565b6103b97ff63d68e5e44b8e9d6bc113ee4624f064db48d5e3c0bac65d7dc928406c9a99b460001b616b5d565b600560009054906101000a900473ffffffffffffffffffffffffffffffffffffffff16905090565b61040d7fae7b7c6467145e7e8711056a18872bf778e360dc58957678a9a2471fc7808b6760001b616b5d565b6104397f5115e25a348c33764fbda52817ba16ffc99ecc8da1821a9a7f94be4a6b94156f60001b616b5d565b6104657f6d17b0a1ca4ea48e8a020bd4e536ee402d93cfe1a29571317227e71b536467bb60001b616b5d565b6104917f27ecdfd6dcab52b6bf25772f7a78311e34f29465fc5eae4c8ab26d647936c21760001b616b5d565b600060038111156104cb577f4e487b7100000000000000000000000000000000000000000000000000000000600052602160045260246000fd5b601060009054906101000a900460ff166003811115610513577f4e487b7100000000000000000000000000000000000000000000000000000000600052602160045260246000fd5b1461051d57600080fd5b6105497fd9dfa7fda2ac31a34dd60d776e958e447e67702cea6495892f47289b4445972860001b616b5d565b6105757fa856be79ecccbb7565c022d6fb5e44140a995a88a5dc2a33955b67064d47149060001b616b5d565b6105a17f1d516626ecf9b5c90e905c74164bd5b8f5fbf70bd68620a61da0c360b625a46960001b616b5d565b6105cd7f67b154903d67777428b0785e707850407f90be8cf8db1dd98fc45225661a3c9e60001b616b5d565b6105f97f8b9893b87cd482e0218d94d01f2aeb0f89121e094a6bf24b54cdcc2f429282b560001b616b5d565b6106257fa275d9ac2d362f47d1b3f211f208d8ac7e6adb0a5e5558cff89142e93f79522160001b616b5d565b600560009054906101000a900473ffffffffffffffffffffffffffffffffffffffff1673ffffffffffffffffffffffffffffffffffffffff163373ffffffffffffffffffffffffffffffffffffffff161461067f57600080fd5b6106ab7fa5f58621fe19e44d29cd0532f90c87bf2a0c65768a4fcff334df31528aeda9af60001b616b5d565b6106d67e712be6dc36d6a3056dbc8bd9bb96a75c21de0c7e5f39a6885807e3cc9ca7d260001b616b5d565b6107027fc2aca7f85ca49283a7f95ba3649ca9ee3a6b2826cc7599dab3b71676bdc6c23160001b616b5d565b61072e7f5e394575facb1b1f2e1e6e42a3863e019c6cbda96f7c54484b7dd7a2346ce4c160001b616b5d565b61075a7f9e7152e97e40a554533be38e63961819936cd1273ac6a6fe09d01a4b056da5d160001b616b5d565b6001601060006101000a81548160ff021916908360038111156107a6577f4e487b7100000000000000000000000000000000000000000000000000000000600052602160045260246000fd5b02179055506107d77fff5a97c9be9243f05bf896864c43c66c90ed3e3b6df65f8b8591d42212fa9c9360001b616b5d565b6108037feee5c9e2b6d075755bc3735dd644f7d3e13612d2c1c4549e5644a4c53dd69ea060001b616b5d565b600160009054906101000a900473ffffffffffffffffffffffffffffffffffffffff1673ffffffffffffffffffffffffffffffffffffffff1663d4c01b7b3060016040518363ffffffff1660e01b81526004016108619291906182c3565b600060405180830381600087803b15801561087b57600080fd5b505af115801561088f573d6000803e3d6000fd5b50505050565b60006108c37ff04688e6a6c8e92c76c953f26ca5380073030734d1afdd12f00aafa6a38b555060001b616b5d565b6108ef7f0d8216861134fbc219ba78975930840a97f1b508053335e3152a1c63dbbbb6e660001b616b5d565b61091b7f846bfd0c7fffae920e7d0494ef5dc0cef5a59651d789a44e1595cfa91fc47c1960001b616b5d565b600060029054906101000a900473ffffffffffffffffffffffffffffffffffffffff16905090565b60606109717f5fe70c193c09ce8838798bb3ed56ca9853a5741f14cdc87bbbaa438ddb05ccad60001b616b5d565b61099d7fef88d8f079dbfff2d16ace7265b18021893e26731c6f063e30cc89ddf9040a0460001b616b5d565b6109c97faeedc9bfd10668ba248f23f2f8bfeb28fbec26e8446d4a72fc71729dae54a8ea60001b616b5d565b6109f57f7e2f5ca3204840bbd0cc9b7d94ab5859cd82c710aeb32a3d4b4d3949bb1ba84860001b616b5d565b600460009054906101000a900473ffffffffffffffffffffffffffffffffffffffff1673ffffffffffffffffffffffffffffffffffffffff163373ffffffffffffffffffffffffffffffffffffffff161480610a9e5750600560009054906101000a900473ffffffffffffffffffffffffffffffffffffffff1673ffffffffffffffffffffffffffffffffffffffff163373ffffffffffffffffffffffffffffffffffffffff16145b610aa757600080fd5b610ad37fbf2a98b3cb0f0a70f260a4f7df71a20a7af790d448ab49a6e5558172ff3fe3ac60001b616b5d565b610aff7f4448f2d32223b0937b8b63c1864c59f89f533e169d19bba1b5b76d45398f5cca60001b616b5d565b610b2b7f4f1edbaf3646aa3ca0d85ee0beca5f64a8a18831cd8c1df3badc52a436a824b960001b616b5d565b610b577f348c6279c13474223abdf1003c47a929caee70504d811149567fdf6767f17aa260001b616b5d565b610b837f95101f71381f3581dd4256abaad9b0a7a654a16d0467f499a18d49fe1f90fb6f60001b616b5d565b60068054610b90906187ca565b80601f0160208091040260200160405190810160405280929190818152602001828054610bbc906187ca565b8015610c095780601f10610bde57610100808354040283529160200191610c09565b820191906000526020600020905b815481529060010190602001808311610bec57829003601f168201915b5050505050905090565b6060610c417fe028475ee026adb6be6f5cc4e18c1896931599324749b5a8770b47740d1eda9d60001b616b5d565b610c6d7f7f713df106eeee53fa8a7ec9607bb556157d111550ab5fe5580906587587c87360001b616b5d565b610c997f7a8bd9e5ec560905367ac3f36738d599f5b167788efa47a09824bc391d74383960001b616b5d565b610cc57fedb74ecc4d634ac14a311cd970668103a82439be9d93d6dddae971f57b42a4c360001b616b5d565b60011515600260009054906101000a900473ffffffffffffffffffffffffffffffffffffffff1673ffffffffffffffffffffffffffffffffffffffff1663ed896d66336040518263ffffffff1660e01b8152600401610d2491906181cc565b60206040518083038186803b158015610d3c57600080fd5b505afa158015610d50573d6000803e3d6000fd5b505050506040513d601f19601f82011682018060405250810190610d749190617eb7565b15151480610dcf5750600460009054906101000a900473ffffffffffffffffffffffffffffffffffffffff1673ffffffffffffffffffffffffffffffffffffffff163373ffffffffffffffffffffffffffffffffffffffff16145b80610e275750600560009054906101000a900473ffffffffffffffffffffffffffffffffffffffff1673ffffffffffffffffffffffffffffffffffffffff163373ffffffffffffffffffffffffffffffffffffffff16145b610e3057600080fd5b610e5c7fa7e18606c4baf9dcf55cfcb725579cfcfd53b78f17b7103d18157ab86790a70760001b616b5d565b610e887f821310c29133fd4a634c062fb50918e33316974c45c6a6d5248258ab30ac011f60001b616b5d565b610eb47f3fe7cd6c2ce047de300ec40150a67f42e94cbaf6e44d4fb7d11db09618ebcfc260001b616b5d565b610ee07fec54ef6419e28d270c44050846d7969e0a643a3fb80324268ad560706e3224ff60001b616b5d565b610f0c7f31bebff4741126f9edee8580a61646dabb34d1a4893d0b493ab1d29beaf9943660001b616b5d565b610f387fd0784a0615847c7c13117832ce3e07661266c9b406e17cd2cc1c69f50ffde7bc60001b616b5d565b60026003811115610f72577f4e487b7100000000000000000000000000000000000000000000000000000000600052602160045260246000fd5b601060009054906101000a900460ff166003811115610fba577f4e487b7100000000000000000000000000000000000000000000000000000000600052602160045260246000fd5b14610fc457600080fd5b610ff07f8b364a0109d60302568a7bb1c0483f501138d978aaaada364e76c7e407773d0c60001b616b5d565b61101c7fbe889e5e2d1b35c6c6fec7593dbffe4be018dac8e68d198b14b9b7884e2160dc60001b616b5d565b6110487f8d6a6eb5b01cf283a4907e77d23c52681d504dc0f36f37b67ee456294f2b391460001b616b5d565b6110747f8f1124c44910890f5e7ec44317b4f61d1cc697cf08638d101216cc46d2b2841b60001b616b5d565b6110a07f7afe3a8bbac93f9ab830c4c5840b4833ff9cfb73daced227e86dfa193b0a64d860001b616b5d565b600680546110ad906187ca565b80601f01602080910402602001604051908101604052809291908181526020018280546110d9906187ca565b80156111265780601f106110fb57610100808354040283529160200191611126565b820191906000526020600020905b81548152906001019060200180831161110957829003601f168201915b5050505050905090565b600061115e7f1babd45cda53f71c507c7dc96aee0746859d665688a15b1d6a3d91ee892ce7b160001b616b5d565b61118a7f2bb15bb10b6efc7089100ec72ff75ed8c21d2617e5bcddb28e290846979fa19260001b616b5d565b6111b67f223bf622dada08b727ddb5818f0cfadd008ba081418455d72969f7a1b0c2ac8e60001b616b5d565b600260009054906101000a900473ffffffffffffffffffffffffffffffffffffffff16905090565b60008060019054906101000a900460ff1615905080801561120f5750600160008054906101000a900460ff1660ff16105b8061123c575061121e30616b60565b15801561123b5750600160008054906101000a900460ff1660ff16145b5b61127b576040517f08c379a000000000000000000000000000000000000000000000000000000000815260040161127290618430565b60405180910390fd5b60016000806101000a81548160ff021916908360ff16021790555080156112b8576001600060016101000a81548160ff0219169083151502179055505b6112e47f46fb8debb55b59b413dd25d0799607f3433e837b3df3cc50f204e4942210586160001b616b5d565b6113107f8f690a7ce5cf80fc92b7b2f48a9c4028e5db13bf6c5aa733e30ba8d4be5435f160001b616b5d565b61133c7f531dfe5040e23d325aea24a9db3261433edfec9c884506c41d9342d0d0d0818960001b616b5d565b33600160006101000a81548173ffffffffffffffffffffffffffffffffffffffff021916908373ffffffffffffffffffffffffffffffffffffffff1602179055506113a97f53fe3a66a494f90e43b0af4d158d74ae852b999a67dc307f2a72a4055f6de00f60001b616b5d565b6113d57f593d1cab6948600899f1f8d4a415bb113d4915e7c03ed757645109fe962a7b6160001b616b5d565b87600060026101000a81548173ffffffffffffffffffffffffffffffffffffffff021916908373ffffffffffffffffffffffffffffffffffffffff1602179055506114427ffc9381b67e8f32a25dedcfc09af133789d9a931df1a9038c71920e71fdd5383a60001b616b5d565b61146e7f92fdebf4bebd7dbd9c009fae62ff1c50995058f75f4f18fef362e3bcad5a924260001b616b5d565b81600260006101000a81548173ffffffffffffffffffffffffffffffffffffffff021916908373ffffffffffffffffffffffffffffffffffffffff1602179055506114db7f57b7995825d2c95bcf1237e17f7eb09ccec2811103fc855c4184f7ce38645cfd60001b616b5d565b6115077ff627cb98083f6c12bc66ebd148befe153edbcb4553da938cfb2a658cca4c23cb60001b616b5d565b86600460006101000a81548173ffffffffffffffffffffffffffffffffffffffff021916908373ffffffffffffffffffffffffffffffffffffffff1602179055506115747f405638ee5a504f1de9fc5fac202a5ba38d94146f2984205dac2633f97ce8db5360001b616b5d565b6115a07fbf1a3977fab095b2f2dcca789486f9be43c83b00e92ba3d5c65e331b9fb83bd260001b616b5d565b85600560006101000a81548173ffffffffffffffffffffffffffffffffffffffff021916908373ffffffffffffffffffffffffffffffffffffffff16021790555061160d7f2b28cc9e49230db84e7d3d2bf3a0685b83cb19ba45f6f8322944370b392f4b8c60001b616b5d565b6116397f61bf2e1cd6d81b2be63e98b111cabb5d4cf588a530f539eae893916873f8bf5260001b616b5d565b8460088190555061166c7ff31dab1b477a21c0554f359e30ec1002f8b2631de1218580da6cd26f43219ef060001b616b5d565b6116987f074a3b1b6f109ba96a175cef4791663bbd081e91714c4a56cfadb4fef46cb0b460001b616b5d565b83600690805190602001906116ae929190617cdb565b506116db7f38446e6cd1bce6efbdad933773073ff18238f595db04490f1977bc6f46af4fb060001b616b5d565b6117077f5f063b3b036cf4112cc3af037ab2be5921ee8689f0386ca8bde94bdcdb4414fe60001b616b5d565b4260098190555061173a7f358e0330d664f1097dc11bb5d9d3f7c1e7f5593261b2886fa2787055e36cf9bf60001b616b5d565b6117667f9a3d3776b6310938ab515dfb3c35f03d64ef19a95567ba54a3d9cd58242c9ebb60001b616b5d565b6000601060006101000a81548160ff021916908360038111156117b2577f4e487b7100000000000000000000000000000000000000000000000000000000600052602160045260246000fd5b02179055506117e37fb86eb4e9ab17b70934d9d1709682b4b63faed7df41d5779114731f91e2c3588e60001b616b5d565b61180f7fbcbb9afc507c49750ad2fb14072806582987ff261c974991756ab76181f4bdb260001b616b5d565b82600381905550801561186f5760008060016101000a81548160ff0219169083151502179055507f7f26b83ff96e1f2b6a682f133852f6798a09c465da95921460cefb3847402498600160405161186691906183d3565b60405180910390a15b5050505050505050565b60006118a77f5816be263bee2b57bab644ad044457a93e2dc2d2f524ef8cab4833f4ddf077c460001b616b5d565b6118d37fde5e25947c390b7115c5dcd781f89814e9f89f2ad929668ff80e43ee8ebbcf4760001b616b5d565b6118ff7faf42fb93c4bad4a62355f52288b3e9fde7813db91049e6c39bf2edb3f26acf5260001b616b5d565b600460009054906101000a900473ffffffffffffffffffffffffffffffffffffffff16905090565b60606119557f5fe70c193c09ce8838798bb3ed56ca9853a5741f14cdc87bbbaa438ddb05ccad60001b616b5d565b6119817fef88d8f079dbfff2d16ace7265b18021893e26731c6f063e30cc89ddf9040a0460001b616b5d565b6119ad7faeedc9bfd10668ba248f23f2f8bfeb28fbec26e8446d4a72fc71729dae54a8ea60001b616b5d565b6119d97f7e2f5ca3204840bbd0cc9b7d94ab5859cd82c710aeb32a3d4b4d3949bb1ba84860001b616b5d565b600460009054906101000a900473ffffffffffffffffffffffffffffffffffffffff1673ffffffffffffffffffffffffffffffffffffffff163373ffffffffffffffffffffffffffffffffffffffff161480611a825750600560009054906101000a900473ffffffffffffffffffffffffffffffffffffffff1673ffffffffffffffffffffffffffffffffffffffff163373ffffffffffffffffffffffffffffffffffffffff16145b611a8b57600080fd5b611ab77fbf2a98b3cb0f0a70f260a4f7df71a20a7af790d448ab49a6e5558172ff3fe3ac60001b616b5d565b611ae37f4448f2d32223b0937b8b63c1864c59f89f533e169d19bba1b5b76d45398f5cca60001b616b5d565b611b0f7f6ecc145ad33e6b5770b6491998cd33a7689ac7dc5fc1ebd2ee1dd4345c66512760001b616b5d565b611b3b7f236911945750a05b54ef0b7e5dc583071ed994a3ee747fd055c6b1e7bc2713d860001b616b5d565b611b677f9b261eab0b070c1a20073367bbc6c883fea90b7d04d1ad94e626e0b62e90baba60001b616b5d565b60078054611b74906187ca565b80601f0160208091040260200160405190810160405280929190818152602001828054611ba0906187ca565b8015611bed5780601f10611bc257610100808354040283529160200191611bed565b820191906000526020600020905b815481529060010190602001808311611bd057829003601f168201915b5050505050905090565b611c237f5fe70c193c09ce8838798bb3ed56ca9853a5741f14cdc87bbbaa438ddb05ccad60001b616b5d565b611c4f7fef88d8f079dbfff2d16ace7265b18021893e26731c6f063e30cc89ddf9040a0460001b616b5d565b611c7b7faeedc9bfd10668ba248f23f2f8bfeb28fbec26e8446d4a72fc71729dae54a8ea60001b616b5d565b611ca77f7e2f5ca3204840bbd0cc9b7d94ab5859cd82c710aeb32a3d4b4d3949bb1ba84860001b616b5d565b600460009054906101000a900473ffffffffffffffffffffffffffffffffffffffff1673ffffffffffffffffffffffffffffffffffffffff163373ffffffffffffffffffffffffffffffffffffffff161480611d505750600560009054906101000a900473ffffffffffffffffffffffffffffffffffffffff1673ffffffffffffffffffffffffffffffffffffffff163373ffffffffffffffffffffffffffffffffffffffff16145b611d5957600080fd5b611d857fbf2a98b3cb0f0a70f260a4f7df71a20a7af790d448ab49a6e5558172ff3fe3ac60001b616b5d565b611db17f4448f2d32223b0937b8b63c1864c59f89f533e169d19bba1b5b76d45398f5cca60001b616b5d565b611ddd7f3fe7cd6c2ce047de300ec40150a67f42e94cbaf6e44d4fb7d11db09618ebcfc260001b616b5d565b611e097fec54ef6419e28d270c44050846d7969e0a643a3fb80324268ad560706e3224ff60001b616b5d565b611e357f31bebff4741126f9edee8580a61646dabb34d1a4893d0b493ab1d29beaf9943660001b616b5d565b611e617fd0784a0615847c7c13117832ce3e07661266c9b406e17cd2cc1c69f50ffde7bc60001b616b5d565b60026003811115611e9b577f4e487b7100000000000000000000000000000000000000000000000000000000600052602160045260246000fd5b601060009054906101000a900460ff166003811115611ee3577f4e487b7100000000000000000000000000000000000000000000000000000000600052602160045260246000fd5b14611eed57600080fd5b611f197f8b364a0109d60302568a7bb1c0483f501138d978aaaada364e76c7e407773d0c60001b616b5d565b611f457fbe889e5e2d1b35c6c6fec7593dbffe4be018dac8e68d198b14b9b7884e2160dc60001b616b5d565b611f717f146a143598ed66c1247260ae478619715d90db1875743cae3c1e7bd93d2d908260001b616b5d565b611f9d7f99d5d13b983552aa5005f71e068d9ae5bcded42c97db864e4b853f571232663160001b616b5d565b611fc97f18060d0779b87f95a7a8a32b139aad8161b7cbf2848577793cfa56ee5ea99f6060001b616b5d565b611ff57ff15d22506f4e05fc4399086ab505d81f5ca9b201522ea71c41aa78f503fcfce560001b616b5d565b60095442101561200457600080fd5b6120307fdfd8b3b9475e434680446a9c57a8db4f9310b610a1aa89e61be776fc269d47f260001b616b5d565b61205c7f077f40465abd18dc898deaa52bdf66abeff34ddb4f7d59205fdd8662a013cd2560001b616b5d565b6120887f80cfb6a797ac790335762551ffede4d650bdaae4da0728bb1443bc5a1bb2d61860001b616b5d565b6000600a80548060200260200160405190810160405280929190818152602001828054801561210c57602002820191906000526020600020905b8160009054906101000a900473ffffffffffffffffffffffffffffffffffffffff1673ffffffffffffffffffffffffffffffffffffffff16815260200190600101908083116120c2575b5050505050905061213f7fccd2ba22487a7afa176b2ae9104872df920054fd7cd2bb37a20930b13d26197560001b616b5d565b61216b7f7eebe4b64719c3074a2737719276380cc4fd8c5600d0d9820d5279391b66731660001b616b5d565b6000600b8054806020026020016040519081016040528092919081815260200182805480156121ef57602002820191906000526020600020905b8160009054906101000a900473ffffffffffffffffffffffffffffffffffffffff1673ffffffffffffffffffffffffffffffffffffffff16815260200190600101908083116121a5575b505050505090506122227f3242ab5c15eabaa962830d352fb3a58bd7b13ffa8fa63a869daa73c1d077d4cc60001b616b5d565b61224e7f6b014277207329b0d622fbaa7d0220022e5efb5e6570b88222b72e4af47a9ab760001b616b5d565b6000600c8054806020026020016040519081016040528092919081815260200182805480156122d257602002820191906000526020600020905b8160009054906101000a900473ffffffffffffffffffffffffffffffffffffffff1673ffffffffffffffffffffffffffffffffffffffff1681526020019060010190808311612288575b505050505090506123057f2365fb9afb747f264af98ee05876c5659591d8e2ca80f4cdacb64a65c4996ca460001b616b5d565b6123317f4bd9d386f6072fe6bd06844e048401e3526d2895993f38fe10bbf33033d95cdf60001b616b5d565b6000600d8054806020026020016040519081016040528092919081815260200182805480156123b557602002820191906000526020600020905b8160009054906101000a900473ffffffffffffffffffffffffffffffffffffffff1673ffffffffffffffffffffffffffffffffffffffff168152602001906001019080831161236b575b505050505090506123e87fd5ef3ac462fbb3a917847aaba45d9db4d64b317cc7f7fe4c9328dc34b4101dca60001b616b5d565b6124147fe0812ce8dbe388c1b095174cd73a8413b0a0e3edb9303dad0dd2646e0b02547660001b616b5d565b6000600e80548060200260200160405190810160405280929190818152602001828054801561249857602002820191906000526020600020905b8160009054906101000a900473ffffffffffffffffffffffffffffffffffffffff1673ffffffffffffffffffffffffffffffffffffffff168152602001906001019080831161244e575b505050505090506124cb7fe7d41d98014f3d5c514308a4f74bd41d35c8c0fe0a8eb3f4457363c36be3dada60001b616b5d565b6124f77f4996e4457f58b1dd61b135820f3ad8092874a906d8c6cf159189789e9e95caf860001b616b5d565b6000855190506125297f6f71130dce38feb29e9dab8a8fe6e291bf0689068eeec896b14ca0d9d0fd1e0460001b616b5d565b6125557fb47f435b9d5221191b70cdd3fdce3be9f83ea26ffa8b765282fe81417281cdad60001b616b5d565b6000855190506125877f4d767853d3b6b011f198dd9de15c8bc0dcd00a76d12d059376534e62259ca9c860001b616b5d565b6125b37f7c7f0b591d4a751d5cfac7ac5ada50b160aa1d7fa1e9ce8646657e41d9c20a3160001b616b5d565b6000855190506125e57f6668c88059b6c6284a796ebfce69c8726adfdf80e78c20ca2297aae3b68349ff60001b616b5d565b6126117f310ba581002f9f7ea9fbad64dfe3c982b7b113cf8f54edf18c0c4ecda6846da260001b616b5d565b6000855190506126437f4b2b28f611c98248d8550c46e622603ad0dd0b8845249a81038afebc1da0da7b60001b616b5d565b61266f7f1b52b6dbc0875e474adac88f5ad8df4f7e62dfe92fbb7b41bd581745375aa6a360001b616b5d565b6000855190506126a17fd32a1f6dc62c6deaf6a5fea84960f3bf1ac61f6a9a43de008dfb33c01b41ed2560001b616b5d565b6126cd7fde0d323f98b16a31e54f959cf95f974b03b089872f754604b5bcb6af939e8ed160001b616b5d565b60008590506126fe7f1db5da4eeee466f51b41575cdbcb71cf948561bc772dd6c198f7713591d20ff060001b616b5d565b61272a7f4a2ccded6cfe80a2d0f1b13760865cda46482c7212a68c5dbe07c3475e0fdc8560001b616b5d565b60008b905061275b7f9f886b30b376083a25c720d49229ff467f57c1758ca59a180d66d6a1f5736a4f60001b616b5d565b6127877f5aaf64466e753d32cadefa07da8a01ffa23d2b2b1f1fb6b7872928bd567dd42260001b616b5d565b60006127b57fa51f3358ead3fa2d8d051c793ee1a4c9c96d0c5139cda4106a3b8cb78d4f004a60001b616b5d565b6127e17fdefca191c6df80867ae1f757900f4015597cda79ededba62b02144b3f8a3e29560001b616b5d565b6000606490506128137f13a69e39a2a88abb4bbf8570e7b8517aa938315584915f1000d651bd1b18043a60001b616b5d565b61283f7fbcefcdcab49ea4967a4318ecb506f7fbe477f2a65dbef17c687259ee6991634a60001b616b5d565b8388106129e5576128727f7e2674d83877eecdf4112e18d0d07f12538230b0a02b1e8d2a3f979e0642c4f360001b616b5d565b61289e7fd201d472e09f417ab772c13883d2cc1ad51408e32bf6807df6098aee7d44a9dc60001b616b5d565b6128ca7f6427a427404a1ad752cd3fccfa79abc1b31fa06141b0ee4fdad10a9e9004a61660001b616b5d565b8793506128f97f2d8fb7c58fece6b8a8f94b6e0d1722a3ae221f2d6a7f845777df57b427a2d14e60001b616b5d565b6129257f7260aadb061468b3685aba3da1853d7b28403c0fa9178ea8252df566e8c4f1ca60001b616b5d565b8c92506129547fee2c6a309fdfabaab978f1267818b7a06a03bd6b8a725d12084665ba8ab0211960001b616b5d565b6129807f150790925efd4e29f617f0d6ee4779ec356681a8248602a2f206d84080b649a960001b616b5d565b601991506129b07fec1b31fc9845f8346a4e3d2377d0f3f72827638d325595eaca45faf1f3cea03c60001b616b5d565b6129dc7ffc3a9c08ad996d3456c21cf5bc7a8dc88bf89a1f2123714bbedb2b090f3b69fd60001b616b5d565b604b9050612a12565b612a117f4faced125d3e0dd3d67be8415d7dc560985ef9b53bff1dc59d1441631abc6a6960001b616b5d565b5b612a3e7f48c8d7390947dfe5aad7d53b4bf14304babcb8275cd70b0f31bcb786adcd278160001b616b5d565b612a6a7f45f9f0bb8f634cf22da04264fcec5e94c399ba3f5ece687e1c14902a6376f04460001b616b5d565b838710612c1057612a9d7f3086d3a139cb2e0b1fb41ddefff46c15069ea921cb1b4b5f3e88ecee87f1aca160001b616b5d565b612ac97f692b9afb55fd51b6365122753b65652777a66fddd9ff21d20019f4e4ec684ce260001b616b5d565b612af57f0bc9e587ee58134dd9c975606a52ab9541c4341ea7520d5064ecf187ec1e7e3e60001b616b5d565b869350612b247f52d4294e6de842f0f81fd7f294a364d339a091fb3bf17e8e98d7bfe04180177460001b616b5d565b612b507f9f474d8956cae03c76bd6c57671840050df72aac8a7a193242d27ba9d809bc3060001b616b5d565b60329150612b807f0905c89b23b777754c9b9649e8ad35f0b3c958f3f263c637a96da9d9c29f1fca60001b616b5d565b612bac7ff9d853890039977b4038b66c3e6ffc11049090317888b5b758c5ed3c6bf23b6160001b616b5d565b60329050612bdc7f26c3faaec04be4212357f505fc3fa2de7091d9039f2558e33adc9711010743d160001b616b5d565b612c087fadb65d4e2d1412cca22126e5f7341fac6f1f69418b8c0d15b71c26915489ee4b60001b616b5d565b8b9250612c3d565b612c3c7ffe22f42061d0ba7e4ddecf50066743fbce7eda4f0d0cbea3f70c637bb62f157360001b616b5d565b5b612c697ffceee4fe7163cdc88c1c576db1aca11c62895c4ac63b6cb1df25dd874a934b8f60001b616b5d565b612c957f5d4ed73e1e0c7c3744f115165ffeb3d89ab755debf9ef325b587683d40f89f5460001b616b5d565b83861115612e3c57612cc97f398003960aca9d8ea349dfbf05a9f2c693cc382e5b5959b0cd0ac76dccfd798860001b616b5d565b612cf57f1e50f39b10144f3e5200d6552c2d1127384963e6dc432bdf81a8e3999166280960001b616b5d565b612d217f0e52b759dc47cac61cefbb9a347cbde6e830b52e38c5f0d44683bb0b7386d86960001b616b5d565b859350612d507f445bc1172c3f9ec4bf80a9b2fd80ec2f8a8bcb5dbcdd5f698dac4487ffe07dd060001b616b5d565b612d7c7f734faba454a68670fea28eead223d660e4392216ed36430b46b32a07b61f807b60001b616b5d565b604b9150612dac7f1fa7b537d37c30d9e81e776c02a3cc9d1a7213e68187887e4572580f031a1dcb60001b616b5d565b612dd87f41c0072993a724e8b4275fcab7e6ca0d38f1db73f540b479fcc745c26258fc2160001b616b5d565b60199050612e087fd549441f90e5cfc38fc8a75f523de9f650cc57f591547e0fd4b0f33a7bac596c60001b616b5d565b612e347f53a091e277540749de46910377208fb54d161de86c58d1e5981a6e1fb671bd5860001b616b5d565b8a9250612e69565b612e687f666d5ea8a9184dc53f71392403c090b3e677e70ebc12e311b84ec38ef10a66ba60001b616b5d565b5b612e957f8652e109518180accce64bb4032fb854776498f7e7e3d8a0856640ab57850f8360001b616b5d565b612ec17fc93ca4c9ce06dd091d5dca3963ac2644ec398d45b8f2278d4dbd0ede9f95b4c860001b616b5d565b8385111561306857612ef57f35b1532b5b0d3ae57dc939105a75acc28eb59636129e19350d7632d2a35983c060001b616b5d565b612f217f312b7c5ecdd43912d2044f816037a878e3bff5ba511355a69fea511bfe7dd29160001b616b5d565b612f4d7fb40edb5fbbefe944a215acba1336eb0342613e1597631a6c547e717073018a4960001b616b5d565b849350612f7c7f734eeaea4240df98d24e7b0bf4ea5440f21b90d3e406f516a21728b9b56c639360001b616b5d565b612fa87f9af571323429e67ac51d3381ded475a58f34e1acaea9537cadaf16ffa5f8225660001b616b5d565b60649150612fd87f104f6fd6079bed04c41402476c2feb51e3fa4abe9036e8521a9b238c53d5ae6f60001b616b5d565b6130047fcefda7367a75e4b5e6f882afc7eea8c9f330e9ed62aac1eb2899a87998dc67e260001b616b5d565b600090506130347fa0dffeb5440b6cec249c69d9a0aaaf4b0156e5ab60a2629a512d33fdd6cb21e560001b616b5d565b6130607fc3ea16be3d9bed86671dedcbee6ef44f7000e6a84f830601186a1942765bb80c60001b616b5d565b899250613095565b6130947f888a5a6ea5c40509ed6e83a1114ae16ea77c018dbb7bb7eddf1481d434f7a91560001b616b5d565b5b6130c17f2da23ee2dd9555c44dc4f66598604330d2014b2f647363590e70810158456deb60001b616b5d565b6130ed7fba8a1be38ffb4fe53311b80b0b31162f0d4a12da6395d22e13fc5f763d4f822560001b616b5d565b6003601060006101000a81548160ff02191690836003811115613139577f4e487b7100000000000000000000000000000000000000000000000000000000600052602160045260246000fd5b021790555061316a7fc8aec6cc1ce2da2ae533ba3309bd1e87c1826213a6d8eea4dfe394c1aa75897e60001b616b5d565b6131967fb277d56407637b521df9da8546d551b857495a3cf358aaf2516c41596a0a456c60001b616b5d565b600160009054906101000a900473ffffffffffffffffffffffffffffffffffffffff1673ffffffffffffffffffffffffffffffffffffffff1663d4c01b7b3060036040518363ffffffff1660e01b81526004016131f4929190618315565b600060405180830381600087803b15801561320e57600080fd5b505af1158015613222573d6000803e3d6000fd5b505050506132527f9e519a02abf7abfba64e64390c3220eb41f43456a3cd59be34a6826f7829aaf260001b616b5d565b61327e7f76d11739d99d707daca8e28baad7a274e79141ed9be298ef5faee9dfa27e220460001b616b5d565b61328a82828686616b83565b5050505050505050505050505050565b60006132c87fe81cc56daf3cd1a46657bfa9e1a854d29bc5aff4ae2c736273e34ab5de8b25b960001b616b5d565b6132f47fbe076dbd83aec486d7c280187255c2758307fa13161863830d05fd6585c7667460001b616b5d565b6133207fbb6cbf2e6510f575cf7c61b2546382f55e08d9446a084d3c1d3e0de7e8ca538360001b616b5d565b600854905090565b6133547f3fe7cd6c2ce047de300ec40150a67f42e94cbaf6e44d4fb7d11db09618ebcfc260001b616b5d565b6133807fec54ef6419e28d270c44050846d7969e0a643a3fb80324268ad560706e3224ff60001b616b5d565b6133ac7f31bebff4741126f9edee8580a61646dabb34d1a4893d0b493ab1d29beaf9943660001b616b5d565b6133d87fd0784a0615847c7c13117832ce3e07661266c9b406e17cd2cc1c69f50ffde7bc60001b616b5d565b60026003811115613412577f4e487b7100000000000000000000000000000000000000000000000000000000600052602160045260246000fd5b601060009054906101000a900460ff16600381111561345a577f4e487b7100000000000000000000000000000000000000000000000000000000600052602160045260246000fd5b1461346457600080fd5b6134907f8b364a0109d60302568a7bb1c0483f501138d978aaaada364e76c7e407773d0c60001b616b5d565b6134bc7fbe889e5e2d1b35c6c6fec7593dbffe4be018dac8e68d198b14b9b7884e2160dc60001b616b5d565b6134e87f86b8c2b81498ae34e8c7f157e697677c2939e560159ddd780168f8f3b2b3b51d60001b616b5d565b6135147ff6ae61c3d1e0560d45cf4db730505e52a19b9b826499cab4b0fe35cdd986f85e60001b616b5d565b6135407f223429da1a85e23b7dccfe0e640baa587ea0b8daed1a2fae6380aa6f8ba064ae60001b616b5d565b61356c7fb9cc25fffe273bfb0cc38879ebfb9e55566ea26a74224aacac0e36e5a132987460001b616b5d565b600260009054906101000a900473ffffffffffffffffffffffffffffffffffffffff1673ffffffffffffffffffffffffffffffffffffffff1663ed896d66336040518263ffffffff1660e01b81526004016135c791906181cc565b60206040518083038186803b1580156135df57600080fd5b505afa1580156135f3573d6000803e3d6000fd5b505050506040513d601f19601f820116820180604052508101906136179190617eb7565b80156136cb5750600260009054906101000a900473ffffffffffffffffffffffffffffffffffffffff1673ffffffffffffffffffffffffffffffffffffffff16632f7398fb336040518263ffffffff1660e01b815260040161367991906181cc565b60206040518083038186803b15801561369157600080fd5b505afa1580156136a5573d6000803e3d6000fd5b505050506040513d601f19601f820116820180604052508101906136c99190617eb7565b155b80156136db575060048160ff1611155b80156137315750600f60003373ffffffffffffffffffffffffffffffffffffffff1673ffffffffffffffffffffffffffffffffffffffff16815260200190815260200160002060009054906101000a900460ff16155b801561378b5750600460009054906101000a900473ffffffffffffffffffffffffffffffffffffffff1673ffffffffffffffffffffffffffffffffffffffff163373ffffffffffffffffffffffffffffffffffffffff1614155b80156137e55750600560009054906101000a900473ffffffffffffffffffffffffffffffffffffffff1673ffffffffffffffffffffffffffffffffffffffff163373ffffffffffffffffffffffffffffffffffffffff1614155b6137ee57600080fd5b61381a7f162ebeaee10e4e97ce1dc4634759757a546cda14bfc10e54a8c6323344f3b65460001b616b5d565b6138467f9f676e41fc98acd78738e979dbdffeb425f7ed7a70f77ac99b73e8be8527a5bd60001b616b5d565b6138727ff153ff64b86b62891bdec7fd621284330896f765966d277509d51fc7f3954be960001b616b5d565b6001600f60003373ffffffffffffffffffffffffffffffffffffffff1673ffffffffffffffffffffffffffffffffffffffff16815260200190815260200160002060006101000a81548160ff0219169083151502179055506138f67f55f13cde0393342efd1b02909ee8659146b954a182c890cea25fd98dbedc557660001b616b5d565b6139227f4cf2bb223f1afe4ae11c8e75f52d9f1592c47f44923c95aeb1a8aefe455d239b60001b616b5d565b60008160ff161415613a1a5761395a7f7b393eae4d41e52c2e5904fa6614c2f608b5ce8e377ea8e6ad6d5ed65081b0b560001b616b5d565b6139867f47286b1d513e941d0833c93e4838c791973d0fd4e940affa31ca736e8bf5fd4b60001b616b5d565b6139b27f02298c2985c6ee6a29db8c1e3c738f148ea07330760ad8e286f11120644080d560001b616b5d565b600a339080600181540180825580915050600190039060005260206000200160009091909190916101000a81548173ffffffffffffffffffffffffffffffffffffffff021916908373ffffffffffffffffffffffffffffffffffffffff160217905550613ef5565b613a467fac7687a8315e5cfe8031c805981767e05c445c70b07965bcee99c3006c4a9a2260001b616b5d565b613a727f5729ded6968334107c001ff4a3bd51eea43212420637cb44d9ebce74b184491d60001b616b5d565b60018160ff161415613b6a57613aaa7f75686491eeb3582f16c958b85a048f777aa25cdffbc66568b31d42e1eb08c40b60001b616b5d565b613ad67f61cf44a22bbcf3eee307f328e60f4e56e5cc96da671e1e91cbfabfa89543382660001b616b5d565b613b027fdb7efb0ecfd036c945171c6b8c4585393c2499be491132fdd69ce0a750cdabf060001b616b5d565b600b339080600181540180825580915050600190039060005260206000200160009091909190916101000a81548173ffffffffffffffffffffffffffffffffffffffff021916908373ffffffffffffffffffffffffffffffffffffffff160217905550613ef4565b613b967f5eea501727a441f5a3e31d0d209b09eb82f4da3293e406e1831ecd8881fa8db060001b616b5d565b613bc27f851efae54f49c414ba3111813ce7f49a641d35ca8f039d0467ffe6df8195548860001b616b5d565b60028160ff161415613cba57613bfa7f0b16c92ee595737eefcfaa84fb726a0a8fd92230f542c9d9d06a7999903c5f0660001b616b5d565b613c267fa39d7efb101132cab273ca2f39f629b382469b9bda50af4fdf6f021f4e00f73260001b616b5d565b613c527f5dead4d6410f684ed1880629d5d02c58301ccd0f9122db3275593c04356ef7e860001b616b5d565b600c339080600181540180825580915050600190039060005260206000200160009091909190916101000a81548173ffffffffffffffffffffffffffffffffffffffff021916908373ffffffffffffffffffffffffffffffffffffffff160217905550613ef3565b613ce67f1c9fcf4e18983a04424c4abf58fd71ae6f9f6f34a68ead0e4165344031d2a0fc60001b616b5d565b613d127f6f2a00924fe2e9f5a0bf038b9b6f49553884aaadb52fe81b809e748b87c76edf60001b616b5d565b60038160ff161415613e0a57613d4a7f726a0df18caf29eaadbbc022802e75981175e820dbf019a5e1253f7c46c1b01660001b616b5d565b613d767f1fa6a9834fb03d73c86bb1d0a55d5d7e92fa4430cb7c5b2dbf5e41cc7fa7304560001b616b5d565b613da27fb8ce4793e328b5daa735150cd0c092db72d7af2bb08100b069eec3167c32140560001b616b5d565b600d339080600181540180825580915050600190039060005260206000200160009091909190916101000a81548173ffffffffffffffffffffffffffffffffffffffff021916908373ffffffffffffffffffffffffffffffffffffffff160217905550613ef2565b613e367fda689044c1e2481ec71427828e54ca28c7f827c3070b2e9550c9fc0ceca2de3560001b616b5d565b613e627f383d485923c7c75d47ac21b9a1eafe5cf37cb015943d03369d72c457adb44c3560001b616b5d565b613e8e7fe272ce3a2c4bc104c3182a915d4069e3014e492d7ae77514d50e592629c2a4e360001b616b5d565b600e339080600181540180825580915050600190039060005260206000200160009091909190916101000a81548173ffffffffffffffffffffffffffffffffffffffff021916908373ffffffffffffffffffffffffffffffffffffffff1602179055505b5b5b5b613f217fefe5a936874bb36a5f0615873c34260c583151a3cb16506ca9f3fce2d557972b60001b616b5d565b613f4d7f08cfad71081c5c05b04565d3b352bc80b1eb26c25fbf4e23a692814d50b8fc0060001b616b5d565b600160009054906101000a900473ffffffffffffffffffffffffffffffffffffffff1673ffffffffffffffffffffffffffffffffffffffff1663c10e59913033846040518463ffffffff1660e01b8152600401613fac9392919061828c565b600060405180830381600087803b158015613fc657600080fd5b505af1158015613fda573d6000803e3d6000fd5b5050505050565b61400d7fae7b7c6467145e7e8711056a18872bf778e360dc58957678a9a2471fc7808b6760001b616b5d565b6140397f5115e25a348c33764fbda52817ba16ffc99ecc8da1821a9a7f94be4a6b94156f60001b616b5d565b6140657f6d17b0a1ca4ea48e8a020bd4e536ee402d93cfe1a29571317227e71b536467bb60001b616b5d565b6140917f27ecdfd6dcab52b6bf25772f7a78311e34f29465fc5eae4c8ab26d647936c21760001b616b5d565b600060038111156140cb577f4e487b7100000000000000000000000000000000000000000000000000000000600052602160045260246000fd5b601060009054906101000a900460ff166003811115614113577f4e487b7100000000000000000000000000000000000000000000000000000000600052602160045260246000fd5b1461411d57600080fd5b6141497fd9dfa7fda2ac31a34dd60d776e958e447e67702cea6495892f47289b4445972860001b616b5d565b6141757fa856be79ecccbb7565c022d6fb5e44140a995a88a5dc2a33955b67064d47149060001b616b5d565b6141a17f6e3468593e21a579992323bb2ca1041b7925bdf3052f47d30ed91c49be18f84960001b616b5d565b6141cd7f6fe9058630f3bad48d6e916004cd3eabc29f42df6c31aac8068dc6e1fc5b9c8e60001b616b5d565b6141f97f5d5aa36070a96051f01090d87320f606de1ce1b942dc93c5f3ff13799cbe487a60001b616b5d565b6142257f22b6c445604e93ee352aa9bfc96d8e6e671279fdefe9dfbd2ef5480fb12e0dab60001b616b5d565b600460009054906101000a900473ffffffffffffffffffffffffffffffffffffffff1673ffffffffffffffffffffffffffffffffffffffff163373ffffffffffffffffffffffffffffffffffffffff161461427f57600080fd5b6142ab7f352fedbef374784f9ffdb6d915601aceb7205aa2865e379ddc2af39bb419d47560001b616b5d565b6142d77f74d03bb565266c00de18cfade1e277e12218ed2f4443b4c42c0eab876029014b60001b616b5d565b6143037f1a1c0d7b0e9c229b790859529aea3aff7ee401037467c315e16a795af1df97c560001b616b5d565b61432f7fe13a81fa16cf1b66f31655d3efeeb6625856239dd679b55d62617c153a86347460001b616b5d565b61435b7fa6e31cd5d1676a28b4545e5c336f0fa514e8f65cae368096a53a06b2916e372060001b616b5d565b6143877f0fa21e8e45fee878ae581bc4f8d95e22dc59b2c605d6875a7ae7c1b9b87e883060001b616b5d565b600160009054906101000a900473ffffffffffffffffffffffffffffffffffffffff1673ffffffffffffffffffffffffffffffffffffffff1663cc7d21936040518163ffffffff1660e01b815260040160206040518083038186803b1580156143ef57600080fd5b505afa158015614403573d6000803e3d6000fd5b505050506040513d601f19601f820116820180604052508101906144279190617fd7565b6009546144349190618533565b42101561444057600080fd5b61446c7f363957626aa4b82c9b36c3b3ea269ce56ded26224781ddbb461a8f02829fc80160001b616b5d565b6144987f26bdd1ada2c5df8f69494535aa06fbc70ed995a45225bcedefca470ceb887d9660001b616b5d565b6144c47f390d54843616473e1d1e89a9a87c655eaa69ea6f0b46c87d60046ba121227dfc60001b616b5d565b60008060029054906101000a900473ffffffffffffffffffffffffffffffffffffffff1673ffffffffffffffffffffffffffffffffffffffff166370a08231306040518263ffffffff1660e01b815260040161452091906181cc565b60206040518083038186803b15801561453857600080fd5b505afa15801561454c573d6000803e3d6000fd5b505050506040513d601f19601f820116820180604052508101906145709190617fd7565b905061459e7f137b4b4e8a033e6021dfbff97215a0ca6c73ca0634fb9680b46dfe3d3cd7e22560001b616b5d565b6145ca7fafdc00b257d7277d7c49713e4b04c8203a84d79043cbcb985b7dbb2384df1dc060001b616b5d565b6145d43382617903565b6146007fd7a4ac7fc61bd820f4db531cec53ab54c23a30c894780830350075295583a05c60001b616b5d565b61462c7f86fbeaed13027469d7db66b278d974554eb1efe2a379bfddfd3c69b03a51ab9c60001b616b5d565b6003601060006101000a81548160ff02191690836003811115614678577f4e487b7100000000000000000000000000000000000000000000000000000000600052602160045260246000fd5b02179055506146a97f890c9bd5f4a71a8ed2fb033c2211041a88ac0b1ff377795320cdacd18097589060001b616b5d565b6146d57f3bd74ca56eb78be40faafb24142d705673026c316e525da9972cf54f7cac23bc60001b616b5d565b600160009054906101000a900473ffffffffffffffffffffffffffffffffffffffff1673ffffffffffffffffffffffffffffffffffffffff1663d4c01b7b3060036040518363ffffffff1660e01b8152600401614733929190618315565b600060405180830381600087803b15801561474d57600080fd5b505af1158015614761573d6000803e3d6000fd5b5050505050565b60006147967ff87786405c691c78a34e5509fd32e35998039b57b800f1936a38ee6e24a2e78e60001b616b5d565b6147c27fcc6753a3edd9fc3b4df78afa2bf2018f0feb2623c50437630375e96d6278c51260001b616b5d565b6147ee7f3fcf988a34b6e4e6d3632f32e178738794581189ac73b12663c47118d3ae7bf960001b616b5d565b600954905090565b60006148247f5e92b8ec6d74835cbc775b088853b2ccb33d2b8f4ccc3bfec08f0be76406d97d60001b616b5d565b6148507fd89538f185637f4d5ce18f8caeb2e7f79b98ab6d4f6d802cfc1eafd536a3e99a60001b616b5d565b61487c7f27a32ef9aeb6365d8ee2e791b52d8cc4961ab850edfdbac02f3661c06e22656760001b616b5d565b601060009054906101000a900460ff16905090565b60006148bf7f9cb387bfb78e09e6c5c0447ad75cf1ff396b3ef0f56cab16a57904779ef99d6d60001b616b5d565b6148eb7fd6e38eef907d88360b47a2f9d9c2c933d0b5e498bca2ca387f0374fbeb04b62060001b616b5d565b6149177fc061621deea0745855609794019e78898f56f181ec0b47d0e73a279cad3c7ec860001b616b5d565b600354905090565b61494b7f44a8fa9a5c92439551a11a95ce3a028aae7e70a59122b5cf47244224b3126ace60001b616b5d565b6149777f8512f1da8245c1dbdd8a3d0f59cec3065f94bb342fa6c0b0145e990de2058fc960001b616b5d565b6149a37fdb73e5376e56ba5665a26dd00f6bd0c45400cfe1d7c808718a66bf1763450b7560001b616b5d565b6149cf7fe67c3076dbaa5ce3b606cd099481b0f7b22fbf2ba0caeb707ebd02de283afd2160001b616b5d565b60016003811115614a09577f4e487b7100000000000000000000000000000000000000000000000000000000600052602160045260246000fd5b601060009054906101000a900460ff166003811115614a51577f4e487b7100000000000000000000000000000000000000000000000000000000600052602160045260246000fd5b14614a5b57600080fd5b614a877fd573ccd7e0f4a5c7fd78433e9dff75936eb30f20427bf6a6d5d7bf079fcd67c760001b616b5d565b614ab37fcc9654373cd323abda1c9e5462c2d05b75a8df626c2cd9951eaad664ca0d009960001b616b5d565b614adf7f5fe70c193c09ce8838798bb3ed56ca9853a5741f14cdc87bbbaa438ddb05ccad60001b616b5d565b614b0b7fef88d8f079dbfff2d16ace7265b18021893e26731c6f063e30cc89ddf9040a0460001b616b5d565b614b377faeedc9bfd10668ba248f23f2f8bfeb28fbec26e8446d4a72fc71729dae54a8ea60001b616b5d565b614b637f7e2f5ca3204840bbd0cc9b7d94ab5859cd82c710aeb32a3d4b4d3949bb1ba84860001b616b5d565b600460009054906101000a900473ffffffffffffffffffffffffffffffffffffffff1673ffffffffffffffffffffffffffffffffffffffff163373ffffffffffffffffffffffffffffffffffffffff161480614c0c5750600560009054906101000a900473ffffffffffffffffffffffffffffffffffffffff1673ffffffffffffffffffffffffffffffffffffffff163373ffffffffffffffffffffffffffffffffffffffff16145b614c1557600080fd5b614c417fbf2a98b3cb0f0a70f260a4f7df71a20a7af790d448ab49a6e5558172ff3fe3ac60001b616b5d565b614c6d7f4448f2d32223b0937b8b63c1864c59f89f533e169d19bba1b5b76d45398f5cca60001b616b5d565b614c997fbb214461163407d2c74184808a90708bd86fb51199c410042352e7eb348a83b260001b616b5d565b614cc57fd3191d2d3ee3532ff043c179a14c0b3c0f0183d3ce1accfc78dc70b7d8150f7560001b616b5d565b614cf17f49dee58db41a3e44b7cafe9d39759be2feeb21a9424a2fcb49123c7aacf4f2f960001b616b5d565b8060079080519060200190614d07929190617cdb565b50614d347f199fb448cfdf4a39c903f36967fefe06caa01cbc0657c496594934a1a9bfcdd560001b616b5d565b614d607fd22c751750d025a6abdf028f22ac3f48f75050dbc1d4228bb9355c323e6dc97d60001b616b5d565b6002601060006101000a81548160ff02191690836003811115614dac577f4e487b7100000000000000000000000000000000000000000000000000000000600052602160045260246000fd5b0217905550614ddd7f645318c4980c95e58973a6269c90c11636019e1cec900a11985cb8f896d3310260001b616b5d565b614e097fe651c74c62e9c5bd3db645ed8fedeebc44b8ebcd9c5c97f65024f855897eafe660001b616b5d565b600160009054906101000a900473ffffffffffffffffffffffffffffffffffffffff1673ffffffffffffffffffffffffffffffffffffffff166306ac6a666040518163ffffffff1660e01b815260040160206040518083038186803b158015614e7157600080fd5b505afa158015614e85573d6000803e3d6000fd5b505050506040513d601f19601f82011682018060405250810190614ea99190617fd7565b42614eb49190618533565b600981905550614ee67f29d41053bf11323d7a50acebe945a5d02c0735c5833182bab5042225cef0d29e60001b616b5d565b614f127ffbbb85d977428fcaa40bb0e82f2247da5971ef167e9b3c009064514caee741ea60001b616b5d565b600160009054906101000a900473ffffffffffffffffffffffffffffffffffffffff1673ffffffffffffffffffffffffffffffffffffffff1663d4c01b7b3060026040518363ffffffff1660e01b8152600401614f709291906182ec565b600060405180830381600087803b158015614f8a57600080fd5b505af1158015614f9e573d6000803e3d6000fd5b50505050614fce7f063468c234ca9227fa86c00573da30df78183ab9d7d5f3d2e8e2d3d784a8953a60001b616b5d565b614ffa7fd7542dbb443f3d1927881199767d12629de65140d80b767904484bf9f9bf2bda60001b616b5d565b600260009054906101000a900473ffffffffffffffffffffffffffffffffffffffff1673ffffffffffffffffffffffffffffffffffffffff16634da3231f600460009054906101000a900473ffffffffffffffffffffffffffffffffffffffff16600560009054906101000a900473ffffffffffffffffffffffffffffffffffffffff166040518363ffffffff1660e01b815260040161509b9291906181e7565b600060405180830381600087803b1580156150b557600080fd5b505af11580156150c9573d6000803e3d6000fd5b505050506150f97f47954f3b2e2c40ab598a27fc9695bb2fa7988c756632c93613320412ab91f8e260001b616b5d565b6151247ea4fc4e578a03310f19238324f0bbcca349127b82d852cfe222a3f1b7b84c7e60001b616b5d565b600260009054906101000a900473ffffffffffffffffffffffffffffffffffffffff1673ffffffffffffffffffffffffffffffffffffffff1663f9688ca1600460009054906101000a900473ffffffffffffffffffffffffffffffffffffffff16600560009054906101000a900473ffffffffffffffffffffffffffffffffffffffff166040518363ffffffff1660e01b81526004016151c59291906181e7565b600060405180830381600087803b1580156151df57600080fd5b505af11580156151f3573d6000803e3d6000fd5b5050505050565b60006152287f5ac4dc7965878426298c4bf17eac75aefe978791b017af590dcedad44348f5c360001b616b5d565b6152547f4d135bad887b9b61c8f5bb21abddfbf55d980a7b9a5b576347159bac670f455960001b616b5d565b6152807ff1a9b1bc083d6d2f3f8d1a241d3d94ac8f9ffb7a4887540d4738f46c85c4f60c60001b616b5d565b600160009054906101000a900473ffffffffffffffffffffffffffffffffffffffff16905090565b60606152d67fe028475ee026adb6be6f5cc4e18c1896931599324749b5a8770b47740d1eda9d60001b616b5d565b6153027f7f713df106eeee53fa8a7ec9607bb556157d111550ab5fe5580906587587c87360001b616b5d565b61532e7f7a8bd9e5ec560905367ac3f36738d599f5b167788efa47a09824bc391d74383960001b616b5d565b61535a7fedb74ecc4d634ac14a311cd970668103a82439be9d93d6dddae971f57b42a4c360001b616b5d565b60011515600260009054906101000a900473ffffffffffffffffffffffffffffffffffffffff1673ffffffffffffffffffffffffffffffffffffffff1663ed896d66336040518263ffffffff1660e01b81526004016153b991906181cc565b60206040518083038186803b1580156153d157600080fd5b505afa1580156153e5573d6000803e3d6000fd5b505050506040513d601f19601f820116820180604052508101906154099190617eb7565b151514806154645750600460009054906101000a900473ffffffffffffffffffffffffffffffffffffffff1673ffffffffffffffffffffffffffffffffffffffff163373ffffffffffffffffffffffffffffffffffffffff16145b806154bc5750600560009054906101000a900473ffffffffffffffffffffffffffffffffffffffff1673ffffffffffffffffffffffffffffffffffffffff163373ffffffffffffffffffffffffffffffffffffffff16145b6154c557600080fd5b6154f17fa7e18606c4baf9dcf55cfcb725579cfcfd53b78f17b7103d18157ab86790a70760001b616b5d565b61551d7f821310c29133fd4a634c062fb50918e33316974c45c6a6d5248258ab30ac011f60001b616b5d565b6155497f3fe7cd6c2ce047de300ec40150a67f42e94cbaf6e44d4fb7d11db09618ebcfc260001b616b5d565b6155757fec54ef6419e28d270c44050846d7969e0a643a3fb80324268ad560706e3224ff60001b616b5d565b6155a17f31bebff4741126f9edee8580a61646dabb34d1a4893d0b493ab1d29beaf9943660001b616b5d565b6155cd7fd0784a0615847c7c13117832ce3e07661266c9b406e17cd2cc1c69f50ffde7bc60001b616b5d565b60026003811115615607577f4e487b7100000000000000000000000000000000000000000000000000000000600052602160045260246000fd5b601060009054906101000a900460ff16600381111561564f577f4e487b7100000000000000000000000000000000000000000000000000000000600052602160045260246000fd5b1461565957600080fd5b6156857f8b364a0109d60302568a7bb1c0483f501138d978aaaada364e76c7e407773d0c60001b616b5d565b6156b17fbe889e5e2d1b35c6c6fec7593dbffe4be018dac8e68d198b14b9b7884e2160dc60001b616b5d565b6156dd7fd866b69098a742ff9cf5f892d7fa333d1ea44de66ec4113be23e6fd6bfd3f95460001b616b5d565b6157097f2482b7525521eced5109c84c8037e85d42c70e75530bed429be2d81ef01f578260001b616b5d565b6157357f69ddc184023f78eccc7fdf83f5066ae92b20753b127961dba4f194a2bbd504b760001b616b5d565b60078054615742906187ca565b80601f016020809104026020016040519081016040528092919081815260200182805461576e906187ca565b80156157bb5780601f10615790576101008083540402835291602001916157bb565b820191906000526020600020905b81548152906001019060200180831161579e57829003601f168201915b5050505050905090565b6157f17f44a8fa9a5c92439551a11a95ce3a028aae7e70a59122b5cf47244224b3126ace60001b616b5d565b61581d7f8512f1da8245c1dbdd8a3d0f59cec3065f94bb342fa6c0b0145e990de2058fc960001b616b5d565b6158497fdb73e5376e56ba5665a26dd00f6bd0c45400cfe1d7c808718a66bf1763450b7560001b616b5d565b6158757fe67c3076dbaa5ce3b606cd099481b0f7b22fbf2ba0caeb707ebd02de283afd2160001b616b5d565b600160038111156158af577f4e487b7100000000000000000000000000000000000000000000000000000000600052602160045260246000fd5b601060009054906101000a900460ff1660038111156158f7577f4e487b7100000000000000000000000000000000000000000000000000000000600052602160045260246000fd5b1461590157600080fd5b61592d7fd573ccd7e0f4a5c7fd78433e9dff75936eb30f20427bf6a6d5d7bf079fcd67c760001b616b5d565b6159597fcc9654373cd323abda1c9e5462c2d05b75a8df626c2cd9951eaad664ca0d009960001b616b5d565b6159857f5fe70c193c09ce8838798bb3ed56ca9853a5741f14cdc87bbbaa438ddb05ccad60001b616b5d565b6159b17fef88d8f079dbfff2d16ace7265b18021893e26731c6f063e30cc89ddf9040a0460001b616b5d565b6159dd7faeedc9bfd10668ba248f23f2f8bfeb28fbec26e8446d4a72fc71729dae54a8ea60001b616b5d565b615a097f7e2f5ca3204840bbd0cc9b7d94ab5859cd82c710aeb32a3d4b4d3949bb1ba84860001b616b5d565b600460009054906101000a900473ffffffffffffffffffffffffffffffffffffffff1673ffffffffffffffffffffffffffffffffffffffff163373ffffffffffffffffffffffffffffffffffffffff161480615ab25750600560009054906101000a900473ffffffffffffffffffffffffffffffffffffffff1673ffffffffffffffffffffffffffffffffffffffff163373ffffffffffffffffffffffffffffffffffffffff16145b615abb57600080fd5b615ae77fbf2a98b3cb0f0a70f260a4f7df71a20a7af790d448ab49a6e5558172ff3fe3ac60001b616b5d565b615b137f4448f2d32223b0937b8b63c1864c59f89f533e169d19bba1b5b76d45398f5cca60001b616b5d565b615b3f7f40a16f309dd7d1d6104fe404b2e646d7d61b853a4a789eaba41dc78554cf089160001b616b5d565b615b6b7fa23c4c9ba123dd1719d47ccab1ae1757b876e999ae59876a38051550c4775cf160001b616b5d565b615b977f43e52e6c73499fb8abe1e4a1721ac425408d79034c82cd0030d4ca1c1f31e44060001b616b5d565b6000600460009054906101000a900473ffffffffffffffffffffffffffffffffffffffff1673ffffffffffffffffffffffffffffffffffffffff163373ffffffffffffffffffffffffffffffffffffffff1614615c1657600460009054906101000a900473ffffffffffffffffffffffffffffffffffffffff16615c3a565b600560009054906101000a900473ffffffffffffffffffffffffffffffffffffffff165b9050615c687f9d0a16c908bd060259cd0978c47f9a3ad4c1310a3e070deba95b27e7c63b2e6460001b616b5d565b615c947f717d55891287d44cc804238a2e176e97f45031d3575d1580ae02397511d7e43e60001b616b5d565b60008060029054906101000a900473ffffffffffffffffffffffffffffffffffffffff1673ffffffffffffffffffffffffffffffffffffffff166370a08231306040518263ffffffff1660e01b8152600401615cf091906181cc565b60206040518083038186803b158015615d0857600080fd5b505afa158015615d1c573d6000803e3d6000fd5b505050506040513d601f19601f82011682018060405250810190615d409190617fd7565b9050615d6e7fbc2918d8949658a6f12f06152d8b6bba0fe77a3d6c6f68ebb40a5bfc25b8709d60001b616b5d565b615d9a7f3b965c51967adad47765b35bc746d4bbeb38c8e54f84c6a15c4f4fad9ad76c7160001b616b5d565b6000600460009054906101000a900473ffffffffffffffffffffffffffffffffffffffff1673ffffffffffffffffffffffffffffffffffffffff163373ffffffffffffffffffffffffffffffffffffffff1614615df8576000615e99565b600160009054906101000a900473ffffffffffffffffffffffffffffffffffffffff1673ffffffffffffffffffffffffffffffffffffffff166339ded4e96040518163ffffffff1660e01b815260040160206040518083038186803b158015615e6057600080fd5b505afa158015615e74573d6000803e3d6000fd5b505050506040513d601f19601f82011682018060405250810190615e989190617fd7565b5b9050615ec77fd3fab21b130514f240ac4db2b33ca79e8c18cc2769c9068661b7a4b30dbd814460001b616b5d565b615ef37f631dd4f4816f03bb2cb6d1b8d3e5c766570475e0c6a762fcab6a89b00859936660001b616b5d565b600081111561676357615f287f4deeda070d716f3a601750bd815f14bf14e975629488d160c073d65f028cf40260001b616b5d565b615f547fbb4a836220778e4f9044e46690b7233fc87dfb5875ba12fa1d49ffe800ab3df160001b616b5d565b615f807fc7cc98201cb6edffd71041b4a445e517cad7d8f9cef20bbd14563e320e17dfdc60001b616b5d565b600060648284615f9091906185ba565b615f9a9190618589565b9050615fc87f3ce4fcc6e0140cb32d08fb2e62cbd1f8b41943e762bdc27a29af086b235b059960001b616b5d565b615ff47f5492071e124832729bcfcca6316c9bc5530ecab634517f0a3c0ac7d7f46c35c360001b616b5d565b60006064600160009054906101000a900473ffffffffffffffffffffffffffffffffffffffff1673ffffffffffffffffffffffffffffffffffffffff1663f0e5bc6b6040518163ffffffff1660e01b815260040160206040518083038186803b15801561606057600080fd5b505afa158015616074573d6000803e3d6000fd5b505050506040513d601f19601f820116820180604052508101906160989190617fd7565b836160a391906185ba565b6160ad9190618589565b90506160db7f8480f09d870aa8dc2d779553f3bdbb5cad62437b99da19ae5dcc3830809003f660001b616b5d565b6161077f0cf75a27026748c1aad87c9cdb40fb291b092c0430a5e9a44c7b45da7a43ba7360001b616b5d565b60006064600160009054906101000a900473ffffffffffffffffffffffffffffffffffffffff1673ffffffffffffffffffffffffffffffffffffffff1663ab64fa486040518163ffffffff1660e01b815260040160206040518083038186803b15801561617357600080fd5b505afa158015616187573d6000803e3d6000fd5b505050506040513d601f19601f820116820180604052508101906161ab9190617fd7565b846161b691906185ba565b6161c09190618589565b90506161ee7f264a5353dbb129bf109edd5568871320f40c7cec3a7c33f373385691a93c239360001b616b5d565b61621a7fe491420fc95edf93b5343e805fd12e4c99fc2180796bd6c704b5a3b73e94e68560001b616b5d565b60006064600160009054906101000a900473ffffffffffffffffffffffffffffffffffffffff1673ffffffffffffffffffffffffffffffffffffffff1663057812226040518163ffffffff1660e01b815260040160206040518083038186803b15801561628657600080fd5b505afa15801561629a573d6000803e3d6000fd5b505050506040513d601f19601f820116820180604052508101906162be9190617fd7565b856162c991906185ba565b6162d39190618589565b90506163017ff2c790cca74de99f9da7df415689ccf83e369d6e0b251d052573b47979c7f80160001b616b5d565b61632d7fab3420c3049eb062fe392efb47fd595b1d3abd9f81a975b513baf4e44735ad5c60001b616b5d565b600260009054906101000a900473ffffffffffffffffffffffffffffffffffffffff1673ffffffffffffffffffffffffffffffffffffffff1663fa09d6bd600460009054906101000a900473ffffffffffffffffffffffffffffffffffffffff16600560009054906101000a900473ffffffffffffffffffffffffffffffffffffffff1685600060029054906101000a900473ffffffffffffffffffffffffffffffffffffffff166040518563ffffffff1660e01b81526004016163f49493929190618247565b600060405180830381600087803b15801561640e57600080fd5b505af1158015616422573d6000803e3d6000fd5b505050506164527f9d7da873703227d9d3a05bb813278123599481656f3db639a9fb7be3d341df7c60001b616b5d565b61647e7f672123e7de4532b4b84f9518ac3b13bba52482600082138d0d50113fb6f4238e60001b616b5d565b600260009054906101000a900473ffffffffffffffffffffffffffffffffffffffff1673ffffffffffffffffffffffffffffffffffffffff1663e1f72e74600460009054906101000a900473ffffffffffffffffffffffffffffffffffffffff16600560009054906101000a900473ffffffffffffffffffffffffffffffffffffffff166040518363ffffffff1660e01b815260040161651f9291906181e7565b600060405180830381600087803b15801561653957600080fd5b505af115801561654d573d6000803e3d6000fd5b5050505061657d7f34175ece38c8cc43be00b81db2bd6cb5528ea7e150124d392eff6f12d8e3213660001b616b5d565b6165a97fdc2ef5d4115674d1a94ddda3dc8779024457ab2ef6dcab75965c28e483ca6e9960001b616b5d565b616652600160009054906101000a900473ffffffffffffffffffffffffffffffffffffffff1673ffffffffffffffffffffffffffffffffffffffff16638da5cb5b6040518163ffffffff1660e01b815260040160206040518083038186803b15801561661457600080fd5b505afa158015616628573d6000803e3d6000fd5b505050506040513d601f19601f8201168201806040525081019061664c9190617e8e565b84617903565b61667e7f7ca1674439589f43c69bb9613f8c28b06351c14dcb17292c1d1bb5187aa194c060001b616b5d565b6166aa7fd0dd26884056257cbfddce26f4df6b62821447f9078afc40889a3409caf8d94460001b616b5d565b6166d6600260009054906101000a900473ffffffffffffffffffffffffffffffffffffffff1683617903565b6167027f8c77fbfbcb96e0db5c4d0cb5d6dc4acad33ebaae3397b6eb60eb0c5ad35b089b60001b616b5d565b61672e7f1983b020368f2eae0072014df1ee612acb99bc08dcf825ccbc2e44a58193990660001b616b5d565b61675a600160009054906101000a900473ffffffffffffffffffffffffffffffffffffffff1682617903565b505050506168bb565b61678f7f030e7926f4426726ab4db72fda27975cb760170cf4dcbbea9f18553d9e4c505760001b616b5d565b6167bb7f1784d3e080cf677f30a247bad07227a49fb8365b87b097c329dc7dfc21b8d42a60001b616b5d565b6167e77fb3f7720f6b36c79b639d24fb21eb72f8c17595fcbf29fdc85bbf6b4387e38f1a60001b616b5d565b600260009054906101000a900473ffffffffffffffffffffffffffffffffffffffff1673ffffffffffffffffffffffffffffffffffffffff1663f9688ca1600460009054906101000a900473ffffffffffffffffffffffffffffffffffffffff16600560009054906101000a900473ffffffffffffffffffffffffffffffffffffffff166040518363ffffffff1660e01b81526004016168889291906181e7565b600060405180830381600087803b1580156168a257600080fd5b505af11580156168b6573d6000803e3d6000fd5b505050505b6168e77fbe4657b7fbe41d836e4cc802755dcfd27eb0c72f00543b5f336ee00067aa04fc60001b616b5d565b6169137fb25d0c4f5dedf50285c15837d60b36dd0096a5151214ba2e569d691623b341bf60001b616b5d565b6169c783600060029054906101000a900473ffffffffffffffffffffffffffffffffffffffff1673ffffffffffffffffffffffffffffffffffffffff166370a08231306040518263ffffffff1660e01b815260040161697291906181cc565b60206040518083038186803b15801561698a57600080fd5b505afa15801561699e573d6000803e3d6000fd5b505050506040513d601f19601f820116820180604052508101906169c29190617fd7565b617903565b6169f37f5187ea89c538fb6422d7db9431c1d8c66d45beae4da0253de8edd2c5b9c3660c60001b616b5d565b616a1f7f21919ea1a61d81551f1b1a42d60efc621c9835a4a5b91c8a47cf27ef4983c6f360001b616b5d565b6003601060006101000a81548160ff02191690836003811115616a6b577f4e487b7100000000000000000000000000000000000000000000000000000000600052602160045260246000fd5b0217905550616a9c7fc66f14834b5236e76cc2088b9cbfd8e848c4085280e2756dc83b916786c015e160001b616b5d565b616ac87fe43a2913817058465b5203f2add4ca4f0c2ce0367fe9223977dcefa94ae94d8760001b616b5d565b600160009054906101000a900473ffffffffffffffffffffffffffffffffffffffff1673ffffffffffffffffffffffffffffffffffffffff1663d4c01b7b3060036040518363ffffffff1660e01b8152600401616b26929190618315565b600060405180830381600087803b158015616b4057600080fd5b505af1158015616b54573d6000803e3d6000fd5b50505050505050565b50565b6000808273ffffffffffffffffffffffffffffffffffffffff163b119050919050565b616baf7f44cecddf9f799bea1945a5fee9fe830e2aa89738d58632c3d648191b9498f95e60001b616b5d565b616bdb7f635522043e809ee6bfd6e97d34f345c5ae2d933534eddb118a716fad8f6d41a660001b616b5d565b616c077f2d6f3fd68e85dd91bda85612ff96d62e32ea5e142d73ce2c46f945f985b16b3560001b616b5d565b60008060029054906101000a900473ffffffffffffffffffffffffffffffffffffffff1673ffffffffffffffffffffffffffffffffffffffff166370a08231306040518263ffffffff1660e01b8152600401616c6391906181cc565b60206040518083038186803b158015616c7b57600080fd5b505afa158015616c8f573d6000803e3d6000fd5b505050506040513d601f19601f82011682018060405250810190616cb39190617fd7565b9050616ce17fdd63e4ca882b3cb52318095674d6f002a71562b82afd4ff63658b7d04ea01b9f60001b616b5d565b616d0d7fd03c967cc42bbe9712792554a651fc145d515cc99c7a77f0d1d9e6450c6d903960001b616b5d565b60006064600160009054906101000a900473ffffffffffffffffffffffffffffffffffffffff1673ffffffffffffffffffffffffffffffffffffffff1663e2730ab06040518163ffffffff1660e01b815260040160206040518083038186803b158015616d7957600080fd5b505afa158015616d8d573d6000803e3d6000fd5b505050506040513d601f19601f82011682018060405250810190616db19190617fd7565b83616dbc91906185ba565b616dc69190618589565b9050616df47f23d46f646d092194ea84a499ff4ec47587f12493a93ccfde1fef89036f29bcdd60001b616b5d565b616e207f184241304dd04867555dc6266a128856493a7aef4f9cd19ea601433eb8a07ab960001b616b5d565b60006064600160009054906101000a900473ffffffffffffffffffffffffffffffffffffffff1673ffffffffffffffffffffffffffffffffffffffff1663f0e5bc6b6040518163ffffffff1660e01b815260040160206040518083038186803b158015616e8c57600080fd5b505afa158015616ea0573d6000803e3d6000fd5b505050506040513d601f19601f82011682018060405250810190616ec49190617fd7565b83616ecf91906185ba565b616ed99190618589565b9050616f077f9a442d5bf4e6f5c8919b306c63205fe9d353d47dd73ee14c75809f84696080a760001b616b5d565b616f337f97d123958a7a4901e60faa61ceb9624e82a3f601495094d6e04ea47fd40edd8960001b616b5d565b60006064600160009054906101000a900473ffffffffffffffffffffffffffffffffffffffff1673ffffffffffffffffffffffffffffffffffffffff1663ab64fa486040518163ffffffff1660e01b815260040160206040518083038186803b158015616f9f57600080fd5b505afa158015616fb3573d6000803e3d6000fd5b505050506040513d601f19601f82011682018060405250810190616fd79190617fd7565b84616fe291906185ba565b616fec9190618589565b905061701a7f81f18dd1831943a3b159857bf49d6d325f86c6794ddaa0cdf4435a5ad87135a560001b616b5d565b6170467f7828b656f1ae8e824460e9a332e812f78f8f0bc0d7648a87097b1ed682bf3b4b60001b616b5d565b60006064600160009054906101000a900473ffffffffffffffffffffffffffffffffffffffff1673ffffffffffffffffffffffffffffffffffffffff1663057812226040518163ffffffff1660e01b815260040160206040518083038186803b1580156170b257600080fd5b505afa1580156170c6573d6000803e3d6000fd5b505050506040513d601f19601f820116820180604052508101906170ea9190617fd7565b856170f591906185ba565b6170ff9190618589565b905061712d7f51730ac76181cc7973881f407f1ddbe4cdbec9fcd202c0834e328f3c5c7c793d60001b616b5d565b6171597f6ac641b0d630f27d7cc1cbffe9ff5153d762d8a20f7fe73aa0e3ba560c58f94860001b616b5d565b600084866171679190618614565b90506171957fe4140f3f0de8372186d3d6214a61ed962954f65279cd9c08dd20987b70fc535f60001b616b5d565b6171c17f6200475fc21430c100b3a2109d92aae1a967ac6b8fb3e687b91c61532f7f2d4f60001b616b5d565b60005b88811015617335576171f87f05a7fc03d2f377a163c3d0c4b71ee6062485a68158bee2ca14ad6ad6cad3be8660001b616b5d565b6172247f0197e5b0c42bb1df0262786502e68edc34e711f2c0bf28bea87698459ed1cdc960001b616b5d565b600260009054906101000a900473ffffffffffffffffffffffffffffffffffffffff1673ffffffffffffffffffffffffffffffffffffffff16639570ba9f89838151811061729b577f4e487b7100000000000000000000000000000000000000000000000000000000600052603260045260246000fd5b6020026020010151600060029054906101000a900473ffffffffffffffffffffffffffffffffffffffff168c876172d29190618589565b6040518463ffffffff1660e01b81526004016172f093929190618210565b600060405180830381600087803b15801561730a57600080fd5b505af115801561731e573d6000803e3d6000fd5b50505050808061732d9061882d565b9150506171c4565b506173627fa22a3cf75cec2aa911b7e80a8dd228e2ff041a748679106f212ea039ab99380060001b616b5d565b61738e7fe0b6d67bc12aafedc5cbf32c6a8737d240ab90b8b0305df85c00b13df20842f260001b616b5d565b600260009054906101000a900473ffffffffffffffffffffffffffffffffffffffff1673ffffffffffffffffffffffffffffffffffffffff1663fa09d6bd600460009054906101000a900473ffffffffffffffffffffffffffffffffffffffff16600560009054906101000a900473ffffffffffffffffffffffffffffffffffffffff1686600060029054906101000a900473ffffffffffffffffffffffffffffffffffffffff166040518563ffffffff1660e01b81526004016174559493929190618247565b600060405180830381600087803b15801561746f57600080fd5b505af1158015617483573d6000803e3d6000fd5b505050506174b37f42c31bd4b26b60ec66cfb3466259a3ce35549af20c1dea85ffdb6675a13a507b60001b616b5d565b6174df7f33a90a15322ac26de83a8042a8479c04ddd5f2c2290845f1ff75c6199e91a5fc60001b616b5d565b600260009054906101000a900473ffffffffffffffffffffffffffffffffffffffff1673ffffffffffffffffffffffffffffffffffffffff1663e1f72e74600460009054906101000a900473ffffffffffffffffffffffffffffffffffffffff16600560009054906101000a900473ffffffffffffffffffffffffffffffffffffffff166040518363ffffffff1660e01b81526004016175809291906181e7565b600060405180830381600087803b15801561759a57600080fd5b505af11580156175ae573d6000803e3d6000fd5b505050506175de7fde5c202c22af12b93ea941e8f987e2758a5b42db69e3c0c182de2641d0d5260360001b616b5d565b61760a7f401ad30aceda7049b6648d345ec4ca2a0216ecbc0dc3eda1f130ba97d00f11f160001b616b5d565b6176b3600160009054906101000a900473ffffffffffffffffffffffffffffffffffffffff1673ffffffffffffffffffffffffffffffffffffffff16638da5cb5b6040518163ffffffff1660e01b815260040160206040518083038186803b15801561767557600080fd5b505afa158015617689573d6000803e3d6000fd5b505050506040513d601f19601f820116820180604052508101906176ad9190617e8e565b85617903565b6176df7fd5beba78f24b9a62684c5ab46e7bf0fe4bda372830670cf1656b51ffae16087160001b616b5d565b61770b7f4af79a383ff655cb60cf644caa008411f825d87bc0b03712d03b889cac80202660001b616b5d565b617737600260009054906101000a900473ffffffffffffffffffffffffffffffffffffffff1684617903565b6177637ffa4109937e16d7188986ab674953e74b57b178d16976318c133d75724cfb904160001b616b5d565b61778f7f071a5c6b19e2aef75d2915e18a4f89544b57443181cbe34f1d16d67bc314dbbe60001b616b5d565b6177bb600160009054906101000a900473ffffffffffffffffffffffffffffffffffffffff1683617903565b6177e77f844c68f8b5ff5912309d86cfaf0d79e8f102513b90a117a87d71f809e0515dba60001b616b5d565b6178137fda6ce39969d65cc52e8e91ad65058edc80d4014626fb00f8590fe338b0ac81d360001b616b5d565b617859600460009054906101000a900473ffffffffffffffffffffffffffffffffffffffff1660648c60ff168461784a91906185ba565b6178549190618589565b617903565b6178857ff862c2d51d123d4b83061a8e779f25af2d983096ad8040d734985019500497fe60001b616b5d565b6178b17f561b1c4d98d6c32006ded8d94a4daf5a132b34a34f6ee400b3304b81ecf60b8360001b616b5d565b6178f7600560009054906101000a900473ffffffffffffffffffffffffffffffffffffffff1660648b60ff16846178e891906185ba565b6178f29190618589565b617903565b50505050505050505050565b61792f7f3a56c990d62c6daa96db7b4649ecfcb67a6d6e32fff116ac09b967ab7e547ee360001b616b5d565b61795b7f2d8908991f30af5c6ea0b63771640c07a5563be231dff2078be25259c883c42c60001b616b5d565b6179877fef5da3aa0cad962fda1a4ff79d6525a27de58f884aa5ccd7e0b093985c20d65960001b616b5d565b6179d48282600060029054906101000a900473ffffffffffffffffffffffffffffffffffffffff1673ffffffffffffffffffffffffffffffffffffffff166179d89092919063ffffffff16565b5050565b617a598363a9059cbb60e01b84846040516024016179f792919061833e565b604051602081830303815290604052907bffffffffffffffffffffffffffffffffffffffffffffffffffffffff19166020820180517bffffffffffffffffffffffffffffffffffffffffffffffffffffffff8381831617835250505050617a5e565b505050565b6000617ac0826040518060400160405280602081526020017f5361666545524332303a206c6f772d6c6576656c2063616c6c206661696c65648152508573ffffffffffffffffffffffffffffffffffffffff16617b259092919063ffffffff16565b9050600081511115617b205780806020019051810190617ae09190617eb7565b617b1f576040517f08c379a0000000000000000000000000000000000000000000000000000000008152600401617b1690618470565b60405180910390fd5b5b505050565b6060617b348484600085617b3d565b90509392505050565b606082471015617b82576040517f08c379a0000000000000000000000000000000000000000000000000000000008152600401617b7990618410565b60405180910390fd5b617b8b85617c51565b617bca576040517f08c379a0000000000000000000000000000000000000000000000000000000008152600401617bc190618450565b60405180910390fd5b6000808673ffffffffffffffffffffffffffffffffffffffff168587604051617bf391906181b5565b60006040518083038185875af1925050503d8060008114617c30576040519150601f19603f3d011682016040523d82523d6000602084013e617c35565b606091505b5091509150617c45828286617c74565b92505050949350505050565b6000808273ffffffffffffffffffffffffffffffffffffffff163b119050919050565b60608315617c8457829050617cd4565b600083511115617c975782518084602001fd5b816040517f08c379a0000000000000000000000000000000000000000000000000000000008152600401617ccb91906183ee565b60405180910390fd5b9392505050565b828054617ce7906187ca565b90600052602060002090601f016020900481019282617d095760008555617d50565b82601f10617d2257805160ff1916838001178555617d50565b82800160010185558215617d50579182015b82811115617d4f578251825591602001919060010190617d34565b5b509050617d5d9190617d61565b5090565b5b80821115617d7a576000816000905550600101617d62565b5090565b6000617d91617d8c846184d0565b6184ab565b905082815260208101848484011115617da957600080fd5b617db4848285618788565b509392505050565b600081359050617dcb81618a9c565b92915050565b600081519050617de081618a9c565b92915050565b600081519050617df581618ab3565b92915050565b600081359050617e0a81618aca565b92915050565b600081359050617e1f81618ae1565b92915050565b600082601f830112617e3657600080fd5b8135617e46848260208601617d7e565b91505092915050565b600081359050617e5e81618af8565b92915050565b600081519050617e7381618af8565b92915050565b600081359050617e8881618b0f565b92915050565b600060208284031215617ea057600080fd5b6000617eae84828501617dd1565b91505092915050565b600060208284031215617ec957600080fd5b6000617ed784828501617de6565b91505092915050565b600080600080600080600060e0888a031215617efb57600080fd5b6000617f098a828b01617dfb565b9750506020617f1a8a828b01617dbc565b9650506040617f2b8a828b01617dbc565b9550506060617f3c8a828b01617e4f565b945050608088013567ffffffffffffffff811115617f5957600080fd5b617f658a828b01617e25565b93505060a0617f768a828b01617e4f565b92505060c0617f878a828b01617e10565b91505092959891949750929550565b600060208284031215617fa857600080fd5b600082013567ffffffffffffffff811115617fc257600080fd5b617fce84828501617e25565b91505092915050565b600060208284031215617fe957600080fd5b6000617ff784828501617e64565b91505092915050565b60006020828403121561801257600080fd5b600061802084828501617e79565b91505092915050565b61803281618648565b82525050565b600061804382618501565b61804d8185618517565b935061805d818560208601618797565b80840191505092915050565b618072816186d4565b82525050565b618081816186f8565b82525050565b6180908161871c565b82525050565b61809f81618740565b82525050565b6180ae81618752565b82525050565b6180bd81618764565b82525050565b6180cc81618776565b82525050565b60006180dd8261850c565b6180e78185618522565b93506180f7818560208601618797565b61810081618961565b840191505092915050565b6000618118602683618522565b915061812382618972565b604082019050919050565b600061813b602e83618522565b9150618146826189c1565b604082019050919050565b600061815e601d83618522565b915061816982618a10565b602082019050919050565b6000618181602a83618522565b915061818c82618a39565b604082019050919050565b6181a0816186bd565b82525050565b6181af816186c7565b82525050565b60006181c18284618038565b915081905092915050565b60006020820190506181e16000830184618029565b92915050565b60006040820190506181fc6000830185618029565b6182096020830184618029565b9392505050565b60006060820190506182256000830186618029565b6182326020830185618029565b61823f6040830184618197565b949350505050565b600060808201905061825c6000830187618029565b6182696020830186618029565b6182766040830185618197565b6182836060830184618029565b95945050505050565b60006060820190506182a16000830186618029565b6182ae6020830185618029565b6182bb60408301846181a6565b949350505050565b60006040820190506182d86000830185618029565b6182e560208301846180a5565b9392505050565b60006040820190506183016000830185618029565b61830e60208301846180b4565b9392505050565b600060408201905061832a6000830185618029565b61833760208301846180c3565b9392505050565b60006040820190506183536000830185618029565b6183606020830184618197565b9392505050565b600060208201905061837c6000830184618069565b92915050565b60006020820190506183976000830184618078565b92915050565b60006020820190506183b26000830184618087565b92915050565b60006020820190506183cd6000830184618096565b92915050565b60006020820190506183e860008301846180a5565b92915050565b6000602082019050818103600083015261840881846180d2565b905092915050565b600060208201905081810360008301526184298161810b565b9050919050565b600060208201905081810360008301526184498161812e565b9050919050565b6000602082019050818103600083015261846981618151565b9050919050565b6000602082019050818103600083015261848981618174565b9050919050565b60006020820190506184a56000830184618197565b92915050565b60006184b56184c6565b90506184c182826187fc565b919050565b6000604051905090565b600067ffffffffffffffff8211156184eb576184ea618932565b5b6184f482618961565b9050602081019050919050565b600081519050919050565b600081519050919050565b600081905092915050565b600082825260208201905092915050565b600061853e826186bd565b9150618549836186bd565b9250827fffffffffffffffffffffffffffffffffffffffffffffffffffffffffffffffff0382111561857e5761857d618876565b5b828201905092915050565b6000618594826186bd565b915061859f836186bd565b9250826185af576185ae6188a5565b5b828204905092915050565b60006185c5826186bd565b91506185d0836186bd565b9250817fffffffffffffffffffffffffffffffffffffffffffffffffffffffffffffffff048311821515161561860957618608618876565b5b828202905092915050565b600061861f826186bd565b915061862a836186bd565b92508282101561863d5761863c618876565b5b828203905092915050565b60006186538261869d565b9050919050565b60008115159050919050565b600061867182618648565b9050919050565b600061868382618648565b9050919050565b600081905061869882618a88565b919050565b600073ffffffffffffffffffffffffffffffffffffffff82169050919050565b6000819050919050565b600060ff82169050919050565b60006186df826186e6565b9050919050565b60006186f18261869d565b9050919050565b60006187038261870a565b9050919050565b60006187158261869d565b9050919050565b60006187278261872e565b9050919050565b60006187398261869d565b9050919050565b600061874b8261868a565b9050919050565b600061875d826186c7565b9050919050565b600061876f826186c7565b9050919050565b6000618781826186c7565b9050919050565b82818337600083830152505050565b60005b838110156187b557808201518184015260208101905061879a565b838111156187c4576000848401525b50505050565b600060028204905060018216806187e257607f821691505b602082108114156187f6576187f5618903565b5b50919050565b61880582618961565b810181811067ffffffffffffffff8211171561882457618823618932565b5b80604052505050565b6000618838826186bd565b91507fffffffffffffffffffffffffffffffffffffffffffffffffffffffffffffffff82141561886b5761886a618876565b5b600182019050919050565b7f4e487b7100000000000000000000000000000000000000000000000000000000600052601160045260246000fd5b7f4e487b7100000000000000000000000000000000000000000000000000000000600052601260045260246000fd5b7f4e487b7100000000000000000000000000000000000000000000000000000000600052602160045260246000fd5b7f4e487b7100000000000000000000000000000000000000000000000000000000600052602260045260246000fd5b7f4e487b7100000000000000000000000000000000000000000000000000000000600052604160045260246000fd5b6000601f19601f8301169050919050565b7f416464726573733a20696e73756666696369656e742062616c616e636520666f60008201527f722063616c6c0000000000000000000000000000000000000000000000000000602082015250565b7f496e697469616c697a61626c653a20636f6e747261637420697320616c72656160008201527f647920696e697469616c697a6564000000000000000000000000000000000000602082015250565b7f416464726573733a2063616c6c20746f206e6f6e2d636f6e7472616374000000600082015250565b7f5361666545524332303a204552433230206f7065726174696f6e20646964206e60008201527f6f74207375636365656400000000000000000000000000000000000000000000602082015250565b60048110618a9957618a986188d4565b5b50565b618aa581618648565b8114618ab057600080fd5b50565b618abc8161865a565b8114618ac757600080fd5b50565b618ad381618666565b8114618ade57600080fd5b50565b618aea81618678565b8114618af557600080fd5b50565b618b01816186bd565b8114618b0c57600080fd5b50565b618b18816186c7565b8114618b2357600080fd5b5056fea2646970667358221220a80039afdace81749aa1e32cd50b4fe743beae584a8070996af64c8a15420a5e64736f6c63430008040033",
  "linkReferences": {},
  "deployedLinkReferences": {}
}