{
  "_format": "hh-sol-artifact-1",
  "contractName": "GigBeacon",
  "sourceName": "contracts/GigFactory.sol",
  "abi": [
    {
      "inputs": [
        {
          "internalType": "address",
          "name": "_vLogic",
          "type": "address"
        },
        {
          "internalType": "address",
          "name": "_newOwner",
          "type": "address"
        }
      ],
      "stateMutability": "nonpayable",
      "type": "constructor"
    },
    {
      "inputs": [
        {
          "internalType": "address",
          "name": "_newOwner",
          "type": "address"
        }
      ],
      "name": "changeOwnership",
      "outputs": [],
      "stateMutability": "nonpayable",
      "type": "function"
    },
    {
      "inputs": [],
      "name": "implementation",
      "outputs": [
        {
          "internalType": "address",
          "name": "",
          "type": "address"
        }
      ],
      "stateMutability": "view",
      "type": "function"
    },
    {
      "inputs": [],
      "name": "owner",
      "outputs": [
        {
          "internalType": "address",
          "name": "",
          "type": "address"
        }
      ],
      "stateMutability": "view",
      "type": "function"
    },
    {
      "inputs": [
        {
          "internalType": "address",
          "name": "_vLogic",
          "type": "address"
        }
      ],
      "name": "update",
      "outputs": [],
      "stateMutability": "nonpayable",
      "type": "function"
    },
    {
      "inputs": [],
      "name": "vLogic",
      "outputs": [
        {
          "internalType": "address",
          "name": "",
          "type": "address"
        }
      ],
      "stateMutability": "view",
      "type": "function"
    }
  ],
  "bytecode": "0x60a06040523480156200001157600080fd5b506040516200175d3803806200175d8339818101604052810190620000379190620002c2565b6200006b7f8e86d05a8ba65ec11abd09b33eb812b6c199ad9da19b14cb9627cdbc2a483c2560001b6200029a60201b60201c565b6200009e7ecb823d552b0906ecf5c716b529a4a0efd18e728a3e30e38adc96151f7ad90d60001b6200029a60201b60201c565b620000d27f243d09ec1aa1e38e5c57af746a2ad49daba16f3fc81bffb3f33624b17956a1b860001b6200029a60201b60201c565b81604051620000e1906200029d565b620000ed919062000314565b604051809103906000f0801580156200010a573d6000803e3d6000fd5b5073ffffffffffffffffffffffffffffffffffffffff1660808173ffffffffffffffffffffffffffffffffffffffff1660601b81525050620001757f25d72feffc7d852d39a1ee5d852200b63faaace8bf09e6acf7f684b5e63aa00360001b6200029a60201b60201c565b620001a97fc09a16c9a19b302147871ce046beafa75ec55f1111a7ab572070ed3688a94b1860001b6200029a60201b60201c565b816000806101000a81548173ffffffffffffffffffffffffffffffffffffffff021916908373ffffffffffffffffffffffffffffffffffffffff1602179055506200021d7f39d291ad112a11c09ac139a7cf12b9e5aa92fe8f7b19e4fa4e091c82954a4cc560001b6200029a60201b60201c565b620002517f8546480dc8dcc0ab660fcb3fbfd0b8f1e058874b682b510e180158fea1ed37af60001b6200029a60201b60201c565b80600160006101000a81548173ffffffffffffffffffffffffffffffffffffffff021916908373ffffffffffffffffffffffffffffffffffffffff16021790555050506200037f565b50565b6109be8062000d9f83390190565b600081519050620002bc8162000365565b92915050565b60008060408385031215620002d657600080fd5b6000620002e685828601620002ab565b9250506020620002f985828601620002ab565b9150509250929050565b6200030e8162000331565b82525050565b60006020820190506200032b600083018462000303565b92915050565b60006200033e8262000345565b9050919050565b600073ffffffffffffffffffffffffffffffffffffffff82169050919050565b620003708162000331565b81146200037c57600080fd5b50565b60805160601c6109fa620003a5600039600081816102f101526106e201526109fa6000f3fe608060405234801561001057600080fd5b50600436106100575760003560e01c80631c1b87721461005c5780632af4c31e146100785780635c60da1b146100945780638da5cb5b146100b2578063c5557f3f146100d0575b600080fd5b61007660048036038101906100719190610882565b6100ee565b005b610092600480360381019061008d9190610882565b610415565b005b61009c61065a565b6040516100a99190610906565b60405180910390f35b6100ba610783565b6040516100c79190610906565b60405180910390f35b6100d8610831565b6040516100e59190610906565b60405180910390f35b61011a7f2b75ce8d3a911821d87152f7aef4e6a9b50a533af9b715b18c484e9d9595441a60001b610855565b6101467f2502dc3c7c3fe37fdfb6f7f68a72a89d4e763bd79dad3d21fc5b4fdff7ad86d860001b610855565b6101727fdd4ccb05062c8ac64ebc0967d6f850a62509bff0b4ed574de9558fcb0c537a5a60001b610855565b61019e7fc80d17da548ecabcad2d19601b4ee1fbf84c0cfc6fca6cde7232528cea2f20d060001b610855565b6101a6610783565b73ffffffffffffffffffffffffffffffffffffffff163373ffffffffffffffffffffffffffffffffffffffff1614610213576040517f08c379a000000000000000000000000000000000000000000000000000000000815260040161020a90610921565b60405180910390fd5b61023f7f68db90237810bf92b6d6343e98898c29071d98f9d73e694b14972c75bf99667460001b610855565b61026b7f2940d7ab0c88bf0a0af2309a4038b01ce2db867ee89cb02913142cc4f987fac760001b610855565b6102977faef2ece635e4078f85a93d666663449bf8c9aa1a5f58c1f3c5283d01baf41e2060001b610855565b6102c37f60ac36ef2deae01afb4ee1ecc273249f6f4b159cf7b5215351e930fad4beee4160001b610855565b6102ef7f18b0015b8dcabbcdba98c77ca299093971489abcc098316c27c9cdaea8d5ba8c60001b610855565b7f000000000000000000000000000000000000000000000000000000000000000073ffffffffffffffffffffffffffffffffffffffff16633659cfe6826040518263ffffffff1660e01b81526004016103489190610906565b600060405180830381600087803b15801561036257600080fd5b505af1158015610376573d6000803e3d6000fd5b505050506103a67f665f0bebfcfc8b2f46051e7f6156660c09cd892b9c2c65b5e95728897c8e56b560001b610855565b6103d27f7d590abb0a97a67b2e135ebd487d64ba201acd9ec5e5c5cae5a21d3850a5d5b660001b610855565b806000806101000a81548173ffffffffffffffffffffffffffffffffffffffff021916908373ffffffffffffffffffffffffffffffffffffffff16021790555050565b6104417f2b75ce8d3a911821d87152f7aef4e6a9b50a533af9b715b18c484e9d9595441a60001b610855565b61046d7f2502dc3c7c3fe37fdfb6f7f68a72a89d4e763bd79dad3d21fc5b4fdff7ad86d860001b610855565b6104997fdd4ccb05062c8ac64ebc0967d6f850a62509bff0b4ed574de9558fcb0c537a5a60001b610855565b6104c57fc80d17da548ecabcad2d19601b4ee1fbf84c0cfc6fca6cde7232528cea2f20d060001b610855565b6104cd610783565b73ffffffffffffffffffffffffffffffffffffffff163373ffffffffffffffffffffffffffffffffffffffff161461053a576040517f08c379a000000000000000000000000000000000000000000000000000000000815260040161053190610921565b60405180910390fd5b6105667f68db90237810bf92b6d6343e98898c29071d98f9d73e694b14972c75bf99667460001b610855565b6105927f2940d7ab0c88bf0a0af2309a4038b01ce2db867ee89cb02913142cc4f987fac760001b610855565b6105be7f6dcbd377c0f3110edb35e319abb20dadee9f59453a2a8357da7b699395165af260001b610855565b6105ea7fc0e7433a34f9a83fe26f36bd1d4c03fafe6ba8078be7f74ab38724b38f15493160001b610855565b6106167fcc0e69ad0842ff47c014338f0bbcd4b10acacf98557e4fa7f8aa55e4f2e29c9260001b610855565b80600160006101000a81548173ffffffffffffffffffffffffffffffffffffffff021916908373ffffffffffffffffffffffffffffffffffffffff16021790555050565b60006106887f86e3fc601d6cea73a2535ab638de2fa40cef8be44d640b9de35a34087eb5799060001b610855565b6106b47fd4f6522a6916e15daefd4c9733fc608400f24696301317751fe623d9e31c787760001b610855565b6106e07fdf2c71ddb68c2562bf3169c9e7418a12989b3c4d00a20bc685ab0eb802c41d2f60001b610855565b7f000000000000000000000000000000000000000000000000000000000000000073ffffffffffffffffffffffffffffffffffffffff16635c60da1b6040518163ffffffff1660e01b815260040160206040518083038186803b15801561074657600080fd5b505afa15801561075a573d6000803e3d6000fd5b505050506040513d601f19601f8201168201806040525081019061077e91906108ab565b905090565b60006107b17f80491e5784b214e69aca15a854f4cf43662fd3a88f51f11f9a068b21c59dd4ed60001b610855565b6107dd7f86b006bc272033b576afe7bbaaf5fc45ea55913637f833b86059e989ab779a5560001b610855565b6108097f65206ffaab907d181a4f2eff3b52bd9f3aff9a6601f232e1576710ae6331e81460001b610855565b600160009054906101000a900473ffffffffffffffffffffffffffffffffffffffff16905090565b60008054906101000a900473ffffffffffffffffffffffffffffffffffffffff1681565b50565b600081359050610867816109ad565b92915050565b60008151905061087c816109ad565b92915050565b60006020828403121561089457600080fd5b60006108a284828501610858565b91505092915050565b6000602082840312156108bd57600080fd5b60006108cb8482850161086d565b91505092915050565b6108dd81610952565b82525050565b60006108f0600e83610941565b91506108fb82610984565b602082019050919050565b600060208201905061091b60008301846108d4565b92915050565b6000602082019050818103600083015261093a816108e3565b9050919050565b600082825260208201905092915050565b600061095d82610964565b9050919050565b600073ffffffffffffffffffffffffffffffffffffffff82169050919050565b7f4f6e6c7920666f72204f776e6572000000000000000000000000000000000000600082015250565b6109b681610952565b81146109c157600080fd5b5056fea26469706673582212206a5237a320965916bfec2db903a5f57aac871d5435205428d7de79badbd0044164736f6c63430008040033608060405234801561001057600080fd5b506040516109be3803806109be833981810160405281019061003291906101fd565b61004e61004361006360201b60201c565b61006b60201b60201c565b61005d8161012f60201b60201c565b50610312565b600033905090565b60008060009054906101000a900473ffffffffffffffffffffffffffffffffffffffff169050816000806101000a81548173ffffffffffffffffffffffffffffffffffffffff021916908373ffffffffffffffffffffffffffffffffffffffff1602179055508173ffffffffffffffffffffffffffffffffffffffff168173ffffffffffffffffffffffffffffffffffffffff167f8be0079c531659141344cd1fd0a4f28419497f9722a3daafe3b4186f6b6457e060405160405180910390a35050565b610142816101c560201b61021c1760201c565b610181576040517f08c379a000000000000000000000000000000000000000000000000000000000815260040161017890610249565b60405180910390fd5b80600160006101000a81548173ffffffffffffffffffffffffffffffffffffffff021916908373ffffffffffffffffffffffffffffffffffffffff16021790555050565b6000808273ffffffffffffffffffffffffffffffffffffffff163b119050919050565b6000815190506101f7816102fb565b92915050565b60006020828403121561020f57600080fd5b600061021d848285016101e8565b91505092915050565b6000610233603383610269565b915061023e826102ac565b604082019050919050565b6000602082019050818103600083015261026281610226565b9050919050565b600082825260208201905092915050565b60006102858261028c565b9050919050565b600073ffffffffffffffffffffffffffffffffffffffff82169050919050565b7f5570677261646561626c65426561636f6e3a20696d706c656d656e746174696f60008201527f6e206973206e6f74206120636f6e747261637400000000000000000000000000602082015250565b6103048161027a565b811461030f57600080fd5b50565b61069d806103216000396000f3fe608060405234801561001057600080fd5b50600436106100575760003560e01c80633659cfe61461005c5780635c60da1b14610078578063715018a6146100965780638da5cb5b146100a0578063f2fde38b146100be575b600080fd5b6100766004803603810190610071919061042a565b6100da565b005b610080610131565b60405161008d91906104cb565b60405180910390f35b61009e61015b565b005b6100a861016f565b6040516100b591906104cb565b60405180910390f35b6100d860048036038101906100d3919061042a565b610198565b005b6100e261023f565b6100eb816102bd565b8073ffffffffffffffffffffffffffffffffffffffff167fbc7cd75a20ee27fd9adebab32041f755214dbc6bffa90cc0225b39da2e5c2d3b60405160405180910390a250565b6000600160009054906101000a900473ffffffffffffffffffffffffffffffffffffffff16905090565b61016361023f565b61016d6000610349565b565b60008060009054906101000a900473ffffffffffffffffffffffffffffffffffffffff16905090565b6101a061023f565b600073ffffffffffffffffffffffffffffffffffffffff168173ffffffffffffffffffffffffffffffffffffffff161415610210576040517f08c379a0000000000000000000000000000000000000000000000000000000008152600401610207906104e6565b60405180910390fd5b61021981610349565b50565b6000808273ffffffffffffffffffffffffffffffffffffffff163b119050919050565b61024761040d565b73ffffffffffffffffffffffffffffffffffffffff1661026561016f565b73ffffffffffffffffffffffffffffffffffffffff16146102bb576040517f08c379a00000000000000000000000000000000000000000000000000000000081526004016102b290610526565b60405180910390fd5b565b6102c68161021c565b610305576040517f08c379a00000000000000000000000000000000000000000000000000000000081526004016102fc90610506565b60405180910390fd5b80600160006101000a81548173ffffffffffffffffffffffffffffffffffffffff021916908373ffffffffffffffffffffffffffffffffffffffff16021790555050565b60008060009054906101000a900473ffffffffffffffffffffffffffffffffffffffff169050816000806101000a81548173ffffffffffffffffffffffffffffffffffffffff021916908373ffffffffffffffffffffffffffffffffffffffff1602179055508173ffffffffffffffffffffffffffffffffffffffff168173ffffffffffffffffffffffffffffffffffffffff167f8be0079c531659141344cd1fd0a4f28419497f9722a3daafe3b4186f6b6457e060405160405180910390a35050565b600033905090565b60008135905061042481610650565b92915050565b60006020828403121561043c57600080fd5b600061044a84828501610415565b91505092915050565b61045c81610557565b82525050565b600061046f602683610546565b915061047a82610589565b604082019050919050565b6000610492603383610546565b915061049d826105d8565b604082019050919050565b60006104b5602083610546565b91506104c082610627565b602082019050919050565b60006020820190506104e06000830184610453565b92915050565b600060208201905081810360008301526104ff81610462565b9050919050565b6000602082019050818103600083015261051f81610485565b9050919050565b6000602082019050818103600083015261053f816104a8565b9050919050565b600082825260208201905092915050565b600061056282610569565b9050919050565b600073ffffffffffffffffffffffffffffffffffffffff82169050919050565b7f4f776e61626c653a206e6577206f776e657220697320746865207a65726f206160008201527f6464726573730000000000000000000000000000000000000000000000000000602082015250565b7f5570677261646561626c65426561636f6e3a20696d706c656d656e746174696f60008201527f6e206973206e6f74206120636f6e747261637400000000000000000000000000602082015250565b7f4f776e61626c653a2063616c6c6572206973206e6f7420746865206f776e6572600082015250565b61065981610557565b811461066457600080fd5b5056fea26469706673582212202338b0d6c7b55cef16dee06fd64cb14086dd2401987ecc08bdc88a3e2313ae6564736f6c63430008040033",
  "linkReferences": {},
  "deployedLinkReferences": {}
}