{
  "_format": "hh-sol-artifact-1",
  "contractName": "GigFactory",
  "sourceName": "contracts/GigFactory.sol",
  "abi": [
    {
      "inputs": [
        {
          "internalType": "address",
          "name": "_vLogic",
          "type": "address"
        },
        {
          "internalType": "address",
          "name": "_newUserSoul",
          "type": "address"
        }
      ],
      "stateMutability": "nonpayable",
      "type": "constructor"
    },
    {
      "anonymous": false,
      "inputs": [
        {
          "indexed": false,
          "internalType": "address",
          "name": "_gigAddress",
          "type": "address"
        },
        {
          "indexed": false,
          "internalType": "address",
          "name": "_buyer",
          "type": "address"
        },
        {
          "indexed": false,
          "internalType": "address",
          "name": "_seller",
          "type": "address"
        }
      ],
      "name": "GigCreated",
      "type": "event"
    },
    {
      "anonymous": false,
      "inputs": [
        {
          "indexed": false,
          "internalType": "address",
          "name": "_address",
          "type": "address"
        },
        {
          "indexed": false,
          "internalType": "uint8",
          "name": "_status",
          "type": "uint8"
        }
      ],
      "name": "GigStatusChange",
      "type": "event"
    },
    {
      "anonymous": false,
      "inputs": [
        {
          "indexed": false,
          "internalType": "address",
          "name": "_address",
          "type": "address"
        },
        {
          "indexed": false,
          "internalType": "address",
          "name": "_voter",
          "type": "address"
        },
        {
          "indexed": false,
          "internalType": "uint8",
          "name": "_vote",
          "type": "uint8"
        }
      ],
      "name": "GigVoteAdded",
      "type": "event"
    },
    {
      "anonymous": false,
      "inputs": [
        {
          "indexed": false,
          "internalType": "address",
          "name": "_user",
          "type": "address"
        },
        {
          "indexed": false,
          "internalType": "uint256",
          "name": "_amount",
          "type": "uint256"
        }
      ],
      "name": "JudgeWidthdrawal",
      "type": "event"
    },
    {
      "anonymous": false,
      "inputs": [
        {
          "indexed": true,
          "internalType": "address",
          "name": "previousOwner",
          "type": "address"
        },
        {
          "indexed": true,
          "internalType": "address",
          "name": "newOwner",
          "type": "address"
        }
      ],
      "name": "OwnershipTransferred",
      "type": "event"
    },
    {
      "inputs": [],
      "name": "adminTax",
      "outputs": [
        {
          "internalType": "uint256",
          "name": "",
          "type": "uint256"
        }
      ],
      "stateMutability": "view",
      "type": "function"
    },
    {
      "inputs": [],
      "name": "affiliateRetribution",
      "outputs": [
        {
          "internalType": "uint256",
          "name": "",
          "type": "uint256"
        }
      ],
      "stateMutability": "view",
      "type": "function"
    },
    {
      "inputs": [],
      "name": "autoRefundDelay",
      "outputs": [
        {
          "internalType": "uint256",
          "name": "",
          "type": "uint256"
        }
      ],
      "stateMutability": "view",
      "type": "function"
    },
    {
      "inputs": [
        {
          "internalType": "uint256",
          "name": "_newFee",
          "type": "uint256"
        }
      ],
      "name": "changeAdminTax",
      "outputs": [],
      "stateMutability": "nonpayable",
      "type": "function"
    },
    {
      "inputs": [
        {
          "internalType": "uint256",
          "name": "_newDayDelay",
          "type": "uint256"
        }
      ],
      "name": "changeAutoRefundDelay",
      "outputs": [],
      "stateMutability": "nonpayable",
      "type": "function"
    },
    {
      "inputs": [
        {
          "internalType": "uint256",
          "name": "_newDayDelay",
          "type": "uint256"
        }
      ],
      "name": "changeEndTrialDelay",
      "outputs": [],
      "stateMutability": "nonpayable",
      "type": "function"
    },
    {
      "inputs": [
        {
          "internalType": "uint256",
          "name": "_newJudgeRetribution",
          "type": "uint256"
        },
        {
          "internalType": "uint256",
          "name": "_newAffiliateRetribution",
          "type": "uint256"
        },
        {
          "internalType": "uint256",
          "name": "_newProtocolRetribution",
          "type": "uint256"
        }
      ],
      "name": "changeRetributionModel",
      "outputs": [],
      "stateMutability": "nonpayable",
      "type": "function"
    },
    {
      "inputs": [
        {
          "internalType": "uint256",
          "name": "_newFee",
          "type": "uint256"
        }
      ],
      "name": "changeTrialTax",
      "outputs": [],
      "stateMutability": "nonpayable",
      "type": "function"
    },
    {
      "inputs": [
        {
          "internalType": "address",
          "name": "_newUserSoul",
          "type": "address"
        }
      ],
      "name": "changeUserSoulAddress",
      "outputs": [],
      "stateMutability": "nonpayable",
      "type": "function"
    },
    {
      "inputs": [
        {
          "internalType": "contract IERC20",
          "name": "_token",
          "type": "address"
        },
        {
          "internalType": "address",
          "name": "_seller",
          "type": "address"
        },
        {
          "internalType": "uint256",
          "name": "_price",
          "type": "uint256"
        },
        {
          "internalType": "string",
          "name": "_metadata",
          "type": "string"
        }
      ],
      "name": "createGig",
      "outputs": [
        {
          "internalType": "address",
          "name": "",
          "type": "address"
        }
      ],
      "stateMutability": "nonpayable",
      "type": "function"
    },
    {
      "inputs": [
        {
          "internalType": "address",
          "name": "_address",
          "type": "address"
        },
        {
          "internalType": "uint8",
          "name": "_status",
          "type": "uint8"
        }
      ],
      "name": "emitStatusEvent",
      "outputs": [],
      "stateMutability": "nonpayable",
      "type": "function"
    },
    {
      "inputs": [
        {
          "internalType": "address",
          "name": "_address",
          "type": "address"
        },
        {
          "internalType": "address",
          "name": "_voter",
          "type": "address"
        },
        {
          "internalType": "uint8",
          "name": "_vote",
          "type": "uint8"
        }
      ],
      "name": "emitVoteAdded",
      "outputs": [],
      "stateMutability": "nonpayable",
      "type": "function"
    },
    {
      "inputs": [],
      "name": "endTrialDelay",
      "outputs": [
        {
          "internalType": "uint256",
          "name": "",
          "type": "uint256"
        }
      ],
      "stateMutability": "view",
      "type": "function"
    },
    {
      "inputs": [],
      "name": "firstAffiliateFee",
      "outputs": [
        {
          "internalType": "uint256",
          "name": "",
          "type": "uint256"
        }
      ],
      "stateMutability": "view",
      "type": "function"
    },
    {
      "inputs": [],
      "name": "getBeacon",
      "outputs": [
        {
          "internalType": "address",
          "name": "",
          "type": "address"
        }
      ],
      "stateMutability": "view",
      "type": "function"
    },
    {
      "inputs": [
        {
          "internalType": "uint256",
          "name": "_x",
          "type": "uint256"
        }
      ],
      "name": "getGig",
      "outputs": [
        {
          "internalType": "address",
          "name": "",
          "type": "address"
        }
      ],
      "stateMutability": "view",
      "type": "function"
    },
    {
      "inputs": [],
      "name": "getImplementation",
      "outputs": [
        {
          "internalType": "address",
          "name": "",
          "type": "address"
        }
      ],
      "stateMutability": "view",
      "type": "function"
    },
    {
      "inputs": [
        {
          "internalType": "address",
          "name": "_address",
          "type": "address"
        }
      ],
      "name": "isFromGigFactory",
      "outputs": [
        {
          "internalType": "bool",
          "name": "",
          "type": "bool"
        }
      ],
      "stateMutability": "view",
      "type": "function"
    },
    {
      "inputs": [],
      "name": "judgeRetribution",
      "outputs": [
        {
          "internalType": "uint256",
          "name": "",
          "type": "uint256"
        }
      ],
      "stateMutability": "view",
      "type": "function"
    },
    {
      "inputs": [],
      "name": "nbGigs",
      "outputs": [
        {
          "internalType": "uint256",
          "name": "",
          "type": "uint256"
        }
      ],
      "stateMutability": "view",
      "type": "function"
    },
    {
      "inputs": [],
      "name": "owner",
      "outputs": [
        {
          "internalType": "address",
          "name": "",
          "type": "address"
        }
      ],
      "stateMutability": "view",
      "type": "function"
    },
    {
      "inputs": [],
      "name": "protocolRetribution",
      "outputs": [
        {
          "internalType": "uint256",
          "name": "",
          "type": "uint256"
        }
      ],
      "stateMutability": "view",
      "type": "function"
    },
    {
      "inputs": [],
      "name": "renounceOwnership",
      "outputs": [],
      "stateMutability": "nonpayable",
      "type": "function"
    },
    {
      "inputs": [],
      "name": "secondAffiliateFee",
      "outputs": [
        {
          "internalType": "uint256",
          "name": "",
          "type": "uint256"
        }
      ],
      "stateMutability": "view",
      "type": "function"
    },
    {
      "inputs": [
        {
          "internalType": "address",
          "name": "newOwner",
          "type": "address"
        }
      ],
      "name": "transferOwnership",
      "outputs": [],
      "stateMutability": "nonpayable",
      "type": "function"
    },
    {
      "inputs": [],
      "name": "trialTax",
      "outputs": [
        {
          "internalType": "uint256",
          "name": "",
          "type": "uint256"
        }
      ],
      "stateMutability": "view",
      "type": "function"
    },
    {
      "inputs": [],
      "name": "userSoul",
      "outputs": [
        {
          "internalType": "address",
          "name": "",
          "type": "address"
        }
      ],
      "stateMutability": "view",
      "type": "function"
    },
    {
      "inputs": [
        {
          "internalType": "address",
          "name": "_token",
          "type": "address"
        }
      ],
      "name": "withdrawJudgeRevenues",
      "outputs": [],
      "stateMutability": "nonpayable",
      "type": "function"
    }
  ],
  "bytecode": "0x60a06040526203f4806002556203f48060035560048055600960055560236006556005600755603c60085560436009556021600a553480156200004157600080fd5b5060405162004e0138038062004e0183398181016040528101906200006791906200026a565b620000876200007b6200015060201b60201c565b6200015860201b60201c565b81620000986200021c60201b60201c565b604051620000a69062000245565b620000b3929190620002bc565b604051809103906000f080158015620000d0573d6000803e3d6000fd5b5073ffffffffffffffffffffffffffffffffffffffff1660808173ffffffffffffffffffffffffffffffffffffffff1660601b8152505080600160006101000a81548173ffffffffffffffffffffffffffffffffffffffff021916908373ffffffffffffffffffffffffffffffffffffffff160217905550505062000337565b600033905090565b60008060009054906101000a900473ffffffffffffffffffffffffffffffffffffffff169050816000806101000a81548173ffffffffffffffffffffffffffffffffffffffff021916908373ffffffffffffffffffffffffffffffffffffffff1602179055508173ffffffffffffffffffffffffffffffffffffffff168173ffffffffffffffffffffffffffffffffffffffff167f8be0079c531659141344cd1fd0a4f28419497f9722a3daafe3b4186f6b6457e060405160405180910390a35050565b60008060009054906101000a900473ffffffffffffffffffffffffffffffffffffffff16905090565b6111578062003caa83390190565b60008151905062000264816200031d565b92915050565b600080604083850312156200027e57600080fd5b60006200028e8582860162000253565b9250506020620002a18582860162000253565b9150509250929050565b620002b681620002e9565b82525050565b6000604082019050620002d36000830185620002ab565b620002e26020830184620002ab565b9392505050565b6000620002f682620002fd565b9050919050565b600073ffffffffffffffffffffffffffffffffffffffff82169050919050565b6200032881620002e9565b81146200033457600080fd5b50565b60805160601c61394662000364600039600081816105e1015281816109930152610d8601526139466000f3fe60806040523480156200001157600080fd5b5060043610620001f05760003560e01c8063a60f12221162000111578063d4c01b7b11620000a5578063e9a7b712116200007b578063e9a7b712146200053b578063f0e5bc6b146200055b578063f2fde38b146200057d578063f528008f146200059d57620001f0565b8063d4c01b7b14620004c3578063e2730ab014620004e3578063e86f7b57146200050557620001f0565b8063b3479ed411620000e7578063b3479ed4146200042b578063c10e59911462000461578063cc7d21931462000481578063cd8dd6e514620004a357620001f0565b8063a60f122214620003c7578063aaf10f4214620003e7578063ab64fa48146200040957620001f0565b806370bd254011620001895780638433e4cc116200015f5780638433e4cc146200032f578063868e2e9c14620003655780638da5cb5b1462000385578063909fb04414620003a757620001f0565b806370bd254014620002e1578063715018a614620003015780637e57a8f3146200030d57620001f0565b80632d6b3a6b11620001cb5780632d6b3a6b146200025b5780633590d060146200027d57806339ded4e9146200029d57806347efd60714620002bf57620001f0565b80630578122214620001f557806306ac6a66146200021757806310628d041462000239575b600080fd5b620001ff620005bf565b6040516200020e91906200232a565b60405180910390f35b62000221620005c9565b6040516200023091906200232a565b60405180910390f35b62000243620005d3565b6040516200025291906200232a565b60405180910390f35b62000265620005dd565b60405162000274919062001efa565b60405180910390f35b6200029b600480360381019062000295919062001b03565b62000605565b005b620002a762000662565b604051620002b691906200232a565b60405180910390f35b620002c96200066c565b604051620002d8919062001efa565b60405180910390f35b620002ff6004803603810190620002f9919062001963565b62000696565b005b6200030b620006e4565b005b62000317620006fc565b6040516200032691906200232a565b60405180910390f35b6200034d600480360381019062000347919062001a7e565b62000706565b6040516200035c919062001efa565b60405180910390f35b6200038360048036038101906200037d919062001b03565b62000bd4565b005b6200038f62000c31565b6040516200039e919062001efa565b60405180910390f35b620003c56004803603810190620003bf919062001b5b565b62000c5a565b005b620003e56004803603810190620003df919062001b03565b62000d25565b005b620003f162000d82565b60405162000400919062001efa565b60405180910390f35b6200041362000e2b565b6040516200042291906200232a565b60405180910390f35b62000449600480360381019062000443919062001b03565b62000e35565b60405162000458919062001efa565b60405180910390f35b6200047f6004803603810190620004799190620019bb565b62000e72565b005b6200048b62000f43565b6040516200049a91906200232a565b60405180910390f35b620004c16004803603810190620004bb919062001963565b62000f4d565b005b620004e16004803603810190620004db919062001a11565b62001116565b005b620004ed620011e4565b604051620004fc91906200232a565b60405180910390f35b6200052360048036038101906200051d919062001963565b620011ee565b60405162000532919062002089565b60405180910390f35b62000559600480360381019062000553919062001b03565b62001244565b005b62000565620012a1565b6040516200057491906200232a565b60405180910390f35b6200059b600480360381019062000595919062001963565b620012ab565b005b620005a762001336565b604051620005b691906200232a565b60405180910390f35b6000600654905090565b6000600354905090565b6000600a54905090565b60007f0000000000000000000000000000000000000000000000000000000000000000905090565b6200060f62001340565b6212750081111562000658576040517f08c379a00000000000000000000000000000000000000000000000000000000081526004016200064f90620021f8565b60405180910390fd5b8060038190555050565b6000600454905090565b6000600160009054906101000a900473ffffffffffffffffffffffffffffffffffffffff16905090565b620006a062001340565b80600160006101000a81548173ffffffffffffffffffffffffffffffffffffffff021916908373ffffffffffffffffffffffffffffffffffffffff16021790555050565b620006ee62001340565b620006fa6000620013c5565b565b6000600d54905090565b600080859050600160009054906101000a900473ffffffffffffffffffffffffffffffffffffffff1673ffffffffffffffffffffffffffffffffffffffff16632f7398fb866040518263ffffffff1660e01b815260040162000769919062001efa565b60206040518083038186803b1580156200078257600080fd5b505afa15801562000797573d6000803e3d6000fd5b505050506040513d601f19601f82011682018060405250810190620007bd919062001a52565b158015620008795750600160009054906101000a900473ffffffffffffffffffffffffffffffffffffffff1673ffffffffffffffffffffffffffffffffffffffff16632f7398fb336040518263ffffffff1660e01b815260040162000823919062001efa565b60206040518083038186803b1580156200083c57600080fd5b505afa15801562000851573d6000803e3d6000fd5b505050506040513d601f19601f8201168201806040525081019062000877919062001a52565b155b620008bb576040517f08c379a0000000000000000000000000000000000000000000000000000000008152600401620008b2906200221a565b60405180910390fd5b838173ffffffffffffffffffffffffffffffffffffffff166370a08231336040518263ffffffff1660e01b8152600401620008f7919062001efa565b60206040518083038186803b1580156200091057600080fd5b505afa15801562000925573d6000803e3d6000fd5b505050506040513d601f19601f820116820180604052508101906200094b919062001b2f565b10156200098f576040517f08c379a0000000000000000000000000000000000000000000000000000000008152600401620009869062002170565b60405180910390fd5b60007f0000000000000000000000000000000000000000000000000000000000000000634d1d1bf760e01b8833898989600d54600160009054906101000a900473ffffffffffffffffffffffffffffffffffffffff16604051602401620009fd9796959493929190620020a6565b604051602081830303815290604052907bffffffffffffffffffffffffffffffffffffffffffffffffffffffff19166020820180517bffffffffffffffffffffffffffffffffffffffffffffffffffffffff838183161783525050505060405162000a689062001842565b62000a7592919062001ffb565b604051809103906000f08015801562000a92573d6000803e3d6000fd5b50905080600b6000600d54815260200190815260200160002060006101000a81548173ffffffffffffffffffffffffffffffffffffffff021916908373ffffffffffffffffffffffffffffffffffffffff1602179055506001600c60008373ffffffffffffffffffffffffffffffffffffffff1673ffffffffffffffffffffffffffffffffffffffff16815260200190815260200160002060006101000a81548160ff021916908315150217905550600d600081548092919062000b569062002554565b919050555062000b8a3382878573ffffffffffffffffffffffffffffffffffffffff1662001489909392919063ffffffff16565b7f5997667c5d471098262cb5109c5d1df9a76627a420b9a8787def6d836ce8612a81338860405162000bbf9392919062001f44565b60405180910390a18092505050949350505050565b62000bde62001340565b62093a8081111562000c27576040517f08c379a000000000000000000000000000000000000000000000000000000000815260040162000c1e9062002308565b60405180910390fd5b8060028190555050565b60008060009054906101000a900473ffffffffffffffffffffffffffffffffffffffff16905090565b62000c6462001340565b601481101562000cab576040517f08c379a000000000000000000000000000000000000000000000000000000000815260040162000ca2906200223c565b60405180910390fd5b606481838562000cbc9190620023e9565b62000cc89190620023e9565b1462000d0b576040517f08c379a000000000000000000000000000000000000000000000000000000000815260040162000d029062002280565b60405180910390fd5b826006819055508160078190555080600881905550505050565b80600a81111562000d6d576040517f08c379a000000000000000000000000000000000000000000000000000000000815260040162000d6490620021b4565b60405180910390fd5b62000d7762001340565b816004819055505050565b60007f000000000000000000000000000000000000000000000000000000000000000073ffffffffffffffffffffffffffffffffffffffff16635c60da1b6040518163ffffffff1660e01b815260040160206040518083038186803b15801562000deb57600080fd5b505afa15801562000e00573d6000803e3d6000fd5b505050506040513d601f19601f8201168201806040525081019062000e2691906200198f565b905090565b6000600754905090565b6000600b600083815260200190815260200160002060009054906101000a900473ffffffffffffffffffffffffffffffffffffffff169050919050565b600c60003373ffffffffffffffffffffffffffffffffffffffff1673ffffffffffffffffffffffffffffffffffffffff16815260200190815260200160002060009054906101000a900460ff1662000f01576040517f08c379a000000000000000000000000000000000000000000000000000000000815260040162000ef8906200214e565b60405180910390fd5b7f67bcf457c1ec665214616573271d3d18faed889a62e924373561a59dda83a08883838360405162000f369392919062001fbe565b60405180910390a1505050565b6000600254905090565b6000600160009054906101000a900473ffffffffffffffffffffffffffffffffffffffff1673ffffffffffffffffffffffffffffffffffffffff1663fc2a422633846040518363ffffffff1660e01b815260040162000fae92919062001f17565b602060405180830381600087803b15801562000fc957600080fd5b505af115801562000fde573d6000803e3d6000fd5b505050506040513d601f19601f8201168201806040525081019062001004919062001b2f565b9050600081116200104c576040517f08c379a00000000000000000000000000000000000000000000000000000000081526004016200104390620022c4565b60405180910390fd5b6000829050600160009054906101000a900473ffffffffffffffffffffffffffffffffffffffff1673ffffffffffffffffffffffffffffffffffffffff1663c1926b6c33856040518363ffffffff1660e01b8152600401620010b092919062001f17565b600060405180830381600087803b158015620010cb57600080fd5b505af1158015620010e0573d6000803e3d6000fd5b505050506200111133838373ffffffffffffffffffffffffffffffffffffffff16620015169092919063ffffffff16565b505050565b600c60003373ffffffffffffffffffffffffffffffffffffffff1673ffffffffffffffffffffffffffffffffffffffff16815260200190815260200160002060009054906101000a900460ff16620011a5576040517f08c379a00000000000000000000000000000000000000000000000000000000081526004016200119c906200214e565b60405180910390fd5b7fa20f3853a18feb20ffa646e23fefc20ddafd4b9f36b8e8ce49535ccf912d58f78282604051620011d89291906200205c565b60405180910390a15050565b6000600554905090565b6000600c60008373ffffffffffffffffffffffffffffffffffffffff1673ffffffffffffffffffffffffffffffffffffffff16815260200190815260200160002060009054906101000a900460ff169050919050565b80600a8111156200128c576040517f08c379a00000000000000000000000000000000000000000000000000000000081526004016200128390620021b4565b60405180910390fd5b6200129662001340565b816005819055505050565b6000600854905090565b620012b562001340565b600073ffffffffffffffffffffffffffffffffffffffff168173ffffffffffffffffffffffffffffffffffffffff16141562001328576040517f08c379a00000000000000000000000000000000000000000000000000000000081526004016200131f9062002192565b60405180910390fd5b6200133381620013c5565b50565b6000600954905090565b6200134a620015a0565b73ffffffffffffffffffffffffffffffffffffffff166200136a62000c31565b73ffffffffffffffffffffffffffffffffffffffff1614620013c3576040517f08c379a0000000000000000000000000000000000000000000000000000000008152600401620013ba906200225e565b60405180910390fd5b565b60008060009054906101000a900473ffffffffffffffffffffffffffffffffffffffff169050816000806101000a81548173ffffffffffffffffffffffffffffffffffffffff021916908373ffffffffffffffffffffffffffffffffffffffff1602179055508173ffffffffffffffffffffffffffffffffffffffff168173ffffffffffffffffffffffffffffffffffffffff167f8be0079c531659141344cd1fd0a4f28419497f9722a3daafe3b4186f6b6457e060405160405180910390a35050565b62001510846323b872dd60e01b858585604051602401620014ad9392919062001f81565b604051602081830303815290604052907bffffffffffffffffffffffffffffffffffffffffffffffffffffffff19166020820180517bffffffffffffffffffffffffffffffffffffffffffffffffffffffff8381831617835250505050620015a8565b50505050565b6200159b8363a9059cbb60e01b8484604051602401620015389291906200202f565b604051602081830303815290604052907bffffffffffffffffffffffffffffffffffffffffffffffffffffffff19166020820180517bffffffffffffffffffffffffffffffffffffffffffffffffffffffff8381831617835250505050620015a8565b505050565b600033905090565b60006200160c826040518060400160405280602081526020017f5361666545524332303a206c6f772d6c6576656c2063616c6c206661696c65648152508573ffffffffffffffffffffffffffffffffffffffff16620016779092919063ffffffff16565b90506000815111156200167257808060200190518101906200162f919062001a52565b62001671576040517f08c379a00000000000000000000000000000000000000000000000000000000081526004016200166890620022e6565b60405180910390fd5b5b505050565b606062001688848460008562001691565b90509392505050565b606082471015620016d9576040517f08c379a0000000000000000000000000000000000000000000000000000000008152600401620016d090620021d6565b60405180910390fd5b620016e485620017b3565b62001726576040517f08c379a00000000000000000000000000000000000000000000000000000000081526004016200171d90620022a2565b60405180910390fd5b6000808673ffffffffffffffffffffffffffffffffffffffff16858760405162001751919062001ee1565b60006040518083038185875af1925050503d806000811462001790576040519150601f19603f3d011682016040523d82523d6000602084013e62001795565b606091505b5091509150620017a7828286620017d6565b92505050949350505050565b6000808273ffffffffffffffffffffffffffffffffffffffff163b119050919050565b60608315620017e8578290506200183b565b600083511115620017fc5782518084602001fd5b816040517f08c379a00000000000000000000000000000000000000000000000000000000081526004016200183291906200212a565b60405180910390fd5b9392505050565b610f5b80620029b683390190565b600062001867620018618462002370565b62002347565b9050828152602081018484840111156200188057600080fd5b6200188d848285620024d9565b509392505050565b600081359050620018a68162002933565b92915050565b600081519050620018bd8162002933565b92915050565b600081519050620018d4816200294d565b92915050565b600081359050620018eb8162002967565b92915050565b600082601f8301126200190357600080fd5b81356200191584826020860162001850565b91505092915050565b6000813590506200192f8162002981565b92915050565b600081519050620019468162002981565b92915050565b6000813590506200195d816200299b565b92915050565b6000602082840312156200197657600080fd5b6000620019868482850162001895565b91505092915050565b600060208284031215620019a257600080fd5b6000620019b284828501620018ac565b91505092915050565b600080600060608486031215620019d157600080fd5b6000620019e18682870162001895565b9350506020620019f48682870162001895565b925050604062001a07868287016200194c565b9150509250925092565b6000806040838503121562001a2557600080fd5b600062001a358582860162001895565b925050602062001a48858286016200194c565b9150509250929050565b60006020828403121562001a6557600080fd5b600062001a7584828501620018c3565b91505092915050565b6000806000806080858703121562001a9557600080fd5b600062001aa587828801620018da565b945050602062001ab88782880162001895565b935050604062001acb878288016200191e565b925050606085013567ffffffffffffffff81111562001ae957600080fd5b62001af787828801620018f1565b91505092959194509250565b60006020828403121562001b1657600080fd5b600062001b26848285016200191e565b91505092915050565b60006020828403121562001b4257600080fd5b600062001b528482850162001935565b91505092915050565b60008060006060848603121562001b7157600080fd5b600062001b81868287016200191e565b935050602062001b94868287016200191e565b925050604062001ba7868287016200191e565b9150509250925092565b62001bbc8162002446565b82525050565b62001bcd816200245a565b82525050565b600062001be082620023a6565b62001bec8185620023bc565b935062001bfe818560208601620024e8565b62001c098162002600565b840191505092915050565b600062001c2182620023a6565b62001c2d8185620023cd565b935062001c3f818560208601620024e8565b80840191505092915050565b62001c5681620024b1565b82525050565b600062001c6982620023b1565b62001c758185620023d8565b935062001c87818560208601620024e8565b62001c928162002600565b840191505092915050565b600062001cac601e83620023d8565b915062001cb98262002611565b602082019050919050565b600062001cd3601c83620023d8565b915062001ce0826200263a565b602082019050919050565b600062001cfa602683620023d8565b915062001d078262002663565b604082019050919050565b600062001d21601883620023d8565b915062001d2e82620026b2565b602082019050919050565b600062001d48602683620023d8565b915062001d5582620026db565b604082019050919050565b600062001d6f602083620023d8565b915062001d7c826200272a565b602082019050919050565b600062001d96602183620023d8565b915062001da38262002753565b604082019050919050565b600062001dbd602083620023d8565b915062001dca82620027a2565b602082019050919050565b600062001de4602083620023d8565b915062001df182620027cb565b602082019050919050565b600062001e0b602283620023d8565b915062001e1882620027f4565b604082019050919050565b600062001e32601d83620023d8565b915062001e3f8262002843565b602082019050919050565b600062001e59601083620023d8565b915062001e66826200286c565b602082019050919050565b600062001e80602a83620023d8565b915062001e8d8262002895565b604082019050919050565b600062001ea7602283620023d8565b915062001eb482620028e4565b604082019050919050565b62001eca816200249a565b82525050565b62001edb81620024a4565b82525050565b600062001eef828462001c14565b915081905092915050565b600060208201905062001f11600083018462001bb1565b92915050565b600060408201905062001f2e600083018562001bb1565b62001f3d602083018462001bb1565b9392505050565b600060608201905062001f5b600083018662001bb1565b62001f6a602083018562001bb1565b62001f79604083018462001bb1565b949350505050565b600060608201905062001f98600083018662001bb1565b62001fa7602083018562001bb1565b62001fb6604083018462001ebf565b949350505050565b600060608201905062001fd5600083018662001bb1565b62001fe4602083018562001bb1565b62001ff3604083018462001ed0565b949350505050565b600060408201905062002012600083018562001bb1565b818103602083015262002026818462001bd3565b90509392505050565b600060408201905062002046600083018562001bb1565b62002055602083018462001ebf565b9392505050565b600060408201905062002073600083018562001bb1565b62002082602083018462001ed0565b9392505050565b6000602082019050620020a0600083018462001bc2565b92915050565b600060e082019050620020bd600083018a62001c4b565b620020cc602083018962001bb1565b620020db604083018862001bb1565b620020ea606083018762001ebf565b8181036080830152620020fe818662001c5c565b90506200210f60a083018562001ebf565b6200211e60c083018462001bb1565b98975050505050505050565b6000602082019050818103600083015262002146818462001c5c565b905092915050565b60006020820190508181036000830152620021698162001c9d565b9050919050565b600060208201905081810360008301526200218b8162001cc4565b9050919050565b60006020820190508181036000830152620021ad8162001ceb565b9050919050565b60006020820190508181036000830152620021cf8162001d12565b9050919050565b60006020820190508181036000830152620021f18162001d39565b9050919050565b60006020820190508181036000830152620022138162001d60565b9050919050565b60006020820190508181036000830152620022358162001d87565b9050919050565b60006020820190508181036000830152620022578162001dae565b9050919050565b60006020820190508181036000830152620022798162001dd5565b9050919050565b600060208201905081810360008301526200229b8162001dfc565b9050919050565b60006020820190508181036000830152620022bd8162001e23565b9050919050565b60006020820190508181036000830152620022df8162001e4a565b9050919050565b60006020820190508181036000830152620023018162001e71565b9050919050565b60006020820190508181036000830152620023238162001e98565b9050919050565b600060208201905062002341600083018462001ebf565b92915050565b60006200235362002366565b90506200236182826200251e565b919050565b6000604051905090565b600067ffffffffffffffff8211156200238e576200238d620025d1565b5b620023998262002600565b9050602081019050919050565b600081519050919050565b600081519050919050565b600082825260208201905092915050565b600081905092915050565b600082825260208201905092915050565b6000620023f6826200249a565b915062002403836200249a565b9250827fffffffffffffffffffffffffffffffffffffffffffffffffffffffffffffffff038211156200243b576200243a620025a2565b5b828201905092915050565b600062002453826200247a565b9050919050565b60008115159050919050565b6000620024738262002446565b9050919050565b600073ffffffffffffffffffffffffffffffffffffffff82169050919050565b6000819050919050565b600060ff82169050919050565b6000620024be82620024c5565b9050919050565b6000620024d2826200247a565b9050919050565b82818337600083830152505050565b60005b8381101562002508578082015181840152602081019050620024eb565b8381111562002518576000848401525b50505050565b620025298262002600565b810181811067ffffffffffffffff821117156200254b576200254a620025d1565b5b80604052505050565b600062002561826200249a565b91507fffffffffffffffffffffffffffffffffffffffffffffffffffffffffffffffff821415620025975762002596620025a2565b5b600182019050919050565b7f4e487b7100000000000000000000000000000000000000000000000000000000600052601160045260246000fd5b7f4e487b7100000000000000000000000000000000000000000000000000000000600052604160045260246000fd5b6000601f19601f8301169050919050565b7f4d7573742062652063616c6c20627920612067696720636f6e74726163740000600082015250565b7f5573657220646f6e2774206861766520656e6f756768206d6f6e657900000000600082015250565b7f4f776e61626c653a206e6577206f776e657220697320746865207a65726f206160008201527f6464726573730000000000000000000000000000000000000000000000000000602082015250565b7f4665652063616e27742062652073657420617320686967680000000000000000600082015250565b7f416464726573733a20696e73756666696369656e742062616c616e636520666f60008201527f722063616c6c0000000000000000000000000000000000000000000000000000602082015250565b7f456e6420547269616c2044656c61792063616e27742062652061732068696768600082015250565b7f4275796572206f722073656c6c65722073686f756c64206e6f7420626520626160008201527f6e00000000000000000000000000000000000000000000000000000000000000602082015250565b7f5265747269627574696f6e2063616e2774206265207365742061732068696768600082015250565b7f4f776e61626c653a2063616c6c6572206973206e6f7420746865206f776e6572600082015250565b7f526565746972627574696f6e206d75737420626520657175616c20746f20313060008201527f3025000000000000000000000000000000000000000000000000000000000000602082015250565b7f416464726573733a2063616c6c20746f206e6f6e2d636f6e7472616374000000600082015250565b7f43616e2774207769746864726177203000000000000000000000000000000000600082015250565b7f5361666545524332303a204552433230206f7065726174696f6e20646964206e60008201527f6f74207375636365656400000000000000000000000000000000000000000000602082015250565b7f4175746f20726566756e642044656c61792063616e277420626520617320686960008201527f6768000000000000000000000000000000000000000000000000000000000000602082015250565b6200293e8162002446565b81146200294a57600080fd5b50565b62002958816200245a565b81146200296457600080fd5b50565b620029728162002466565b81146200297e57600080fd5b50565b6200298c816200249a565b81146200299857600080fd5b50565b620029a681620024a4565b8114620029b257600080fd5b5056fe608060405260405162000f5b38038062000f5b833981810160405281019062000029919062000563565b6200003d828260006200004560201b60201c565b5050620009c5565b62000056836200014c60201b60201c565b8273ffffffffffffffffffffffffffffffffffffffff167f1cf3b03a6cf19fa2baba4df148e9dcabedea7f8a5c07840e207e5c089be95d3e60405160405180910390a2600082511180620000a75750805b156200014757620001458373ffffffffffffffffffffffffffffffffffffffff16635c60da1b6040518163ffffffff1660e01b815260040160206040518083038186803b158015620000f857600080fd5b505afa1580156200010d573d6000803e3d6000fd5b505050506040513d601f19601f8201168201806040525081019062000133919062000537565b83620002fb60201b620000371760201c565b505b505050565b62000162816200033160201b620000641760201c565b620001a4576040517f08c379a00000000000000000000000000000000000000000000000000000000081526004016200019b90620006e7565b60405180910390fd5b6200023b8173ffffffffffffffffffffffffffffffffffffffff16635c60da1b6040518163ffffffff1660e01b815260040160206040518083038186803b158015620001ef57600080fd5b505afa15801562000204573d6000803e3d6000fd5b505050506040513d601f19601f820116820180604052508101906200022a919062000537565b6200033160201b620000641760201c565b6200027d576040517f08c379a000000000000000000000000000000000000000000000000000000000815260040162000274906200072b565b60405180910390fd5b80620002b77fa3f0ad74e5423aebfd80d3ef4346578335a9a72aeaee59ff6cb3582b35133d5060001b6200035460201b620000871760201c565b60000160006101000a81548173ffffffffffffffffffffffffffffffffffffffff021916908373ffffffffffffffffffffffffffffffffffffffff16021790555050565b606062000329838360405180606001604052806027815260200162000f34602791396200035e60201b60201c565b905092915050565b6000808273ffffffffffffffffffffffffffffffffffffffff163b119050919050565b6000819050919050565b606062000371846200033160201b60201c565b620003b3576040517f08c379a0000000000000000000000000000000000000000000000000000000008152600401620003aa9062000709565b60405180910390fd5b6000808573ffffffffffffffffffffffffffffffffffffffff1685604051620003dd9190620006aa565b600060405180830381855af49150503d80600081146200041a576040519150601f19603f3d011682016040523d82523d6000602084013e6200041f565b606091505b5091509150620004378282866200044260201b60201c565b925050509392505050565b606083156200045457829050620004a7565b600083511115620004685782518084602001fd5b816040517f08c379a00000000000000000000000000000000000000000000000000000000081526004016200049e9190620006c3565b60405180910390fd5b9392505050565b6000620004c5620004bf8462000776565b6200074d565b905082815260208101848484011115620004de57600080fd5b620004eb84828562000812565b509392505050565b6000815190506200050481620009ab565b92915050565b600082601f8301126200051c57600080fd5b81516200052e848260208601620004ae565b91505092915050565b6000602082840312156200054a57600080fd5b60006200055a84828501620004f3565b91505092915050565b600080604083850312156200057757600080fd5b60006200058785828601620004f3565b925050602083015167ffffffffffffffff811115620005a557600080fd5b620005b3858286016200050a565b9150509250929050565b6000620005ca82620007ac565b620005d68185620007c2565b9350620005e881856020860162000812565b80840191505092915050565b60006200060182620007b7565b6200060d8185620007cd565b93506200061f81856020860162000812565b6200062a81620008ad565b840191505092915050565b600062000644602583620007cd565b91506200065182620008be565b604082019050919050565b60006200066b602683620007cd565b915062000678826200090d565b604082019050919050565b600062000692603083620007cd565b91506200069f826200095c565b604082019050919050565b6000620006b88284620005bd565b915081905092915050565b60006020820190508181036000830152620006df8184620005f4565b905092915050565b60006020820190508181036000830152620007028162000635565b9050919050565b6000602082019050818103600083015262000724816200065c565b9050919050565b60006020820190508181036000830152620007468162000683565b9050919050565b6000620007596200076c565b905062000767828262000848565b919050565b6000604051905090565b600067ffffffffffffffff8211156200079457620007936200087e565b5b6200079f82620008ad565b9050602081019050919050565b600081519050919050565b600081519050919050565b600081905092915050565b600082825260208201905092915050565b6000620007eb82620007f2565b9050919050565b600073ffffffffffffffffffffffffffffffffffffffff82169050919050565b60005b838110156200083257808201518184015260208101905062000815565b8381111562000842576000848401525b50505050565b6200085382620008ad565b810181811067ffffffffffffffff821117156200087557620008746200087e565b5b80604052505050565b7f4e487b7100000000000000000000000000000000000000000000000000000000600052604160045260246000fd5b6000601f19601f8301169050919050565b7f455243313936373a206e657720626561636f6e206973206e6f74206120636f6e60008201527f7472616374000000000000000000000000000000000000000000000000000000602082015250565b7f416464726573733a2064656c65676174652063616c6c20746f206e6f6e2d636f60008201527f6e74726163740000000000000000000000000000000000000000000000000000602082015250565b7f455243313936373a20626561636f6e20696d706c656d656e746174696f6e206960008201527f73206e6f74206120636f6e747261637400000000000000000000000000000000602082015250565b620009b681620007de565b8114620009c257600080fd5b50565b61055f80620009d56000396000f3fe6080604052366100135761001161001d565b005b61001b61001d565b005b610025610091565b610035610030610093565b61011f565b565b606061005c838360405180606001604052806027815260200161050360279139610145565b905092915050565b6000808273ffffffffffffffffffffffffffffffffffffffff163b119050919050565b6000819050919050565b565b600061009d610212565b73ffffffffffffffffffffffffffffffffffffffff16635c60da1b6040518163ffffffff1660e01b815260040160206040518083038186803b1580156100e257600080fd5b505afa1580156100f6573d6000803e3d6000fd5b505050506040513d601f19601f8201168201806040525081019061011a91906102e5565b905090565b3660008037600080366000845af43d6000803e8060008114610140573d6000f35b3d6000fd5b606061015084610064565b61018f576040517f08c379a0000000000000000000000000000000000000000000000000000000008152600401610186906103d4565b60405180910390fd5b6000808573ffffffffffffffffffffffffffffffffffffffff16856040516101b7919061039b565b600060405180830381855af49150503d80600081146101f2576040519150601f19603f3d011682016040523d82523d6000602084013e6101f7565b606091505b5091509150610207828286610269565b925050509392505050565b60006102407fa3f0ad74e5423aebfd80d3ef4346578335a9a72aeaee59ff6cb3582b35133d5060001b610087565b60000160009054906101000a900473ffffffffffffffffffffffffffffffffffffffff16905090565b60608315610279578290506102c9565b60008351111561028c5782518084602001fd5b816040517f08c379a00000000000000000000000000000000000000000000000000000000081526004016102c091906103b2565b60405180910390fd5b9392505050565b6000815190506102df816104eb565b92915050565b6000602082840312156102f757600080fd5b6000610305848285016102d0565b91505092915050565b6000610319826103f4565b610323818561040a565b9350610333818560208601610458565b80840191505092915050565b600061034a826103ff565b6103548185610415565b9350610364818560208601610458565b61036d8161048b565b840191505092915050565b6000610385602683610415565b91506103908261049c565b604082019050919050565b60006103a7828461030e565b915081905092915050565b600060208201905081810360008301526103cc818461033f565b905092915050565b600060208201905081810360008301526103ed81610378565b9050919050565b600081519050919050565b600081519050919050565b600081905092915050565b600082825260208201905092915050565b600061043182610438565b9050919050565b600073ffffffffffffffffffffffffffffffffffffffff82169050919050565b60005b8381101561047657808201518184015260208101905061045b565b83811115610485576000848401525b50505050565b6000601f19601f8301169050919050565b7f416464726573733a2064656c65676174652063616c6c20746f206e6f6e2d636f60008201527f6e74726163740000000000000000000000000000000000000000000000000000602082015250565b6104f481610426565b81146104ff57600080fd5b5056fe416464726573733a206c6f772d6c6576656c2064656c65676174652063616c6c206661696c6564a2646970667358221220156153700ed8d760ca956d418df233ea6b90327fb3232516b80079df03f5709164736f6c63430008040033416464726573733a206c6f772d6c6576656c2064656c65676174652063616c6c206661696c6564a2646970667358221220cc1a029eecac133b592f7c7c2d22b4868955b187c2d6acc34d5e9ec5b6b504d564736f6c6343000804003360a060405234801561001057600080fd5b5060405161115738038061115783398181016040528101906100329190610146565b8160405161003f90610124565b6100499190610191565b604051809103906000f080158015610065573d6000803e3d6000fd5b5073ffffffffffffffffffffffffffffffffffffffff1660808173ffffffffffffffffffffffffffffffffffffffff1660601b81525050816000806101000a81548173ffffffffffffffffffffffffffffffffffffffff021916908373ffffffffffffffffffffffffffffffffffffffff16021790555080600160006101000a81548173ffffffffffffffffffffffffffffffffffffffff021916908373ffffffffffffffffffffffffffffffffffffffff16021790555050506101f5565b6109be8061079983390190565b600081519050610140816101de565b92915050565b6000806040838503121561015957600080fd5b600061016785828601610131565b925050602061017885828601610131565b9150509250929050565b61018b816101ac565b82525050565b60006020820190506101a66000830184610182565b92915050565b60006101b7826101be565b9050919050565b600073ffffffffffffffffffffffffffffffffffffffff82169050919050565b6101e7816101ac565b81146101f257600080fd5b50565b60805160601c61057f61021a6000396000818161016501526102ee015261057f6000f3fe608060405234801561001057600080fd5b50600436106100575760003560e01c80631c1b87721461005c5780632af4c31e146100785780635c60da1b146100945780638da5cb5b146100b2578063c5557f3f146100d0575b600080fd5b61007660048036038101906100719190610407565b6100ee565b005b610092600480360381019061008d9190610407565b610231565b005b61009c6102ea565b6040516100a9919061048b565b60405180910390f35b6100ba61038f565b6040516100c7919061048b565b60405180910390f35b6100d86103b9565b6040516100e5919061048b565b60405180910390f35b6100f661038f565b73ffffffffffffffffffffffffffffffffffffffff163373ffffffffffffffffffffffffffffffffffffffff1614610163576040517f08c379a000000000000000000000000000000000000000000000000000000000815260040161015a906104a6565b60405180910390fd5b7f000000000000000000000000000000000000000000000000000000000000000073ffffffffffffffffffffffffffffffffffffffff16633659cfe6826040518263ffffffff1660e01b81526004016101bc919061048b565b600060405180830381600087803b1580156101d657600080fd5b505af11580156101ea573d6000803e3d6000fd5b50505050806000806101000a81548173ffffffffffffffffffffffffffffffffffffffff021916908373ffffffffffffffffffffffffffffffffffffffff16021790555050565b61023961038f565b73ffffffffffffffffffffffffffffffffffffffff163373ffffffffffffffffffffffffffffffffffffffff16146102a6576040517f08c379a000000000000000000000000000000000000000000000000000000000815260040161029d906104a6565b60405180910390fd5b80600160006101000a81548173ffffffffffffffffffffffffffffffffffffffff021916908373ffffffffffffffffffffffffffffffffffffffff16021790555050565b60007f000000000000000000000000000000000000000000000000000000000000000073ffffffffffffffffffffffffffffffffffffffff16635c60da1b6040518163ffffffff1660e01b815260040160206040518083038186803b15801561035257600080fd5b505afa158015610366573d6000803e3d6000fd5b505050506040513d601f19601f8201168201806040525081019061038a9190610430565b905090565b6000600160009054906101000a900473ffffffffffffffffffffffffffffffffffffffff16905090565b60008054906101000a900473ffffffffffffffffffffffffffffffffffffffff1681565b6000813590506103ec81610532565b92915050565b60008151905061040181610532565b92915050565b60006020828403121561041957600080fd5b6000610427848285016103dd565b91505092915050565b60006020828403121561044257600080fd5b6000610450848285016103f2565b91505092915050565b610462816104d7565b82525050565b6000610475600e836104c6565b915061048082610509565b602082019050919050565b60006020820190506104a06000830184610459565b92915050565b600060208201905081810360008301526104bf81610468565b9050919050565b600082825260208201905092915050565b60006104e2826104e9565b9050919050565b600073ffffffffffffffffffffffffffffffffffffffff82169050919050565b7f4f6e6c7920666f72204f776e6572000000000000000000000000000000000000600082015250565b61053b816104d7565b811461054657600080fd5b5056fea26469706673582212209ec75d098c02f6f9ba6cc6f73870aa5f39df908183f2d038a29cacdb50ab273164736f6c63430008040033608060405234801561001057600080fd5b506040516109be3803806109be833981810160405281019061003291906101fd565b61004e61004361006360201b60201c565b61006b60201b60201c565b61005d8161012f60201b60201c565b50610312565b600033905090565b60008060009054906101000a900473ffffffffffffffffffffffffffffffffffffffff169050816000806101000a81548173ffffffffffffffffffffffffffffffffffffffff021916908373ffffffffffffffffffffffffffffffffffffffff1602179055508173ffffffffffffffffffffffffffffffffffffffff168173ffffffffffffffffffffffffffffffffffffffff167f8be0079c531659141344cd1fd0a4f28419497f9722a3daafe3b4186f6b6457e060405160405180910390a35050565b610142816101c560201b61021c1760201c565b610181576040517f08c379a000000000000000000000000000000000000000000000000000000000815260040161017890610249565b60405180910390fd5b80600160006101000a81548173ffffffffffffffffffffffffffffffffffffffff021916908373ffffffffffffffffffffffffffffffffffffffff16021790555050565b6000808273ffffffffffffffffffffffffffffffffffffffff163b119050919050565b6000815190506101f7816102fb565b92915050565b60006020828403121561020f57600080fd5b600061021d848285016101e8565b91505092915050565b6000610233603383610269565b915061023e826102ac565b604082019050919050565b6000602082019050818103600083015261026281610226565b9050919050565b600082825260208201905092915050565b60006102858261028c565b9050919050565b600073ffffffffffffffffffffffffffffffffffffffff82169050919050565b7f5570677261646561626c65426561636f6e3a20696d706c656d656e746174696f60008201527f6e206973206e6f74206120636f6e747261637400000000000000000000000000602082015250565b6103048161027a565b811461030f57600080fd5b50565b61069d806103216000396000f3fe608060405234801561001057600080fd5b50600436106100575760003560e01c80633659cfe61461005c5780635c60da1b14610078578063715018a6146100965780638da5cb5b146100a0578063f2fde38b146100be575b600080fd5b6100766004803603810190610071919061042a565b6100da565b005b610080610131565b60405161008d91906104cb565b60405180910390f35b61009e61015b565b005b6100a861016f565b6040516100b591906104cb565b60405180910390f35b6100d860048036038101906100d3919061042a565b610198565b005b6100e261023f565b6100eb816102bd565b8073ffffffffffffffffffffffffffffffffffffffff167fbc7cd75a20ee27fd9adebab32041f755214dbc6bffa90cc0225b39da2e5c2d3b60405160405180910390a250565b6000600160009054906101000a900473ffffffffffffffffffffffffffffffffffffffff16905090565b61016361023f565b61016d6000610349565b565b60008060009054906101000a900473ffffffffffffffffffffffffffffffffffffffff16905090565b6101a061023f565b600073ffffffffffffffffffffffffffffffffffffffff168173ffffffffffffffffffffffffffffffffffffffff161415610210576040517f08c379a0000000000000000000000000000000000000000000000000000000008152600401610207906104e6565b60405180910390fd5b61021981610349565b50565b6000808273ffffffffffffffffffffffffffffffffffffffff163b119050919050565b61024761040d565b73ffffffffffffffffffffffffffffffffffffffff1661026561016f565b73ffffffffffffffffffffffffffffffffffffffff16146102bb576040517f08c379a00000000000000000000000000000000000000000000000000000000081526004016102b290610526565b60405180910390fd5b565b6102c68161021c565b610305576040517f08c379a00000000000000000000000000000000000000000000000000000000081526004016102fc90610506565b60405180910390fd5b80600160006101000a81548173ffffffffffffffffffffffffffffffffffffffff021916908373ffffffffffffffffffffffffffffffffffffffff16021790555050565b60008060009054906101000a900473ffffffffffffffffffffffffffffffffffffffff169050816000806101000a81548173ffffffffffffffffffffffffffffffffffffffff021916908373ffffffffffffffffffffffffffffffffffffffff1602179055508173ffffffffffffffffffffffffffffffffffffffff168173ffffffffffffffffffffffffffffffffffffffff167f8be0079c531659141344cd1fd0a4f28419497f9722a3daafe3b4186f6b6457e060405160405180910390a35050565b600033905090565b60008135905061042481610650565b92915050565b60006020828403121561043c57600080fd5b600061044a84828501610415565b91505092915050565b61045c81610557565b82525050565b600061046f602683610546565b915061047a82610589565b604082019050919050565b6000610492603383610546565b915061049d826105d8565b604082019050919050565b60006104b5602083610546565b91506104c082610627565b602082019050919050565b60006020820190506104e06000830184610453565b92915050565b600060208201905081810360008301526104ff81610462565b9050919050565b6000602082019050818103600083015261051f81610485565b9050919050565b6000602082019050818103600083015261053f816104a8565b9050919050565b600082825260208201905092915050565b600061056282610569565b9050919050565b600073ffffffffffffffffffffffffffffffffffffffff82169050919050565b7f4f776e61626c653a206e6577206f776e657220697320746865207a65726f206160008201527f6464726573730000000000000000000000000000000000000000000000000000602082015250565b7f5570677261646561626c65426561636f6e3a20696d706c656d656e746174696f60008201527f6e206973206e6f74206120636f6e747261637400000000000000000000000000602082015250565b7f4f776e61626c653a2063616c6c6572206973206e6f7420746865206f776e6572600082015250565b61065981610557565b811461066457600080fd5b5056fea26469706673582212202338b0d6c7b55cef16dee06fd64cb14086dd2401987ecc08bdc88a3e2313ae6564736f6c63430008040033",
  "linkReferences": {},
  "deployedLinkReferences": {}
}