{
  "_format": "hh-sol-artifact-1",
  "contractName": "GigFactory",
  "sourceName": "contracts/GigFactory.sol",
  "abi": [
    {
      "inputs": [
        {
          "internalType": "address",
          "name": "_vLogic",
          "type": "address"
        },
        {
          "internalType": "address",
          "name": "_newUserSoul",
          "type": "address"
        }
      ],
      "stateMutability": "nonpayable",
      "type": "constructor"
    },
    {
      "anonymous": false,
      "inputs": [
        {
          "indexed": false,
          "internalType": "address",
          "name": "_gigAddress",
          "type": "address"
        },
        {
          "indexed": false,
          "internalType": "address",
          "name": "_buyer",
          "type": "address"
        },
        {
          "indexed": false,
          "internalType": "address",
          "name": "_seller",
          "type": "address"
        }
      ],
      "name": "GigCreated",
      "type": "event"
    },
    {
      "anonymous": false,
      "inputs": [
        {
          "indexed": false,
          "internalType": "address",
          "name": "_address",
          "type": "address"
        },
        {
          "indexed": false,
          "internalType": "uint8",
          "name": "_status",
          "type": "uint8"
        }
      ],
      "name": "GigStatusChange",
      "type": "event"
    },
    {
      "anonymous": false,
      "inputs": [
        {
          "indexed": false,
          "internalType": "address",
          "name": "_address",
          "type": "address"
        },
        {
          "indexed": false,
          "internalType": "address",
          "name": "_voter",
          "type": "address"
        },
        {
          "indexed": false,
          "internalType": "uint8",
          "name": "_vote",
          "type": "uint8"
        }
      ],
      "name": "GigVoteAdded",
      "type": "event"
    },
    {
      "anonymous": false,
      "inputs": [
        {
          "indexed": false,
          "internalType": "address",
          "name": "_user",
          "type": "address"
        },
        {
          "indexed": false,
          "internalType": "uint256",
          "name": "_amount",
          "type": "uint256"
        }
      ],
      "name": "JudgeWidthdrawal",
      "type": "event"
    },
    {
      "anonymous": false,
      "inputs": [
        {
          "indexed": true,
          "internalType": "address",
          "name": "previousOwner",
          "type": "address"
        },
        {
          "indexed": true,
          "internalType": "address",
          "name": "newOwner",
          "type": "address"
        }
      ],
      "name": "OwnershipTransferred",
      "type": "event"
    },
    {
      "inputs": [],
      "name": "adminTax",
      "outputs": [
        {
          "internalType": "uint256",
          "name": "",
          "type": "uint256"
        }
      ],
      "stateMutability": "view",
      "type": "function"
    },
    {
      "inputs": [],
      "name": "affiliateRetribution",
      "outputs": [
        {
          "internalType": "uint256",
          "name": "",
          "type": "uint256"
        }
      ],
      "stateMutability": "view",
      "type": "function"
    },
    {
      "inputs": [],
      "name": "autoRefundDelay",
      "outputs": [
        {
          "internalType": "uint256",
          "name": "",
          "type": "uint256"
        }
      ],
      "stateMutability": "view",
      "type": "function"
    },
    {
      "inputs": [
        {
          "internalType": "uint256",
          "name": "_newFee",
          "type": "uint256"
        }
      ],
      "name": "changeAdminTax",
      "outputs": [],
      "stateMutability": "nonpayable",
      "type": "function"
    },
    {
      "inputs": [
        {
          "internalType": "uint256",
          "name": "_newDayDelay",
          "type": "uint256"
        }
      ],
      "name": "changeAutoRefundDelay",
      "outputs": [],
      "stateMutability": "nonpayable",
      "type": "function"
    },
    {
      "inputs": [
        {
          "internalType": "uint256",
          "name": "_newDayDelay",
          "type": "uint256"
        }
      ],
      "name": "changeEndTrialDelay",
      "outputs": [],
      "stateMutability": "nonpayable",
      "type": "function"
    },
    {
      "inputs": [
        {
          "internalType": "uint256",
          "name": "_newJudgeRetribution",
          "type": "uint256"
        },
        {
          "internalType": "uint256",
          "name": "_newAffiliateRetribution",
          "type": "uint256"
        },
        {
          "internalType": "uint256",
          "name": "_newProtocolRetribution",
          "type": "uint256"
        }
      ],
      "name": "changeRetributionModel",
      "outputs": [],
      "stateMutability": "nonpayable",
      "type": "function"
    },
    {
      "inputs": [
        {
          "internalType": "uint256",
          "name": "_newFee",
          "type": "uint256"
        }
      ],
      "name": "changeTrialTax",
      "outputs": [],
      "stateMutability": "nonpayable",
      "type": "function"
    },
    {
      "inputs": [
        {
          "internalType": "address",
          "name": "_newUserSoul",
          "type": "address"
        }
      ],
      "name": "changeUserSoulAddress",
      "outputs": [],
      "stateMutability": "nonpayable",
      "type": "function"
    },
    {
      "inputs": [
        {
          "internalType": "contract IERC20",
          "name": "_token",
          "type": "address"
        },
        {
          "internalType": "address",
          "name": "_seller",
          "type": "address"
        },
        {
          "internalType": "uint256",
          "name": "_price",
          "type": "uint256"
        },
        {
          "internalType": "string",
          "name": "_metadata",
          "type": "string"
        }
      ],
      "name": "createGig",
      "outputs": [
        {
          "internalType": "address",
          "name": "",
          "type": "address"
        }
      ],
      "stateMutability": "nonpayable",
      "type": "function"
    },
    {
      "inputs": [
        {
          "internalType": "address",
          "name": "_address",
          "type": "address"
        },
        {
          "internalType": "uint8",
          "name": "_status",
          "type": "uint8"
        }
      ],
      "name": "emitStatusEvent",
      "outputs": [],
      "stateMutability": "nonpayable",
      "type": "function"
    },
    {
      "inputs": [
        {
          "internalType": "address",
          "name": "_address",
          "type": "address"
        },
        {
          "internalType": "address",
          "name": "_voter",
          "type": "address"
        },
        {
          "internalType": "uint8",
          "name": "_vote",
          "type": "uint8"
        }
      ],
      "name": "emitVoteAdded",
      "outputs": [],
      "stateMutability": "nonpayable",
      "type": "function"
    },
    {
      "inputs": [],
      "name": "endTrialDelay",
      "outputs": [
        {
          "internalType": "uint256",
          "name": "",
          "type": "uint256"
        }
      ],
      "stateMutability": "view",
      "type": "function"
    },
    {
      "inputs": [],
      "name": "firstAffiliateFee",
      "outputs": [
        {
          "internalType": "uint256",
          "name": "",
          "type": "uint256"
        }
      ],
      "stateMutability": "view",
      "type": "function"
    },
    {
      "inputs": [],
      "name": "getBeacon",
      "outputs": [
        {
          "internalType": "address",
          "name": "",
          "type": "address"
        }
      ],
      "stateMutability": "view",
      "type": "function"
    },
    {
      "inputs": [
        {
          "internalType": "uint256",
          "name": "_x",
          "type": "uint256"
        }
      ],
      "name": "getGig",
      "outputs": [
        {
          "internalType": "address",
          "name": "",
          "type": "address"
        }
      ],
      "stateMutability": "view",
      "type": "function"
    },
    {
      "inputs": [],
      "name": "getImplementation",
      "outputs": [
        {
          "internalType": "address",
          "name": "",
          "type": "address"
        }
      ],
      "stateMutability": "view",
      "type": "function"
    },
    {
      "inputs": [
        {
          "internalType": "address",
          "name": "_address",
          "type": "address"
        }
      ],
      "name": "isFromGigFactory",
      "outputs": [
        {
          "internalType": "bool",
          "name": "",
          "type": "bool"
        }
      ],
      "stateMutability": "view",
      "type": "function"
    },
    {
      "inputs": [],
      "name": "judgeRetribution",
      "outputs": [
        {
          "internalType": "uint256",
          "name": "",
          "type": "uint256"
        }
      ],
      "stateMutability": "view",
      "type": "function"
    },
    {
      "inputs": [],
      "name": "nbGigs",
      "outputs": [
        {
          "internalType": "uint256",
          "name": "",
          "type": "uint256"
        }
      ],
      "stateMutability": "view",
      "type": "function"
    },
    {
      "inputs": [],
      "name": "owner",
      "outputs": [
        {
          "internalType": "address",
          "name": "",
          "type": "address"
        }
      ],
      "stateMutability": "view",
      "type": "function"
    },
    {
      "inputs": [],
      "name": "protocolRetribution",
      "outputs": [
        {
          "internalType": "uint256",
          "name": "",
          "type": "uint256"
        }
      ],
      "stateMutability": "view",
      "type": "function"
    },
    {
      "inputs": [],
      "name": "renounceOwnership",
      "outputs": [],
      "stateMutability": "nonpayable",
      "type": "function"
    },
    {
      "inputs": [],
      "name": "secondAffiliateFee",
      "outputs": [
        {
          "internalType": "uint256",
          "name": "",
          "type": "uint256"
        }
      ],
      "stateMutability": "view",
      "type": "function"
    },
    {
      "inputs": [
        {
          "internalType": "address",
          "name": "newOwner",
          "type": "address"
        }
      ],
      "name": "transferOwnership",
      "outputs": [],
      "stateMutability": "nonpayable",
      "type": "function"
    },
    {
      "inputs": [],
      "name": "trialTax",
      "outputs": [
        {
          "internalType": "uint256",
          "name": "",
          "type": "uint256"
        }
      ],
      "stateMutability": "view",
      "type": "function"
    },
    {
      "inputs": [],
      "name": "userSoul",
      "outputs": [
        {
          "internalType": "address",
          "name": "",
          "type": "address"
        }
      ],
      "stateMutability": "view",
      "type": "function"
    },
    {
      "inputs": [
        {
          "internalType": "address",
          "name": "_token",
          "type": "address"
        }
      ],
      "name": "withdrawJudgeRevenues",
      "outputs": [],
      "stateMutability": "nonpayable",
      "type": "function"
    }
  ],
  "bytecode": "0x60a06040526203f4806002556203f48060035560048055600960055560236006556005600755603c60085560436009556021600a553480156200004157600080fd5b506040516200700438038062007004833981810160405281019062000067919062000371565b620000876200007b6200025460201b60201c565b6200025c60201b60201c565b620000bb7f7c25e4b9ac016e5bb23481006c07d3fd00206613e311a08bf46ba82cc6a1a10360001b6200032060201b60201c565b620000ef7fd85d033e1de1c9e88c4b74c3d11788321ec040d226c2f39c41f7eddb576f674360001b6200032060201b60201c565b620001237fc533447a01c9cabd79bd0aa4a884009081027e239fc3fcf973dd86ab393713c160001b6200032060201b60201c565b81620001346200032360201b60201c565b60405162000142906200034c565b6200014f929190620003c3565b604051809103906000f0801580156200016c573d6000803e3d6000fd5b5073ffffffffffffffffffffffffffffffffffffffff1660808173ffffffffffffffffffffffffffffffffffffffff1660601b81525050620001d77f523d1693f5d488cc7ef81f9204219cb9033737f4add8dae41603d8c64e4a8a4f60001b6200032060201b60201c565b6200020b7f95bdf46dc4ccf82c4f92a89ead5213f5ef0ca3b74c445990a815cae600513fd260001b6200032060201b60201c565b80600160006101000a81548173ffffffffffffffffffffffffffffffffffffffff021916908373ffffffffffffffffffffffffffffffffffffffff16021790555050506200043e565b600033905090565b60008060009054906101000a900473ffffffffffffffffffffffffffffffffffffffff169050816000806101000a81548173ffffffffffffffffffffffffffffffffffffffff021916908373ffffffffffffffffffffffffffffffffffffffff1602179055508173ffffffffffffffffffffffffffffffffffffffff168173ffffffffffffffffffffffffffffffffffffffff167f8be0079c531659141344cd1fd0a4f28419497f9722a3daafe3b4186f6b6457e060405160405180910390a35050565b50565b60008060009054906101000a900473ffffffffffffffffffffffffffffffffffffffff16905090565b61175d80620058a783390190565b6000815190506200036b8162000424565b92915050565b600080604083850312156200038557600080fd5b600062000395858286016200035a565b9250506020620003a8858286016200035a565b9150509250929050565b620003bd81620003f0565b82525050565b6000604082019050620003da6000830185620003b2565b620003e96020830184620003b2565b9392505050565b6000620003fd8262000404565b9050919050565b600073ffffffffffffffffffffffffffffffffffffffff82169050919050565b6200042f81620003f0565b81146200043b57600080fd5b50565b60805160601c61543c6200046b600039600081816108090152818161117c0152611d83015261543c6000f3fe60806040523480156200001157600080fd5b5060043610620001f05760003560e01c8063a60f12221162000111578063d4c01b7b11620000a5578063e9a7b712116200007b578063e9a7b712146200053b578063f0e5bc6b146200055b578063f2fde38b146200057d578063f528008f146200059d57620001f0565b8063d4c01b7b14620004c3578063e2730ab014620004e3578063e86f7b57146200050557620001f0565b8063b3479ed411620000e7578063b3479ed4146200042b578063c10e59911462000461578063cc7d21931462000481578063cd8dd6e514620004a357620001f0565b8063a60f122214620003c7578063aaf10f4214620003e7578063ab64fa48146200040957620001f0565b806370bd254011620001895780638433e4cc116200015f5780638433e4cc146200032f578063868e2e9c14620003655780638da5cb5b1462000385578063909fb04414620003a757620001f0565b806370bd254014620002e1578063715018a614620003015780637e57a8f3146200030d57620001f0565b80632d6b3a6b11620001cb5780632d6b3a6b146200025b5780633590d060146200027d57806339ded4e9146200029d57806347efd60714620002bf57620001f0565b80630578122214620001f557806306ac6a66146200021757806310628d041462000239575b600080fd5b620001ff620005bf565b6040516200020e919062003e20565b60405180910390f35b6200022162000653565b60405162000230919062003e20565b60405180910390f35b62000243620006e7565b60405162000252919062003e20565b60405180910390f35b620002656200077b565b604051620002749190620039f0565b60405180910390f35b6200029b6004803603810190620002959190620035f9565b6200082d565b005b620002a7620009cc565b604051620002b6919062003e20565b60405180910390f35b620002c962000a60565b604051620002d89190620039f0565b60405180910390f35b620002ff6004803603810190620002f9919062003459565b62000b14565b005b6200030b62000bec565b005b6200031762000c04565b60405162000326919062003e20565b60405180910390f35b6200034d600480360381019062000347919062003574565b62000c98565b6040516200035c9190620039f0565b60405180910390f35b6200038360048036038101906200037d9190620035f9565b620015b6565b005b6200038f62001754565b6040516200039e9190620039f0565b60405180910390f35b620003c56004803603810190620003bf919062003651565b6200177d565b005b620003e56004803603810190620003df9190620035f9565b62001afa565b005b620003f162001cf5565b604051620004009190620039f0565b60405180910390f35b6200041362001e28565b60405162000422919062003e20565b60405180910390f35b620004496004803603810190620004439190620035f9565b62001ebc565b604051620004589190620039f0565b60405180910390f35b6200047f6004803603810190620004799190620034b1565b62001f83565b005b6200048b620021f2565b6040516200049a919062003e20565b60405180910390f35b620004c16004803603810190620004bb919062003459565b62002286565b005b620004e16004803603810190620004db919062003507565b620026a5565b005b620004ed62002911565b604051620004fc919062003e20565b60405180910390f35b6200052360048036038101906200051d919062003459565b620029a5565b60405162000532919062003b7f565b60405180910390f35b620005596004803603810190620005539190620035f9565b62002a85565b005b6200056562002c80565b60405162000574919062003e20565b60405180910390f35b6200059b600480360381019062000595919062003459565b62002d14565b005b620005a762002d9f565b604051620005b6919062003e20565b60405180910390f35b6000620005ef7fc83fc1cf4ca93cf87eec69bd75dfec00ef7048f8590a6c9e0a124bf754597e0560001b62002e33565b6200061d7f76420496a3f3c559932149a73070db6ab31e64595901595dde654d7b8036cb6160001b62002e33565b6200064b7fb9074e545d65a1b87c46f0ca9c95fcb2a2a18a9a07e060da470aae74df4e13dd60001b62002e33565b600654905090565b6000620006837ff884576af191fab31c47640243507183b0358ff26dc958efeea554caca4a61b460001b62002e33565b620006b17f13990f50f87e25b17569eec781a1d18d259c3a5869130c92701e590311d32bd260001b62002e33565b620006df7f3898cda8cbafb414b5e0e1ae171a450844a199bf3354b8a0305249d824c2a02160001b62002e33565b600354905090565b6000620007177fe1fc141dbe3d524d6d94dc46b8a142b147def0e700cbee4f290368450448e57160001b62002e33565b620007457f291a2797806ee26a15e8bf18264ef781574aadd8dd6743576ba05975a90b206760001b62002e33565b620007737f7c0e76c5930cff254ca50aa2dd988f3dc1f5e9a146f62fe9603ec1605b8ab8fd60001b62002e33565b600a54905090565b6000620007ab7f8e65e7385d9118e76a0c4a218a8fe8c0e7526507e966c18f4eecdd786c3f38e460001b62002e33565b620007d97f543b834d1a015390956d28c9c9c40d9249e2b2215b320cabe295cf70db628a3060001b62002e33565b620008077f4e99a3c22426ce9a480a9271c0be94f8961650ba34e1fc57a7ef6b9635a4aad160001b62002e33565b7f0000000000000000000000000000000000000000000000000000000000000000905090565b6200083762002e36565b620008657ff1eaae742d7a1e44df3668cccc6f60d23332db7934a8bd2170e3d51c1065232060001b62002e33565b620008937fa797531e97e1eb1ade804c961ace2e9245a603dcf49a9d6424643fc6d7487a0860001b62002e33565b620008c17fb3731fa24c2fb9e57f7b36f2d89f61317e61b5fd721f914d6466250a7e3f9bb460001b62002e33565b620008ef7f10e62359cea696e204be521bb3fec2fac31c32d0fe9a33ac30f1ece1d84dd7a460001b62002e33565b6212750081111562000938576040517f08c379a00000000000000000000000000000000000000000000000000000000081526004016200092f9062003cee565b60405180910390fd5b620009667f46c17e2a7beea024308af8abc6fa051f8730f3e14fae7e7a620968fea14013e360001b62002e33565b620009947fc53a724c99d7df131bec0c925343942aa3972f7241b59d70a5bda7c19c65a92b60001b62002e33565b620009c27f2bb6460859839ad7dbb09d66642b6946cde879feb7e7e7fcd53b6d1f85c8189a60001b62002e33565b8060038190555050565b6000620009fc7f991a77e263b96906ccaf379e3764634da7b532c6cef174c71bcbbc598da7895860001b62002e33565b62000a2a7fc9d5812d2b71e13d55ee7c4d14e2d2d908082e398d97736e0a8b4e8aa53dc35860001b62002e33565b62000a587f205ec3d882753fb01e0e0183fe46a63eb7e9317e075b28d3cfa823abc4c2697860001b62002e33565b600454905090565b600062000a907fb2e722481933e639a85594911a477cec624aebcb47d446fc1797018e1b8a04c360001b62002e33565b62000abe7fefd820fa8cc25ede95c5b765d2f13ecc6743419417fdc2d39f68f56e9c88eba860001b62002e33565b62000aec7fcb857a9def39ca5058de8776ee8301e8c0f21c49317016e3dcb6ed53da8208a560001b62002e33565b600160009054906101000a900473ffffffffffffffffffffffffffffffffffffffff16905090565b62000b1e62002e36565b62000b4c7f588cbf08bbf0e9a9de6419d10356c66f91915c7e68e019ef06969305fa9d71d360001b62002e33565b62000b7a7f7934fc31a7242f9beaa5e757b109789cfa3958826a34eb6754e9f081b6a96b0160001b62002e33565b62000ba87fbd7b647f983d8b574f809038c22bac3db3438397a55aa42dd5bbe0c45aae6e0960001b62002e33565b80600160006101000a81548173ffffffffffffffffffffffffffffffffffffffff021916908373ffffffffffffffffffffffffffffffffffffffff16021790555050565b62000bf662002e36565b62000c02600062002ebb565b565b600062000c347f4fcd11748549b2143d1d5fb1d3fe822402efc36fab52697d805c132ea21b62c460001b62002e33565b62000c627fa93d12dc8d1fd6ba9f4a322d73ca2d1dc3378a47f4a1e1dd8a0770faf700420260001b62002e33565b62000c907f8df99693c72a380e3910e53ef674e829c42253ae3dcfe9e64e00958cd0993d0c60001b62002e33565b600d54905090565b600062000cc87f9c620572145f3b28459117892ad0f19e535577caa7ff246ecb6e7e9fb3be1c2a60001b62002e33565b62000cf67f4f3cd06a0879830a466e147c1308168fa1daa004c35c53cb322441e77a4f904460001b62002e33565b62000d247fdbeac74dd2d870424510d901ca663a1131e176baaeefca27e39c818b5c6011f560001b62002e33565b600085905062000d577fa90c5d3c94c003206748ae4aeff0901e6f8cb00e02ea8ddcbd14c06e666c927c60001b62002e33565b62000d857f7b0912b9e758c033a3b708de79cb099eadda01a881232537bf02389adf76b45860001b62002e33565b62000db37f56bab3bb337950466c9d0ed5111d25ccee96e557004f86506c3b3c0e3798a97660001b62002e33565b600160009054906101000a900473ffffffffffffffffffffffffffffffffffffffff1673ffffffffffffffffffffffffffffffffffffffff16632f7398fb866040518263ffffffff1660e01b815260040162000e109190620039f0565b60206040518083038186803b15801562000e2957600080fd5b505afa15801562000e3e573d6000803e3d6000fd5b505050506040513d601f19601f8201168201806040525081019062000e64919062003548565b15801562000f205750600160009054906101000a900473ffffffffffffffffffffffffffffffffffffffff1673ffffffffffffffffffffffffffffffffffffffff16632f7398fb336040518263ffffffff1660e01b815260040162000eca9190620039f0565b60206040518083038186803b15801562000ee357600080fd5b505afa15801562000ef8573d6000803e3d6000fd5b505050506040513d601f19601f8201168201806040525081019062000f1e919062003548565b155b62000f62576040517f08c379a000000000000000000000000000000000000000000000000000000000815260040162000f599062003d10565b60405180910390fd5b62000f907f1ee9c0d5ff95971ead6b72db66c30cdd45a8b91bc7e3da259b8c73c995662be960001b62002e33565b62000fbe7f680211bfee74055920a6b1051a2dd828ba384305430b2cb92c9317c7fa3f507260001b62002e33565b62000fec7f359f180d48c07e74bf472b1a0d8c9acdafc5f96d57d68ac5fa4bb5591bbe61f860001b62002e33565b6200101a7fab5953c9a93948a016269d211168d4b11bd9c331b7f6135baddd0dc81a51d88460001b62002e33565b838173ffffffffffffffffffffffffffffffffffffffff166370a08231336040518263ffffffff1660e01b8152600401620010569190620039f0565b60206040518083038186803b1580156200106f57600080fd5b505afa15801562001084573d6000803e3d6000fd5b505050506040513d601f19601f82011682018060405250810190620010aa919062003625565b1015620010ee576040517f08c379a0000000000000000000000000000000000000000000000000000000008152600401620010e59062003c66565b60405180910390fd5b6200111c7f3d4a410c379222783833a65050200273dcf6b639476194b591db308e6cb9393e60001b62002e33565b6200114a7ff25998b79612304346f930b90cf3c45d6c5ddbe95edc86ea51030b18872bda9060001b62002e33565b620011787fd9031b41814bab675bc652ca8ed2047dede1e2e1e48114d43be9ae52c43814ef60001b62002e33565b60007f0000000000000000000000000000000000000000000000000000000000000000634d1d1bf760e01b8833898989600d54600160009054906101000a900473ffffffffffffffffffffffffffffffffffffffff16604051602401620011e6979695949392919062003b9c565b604051602081830303815290604052907bffffffffffffffffffffffffffffffffffffffffffffffffffffffff19166020820180517bffffffffffffffffffffffffffffffffffffffffffffffffffffffff8381831617835250505050604051620012519062003338565b6200125e92919062003af1565b604051809103906000f0801580156200127b573d6000803e3d6000fd5b509050620012ac7ff40566c9d41f3210e7e7d07e57ad9fa71b0fdbaab5a9dce3b3951e1d975becb260001b62002e33565b620012da7f908af2c8036d758eabbcefe5bf5f36210db3309847204c3909dafbd666687ec460001b62002e33565b80600b6000600d54815260200190815260200160002060006101000a81548173ffffffffffffffffffffffffffffffffffffffff021916908373ffffffffffffffffffffffffffffffffffffffff1602179055506200135b7e465d7012129d63bdf0d5d121063361f87590047204ce6e8036a9d869d8aa1560001b62002e33565b620013897f57a6f5c39a386709266e450f3388f62fa3f19acd6bbb4226744e113ce61429ff60001b62002e33565b6001600c60008373ffffffffffffffffffffffffffffffffffffffff1673ffffffffffffffffffffffffffffffffffffffff16815260200190815260200160002060006101000a81548160ff0219169083151502179055506200140f7f4936975d36e76591fd76bcc904bc7beedab709f51d28ed98b6f99b9d85e1d7bd60001b62002e33565b600d600081548092919062001424906200404a565b9190505550620014577fb5c36f94a5fda116c3cf7e001ea4a7a9628ee89b147040951525f7ad53189ec860001b62002e33565b620014857f3d5b67adc71a93353a26bcfef3dab0c9471b055dc84bf48a6a6cf44c6c7d959260001b62002e33565b620014b43382878573ffffffffffffffffffffffffffffffffffffffff1662002f7f909392919063ffffffff16565b620014e27f38a7cda44edec9ef090e44d35f791c3ea4cfe7d17095c425940e2cb0eebd5dc360001b62002e33565b620015107ffffe2f133357b31c2a832cc144970b5de98a06cf1d6e9310a3d5cf54242718d260001b62002e33565b7f5997667c5d471098262cb5109c5d1df9a76627a420b9a8787def6d836ce8612a813388604051620015459392919062003a3a565b60405180910390a16200157b7fba56edef87f222af019635fcdb3cb7f71609536f264f491323dabd4d6399ffe960001b62002e33565b620015a97f1c00ebe0c2459e6b89ed78c049f720506a3aaf91c5d374879fbc3e3d57b62d4260001b62002e33565b8092505050949350505050565b620015c062002e36565b620015ee7fda651f9dc16b824e71a5f293e676afd2976827fc8e0052b3092a8b02e66d686360001b62002e33565b6200161c7f8d6fd8b0847b875a2509eafbca0711c1375333b6a4648e797d2a7e484da70a6660001b62002e33565b6200164a7f144237e1276148f846014cda10db7cdf3d943e9960d23623803986c0bb71d71b60001b62002e33565b620016777ed7ed391ecc362a82e155d8fb2cbcc52f1b67d96c9ef7a306d90de784aa27dd60001b62002e33565b62093a80811115620016c0576040517f08c379a0000000000000000000000000000000000000000000000000000000008152600401620016b79062003dfe565b60405180910390fd5b620016ee7fc17e20660ce7ef53f56f19d35e91b9849a237f4cfb9f1485ae8ab6faa37291eb60001b62002e33565b6200171c7f4ee058607193860372bec0ed3939d5d0ec10f98dc541d304451dab900381d46e60001b62002e33565b6200174a7f5f7266a05cfb90eac0696d7c67468cdfce1f7f92a592bc9a10d3aefba3cd5d4660001b62002e33565b8060028190555050565b60008060009054906101000a900473ffffffffffffffffffffffffffffffffffffffff16905090565b6200178762002e36565b620017b57f9f0f0aabd0a4d3bb6adb8de976a0f9263b5a8aad2e4a9ac724ed130352c963c260001b62002e33565b620017e37ffe42915e5b4887830866edbb92d918c39b159df0694f3b860cbe932c665d711d60001b62002e33565b620018117f358188a4b464b2cef444c1af18f7000806a2967778b0deae48a92d6a0c96e80560001b62002e33565b6200183f7f75f8eb8c7b296db18297766b33e17578b99aa2184310ded9ecce4aa446a456f360001b62002e33565b601481101562001886576040517f08c379a00000000000000000000000000000000000000000000000000000000081526004016200187d9062003d32565b60405180910390fd5b620018b47fd2cede3da96f6e6d7cecb5b77155853f1f4edc7cae8c88086a82d81d0148a74460001b62002e33565b620018e27f17150b77fc4996eca5d987acd5717907b1cb255356307477b45e34019e08cd5d60001b62002e33565b620019107f8c52de3b625650b0b40d720fda27f74f4b89eab964f2fd439b97d1fa54d9bac260001b62002e33565b6200193e7f61a9a458081a8e6c368cd64b56febee31127239e098557312830f343e512907160001b62002e33565b60648183856200194f919062003edf565b6200195b919062003edf565b146200199e576040517f08c379a0000000000000000000000000000000000000000000000000000000008152600401620019959062003d76565b60405180910390fd5b620019cc7fca1ffcbaee1d6f382a07ef2659c78cb4f01146433c547daccf7c9b3bb2c63c5b60001b62002e33565b620019fa7f77aa122cdeaf48b43ee8d92906a8040f4ac71c4b11be27ef89c2f66b654f409e60001b62002e33565b62001a287ff0972244539fff9e7d759e8ed9be9493f6067b686cdb32922adcd2887bf8103360001b62002e33565b8260068190555062001a5d7f99c28ca222248e57b48f48405e01a2f79e55e222ff2aed22d832d91e5d98bf9f60001b62002e33565b62001a8b7f622473e34b13e84acad9be61a65b03187ebce6e0e4300a69f9fdfb9dd491014460001b62002e33565b8160078190555062001ac07f68bdd745eb595682781540f75bc3a7e1574855757336a6cea5624b576f15eb0e60001b62002e33565b62001aee7f0fde64bf4bfbe15a8123833355bac91495153bd594c603e655360c4508217d7a60001b62002e33565b80600881905550505050565b8062001b297fce2275154edb1489d20f097a0a02056898b8869dc5bc38d65d79108bc2f8f47460001b62002e33565b62001b577f824c1c81b788b66418c257d3a0fc59978afd24d89a8056f1f5bde02d28efa76f60001b62002e33565b62001b857f6e2ffb43224c7ea8f2680e9a2f4b38b7967475083eb861b104623a513b8bd3a960001b62002e33565b62001bb37fdf1e75754c67f817662884d01bb02f4a7ee7c93e201ca24ac490d593b7d44c5960001b62002e33565b600a81111562001bfa576040517f08c379a000000000000000000000000000000000000000000000000000000000815260040162001bf19062003caa565b60405180910390fd5b62001c287f7ef769c97de3a547ffcdcdee53013dbd04a79afc37346a8f0fc0196febe09d9360001b62002e33565b62001c567f240f9083947c31f1031addeb10bedb0b4ddc64656d7775405380de3926b94ef260001b62002e33565b62001c6062002e36565b62001c8e7f580053a85298807827d5cb4f2bb21ef25a1d623ec8326b76b438272b7602f76c60001b62002e33565b62001cbc7fe4fd097f2496ac160d466b46f7f459657594b7858e2ffd15d6ed2a838728fd5060001b62002e33565b62001cea7f6a34d3d378ad1cfd60dc4d4686784ea3a966d1a9dc9bf5ced807937e34b8d12360001b62002e33565b816004819055505050565b600062001d257fb9d6d0fca9db8882dd3f6790dc8cd33bf1bda99b906379736acdac8b734a989760001b62002e33565b62001d537f5b8d22993b09830944047ce7fc3f9ea865ee3f6597311421c6a924fc25b63bb560001b62002e33565b62001d817f47fc825b30e7a0d377afa46ae6095695b2ae51dd6c86b852b282da1e1460130260001b62002e33565b7f000000000000000000000000000000000000000000000000000000000000000073ffffffffffffffffffffffffffffffffffffffff16635c60da1b6040518163ffffffff1660e01b815260040160206040518083038186803b15801562001de857600080fd5b505afa15801562001dfd573d6000803e3d6000fd5b505050506040513d601f19601f8201168201806040525081019062001e23919062003485565b905090565b600062001e587f8a7bef5db0e9281cf8a9e0c3b1f4de5ecb3837237770ab2c61f105b21fe0569960001b62002e33565b62001e867fe272224cb3b8effec12ad45860ebc9ade3ee7d9bb039b0a6192ef4bdfe7770a960001b62002e33565b62001eb47f161cb393ce76819424f3eb4590e0b273fdda81026955d28b34f22c12ce3bbd0560001b62002e33565b600754905090565b600062001eec7f791f6dbdc3023e7db4c891e9bb672c4685613ea7d54e305e4f337d5bf254f18560001b62002e33565b62001f1a7f79e074cb8729c28a9b341d99509185af5850b3d826026240d193f5ee4c7ff16660001b62002e33565b62001f487fcc24547e308a46561f8a81b8dcd76f55e66dfe9950619312749006e846c8bff960001b62002e33565b600b600083815260200190815260200160002060009054906101000a900473ffffffffffffffffffffffffffffffffffffffff169050919050565b62001fb17f588499c67c9bc3856f5bd3d4808611dd34e48a04a396dab857f17ca3fa732e6560001b62002e33565b62001fdf7f53cb09d2af4893e422fbb7fe5205cfdaa88e3bed148b48db00ef53b98482ca5360001b62002e33565b6200200d7f45c20d2948e0255c96e2cea8943e7c7c29a5cdb6dc9b55bcacc0edb64043328460001b62002e33565b6200203b7fb4e2dcb7b092101eb7eda0616ab287fb99e636a155775942b4833fcce405384860001b62002e33565b600c60003373ffffffffffffffffffffffffffffffffffffffff1673ffffffffffffffffffffffffffffffffffffffff16815260200190815260200160002060009054906101000a900460ff16620020ca576040517f08c379a0000000000000000000000000000000000000000000000000000000008152600401620020c19062003c44565b60405180910390fd5b620020f87ff9aa1f95f0b3c9353af4b0d44a182cf36a88a4675cfefb814da6ee63e0e096a460001b62002e33565b620021267f01eca7ad7fc039b48c354a444af7f2b7b65165276cdfafb7509fd8ef2f7a125c60001b62002e33565b620021547f4844753cd00f4f09fc4ecc616a00d0863bcd36304e83596bf83f9480ed04b57560001b62002e33565b620021827f761f5b3e7cdac42c4cde870a10cf7715876f40a95b651a9747fbc1ad74d4cd1e60001b62002e33565b620021b07f80600aad38e8b1c96444b109f06240c5331c650ab8ede60419223007075b761760001b62002e33565b7f67bcf457c1ec665214616573271d3d18faed889a62e924373561a59dda83a088838383604051620021e59392919062003ab4565b60405180910390a1505050565b6000620022227f3f8f6d7b6517958cac1485bf6966873616e29e09f505201d76d30f6f21ddc52d60001b62002e33565b620022507f5aea5ed202bb34cd8b9d73e7fa9c3a0ae420a34853416ce70c1530f15d468acb60001b62002e33565b6200227e7f9d7b52c86b0e195d9e14555b9873f239a9582fd4be04e416b422ba0f05f9319360001b62002e33565b600254905090565b620022b47f64d81f1e5e65445689511dc02d6ad788e5b2e13043bdcfd90bff6ab93c0296b460001b62002e33565b620022e27f52d8d21c94b0ad3b4898ef773b5a1847c8ebaf428bfc727d2b451ca09aad950a60001b62002e33565b620023107fdf4f3e8729ca9c27d7a40686aaae2392cef3ba19e3de0466794d0cd43dd674c960001b62002e33565b6000600160009054906101000a900473ffffffffffffffffffffffffffffffffffffffff1673ffffffffffffffffffffffffffffffffffffffff1663fc2a422633846040518363ffffffff1660e01b81526004016200237192919062003a0d565b602060405180830381600087803b1580156200238c57600080fd5b505af1158015620023a1573d6000803e3d6000fd5b505050506040513d601f19601f82011682018060405250810190620023c7919062003625565b9050620023f77fbc23a22ecd49780e2c6893fadf2e67d863ebb67f4d0cf7adf88c00c4aa01950060001b62002e33565b620024257f4b1fbebe00d56347e6cab0ca939b2bcfee5e9214ae4e017aec0e0c2b93a191f360001b62002e33565b620024537f2ce144078e85b6d4e4ba64aed49cd02aead59cdb9b56d45a9b40d6f17f05fd0e60001b62002e33565b6000811162002499576040517f08c379a0000000000000000000000000000000000000000000000000000000008152600401620024909062003dba565b60405180910390fd5b620024c77f0ea64485a7fd885d39304a1df9af7a862367795fbfac01daaf05af151a5f59e960001b62002e33565b620024f57f966d08f7f2951b23493296ed4b0d73d413e594a6307fd45b780204cd851d8ed860001b62002e33565b620025237feb66be4363814f3a83a45c8f47f4e7807f5137891bc2039167ef29f3e8d9813560001b62002e33565b6000829050620025567fe4770ba4b3bcd6fd140864358cfd43e90ed806b9b147d1bbc3acd9c66042511b60001b62002e33565b620025847f752a67efbff2f3944c1e04b4d8990f94b57e0a38c65a0d661708790072e21f5160001b62002e33565b600160009054906101000a900473ffffffffffffffffffffffffffffffffffffffff1673ffffffffffffffffffffffffffffffffffffffff1663c1926b6c33856040518363ffffffff1660e01b8152600401620025e392919062003a0d565b600060405180830381600087803b158015620025fe57600080fd5b505af115801562002613573d6000803e3d6000fd5b50505050620026457f6abbc6ae7f72d7d92f24e248a6845e799e2effb9270f3883484e2f255b93316560001b62002e33565b620026737fadd5421b8eb0905f78ec3f28b38773dd1313be0a564d536a5c2883018aae872260001b62002e33565b620026a033838373ffffffffffffffffffffffffffffffffffffffff166200300c9092919063ffffffff16565b505050565b620026d37f588499c67c9bc3856f5bd3d4808611dd34e48a04a396dab857f17ca3fa732e6560001b62002e33565b620027017f53cb09d2af4893e422fbb7fe5205cfdaa88e3bed148b48db00ef53b98482ca5360001b62002e33565b6200272f7f45c20d2948e0255c96e2cea8943e7c7c29a5cdb6dc9b55bcacc0edb64043328460001b62002e33565b6200275d7fb4e2dcb7b092101eb7eda0616ab287fb99e636a155775942b4833fcce405384860001b62002e33565b600c60003373ffffffffffffffffffffffffffffffffffffffff1673ffffffffffffffffffffffffffffffffffffffff16815260200190815260200160002060009054906101000a900460ff16620027ec576040517f08c379a0000000000000000000000000000000000000000000000000000000008152600401620027e39062003c44565b60405180910390fd5b6200281a7ff9aa1f95f0b3c9353af4b0d44a182cf36a88a4675cfefb814da6ee63e0e096a460001b62002e33565b620028487f01eca7ad7fc039b48c354a444af7f2b7b65165276cdfafb7509fd8ef2f7a125c60001b62002e33565b620028767fc384ced0a8c98496e5d7857f7bade5bc68d050000052114b93e991105ca7194260001b62002e33565b620028a47f58329917626fafca4b1ba1dc4677151332111331e6f8eb8c73b443acf36a343e60001b62002e33565b620028d27f5d98edf59c81a7f377674d02b7744a5c2f48f7ca2fd3487f9a461d3e83b4cd4160001b62002e33565b7fa20f3853a18feb20ffa646e23fefc20ddafd4b9f36b8e8ce49535ccf912d58f782826040516200290592919062003b52565b60405180910390a15050565b6000620029417f80195d1f340a475a25583304a67a0f9663e804b4d54d077f51aca3dd8ed4e2af60001b62002e33565b6200296f7fcb2757a631346a6bd2caf47e06b01c0fa557d139695b7f6e16e035e94a1287f660001b62002e33565b6200299d7f6895b5f2178700eb2cb20f2f829a79e53c1288f7baaadf719fc2d9197b62ede860001b62002e33565b600554905090565b6000620029d57f955cbb5ccd15e11a5ba9d5d096bd4a6c8292d9d89ed5225dfe20d9972eb0523760001b62002e33565b62002a037fb39bfc7b1f53114e01fc6ba94174c1e76999bd3ea6da9712ebb1fce0394c964060001b62002e33565b62002a317fbf6158aa3b01f250865e18fa11b30920cb3eb9bde7ac107a8282d3749ba0537760001b62002e33565b600c60008373ffffffffffffffffffffffffffffffffffffffff1673ffffffffffffffffffffffffffffffffffffffff16815260200190815260200160002060009054906101000a900460ff169050919050565b8062002ab47fce2275154edb1489d20f097a0a02056898b8869dc5bc38d65d79108bc2f8f47460001b62002e33565b62002ae27f824c1c81b788b66418c257d3a0fc59978afd24d89a8056f1f5bde02d28efa76f60001b62002e33565b62002b107f6e2ffb43224c7ea8f2680e9a2f4b38b7967475083eb861b104623a513b8bd3a960001b62002e33565b62002b3e7fdf1e75754c67f817662884d01bb02f4a7ee7c93e201ca24ac490d593b7d44c5960001b62002e33565b600a81111562002b85576040517f08c379a000000000000000000000000000000000000000000000000000000000815260040162002b7c9062003caa565b60405180910390fd5b62002bb37f7ef769c97de3a547ffcdcdee53013dbd04a79afc37346a8f0fc0196febe09d9360001b62002e33565b62002be17f240f9083947c31f1031addeb10bedb0b4ddc64656d7775405380de3926b94ef260001b62002e33565b62002beb62002e36565b62002c197f90924c29932aa566a0b2019745570d4a0f049bd1e31ca3ce83fe7111683bd4d460001b62002e33565b62002c477f8e8c0fad09a7f91c405fae710dfe29935e09a0743bd519cd5142bc9e53ccac7f60001b62002e33565b62002c757f4267366f3922dfb69668865e29127d8e9c8edd096402138ea481bb08d764c94c60001b62002e33565b816005819055505050565b600062002cb07fbbccc39d51447afbea0c1cff7a676447f37e80fe2b81d9e277b2d9218d288c4160001b62002e33565b62002cde7fac12f44515d1e81f626d689e2892637002c3008bde64d328044869dff98676f560001b62002e33565b62002d0c7f81a1daadf45877278e650a5fa25c0a7ffc5ae813db4b9dceb03046075fb2c47260001b62002e33565b600854905090565b62002d1e62002e36565b600073ffffffffffffffffffffffffffffffffffffffff168173ffffffffffffffffffffffffffffffffffffffff16141562002d91576040517f08c379a000000000000000000000000000000000000000000000000000000000815260040162002d889062003c88565b60405180910390fd5b62002d9c8162002ebb565b50565b600062002dcf7f1c51c66644390ee55c89454484a62a840a0fad2b0082b6f0faab6e21989b1f4660001b62002e33565b62002dfd7fad6597c5f7cf79d10bb943bca416925c70fe56b3b34db4c0eec47cf8a9aeb0c360001b62002e33565b62002e2b7f644ca303379aab86ddc104b12dfe819510db37a0ab5b5bbe89b1079940b1466960001b62002e33565b600954905090565b50565b62002e4062003096565b73ffffffffffffffffffffffffffffffffffffffff1662002e6062001754565b73ffffffffffffffffffffffffffffffffffffffff161462002eb9576040517f08c379a000000000000000000000000000000000000000000000000000000000815260040162002eb09062003d54565b60405180910390fd5b565b60008060009054906101000a900473ffffffffffffffffffffffffffffffffffffffff169050816000806101000a81548173ffffffffffffffffffffffffffffffffffffffff021916908373ffffffffffffffffffffffffffffffffffffffff1602179055508173ffffffffffffffffffffffffffffffffffffffff168173ffffffffffffffffffffffffffffffffffffffff167f8be0079c531659141344cd1fd0a4f28419497f9722a3daafe3b4186f6b6457e060405160405180910390a35050565b62003006846323b872dd60e01b85858560405160240162002fa39392919062003a77565b604051602081830303815290604052907bffffffffffffffffffffffffffffffffffffffffffffffffffffffff19166020820180517bffffffffffffffffffffffffffffffffffffffffffffffffffffffff83818316178352505050506200309e565b50505050565b620030918363a9059cbb60e01b84846040516024016200302e92919062003b25565b604051602081830303815290604052907bffffffffffffffffffffffffffffffffffffffffffffffffffffffff19166020820180517bffffffffffffffffffffffffffffffffffffffffffffffffffffffff83818316178352505050506200309e565b505050565b600033905090565b600062003102826040518060400160405280602081526020017f5361666545524332303a206c6f772d6c6576656c2063616c6c206661696c65648152508573ffffffffffffffffffffffffffffffffffffffff166200316d9092919063ffffffff16565b905060008151111562003168578080602001905181019062003125919062003548565b62003167576040517f08c379a00000000000000000000000000000000000000000000000000000000081526004016200315e9062003ddc565b60405180910390fd5b5b505050565b60606200317e848460008562003187565b90509392505050565b606082471015620031cf576040517f08c379a0000000000000000000000000000000000000000000000000000000008152600401620031c69062003ccc565b60405180910390fd5b620031da85620032a9565b6200321c576040517f08c379a0000000000000000000000000000000000000000000000000000000008152600401620032139062003d98565b60405180910390fd5b6000808673ffffffffffffffffffffffffffffffffffffffff168587604051620032479190620039d7565b60006040518083038185875af1925050503d806000811462003286576040519150601f19603f3d011682016040523d82523d6000602084013e6200328b565b606091505b50915091506200329d828286620032cc565b92505050949350505050565b6000808273ffffffffffffffffffffffffffffffffffffffff163b119050919050565b60608315620032de5782905062003331565b600083511115620032f25782518084602001fd5b816040517f08c379a000000000000000000000000000000000000000000000000000000000815260040162003328919062003c20565b60405180910390fd5b9392505050565b610f5b80620044ac83390190565b60006200335d620033578462003e66565b62003e3d565b9050828152602081018484840111156200337657600080fd5b6200338384828562003fcf565b509392505050565b6000813590506200339c8162004429565b92915050565b600081519050620033b38162004429565b92915050565b600081519050620033ca8162004443565b92915050565b600081359050620033e1816200445d565b92915050565b600082601f830112620033f957600080fd5b81356200340b84826020860162003346565b91505092915050565b600081359050620034258162004477565b92915050565b6000815190506200343c8162004477565b92915050565b600081359050620034538162004491565b92915050565b6000602082840312156200346c57600080fd5b60006200347c848285016200338b565b91505092915050565b6000602082840312156200349857600080fd5b6000620034a884828501620033a2565b91505092915050565b600080600060608486031215620034c757600080fd5b6000620034d7868287016200338b565b9350506020620034ea868287016200338b565b9250506040620034fd8682870162003442565b9150509250925092565b600080604083850312156200351b57600080fd5b60006200352b858286016200338b565b92505060206200353e8582860162003442565b9150509250929050565b6000602082840312156200355b57600080fd5b60006200356b84828501620033b9565b91505092915050565b600080600080608085870312156200358b57600080fd5b60006200359b87828801620033d0565b9450506020620035ae878288016200338b565b9350506040620035c18782880162003414565b925050606085013567ffffffffffffffff811115620035df57600080fd5b620035ed87828801620033e7565b91505092959194509250565b6000602082840312156200360c57600080fd5b60006200361c8482850162003414565b91505092915050565b6000602082840312156200363857600080fd5b600062003648848285016200342b565b91505092915050565b6000806000606084860312156200366757600080fd5b6000620036778682870162003414565b93505060206200368a8682870162003414565b92505060406200369d8682870162003414565b9150509250925092565b620036b28162003f3c565b82525050565b620036c38162003f50565b82525050565b6000620036d68262003e9c565b620036e2818562003eb2565b9350620036f481856020860162003fde565b620036ff81620040f6565b840191505092915050565b6000620037178262003e9c565b62003723818562003ec3565b93506200373581856020860162003fde565b80840191505092915050565b6200374c8162003fa7565b82525050565b60006200375f8262003ea7565b6200376b818562003ece565b93506200377d81856020860162003fde565b6200378881620040f6565b840191505092915050565b6000620037a2601e8362003ece565b9150620037af8262004107565b602082019050919050565b6000620037c9601c8362003ece565b9150620037d68262004130565b602082019050919050565b6000620037f060268362003ece565b9150620037fd8262004159565b604082019050919050565b60006200381760188362003ece565b91506200382482620041a8565b602082019050919050565b60006200383e60268362003ece565b91506200384b82620041d1565b604082019050919050565b60006200386560208362003ece565b9150620038728262004220565b602082019050919050565b60006200388c60218362003ece565b9150620038998262004249565b604082019050919050565b6000620038b360208362003ece565b9150620038c08262004298565b602082019050919050565b6000620038da60208362003ece565b9150620038e782620042c1565b602082019050919050565b60006200390160228362003ece565b91506200390e82620042ea565b604082019050919050565b600062003928601d8362003ece565b9150620039358262004339565b602082019050919050565b60006200394f60108362003ece565b91506200395c8262004362565b602082019050919050565b600062003976602a8362003ece565b915062003983826200438b565b604082019050919050565b60006200399d60228362003ece565b9150620039aa82620043da565b604082019050919050565b620039c08162003f90565b82525050565b620039d18162003f9a565b82525050565b6000620039e582846200370a565b915081905092915050565b600060208201905062003a076000830184620036a7565b92915050565b600060408201905062003a246000830185620036a7565b62003a336020830184620036a7565b9392505050565b600060608201905062003a516000830186620036a7565b62003a606020830185620036a7565b62003a6f6040830184620036a7565b949350505050565b600060608201905062003a8e6000830186620036a7565b62003a9d6020830185620036a7565b62003aac6040830184620039b5565b949350505050565b600060608201905062003acb6000830186620036a7565b62003ada6020830185620036a7565b62003ae96040830184620039c6565b949350505050565b600060408201905062003b086000830185620036a7565b818103602083015262003b1c8184620036c9565b90509392505050565b600060408201905062003b3c6000830185620036a7565b62003b4b6020830184620039b5565b9392505050565b600060408201905062003b696000830185620036a7565b62003b786020830184620039c6565b9392505050565b600060208201905062003b966000830184620036b8565b92915050565b600060e08201905062003bb3600083018a62003741565b62003bc26020830189620036a7565b62003bd16040830188620036a7565b62003be06060830187620039b5565b818103608083015262003bf4818662003752565b905062003c0560a0830185620039b5565b62003c1460c0830184620036a7565b98975050505050505050565b6000602082019050818103600083015262003c3c818462003752565b905092915050565b6000602082019050818103600083015262003c5f8162003793565b9050919050565b6000602082019050818103600083015262003c8181620037ba565b9050919050565b6000602082019050818103600083015262003ca381620037e1565b9050919050565b6000602082019050818103600083015262003cc58162003808565b9050919050565b6000602082019050818103600083015262003ce7816200382f565b9050919050565b6000602082019050818103600083015262003d098162003856565b9050919050565b6000602082019050818103600083015262003d2b816200387d565b9050919050565b6000602082019050818103600083015262003d4d81620038a4565b9050919050565b6000602082019050818103600083015262003d6f81620038cb565b9050919050565b6000602082019050818103600083015262003d9181620038f2565b9050919050565b6000602082019050818103600083015262003db38162003919565b9050919050565b6000602082019050818103600083015262003dd58162003940565b9050919050565b6000602082019050818103600083015262003df78162003967565b9050919050565b6000602082019050818103600083015262003e19816200398e565b9050919050565b600060208201905062003e376000830184620039b5565b92915050565b600062003e4962003e5c565b905062003e57828262004014565b919050565b6000604051905090565b600067ffffffffffffffff82111562003e845762003e83620040c7565b5b62003e8f82620040f6565b9050602081019050919050565b600081519050919050565b600081519050919050565b600082825260208201905092915050565b600081905092915050565b600082825260208201905092915050565b600062003eec8262003f90565b915062003ef98362003f90565b9250827fffffffffffffffffffffffffffffffffffffffffffffffffffffffffffffffff0382111562003f315762003f3062004098565b5b828201905092915050565b600062003f498262003f70565b9050919050565b60008115159050919050565b600062003f698262003f3c565b9050919050565b600073ffffffffffffffffffffffffffffffffffffffff82169050919050565b6000819050919050565b600060ff82169050919050565b600062003fb48262003fbb565b9050919050565b600062003fc88262003f70565b9050919050565b82818337600083830152505050565b60005b8381101562003ffe57808201518184015260208101905062003fe1565b838111156200400e576000848401525b50505050565b6200401f82620040f6565b810181811067ffffffffffffffff82111715620040415762004040620040c7565b5b80604052505050565b6000620040578262003f90565b91507fffffffffffffffffffffffffffffffffffffffffffffffffffffffffffffffff8214156200408d576200408c62004098565b5b600182019050919050565b7f4e487b7100000000000000000000000000000000000000000000000000000000600052601160045260246000fd5b7f4e487b7100000000000000000000000000000000000000000000000000000000600052604160045260246000fd5b6000601f19601f8301169050919050565b7f4d7573742062652063616c6c20627920612067696720636f6e74726163740000600082015250565b7f5573657220646f6e2774206861766520656e6f756768206d6f6e657900000000600082015250565b7f4f776e61626c653a206e6577206f776e657220697320746865207a65726f206160008201527f6464726573730000000000000000000000000000000000000000000000000000602082015250565b7f4665652063616e27742062652073657420617320686967680000000000000000600082015250565b7f416464726573733a20696e73756666696369656e742062616c616e636520666f60008201527f722063616c6c0000000000000000000000000000000000000000000000000000602082015250565b7f456e6420547269616c2044656c61792063616e27742062652061732068696768600082015250565b7f4275796572206f722073656c6c65722073686f756c64206e6f7420626520626160008201527f6e00000000000000000000000000000000000000000000000000000000000000602082015250565b7f5265747269627574696f6e2063616e2774206265207365742061732068696768600082015250565b7f4f776e61626c653a2063616c6c6572206973206e6f7420746865206f776e6572600082015250565b7f526565746972627574696f6e206d75737420626520657175616c20746f20313060008201527f3025000000000000000000000000000000000000000000000000000000000000602082015250565b7f416464726573733a2063616c6c20746f206e6f6e2d636f6e7472616374000000600082015250565b7f43616e2774207769746864726177203000000000000000000000000000000000600082015250565b7f5361666545524332303a204552433230206f7065726174696f6e20646964206e60008201527f6f74207375636365656400000000000000000000000000000000000000000000602082015250565b7f4175746f20726566756e642044656c61792063616e277420626520617320686960008201527f6768000000000000000000000000000000000000000000000000000000000000602082015250565b620044348162003f3c565b81146200444057600080fd5b50565b6200444e8162003f50565b81146200445a57600080fd5b50565b620044688162003f5c565b81146200447457600080fd5b50565b620044828162003f90565b81146200448e57600080fd5b50565b6200449c8162003f9a565b8114620044a857600080fd5b5056fe608060405260405162000f5b38038062000f5b833981810160405281019062000029919062000563565b6200003d828260006200004560201b60201c565b5050620009c5565b62000056836200014c60201b60201c565b8273ffffffffffffffffffffffffffffffffffffffff167f1cf3b03a6cf19fa2baba4df148e9dcabedea7f8a5c07840e207e5c089be95d3e60405160405180910390a2600082511180620000a75750805b156200014757620001458373ffffffffffffffffffffffffffffffffffffffff16635c60da1b6040518163ffffffff1660e01b815260040160206040518083038186803b158015620000f857600080fd5b505afa1580156200010d573d6000803e3d6000fd5b505050506040513d601f19601f8201168201806040525081019062000133919062000537565b83620002fb60201b620000371760201c565b505b505050565b62000162816200033160201b620000641760201c565b620001a4576040517f08c379a00000000000000000000000000000000000000000000000000000000081526004016200019b90620006e7565b60405180910390fd5b6200023b8173ffffffffffffffffffffffffffffffffffffffff16635c60da1b6040518163ffffffff1660e01b815260040160206040518083038186803b158015620001ef57600080fd5b505afa15801562000204573d6000803e3d6000fd5b505050506040513d601f19601f820116820180604052508101906200022a919062000537565b6200033160201b620000641760201c565b6200027d576040517f08c379a000000000000000000000000000000000000000000000000000000000815260040162000274906200072b565b60405180910390fd5b80620002b77fa3f0ad74e5423aebfd80d3ef4346578335a9a72aeaee59ff6cb3582b35133d5060001b6200035460201b620000871760201c565b60000160006101000a81548173ffffffffffffffffffffffffffffffffffffffff021916908373ffffffffffffffffffffffffffffffffffffffff16021790555050565b606062000329838360405180606001604052806027815260200162000f34602791396200035e60201b60201c565b905092915050565b6000808273ffffffffffffffffffffffffffffffffffffffff163b119050919050565b6000819050919050565b606062000371846200033160201b60201c565b620003b3576040517f08c379a0000000000000000000000000000000000000000000000000000000008152600401620003aa9062000709565b60405180910390fd5b6000808573ffffffffffffffffffffffffffffffffffffffff1685604051620003dd9190620006aa565b600060405180830381855af49150503d80600081146200041a576040519150601f19603f3d011682016040523d82523d6000602084013e6200041f565b606091505b5091509150620004378282866200044260201b60201c565b925050509392505050565b606083156200045457829050620004a7565b600083511115620004685782518084602001fd5b816040517f08c379a00000000000000000000000000000000000000000000000000000000081526004016200049e9190620006c3565b60405180910390fd5b9392505050565b6000620004c5620004bf8462000776565b6200074d565b905082815260208101848484011115620004de57600080fd5b620004eb84828562000812565b509392505050565b6000815190506200050481620009ab565b92915050565b600082601f8301126200051c57600080fd5b81516200052e848260208601620004ae565b91505092915050565b6000602082840312156200054a57600080fd5b60006200055a84828501620004f3565b91505092915050565b600080604083850312156200057757600080fd5b60006200058785828601620004f3565b925050602083015167ffffffffffffffff811115620005a557600080fd5b620005b3858286016200050a565b9150509250929050565b6000620005ca82620007ac565b620005d68185620007c2565b9350620005e881856020860162000812565b80840191505092915050565b60006200060182620007b7565b6200060d8185620007cd565b93506200061f81856020860162000812565b6200062a81620008ad565b840191505092915050565b600062000644602583620007cd565b91506200065182620008be565b604082019050919050565b60006200066b602683620007cd565b915062000678826200090d565b604082019050919050565b600062000692603083620007cd565b91506200069f826200095c565b604082019050919050565b6000620006b88284620005bd565b915081905092915050565b60006020820190508181036000830152620006df8184620005f4565b905092915050565b60006020820190508181036000830152620007028162000635565b9050919050565b6000602082019050818103600083015262000724816200065c565b9050919050565b60006020820190508181036000830152620007468162000683565b9050919050565b6000620007596200076c565b905062000767828262000848565b919050565b6000604051905090565b600067ffffffffffffffff8211156200079457620007936200087e565b5b6200079f82620008ad565b9050602081019050919050565b600081519050919050565b600081519050919050565b600081905092915050565b600082825260208201905092915050565b6000620007eb82620007f2565b9050919050565b600073ffffffffffffffffffffffffffffffffffffffff82169050919050565b60005b838110156200083257808201518184015260208101905062000815565b8381111562000842576000848401525b50505050565b6200085382620008ad565b810181811067ffffffffffffffff821117156200087557620008746200087e565b5b80604052505050565b7f4e487b7100000000000000000000000000000000000000000000000000000000600052604160045260246000fd5b6000601f19601f8301169050919050565b7f455243313936373a206e657720626561636f6e206973206e6f74206120636f6e60008201527f7472616374000000000000000000000000000000000000000000000000000000602082015250565b7f416464726573733a2064656c65676174652063616c6c20746f206e6f6e2d636f60008201527f6e74726163740000000000000000000000000000000000000000000000000000602082015250565b7f455243313936373a20626561636f6e20696d706c656d656e746174696f6e206960008201527f73206e6f74206120636f6e747261637400000000000000000000000000000000602082015250565b620009b681620007de565b8114620009c257600080fd5b50565b61055f80620009d56000396000f3fe6080604052366100135761001161001d565b005b61001b61001d565b005b610025610091565b610035610030610093565b61011f565b565b606061005c838360405180606001604052806027815260200161050360279139610145565b905092915050565b6000808273ffffffffffffffffffffffffffffffffffffffff163b119050919050565b6000819050919050565b565b600061009d610212565b73ffffffffffffffffffffffffffffffffffffffff16635c60da1b6040518163ffffffff1660e01b815260040160206040518083038186803b1580156100e257600080fd5b505afa1580156100f6573d6000803e3d6000fd5b505050506040513d601f19601f8201168201806040525081019061011a91906102e5565b905090565b3660008037600080366000845af43d6000803e8060008114610140573d6000f35b3d6000fd5b606061015084610064565b61018f576040517f08c379a0000000000000000000000000000000000000000000000000000000008152600401610186906103d4565b60405180910390fd5b6000808573ffffffffffffffffffffffffffffffffffffffff16856040516101b7919061039b565b600060405180830381855af49150503d80600081146101f2576040519150601f19603f3d011682016040523d82523d6000602084013e6101f7565b606091505b5091509150610207828286610269565b925050509392505050565b60006102407fa3f0ad74e5423aebfd80d3ef4346578335a9a72aeaee59ff6cb3582b35133d5060001b610087565b60000160009054906101000a900473ffffffffffffffffffffffffffffffffffffffff16905090565b60608315610279578290506102c9565b60008351111561028c5782518084602001fd5b816040517f08c379a00000000000000000000000000000000000000000000000000000000081526004016102c091906103b2565b60405180910390fd5b9392505050565b6000815190506102df816104eb565b92915050565b6000602082840312156102f757600080fd5b6000610305848285016102d0565b91505092915050565b6000610319826103f4565b610323818561040a565b9350610333818560208601610458565b80840191505092915050565b600061034a826103ff565b6103548185610415565b9350610364818560208601610458565b61036d8161048b565b840191505092915050565b6000610385602683610415565b91506103908261049c565b604082019050919050565b60006103a7828461030e565b915081905092915050565b600060208201905081810360008301526103cc818461033f565b905092915050565b600060208201905081810360008301526103ed81610378565b9050919050565b600081519050919050565b600081519050919050565b600081905092915050565b600082825260208201905092915050565b600061043182610438565b9050919050565b600073ffffffffffffffffffffffffffffffffffffffff82169050919050565b60005b8381101561047657808201518184015260208101905061045b565b83811115610485576000848401525b50505050565b6000601f19601f8301169050919050565b7f416464726573733a2064656c65676174652063616c6c20746f206e6f6e2d636f60008201527f6e74726163740000000000000000000000000000000000000000000000000000602082015250565b6104f481610426565b81146104ff57600080fd5b5056fe416464726573733a206c6f772d6c6576656c2064656c65676174652063616c6c206661696c6564a2646970667358221220156153700ed8d760ca956d418df233ea6b90327fb3232516b80079df03f5709164736f6c63430008040033416464726573733a206c6f772d6c6576656c2064656c65676174652063616c6c206661696c6564a2646970667358221220c58c1051cbeaec2e6b466c1a671ebfe5ec2f5e17fcf0dbe57eb1a5f26d0940b464736f6c6343000804003360a06040523480156200001157600080fd5b506040516200175d3803806200175d8339818101604052810190620000379190620002c2565b6200006b7f8e86d05a8ba65ec11abd09b33eb812b6c199ad9da19b14cb9627cdbc2a483c2560001b6200029a60201b60201c565b6200009e7ecb823d552b0906ecf5c716b529a4a0efd18e728a3e30e38adc96151f7ad90d60001b6200029a60201b60201c565b620000d27f243d09ec1aa1e38e5c57af746a2ad49daba16f3fc81bffb3f33624b17956a1b860001b6200029a60201b60201c565b81604051620000e1906200029d565b620000ed919062000314565b604051809103906000f0801580156200010a573d6000803e3d6000fd5b5073ffffffffffffffffffffffffffffffffffffffff1660808173ffffffffffffffffffffffffffffffffffffffff1660601b81525050620001757f25d72feffc7d852d39a1ee5d852200b63faaace8bf09e6acf7f684b5e63aa00360001b6200029a60201b60201c565b620001a97fc09a16c9a19b302147871ce046beafa75ec55f1111a7ab572070ed3688a94b1860001b6200029a60201b60201c565b816000806101000a81548173ffffffffffffffffffffffffffffffffffffffff021916908373ffffffffffffffffffffffffffffffffffffffff1602179055506200021d7f39d291ad112a11c09ac139a7cf12b9e5aa92fe8f7b19e4fa4e091c82954a4cc560001b6200029a60201b60201c565b620002517f8546480dc8dcc0ab660fcb3fbfd0b8f1e058874b682b510e180158fea1ed37af60001b6200029a60201b60201c565b80600160006101000a81548173ffffffffffffffffffffffffffffffffffffffff021916908373ffffffffffffffffffffffffffffffffffffffff16021790555050506200037f565b50565b6109be8062000d9f83390190565b600081519050620002bc8162000365565b92915050565b60008060408385031215620002d657600080fd5b6000620002e685828601620002ab565b9250506020620002f985828601620002ab565b9150509250929050565b6200030e8162000331565b82525050565b60006020820190506200032b600083018462000303565b92915050565b60006200033e8262000345565b9050919050565b600073ffffffffffffffffffffffffffffffffffffffff82169050919050565b620003708162000331565b81146200037c57600080fd5b50565b60805160601c6109fa620003a5600039600081816102f101526106e201526109fa6000f3fe608060405234801561001057600080fd5b50600436106100575760003560e01c80631c1b87721461005c5780632af4c31e146100785780635c60da1b146100945780638da5cb5b146100b2578063c5557f3f146100d0575b600080fd5b61007660048036038101906100719190610882565b6100ee565b005b610092600480360381019061008d9190610882565b610415565b005b61009c61065a565b6040516100a99190610906565b60405180910390f35b6100ba610783565b6040516100c79190610906565b60405180910390f35b6100d8610831565b6040516100e59190610906565b60405180910390f35b61011a7f2b75ce8d3a911821d87152f7aef4e6a9b50a533af9b715b18c484e9d9595441a60001b610855565b6101467f2502dc3c7c3fe37fdfb6f7f68a72a89d4e763bd79dad3d21fc5b4fdff7ad86d860001b610855565b6101727fdd4ccb05062c8ac64ebc0967d6f850a62509bff0b4ed574de9558fcb0c537a5a60001b610855565b61019e7fc80d17da548ecabcad2d19601b4ee1fbf84c0cfc6fca6cde7232528cea2f20d060001b610855565b6101a6610783565b73ffffffffffffffffffffffffffffffffffffffff163373ffffffffffffffffffffffffffffffffffffffff1614610213576040517f08c379a000000000000000000000000000000000000000000000000000000000815260040161020a90610921565b60405180910390fd5b61023f7f68db90237810bf92b6d6343e98898c29071d98f9d73e694b14972c75bf99667460001b610855565b61026b7f2940d7ab0c88bf0a0af2309a4038b01ce2db867ee89cb02913142cc4f987fac760001b610855565b6102977faef2ece635e4078f85a93d666663449bf8c9aa1a5f58c1f3c5283d01baf41e2060001b610855565b6102c37f60ac36ef2deae01afb4ee1ecc273249f6f4b159cf7b5215351e930fad4beee4160001b610855565b6102ef7f18b0015b8dcabbcdba98c77ca299093971489abcc098316c27c9cdaea8d5ba8c60001b610855565b7f000000000000000000000000000000000000000000000000000000000000000073ffffffffffffffffffffffffffffffffffffffff16633659cfe6826040518263ffffffff1660e01b81526004016103489190610906565b600060405180830381600087803b15801561036257600080fd5b505af1158015610376573d6000803e3d6000fd5b505050506103a67f665f0bebfcfc8b2f46051e7f6156660c09cd892b9c2c65b5e95728897c8e56b560001b610855565b6103d27f7d590abb0a97a67b2e135ebd487d64ba201acd9ec5e5c5cae5a21d3850a5d5b660001b610855565b806000806101000a81548173ffffffffffffffffffffffffffffffffffffffff021916908373ffffffffffffffffffffffffffffffffffffffff16021790555050565b6104417f2b75ce8d3a911821d87152f7aef4e6a9b50a533af9b715b18c484e9d9595441a60001b610855565b61046d7f2502dc3c7c3fe37fdfb6f7f68a72a89d4e763bd79dad3d21fc5b4fdff7ad86d860001b610855565b6104997fdd4ccb05062c8ac64ebc0967d6f850a62509bff0b4ed574de9558fcb0c537a5a60001b610855565b6104c57fc80d17da548ecabcad2d19601b4ee1fbf84c0cfc6fca6cde7232528cea2f20d060001b610855565b6104cd610783565b73ffffffffffffffffffffffffffffffffffffffff163373ffffffffffffffffffffffffffffffffffffffff161461053a576040517f08c379a000000000000000000000000000000000000000000000000000000000815260040161053190610921565b60405180910390fd5b6105667f68db90237810bf92b6d6343e98898c29071d98f9d73e694b14972c75bf99667460001b610855565b6105927f2940d7ab0c88bf0a0af2309a4038b01ce2db867ee89cb02913142cc4f987fac760001b610855565b6105be7f6dcbd377c0f3110edb35e319abb20dadee9f59453a2a8357da7b699395165af260001b610855565b6105ea7fc0e7433a34f9a83fe26f36bd1d4c03fafe6ba8078be7f74ab38724b38f15493160001b610855565b6106167fcc0e69ad0842ff47c014338f0bbcd4b10acacf98557e4fa7f8aa55e4f2e29c9260001b610855565b80600160006101000a81548173ffffffffffffffffffffffffffffffffffffffff021916908373ffffffffffffffffffffffffffffffffffffffff16021790555050565b60006106887f86e3fc601d6cea73a2535ab638de2fa40cef8be44d640b9de35a34087eb5799060001b610855565b6106b47fd4f6522a6916e15daefd4c9733fc608400f24696301317751fe623d9e31c787760001b610855565b6106e07fdf2c71ddb68c2562bf3169c9e7418a12989b3c4d00a20bc685ab0eb802c41d2f60001b610855565b7f000000000000000000000000000000000000000000000000000000000000000073ffffffffffffffffffffffffffffffffffffffff16635c60da1b6040518163ffffffff1660e01b815260040160206040518083038186803b15801561074657600080fd5b505afa15801561075a573d6000803e3d6000fd5b505050506040513d601f19601f8201168201806040525081019061077e91906108ab565b905090565b60006107b17f80491e5784b214e69aca15a854f4cf43662fd3a88f51f11f9a068b21c59dd4ed60001b610855565b6107dd7f86b006bc272033b576afe7bbaaf5fc45ea55913637f833b86059e989ab779a5560001b610855565b6108097f65206ffaab907d181a4f2eff3b52bd9f3aff9a6601f232e1576710ae6331e81460001b610855565b600160009054906101000a900473ffffffffffffffffffffffffffffffffffffffff16905090565b60008054906101000a900473ffffffffffffffffffffffffffffffffffffffff1681565b50565b600081359050610867816109ad565b92915050565b60008151905061087c816109ad565b92915050565b60006020828403121561089457600080fd5b60006108a284828501610858565b91505092915050565b6000602082840312156108bd57600080fd5b60006108cb8482850161086d565b91505092915050565b6108dd81610952565b82525050565b60006108f0600e83610941565b91506108fb82610984565b602082019050919050565b600060208201905061091b60008301846108d4565b92915050565b6000602082019050818103600083015261093a816108e3565b9050919050565b600082825260208201905092915050565b600061095d82610964565b9050919050565b600073ffffffffffffffffffffffffffffffffffffffff82169050919050565b7f4f6e6c7920666f72204f776e6572000000000000000000000000000000000000600082015250565b6109b681610952565b81146109c157600080fd5b5056fea26469706673582212206a5237a320965916bfec2db903a5f57aac871d5435205428d7de79badbd0044164736f6c63430008040033608060405234801561001057600080fd5b506040516109be3803806109be833981810160405281019061003291906101fd565b61004e61004361006360201b60201c565b61006b60201b60201c565b61005d8161012f60201b60201c565b50610312565b600033905090565b60008060009054906101000a900473ffffffffffffffffffffffffffffffffffffffff169050816000806101000a81548173ffffffffffffffffffffffffffffffffffffffff021916908373ffffffffffffffffffffffffffffffffffffffff1602179055508173ffffffffffffffffffffffffffffffffffffffff168173ffffffffffffffffffffffffffffffffffffffff167f8be0079c531659141344cd1fd0a4f28419497f9722a3daafe3b4186f6b6457e060405160405180910390a35050565b610142816101c560201b61021c1760201c565b610181576040517f08c379a000000000000000000000000000000000000000000000000000000000815260040161017890610249565b60405180910390fd5b80600160006101000a81548173ffffffffffffffffffffffffffffffffffffffff021916908373ffffffffffffffffffffffffffffffffffffffff16021790555050565b6000808273ffffffffffffffffffffffffffffffffffffffff163b119050919050565b6000815190506101f7816102fb565b92915050565b60006020828403121561020f57600080fd5b600061021d848285016101e8565b91505092915050565b6000610233603383610269565b915061023e826102ac565b604082019050919050565b6000602082019050818103600083015261026281610226565b9050919050565b600082825260208201905092915050565b60006102858261028c565b9050919050565b600073ffffffffffffffffffffffffffffffffffffffff82169050919050565b7f5570677261646561626c65426561636f6e3a20696d706c656d656e746174696f60008201527f6e206973206e6f74206120636f6e747261637400000000000000000000000000602082015250565b6103048161027a565b811461030f57600080fd5b50565b61069d806103216000396000f3fe608060405234801561001057600080fd5b50600436106100575760003560e01c80633659cfe61461005c5780635c60da1b14610078578063715018a6146100965780638da5cb5b146100a0578063f2fde38b146100be575b600080fd5b6100766004803603810190610071919061042a565b6100da565b005b610080610131565b60405161008d91906104cb565b60405180910390f35b61009e61015b565b005b6100a861016f565b6040516100b591906104cb565b60405180910390f35b6100d860048036038101906100d3919061042a565b610198565b005b6100e261023f565b6100eb816102bd565b8073ffffffffffffffffffffffffffffffffffffffff167fbc7cd75a20ee27fd9adebab32041f755214dbc6bffa90cc0225b39da2e5c2d3b60405160405180910390a250565b6000600160009054906101000a900473ffffffffffffffffffffffffffffffffffffffff16905090565b61016361023f565b61016d6000610349565b565b60008060009054906101000a900473ffffffffffffffffffffffffffffffffffffffff16905090565b6101a061023f565b600073ffffffffffffffffffffffffffffffffffffffff168173ffffffffffffffffffffffffffffffffffffffff161415610210576040517f08c379a0000000000000000000000000000000000000000000000000000000008152600401610207906104e6565b60405180910390fd5b61021981610349565b50565b6000808273ffffffffffffffffffffffffffffffffffffffff163b119050919050565b61024761040d565b73ffffffffffffffffffffffffffffffffffffffff1661026561016f565b73ffffffffffffffffffffffffffffffffffffffff16146102bb576040517f08c379a00000000000000000000000000000000000000000000000000000000081526004016102b290610526565b60405180910390fd5b565b6102c68161021c565b610305576040517f08c379a00000000000000000000000000000000000000000000000000000000081526004016102fc90610506565b60405180910390fd5b80600160006101000a81548173ffffffffffffffffffffffffffffffffffffffff021916908373ffffffffffffffffffffffffffffffffffffffff16021790555050565b60008060009054906101000a900473ffffffffffffffffffffffffffffffffffffffff169050816000806101000a81548173ffffffffffffffffffffffffffffffffffffffff021916908373ffffffffffffffffffffffffffffffffffffffff1602179055508173ffffffffffffffffffffffffffffffffffffffff168173ffffffffffffffffffffffffffffffffffffffff167f8be0079c531659141344cd1fd0a4f28419497f9722a3daafe3b4186f6b6457e060405160405180910390a35050565b600033905090565b60008135905061042481610650565b92915050565b60006020828403121561043c57600080fd5b600061044a84828501610415565b91505092915050565b61045c81610557565b82525050565b600061046f602683610546565b915061047a82610589565b604082019050919050565b6000610492603383610546565b915061049d826105d8565b604082019050919050565b60006104b5602083610546565b91506104c082610627565b602082019050919050565b60006020820190506104e06000830184610453565b92915050565b600060208201905081810360008301526104ff81610462565b9050919050565b6000602082019050818103600083015261051f81610485565b9050919050565b6000602082019050818103600083015261053f816104a8565b9050919050565b600082825260208201905092915050565b600061056282610569565b9050919050565b600073ffffffffffffffffffffffffffffffffffffffff82169050919050565b7f4f776e61626c653a206e6577206f776e657220697320746865207a65726f206160008201527f6464726573730000000000000000000000000000000000000000000000000000602082015250565b7f5570677261646561626c65426561636f6e3a20696d706c656d656e746174696f60008201527f6e206973206e6f74206120636f6e747261637400000000000000000000000000602082015250565b7f4f776e61626c653a2063616c6c6572206973206e6f7420746865206f776e6572600082015250565b61065981610557565b811461066457600080fd5b5056fea26469706673582212202338b0d6c7b55cef16dee06fd64cb14086dd2401987ecc08bdc88a3e2313ae6564736f6c63430008040033",
  "linkReferences": {},
  "deployedLinkReferences": {}
}